:020000040800F2
:10000000D02F0020450700081B0300081D0300082F
:100010002103000825030008290300080000000050
:100020000000000000000000000000002D03000898
:100030002F0300080000000031030008330300080C
:100040005F0700085F0700085F0700085F070008F8
:100050005F0700085F0700085F0700085F070008E8
:100060005F0700085F0700085F0700085F070008D8
:100070005F0700085F0700085F0700085F070008C8
:100080005F0700085F0700085F0700085F070008B8
:100090005F0700085F0700085F0700085F070008A8
:1000A0005F0700085F0700085F0700085F07000898
:1000B0005F0700085F0700085F0700085F07000888
:1000C0005F0700085F0700085F0700085F07000878
:1000D0005F070008272E00085F0700085F07000879
:1000E0005F0700085F0700085F0700085F07000858
:1000F0005F0700085F0700085F0700085F07000848
:100100005F0700085F0700085F0700085F07000837
:100110005F0700085F0700085F0700085F07000827
:100120005F0700085F0700085F0700085F07000817
:100130005F0700085F0700085F0700085F07000807
:100140005F0700085F0700085F0700085F070008F7
:100150005F0700085F0700085F0700085F070008E7
:100160005F0700085F0700085F0700085F070008D7
:100170005F0700085F0700085F0700085F070008C7
:100180005F0700085F07000800F002F800F0B6F80B
:100190000AA090E8000C82448344AAF10107DA45E2
:1001A00001D100F0ABF8AFF2090EBAE80F0013F07E
:1001B000010F18BFFB1A43F0010318476C630000DE
:1001C0008C63000010F8013B0A4413F0030408BFDD
:1001D00010F8014B1D1108BF10F8015B641E05D01B
:1001E00010F8016B641E01F8016BF9D1002D15D0D8
:1001F00010F8014B03F00C030C2BA1EB04040ABF15
:1002000010F8013BA4EB8314A4EB032405F10103D4
:1002100014F8016B5B1E01F8016BF9D5914238BFF0
:1002200010F8013BD1D3704700230024002500269D
:10023000103A28BF78C1FBD8520728BF30C148BF49
:100240000B6070476E2904F01184702904F07B85DF
:10025000662905F0C286652905F0BF86672905F085
:10026000BC86612905F0BB8603681B0A28BF41F0E4
:100270008001692904F06482642904F0618275298F
:1002800004F05E826F2904F00985782904F047851F
:10029000E92904F0A384E42904F0A084F52904F0FA
:1002A0009D84EF2904F00685F82904F0468503684B
:1002B000DB0928BF41F08001632904F0128473290F
:1002C00004F01784E32905F02381F32905F0288140
:1002D000002070471FB505F07BFE05F077F904009C
:1002E0000020002105F05EFE401C6060002000211F
:1002F00005F042FEE0601FBD10B510BD05F038F9F5
:100300001146FFF7E7FF00F08FF805F011FA03B48C
:10031000FFF7F2FF03BC02F023FD704700BFFEE7CA
:1003200000BFFEE700BFFEE700BFFEE77047704773
:10033000704710B503F04AF803F051F810BD000003
:1003400061480088401C6049088008460088B0F574
:100350007A7F08D15D480078401C40B25B49087044
:10036000002059490880594800783C2807D158484E
:100370000078401C564908700020544908705448C1
:1003800000783C2807D153480078401C5149087038
:1003900000204F49087070470EB54B480088009008
:1003A0004A4890F900304A4802784A4801784AA001
:1003B00004F090F954A20021084603F0DAFD424807
:1003C0000088424991F90010414A1278CDE9002194
:1003D00002904048037847A20121002003F0C9FDA4
:1003E0000EBD70B504460D46E9B2E0B24AF655526C
:1003F00003F030FD70BDF8B5002400BF10E0E0B29E
:1004000003F092F90546E0B203F089F90646A01C14
:10041000C1B233463FA20020009503F0AAFD641C40
:10042000062CECDBF8BD704702F0A4FF03F022F9C4
:1004300002F014FD4FF4E13002F09FFC00231A4655
:100440004FF6FF71022003F0BCFB00227D213348F0
:1004500002F03AFE324803F07DF942F2B821012061
:1004600004F0F2F82FE002F0C9FF2E490968884233
:1004700003D002F0C3FF2B49086002F0C2FF2A49F3
:10048000096888421FD002F0BCFF2749086002F0CB
:1004900070FDFFF755FF244800683221B0FBF1F2F0
:1004A00001FB120003280ED103F0B8FCFFF774FF24
:1004B000FFF7B9FFFFF79FFF03F0E1FD03F0E6F858
:1004C0001AA004F007F9CEE71C1000201910002034
:1004D000181000201A1000204D43552073657276C5
:1004E000696E672074696D6528683A6D3A733A6D74
:1004F000732920202564203A202564203A20256491
:10050000203A202564200A0028683A6D3A733A6D33
:1005100073292000256420202564000064630008FE
:100520005C600008241000202010002054657374C3
:10053000000000000CB50020019000907648006893
:1005400040F480307449086000BF7348006800F4CC
:10055000003000900198401C0190009818B9019853
:10056000B0F5A04FF1D16C48006800F4003010B134
:100570000120009001E0002000900098012846D161
:1005800065484030006840F0805063494031086061
:100590006248006840F44040604908605E480830A6
:1005A00000685D49083108600846006840F4004072
:1005B00008600846006840F4A05008605848091FC9
:1005C0000860081F006840F08070091F086000BFC5
:1005D0005148006800F000700028F9D040F2057022
:1005E000504908604C480830006820F003004A4930
:1005F000083108600846006840F00200086000BF4B
:1006000045480830006800F00C000828F8D10CBDFF
:1006100010B54548006840F47000434908603E4802
:10062000006840F001003C49086000203A49083168
:100630000860394800683D490840374908603C482F
:10064000091D0860081F006820F48020091F086049
:10065000002031490C310860FFF76CFF4FF000605B
:1006600031498039086010BD70B500200022022396
:1006700000240221284D08352D6805F00C0020B11A
:10068000042806D0082834D107E02A4D2A4E3560C8
:1006900033E02A4D284E35602FE01F4D2D1D2D686B
:1006A000C5F380541C4D2D1D2D6805F03F0154B13C
:1006B000224DB5FBF1F5184E361D3668C6F3881687
:1006C00005FB06F209E01B4DB5FBF1F5124E361D98
:1006D0003668C6F3881605FB06F20F4D2D1D2D68F2
:1006E000C5F301456D1C6B00B2FBF3F5124E35608E
:1006F00003E0104D104E356000BF00BF064D0835B9
:100700002D68C5F303150E4E705D0B4D2D68C54069
:10071000094E356070BD0000003802400070004096
:1007200008544007003C024088ED00E0FFFFF6FE61
:10073000103000240024F4002810002000127A0059
:100740002C1000200948804709480047FEE7FEE7D3
:10075000FEE7FEE7FEE7FEE7FEE7FEE7FEE7FEE771
:1007600004480549054A064B704700001106000879
:1007700089010008D0290020D02F0020D02B002094
:10078000D02B002032490143324A1160704770B5C6
:10079000002100230F22C4781CB32E4C246804F4DB
:1007A000E064C4F5E064C4F30721C1F10404E3B2DA
:1007B0000A4144789C40E1B28478144021430C07FC
:1007C000210E254C05786155047804F01F0501249D
:1007D000AC4005786D11AD0005F1E025C5F800418C
:1007E00009E0047804F01F050124AC401B4D067895
:1007F000761145F8264070BD194A0A400243154B50
:100800001B1F1A60704739B1124A121D1268024349
:10081000104B1B1D1A6006E00E4A121D126882431F
:100820000C4B1B1D1A607047042808D14FF0E021C3
:10083000096941F004014FF0E022116107E04FF037
:10084000E021096921F004014FF0E02211617047B5
:100850000000FA050CED00E000E400E080E100E0BB
:1008600080FFFF1FFE4A1070704730B1FC490968D5
:1008700041F48071FA4A116005E0F949096821F4F0
:100880008071F74A1160704730B1F549096841F449
:100890000071F34A116005E0F149096821F4007123
:1008A000EF4A1160704730B1ED49096841F4806149
:1008B000EB4A116005E0EA49096821F48061E84AE1
:1008C00011607047E648006840F40060E449086041
:1008D0007047E348006840F48050E1490860704781
:1008E000DF481030006800F0004028B1DD48DC49E6
:1008F000091D0860DC4808607047D948103000685E
:1009000040F00040D6491031086070470920D449B2
:100910000C31096801F48031B1F5803F01D101202B
:1009200020E0CF490C31096801F0100109B106201F
:1009300018E0CB490C31096801F4807109B102203B
:1009400010E0C7490C31096801F0EF0109B1072037
:1009500008E0C3490C31096801F0020109B108201F
:1009600000E00920704708B509200090FFF7CEFF8E
:10097000009002E0FFF7CAFF00909DF800000128F8
:10098000F8D09DF8000008BD70B504460A46002660
:10099000092502B909E0012A01D1160205E0022A5F
:1009A00001D1160201E04FF44076FFF7DCFF054667
:1009B000092D2DD1AA481030006820F44070A849B4
:1009C0001031086008460068304308600846006837
:1009D00020F0F80008600846006844F0020108436F
:1009E0009F49103108600846006840F48030086074
:1009F000FFF7B9FF05469A481030006820F0020062
:100A00009749103108600846006820F0F800086037
:100A1000284670BD30B5024600250924FFF7A3FF24
:100A2000044602B909E0012A01D1150205E0022AB3
:100A300001D1150201E04FF44075092C20D18848FE
:100A40001030006820F44070854910310860084675
:100A50000068284308600846006840F00400086009
:100A60000846006840F480300860FFF77CFF0446C9
:100A70007B481030006820F004007949103108608C
:100A8000204630BD30B5024600250924FFF76BFF34
:100A9000044602B909E0012A01D1150205E0022A43
:100AA00001D1150201E04FF44075092C20D16C48AA
:100AB0001030006820F44070694910310860084621
:100AC0000068284308600846006840F00400086099
:100AD0000846006840F480300860FFF744FF044691
:100AE0005F481030006820F004005D491031086054
:100AF000204630BD30B5024600250924FFF733FFFC
:100B0000044602B909E0012A01D1150205E0022AD2
:100B100001D1150201E04FF44075092C20D1504855
:100B20001030006820F440704D49103108600846CC
:100B30000068284308600846006840F400400860E8
:100B40000846006840F480300860FFF70CFF044658
:100B500043481030006820F40040414910310860DB
:100B6000204630BD70B5064614461D460922FFF7E3
:100B7000FAFE0246092A1ED139481030006820F4D6
:100B800040703749103108600846006840F44070F2
:100B900008600846006840F0010008603460756035
:100BA000FFF7E1FE02462E481030006820F00100F9
:100BB0002B4910310860104670BD30B502460C4616
:100BC0000925FFF7D0FE0546092D1DD12448103018
:100BD000006820F44070224910310860084600681F
:100BE00040F4007008600846006840F001000860AA
:100BF0001460FFF7B8FE054619481030006820F071
:100C00000100174910310860284630BD30B5024652
:100C10000C460925FFF7A7FE0546092D1DD11048F2
:100C20001030006820F440700D491031086008460B
:100C3000006840F4807008600846006840F00100D9
:100C400008601480FFF78FFE0546054810300068E5
:100C500020F00100024910310860284630BD000034
:100C6000003C024023016745AB89EFCD30B5024619
:100C70000C460925FFF777FE0546092D17D19B483D
:100C8000006820F4407099490860084600680860D0
:100C90000846006840F0010008601470FFF763FE2A
:100CA00005469248006820F00100904908602846F7
:100CB00030BD8E48001D006800F0010028B18C484E
:100CC0008A49083908608B48086070478748001DCA
:100CD000006840F001008549091D0860704730B583
:100CE00002460C460925FFF73EFE0546092D10D1A8
:100CF0003CB17E48801D008890437C49891D088056
:100D000007E07A48801D008891B208437749891D21
:100D1000088030BD30B502460C460925FFF723FE9A
:100D20000546092D10D13CB170480A300088904327
:100D30006E490A31088007E06C480A30008891B299
:100D400008436A490A31088030BDFF21674AD21D35
:100D5000127802F07F0140EA0102644BDB1D1A7039
:100D6000704730B502460C460925FFF7FCFD0546E5
:100D7000092D10D144B15D48801D008891B208430F
:100D80005A49891D088006E05848801D0088904314
:100D90005649891D088030BD30B502460C460925EC
:100DA000FFF7E1FD0546092D10D144B14F480A3047
:100DB000008891B208434D490A31088006E04B484B
:100DC0000A300088904349490A31088030BD10B587
:100DD00002460924FFF7C7FD0446092C02D1434807
:100DE000401D027010BDF0B504460D46FF260927D0
:100DF000FFF7B9FD0746092F0BD13C48001D0078CD
:100E000000F00F0645EA0600104320433749091D4C
:100E10000870F0BD3549091D097821F01001334AE9
:100E2000121D1170114609780143117070472F4946
:100E3000091D097821F00C012C4A121D1170114670
:100E4000097801431170704700B509222748001D39
:100E5000007840F002002549091D0870FFF783FD66
:100E60000246104600BD2148001D0068C0F347102F
:100E700070471E48801D008870471C480A30008853
:100E800070471A48801D0088704718480A3000884B
:100E9000704700201549491D0978AA2901D0012071
:100EA00000E0002070471148001D007800F00C00A1
:100EB000704729B10D4A126802430C4B1A6004E0D6
:100EC0000A4A12688243094B1A60704701460020A3
:100ED000064A121F12680A400AB1012000E00020F1
:100EE00070470249091F086070470000103C02402B
:100EF0003B2A19087F6E5D4C10B504469848844221
:100F000008D10121084600F086FB0021012000F0F5
:100F100082FB76E09348844208D10121022000F050
:100F20007AFB0021022000F076FB6AE08E488442C2
:100F300008D10121042000F06EFB0021042000F004
:100F40006AFB5EE08948844208D10121082000F054
:100F500062FB0021082000F05EFB52E084488442DE
:100F600008D10121102000F056FB0021102000F0D4
:100F700052FB46E07F48844208D10121202000F046
:100F80004AFB0021202000F046FB3AE07A488442E8
:100F900008D10121402000F03EFB0021402000F05C
:100FA0003AFB2EE07548844208D10121802000F0F0
:100FB00032FB0021802000F02EFB22E070488442AA
:100FC00008D10121801500F026FB0021A01500F0BA
:100FD00022FB16E06B48844208D10121401500F045
:100FE0001AFB0021601500F016FB0AE066488442F7
:100FF00007D10121001500F00EFB0021201500F0A3
:101000000AFB10BDF0B50A4600210023002400BFF2
:101010003DE0012505FA01F3156805EA03049C4249
:1010200034D105684F000326BE40B54305601579ED
:101030004E00B5400668354305601579012D02D094
:101040001579022D16D185684F000326BE40B543A1
:10105000856055794E00B5408668354385604568A2
:1010600001268E40B5434560456896798E40B6B2FC
:1010700035434560C5684F000326BE40B543C56093
:10108000D5794E00B540C6683543C560491C102966
:10109000BFD3F0BD4FF6FF710160002101714171B6
:1010A0008171C171704708B54FF480320092009A87
:1010B0000A430092009AC261C161009AC261C2698A
:1010C0000092C269009208BD0246002013690B40DD
:1010D0000BB1012000E0002070470146086980B292
:1010E00070470246002053690B400BB1012000E01D
:1010F000002070470146486980B2704701837047FD
:10110000418370470AB1018300E041837047416128
:10111000704742694A4042617047F0B5002300249D
:101120004D07ED0E02FA05F3CE1000F1200555F83B
:1011300026504E07F70E0F26BE40B543CF1000F1E4
:10114000200646F82750CE1000F1200555F826500D
:1011500045EA0304CE1000F1200545F82640F0BD15
:10116000000002400004024000080240000C02405F
:10117000001002400014024000180240001C02400F
:10118000002002400024024000280240F948006884
:1011900040F00100F74908600020F6490831086076
:1011A000F4480068F4490840F2490860F348091D12
:1011B0000860F348EF4984310860F0481038091D91
:1011C0000860EC48006820F48020EA4908600020AC
:1011D000E8490C310860E7498C310860704700210C
:1011E000E44A921C117011460870704710B5014610
:1011F0000022002300204A11012A02D1DD4C23687D
:1012000008E0022A03D1DB4C7034236802E0D94C99
:101210007434236801F01F02012494401C400CB177
:10122000012000E0002010BD38B50020009000240F
:10123000002500BF3120FFF7D9FF05460098401C6C
:1012400000900098B0F5A04F01D0002DF2D03120D1
:10125000FFF7CCFF08B1012400E00024204638BD90
:1012600001460020C34A106820F0F80040EAC1009F
:1012700010607047C349086070470021BD4A703252
:1012800011701170012802D004280AD104E0012154
:10129000B84A7032117005E00521B64A70321170FB
:1012A00000E000BF00BF7047B7490860704770B5E5
:1012B000049C41EA82150126C6EB530645EA064521
:1012C000054345EA0465AB4E361D356070BDAD493A
:1012D00008667047820142EA0172A64B84331A60A5
:1012E0007047A8498866704710B5830143EA0163D7
:1012F00043EA02739F4C8834236010BDA1490867FC
:101300007047A049C864704702460020994B0833D3
:10131000186820F0EC6042EA01031843954B08334B
:101320001860704702460020924B0833186820F07E
:10133000784042EA010318438E4B08331860704727
:10134000014600208B4A0832106820F00300084351
:101350001060704787480830006800F00C00704744
:1013600001460020834A0832106820F0F00008434C
:1013700010607047014600207E4A0832106820F451
:10138000E05008431060704701460020794A083257
:10139000106820F4604040EAC10010607047F0B56A
:1013A000002100220024022500260223714F083765
:1013B0003F6807F00C0121B1042905D0082937D175
:1013C00005E0724F076036E0714F076033E0694F08
:1013D0003F1D3F68C7F38056664F3F1D3F6807F0CB
:1013E0003F036EB16A4FB7FBF3F7DFF888C10CF12A
:1013F000040CDCF800C0CCF3881C07FB0CF40CE0F8
:10140000624FB7FBF3F7DFF86CC10CF1040CDCF8AA
:1014100000C0CCF3881C07FB0CF4564F3F1D3F68FF
:10142000C7F301477F1C7D00B4FBF5F7076002E0BE
:10143000564F076000BF00BF4E4F08373F6807F0A8
:10144000F0010909534F7A5C0768D7404760494F5C
:1014500008373F6807F4E051890A4E4F7A5C4768C5
:10146000D7408760434F08373F6807F46041490B16
:10147000484F7A5C4768D740C760F0BD002100F450
:101480004072B2F5407F0AD13A4A0832116821F41D
:10149000F811414A02401143364A08321160354A78
:1014A00070321268C0F30B031A43324B70331A6068
:1014B00070473549443908607047334940390860FE
:1014C000704736490860704701460020294A8C322F
:1014D000106820F01F004A1E1043264A8C3210600C
:1014E000704701460020234A8C32106820F4F850DF
:1014F0004A1E40EA02201F4A8C32106070470146A3
:1015000000201C4A8C32106820F440100843106000
:10151000704701460020174A8C32106820F44000C2
:1015200008431060704701460020124A8C32106850
:1015300020F4403008431060704719490860704734
:1015400039B10C4A3032126802430A4B30331A6008
:1015500006E0084A303212688243064B30331A6084
:101560007047F9B1034A343212680243014B3433F5
:101570001A601CE000380240FFFFF6EA1030002439
:101580000030002000004742800E47420024F40053
:1015900000127A003C100020FFFCFF0F5C01474264
:1015A000E01147428F4A126882438E4B1A6070479F
:1015B00039B18C4A121D126802438A4B1B1D1A60F6
:1015C00006E0884A121D12688243864B1B1D1A6072
:1015D000704739B1834A0C3212680243814B0C3395
:1015E0001A6006E07F4A0C32126882437D4B0C334E
:1015F0001A60704739B17B4A103212680243794B46
:1016000010331A6006E0774A103212688243754B35
:1016100010331A60704739B1724A243A1268024393
:10162000704B243B1A6006E06E4A243A12688243EB
:101630006C4B243B1A60704739B16A4A203A1268F1
:101640000243684B203B1A6006E0664A203A126863
:101650008243644B203B1A60704739B1614A1C3A9F
:10166000126802435F4B1C3B1A6006E05D4A1C3A5D
:10167000126882435B4B1C3B1A60704739B1594A70
:10168000143A12680243574B143B1A6006E0554A5D
:10169000143A12688243534B143B1A60704739B1B5
:1016A000504A103A126802434E4B103B1A6006E053
:1016B0004C4A103A126882434A4B103B1A607047FA
:1016C00039B1484A1C3212680243464B1C331A6037
:1016D00006E0444A1C3212688243424B1C331A60B3
:1016E000704739B13F4A2032126802433D4B2033E4
:1016F0001A6006E03B4A203212688243394B20339D
:101700001A60704739B1374A243212680243354BA8
:1017100024331A6006E0334A243212688243314B84
:1017200024331A60704739B12E4A2C3212680243B2
:101730002C4B2C331A6006E02A4A2C321268824362
:10174000284B2C331A60704739B1264A3032126860
:101750000243244B30331A6006E0224A30321268CA
:101760008243204B30331A607047012808D11D494D
:101770003C31096841F008011A4A3C32116007E027
:1017800018493C31096821F00801164A3C321160C1
:10179000704739B1134A273A12780243114B273B5D
:1017A0001A7006E00F4A273A127882430D4B273B06
:1017B0001A7070470B484030006840F0807009494B
:1017C00040310860704701460020064A283A1268F6
:1017D0000A400AB1012000E0002070470149263983
:1017E000087070473438024010B50446FB48844204
:1017F00008D101218014FFF752FF0021A014FFF748
:101800004EFF3CE0F648844208D101210014FFF766
:1018100035FF00212014FFF731FF30E0F14884420A
:1018200008D10121C013FFF729FF0021E013FFF7C2
:1018300025FF24E0EC48844208D101214014FFF741
:101840002EFF00216014FFF72AFF18E0E7488442CA
:1018500009D101210805FFF722FF00214FF4801074
:10186000FFF71DFF0BE0E248844208D10121480543
:10187000FFF715FF00214FF40010FFF710FF10BD18
:1018800010B50022028802F441520B884C88234391
:101890008C882343CC8823430C8923434C892343DE
:1018A0008C892343CC8923431A430280838B4FF2D4
:1018B000FF74234083830B8A038210BD2DE9F04F10
:1018C0000025022300244FF00109002200260027F2
:1018D00094469046B0F81CA04FF2400B0AEA0B0A5F
:1018E000A0F81CA04FF0020AA0F820A0858BD1F828
:1018F00008A0BAF1020F01D100BF82E0B1F804A044
:10190000BAF1000F02D14FF0010901E04FF00209D6
:10191000DFF8E0A2DAF800A00AF4000ABAF1000F3A
:1019200009D0DFF8D0A2DAF800A02AF4000ADFF824
:10193000C4B2CBF800A0DFF8BCA20AF17C0ADAF846
:1019400000A0CAF3881CDFF8ACA20AF17C0ADAF81E
:1019500000A0CAF30278DFF89CA2AAF1040ADAF820
:1019600000A00AF03F07DFF88CA2AAF1040ADAF817
:1019700000A00AF4800ABAF5800F08D1DFF878A237
:10198000BAFBF7FA0AFB0CFABAFBF8F607E0DFF845
:101990006CA2BAFBF7FA0AFB0CFABAFBF8F6B1F83C
:1019A00006A0BAF5007F0ED14FEA162A0AEB8A0A82
:1019B0004FEA4A0AD1F808B0BAFBFBFA0AF1050A65
:1019C0001FFA8AF20FE04FEA491AB6FBFAFA0AEB5D
:1019D0008A0A4FEA4A0AD1F808B0BAFBFBFA0AF1C0
:1019E000050A1FFA8AF24FF00A0AB2FBFAF202F075
:1019F0000104A2EB040ACAF34F034FF6FF7A0AEA86
:101A00000424022B01DBFF2B01DD02230024B1F8AB
:101A100006A04AEA040A4AEA030AA0F820A0B1F89C
:101A200004A0B1F80CB04AEA0B0AB1F802B04AEAD5
:101A30000B0AB1F800B04AEA0B0A4AF4006A4AEA13
:101A400005058583BDE8F08F0021018041808180FC
:101A5000C180018141818181C1810721018270475B
:101A60000021018041808180C180022181600021AC
:101A70008181704721B1028842F04002028004E077
:101A800002884FF6BF731A400280704721B1828BE3
:101A900042F48062828304E0828B4FF6FF331A4067
:101AA0008283704702884FF2FF731A4002800288D7
:101AB0000A4302807047B1F5804F04D1028842F496
:101AC0008042028004E002884BF6FF731A400280D5
:101AD00070474FF6FF62914204D0028842F4807250
:101AE000028004E002884FF6FF631A4002807047CC
:101AF00021B1828842F00402828004E082884FF69D
:101B0000FB731A408280704721B1828842F0100234
:101B1000828004E082884FF6EF731A40828070471B
:101B200030B500220023848B4FF240052C40848383
:101B300002240484828B0C88B4F5007F01D00C88C9
:101B400014B94FF4807308E00C88B4F5407F03D0DB
:101B50000C88B4F5807F00D100238C888D892C43BC
:101B60004D882C431C4344F400642243828330BDDF
:101B70000146888970478181704721B1028842F40B
:101B80000052028004E002884DF6FF731A40028082
:101B90007047018841F4805101807047024600205F
:101BA000012901D0108B00E0908A70470146088A15
:101BB00070471AB183880B43838002E083888B438C
:101BC0008380704730B5002400230C110125A54007
:101BD000ABB2AAB185881D43858014E00030014076
:101BE00000380040003C00400034014000500140FB
:101BF000005401400838024000127A000024F4002A
:101C000085889D43858030BD0246002013890B40A6
:101C10000BB1012000E000207047CA4302817047E9
:101C2000F0B50246002000240023002501F00F0734
:101C30000126BE40B4B20B1101269E40B3B2968875
:101C400006EA03051689264016B10DB1012000E011
:101C50000020F0BD10B5002201F00F040123A340C5
:101C60009AB2D343038110BD10B50446FE488442A6
:101C700008D101210846FFF712FD00210120FFF7DE
:101C80000EFD9DE0B4F1804F08D101210846FFF719
:101C9000F5FC00210120FFF7F1FC91E0F3488442BC
:101CA00008D101210220FFF7E9FC00210220FFF703
:101CB000E5FC85E0EE48844208D101210420FFF7CD
:101CC000DDFC00210420FFF7D9FC79E0E9488442DB
:101CD00008D101210820FFF7D1FC00210820FFF7DF
:101CE000CDFC6DE0E448844208D101211020FFF7CB
:101CF000C5FC00211020FFF7C1FC61E0DF488442F1
:101D000008D101212020FFF7B9FC00212020FFF796
:101D1000B5FC55E0DA48844208D101210220FFF7E2
:101D2000BEFC00210220FFF7BAFC49E0D5488442FE
:101D300009D101210804FFF7B2FC00214FF48030E3
:101D4000FFF7ADFC3CE0D048844209D101214804B2
:101D5000FFF7A5FC00214FF40030FFF7A0FC2FE0B7
:101D6000CA48844209D101218804FFF798FC002168
:101D70004FF48020FFF793FC22E0C548844208D14D
:101D800001214020FFF77AFC00214020FFF776FC7C
:101D900016E0C048844208D101218020FFF76EFC84
:101DA00000218020FFF76AFC0AE0BB48844207D18B
:101DB00001218015FFF762FC0021A015FFF75EFCF2
:101DC00010BD00220288A84B98420ED0AC4B98421E
:101DD0000BD0B0F1804F08D0A44B984205D0A44B53
:101DE000984202D0A34B984204D14FF68F731A4009
:101DF0004B881A43A04B984207D0A04B984204D07E
:101E00004FF6FF431A400B891A4302804B68C362A6
:101E10000B880385944B984202D0994B984201D18C
:101E20008B7A03860123838270474FF0FF31416034
:101E30000021018001814180817270470185828289
:101E400070470A46002101884FF68F7319401143ED
:101E50000180704741627047C16270470146486A1D
:101E600070470146088D704721B1028842F0020296
:101E7000028004E002884FF6FD731A40028070472A
:101E800021B1028842F00402028004E002884FF689
:101E9000FB731A400280704721B1028842F0800231
:101EA000028004E002884FF67F731A400280704778
:101EB00002884FF6F7731A40028002880A430280B4
:101EC000704702884FF6FF431A40028002880A4397
:101ED0000280704721B1028842F00102028004E0D2
:101EE00002884FF6FE731A400280704770B50024D6
:101EF00000220023058C4FF6FE7635400584028CC7
:101F00008388048B4FF68F752C40B51E2C400D88AE
:101F10002C43751E2A408D892A434D882A43524DF1
:101F2000A84202D0564DA84213D14FF6F7752A4069
:101F3000CD892A434FF6FB752A408D882A434FF6F8
:101F4000FF652B404FF6FF552B400D8A2B434D8AE2
:101F50002B43838004838D684563028470BD70B514
:101F6000002400220023058C4FF6EF7635400584CF
:101F7000028C8388048B48F6FF752C404FF6FF4592
:101F80002C400D884FF6FF7606EA05252C434FF6C8
:101F9000DF752A408D8906EA05152A434D8806EA31
:101FA00005152A43304DA84202D0354DA8421DD117
:101FB0004FF67F752A40CD894FF6FF7606EA051564
:101FC0002A434FF6BF752A408D8806EA05152A4335
:101FD0004FF6FF352B404FF2FF752B400D8A06EA76
:101FE00085052B434D8A06EA85052B4383800483B0
:101FF0008D688563028470BD70B5002400220023C3
:10200000058C4FF6FF6635400584028C8388848BEF
:102010004FF68F752C404FF6FC752C400D882C43E5
:102020004FF6FF552A408D894FF6FF7606EA0525C3
:102030002A434D8806EA05252A430B4DA84202D0C3
:102040000F4DA84238D14FF2FF752A40CD894FF687
:10205000FF7606EA05252A434FF6FF352A408D888C
:1020600006EA05252A4319E000000140000400406B
:1020700000080040000C0040001000400014004028
:10208000000401400040014000440140004801407C
:1020900000180040001C0040002000404EF6FF7574
:1020A0002B404DF6FF752B400D8A06EA05152B4394
:1020B0004D8A06EA05152B43838084838D68C563AA
:1020C000028470BD70B5002200230024058C4EF6FA
:1020D000FF7635400584038C8488828B48F6FF7533
:1020E0002A404FF6FF452A400D884FF6FF7606EA54
:1020F00005252A434DF6FF752B408D8906EA0535E7
:102100002B434D8806EA05352B43FE4DA84202D0ED
:10211000FD4DA84208D14BF6FF752C400D8A4FF6B5
:10212000FF7606EA85152C43848082838D680564DA
:10213000038470BD002101804180818081608181A4
:10214000C18101824182704770B50346002000249E
:102150001846183001258D40ACB21D8CA5431D8456
:1021600009B108290AD100EB610005684FF68F76A6
:10217000354005600568154305600FE00D1FC5F388
:102180004E052844056848F6FF7635400560056829
:102190004FF6FF7606EA02263543056070BD4163BF
:1021A000704781637047C1637047016470470A4696
:1021B0000021018B4FF68F73194011430183704743
:1021C0000A460021018B48F6FF7319404FF6FF7352
:1021D00003EA02231943018370470A460021818BD9
:1021E0004FF68F7319401143818370470A460021CF
:1021F000818B48F6FF7319404FF6FF7303EA022301
:102200001943818370470A460021018B4FF6F7730B
:1022100019401143018370470A460021018B4FF298
:10222000FF7319404FF6FF7303EA0223194301833A
:1022300070470A460021818B4FF6F773194011430E
:10224000818370470A460021818B4FF2FF7319404A
:102250004FF6FF7303EA02231943818370470A464E
:102260000021018B4FF6FB73194011430183704726
:102270000A460021018B4FF6FF3319404FF6FF73DA
:1022800003EA02231943018370470A460021818B28
:102290004FF6FB7319401143818370470A460021B2
:1022A000818B4FF6FF3319404FF6FF7303EA022389
:1022B0001943818370470A460021018B4FF67F73D3
:1022C00019401143018370470A460021018BC1F375
:1022D0000E014FF6FF7303EA02231943018370478F
:1022E0000A460021818B4FF67F7319401143818389
:1022F00070470A460021818BC1F30E014FF6FF7330
:1023000003EA02231943818370470A460021018CA6
:102310004FF6FD7319401143018470470A460021AE
:10232000018C4FF6F77319401143018470470A4638
:102330000021018C4FF6DF7319404FF6FF7303EA5B
:1023400002131943018470470A460021018C4FF69D
:102350007F7319404FF6FF7303EA02131943018498
:1023600070470A460021018C4FF6FF5319404FF683
:10237000FF7303EA02231943018470470A460021D0
:10238000018C4FF2FF7319404FF6FF7303EA0223EB
:102390001943018470470A460021018C4DF6FF73F2
:1023A00019404FF6FF7303EA023319430184704763
:1023B00030B5002301248C40A3B2048C9C430484D8
:1023C000048C02FA01F5ADB22C43048430BD30B563
:1023D000002304248C40A3B2048C9C430484048C0A
:1023E00002FA01F5ADB22C43048430BD828B4FF26A
:1023F000FF331A408283828B4FF6FF7303EA012377
:102400001A4382837047F0B50C461546002100221E
:102410000026078C4EF6FF7C07EA0C070784818BA9
:10242000028C4FF6FF7707EA043640F6FF47394043
:102430004FF6FF7707EA052739434FF6FF7707EA9C
:102440000337394345F6FF773A4046F480573A431D
:1024500081830284F0BD828B4FF6F3731A4082832E
:10246000828B0A4382837047F0B50C4615460021E3
:1024700000220026078C4FF6FF6C07EA0C07078442
:10248000818B028C4FF6FF7707EA04264FF60C7714
:1024900039404FF6FF7707EA03172F4339434FF2CE
:1024A000FF573A4046F480773A4381830284F0BD77
:1024B000028B4FF2FF331A400283028B4FF6FF73F9
:1024C00003EA01231A4302837047F0B50C46154610
:1024D000002100220026078C4FF6EF7C07EA0C074C
:1024E0000784018B028C4FF6FF7707EA041640F64B
:1024F000FF4739404FF6FF7707EA033739434FF676
:10250000FF7703E0000001400004014007EA0527CF
:1025100039434FF65F773A4046F010073A4301835C
:102520000284F0BD028B4FF6F3731A400283028BD4
:102530000A4302837047F0B50C461546002100227D
:10254000068C4FF6FE773E400684018B028C4FF6D8
:102550000C7631407E1C06EA03162E4331434FF6BB
:10256000F576324044F00106324301830284F0BD27
:1025700070B505460C46208850B92389A288618829
:102580002846FFF7D8FFE1882846FFF7CBFF25E074
:10259000208804280AD12389A28861882846FFF769
:1025A00094FFE1882846FFF783FF17E0208808287A
:1025B0000AD12389A28861882846FFF755FFE18860
:1025C0002846FFF748FF09E02389A288618828464A
:1025D000FFF719FFE1882846FFF708FF70BD0021CB
:1025E00001804180012181800021C18001817047EB
:1025F0002DE9F04105460C4600260127608808B900
:10260000022600E00026A088012801D1022700E070
:1026100001272088A0B92389A28861882846FFF76E
:102620008AFFE1882846FFF77DFF23893A46314635
:102630002846FFF74AFFE1882846FFF739FF13E0F5
:102640002389A28861882846FFF73FFFE188284652
:10265000FFF72EFF23893A4631462846FFF76BFFE6
:10266000E1882846FFF75EFFBDE8F0810146486B30
:1026700070470146886B70470146C86B704701463A
:10268000086C70470A884B881A438B881A43CB889A
:102690001A430B891A434B891A438B891A43A0F8B2
:1026A000442070470021018041808180C1800181E8
:1026B00041818181704731B1B0F8442042F4004239
:1026C000A0F8442005E0B0F84420C2F30E02A0F8C0
:1026D0004420704721B1828842F00402828004E0E5
:1026E00082884FF6FB731A408280704721B182883E
:1026F00042F00102828004E082884FF6FE731A40A5
:10270000828070471AB183890B43838102E08389F9
:102710008B43838170478182704702460020138A71
:102720000B400BB1012000E000207047CA43028239
:10273000704730B50246002000230024158A05EAC0
:102740000103958905EA010413B10CB1012000E0F1
:10275000002030BDCA430282704741EA0203A0F85C
:10276000483070471AB183890B43838102E0838923
:102770008B438381704721B1828842F008028280B6
:1027800004E082884FF6F7731A408280704701890F
:102790004FF6F8721140018170470A460021018905
:1027A0004FF68F73194011430181704730B50446CD
:1027B0000D4629462046FFF7F0FF208940F007002C
:1027C000208130BD2DE9F04104460D4616461F46D6
:1027D000602D06D13B46012231462046FFF775FEAB
:1027E00005E03B46012231462046FFF7A4FE29467C
:1027F0002046FFF7D2FF208940F007002081BDE886
:10280000F08130B50C4600210189C9B24FF6FF7541
:1028100005EA0325154325432943018130BD2DE9F0
:10282000F04105460E4617469846002443463A4670
:1028300031462846FFF7E5FF2C894FF6F870044033
:1028400044F007044FF68F70044044F070042C816C
:10285000BDE8F081F0B504460D4616461F463B46DE
:10286000324629462046FFF7CCFF208940F48040BD
:102870002081F0BD82884FF68F731A408280828853
:102880000A438280704702894FF6F8731A4002812A
:1028900002890A430281704702894FF67F731A400A
:1028A000028102890A4302817047F0B50C46154641
:1028B0001E460021002200230189028B038C4FF663
:1028C000F877394021434FF6FC473A4040F2011770
:1028D0003A434FF6DD773B404FF6FF7707EA06179E
:1028E0002F433B43018102830384F0BD21B18288E1
:1028F00042F08002828004E082884FF67F731A40A3
:1029000082807047A0F850107047000010B5044650
:10291000FA48844208D101211020FEF7C0FE0021B0
:102920001020FEF7BCFE57E0F548844209D1012192
:102930004804FEF7A3FE00214FF40030FEF79EFE90
:102940004AE0F048844209D101218804FEF796FE4E
:1029500000214FF48020FEF791FE3DE0EA488442DA
:1029600009D10121C804FEF789FE00214FF400209F
:10297000FEF784FE30E0E548844209D101210805D4
:10298000FEF77CFE00214FF48010FEF777FE23E077
:10299000DF48844208D101212020FEF780FE00217B
:1029A0002020FEF77CFE17E0DA48844209D101219D
:1029B0008807FEF763FE00214FF08040FEF75EFEC1
:1029C0000AE0D548844207D101214005FEF756FEB2
:1029D00000216005FEF752FE10BD2DE9FF470546B8
:1029E0000E460024A14600BFA046B08900B100BF3A
:1029F0002C8A24F44054F08804432C82AC8941F2A0
:102A00000C608443B08831890843718908430443CA
:102A1000AC81AC8A24F44074B0890443AC8268462B
:102A2000FEF7BDFCB548854202D0B948854202D1C7
:102A3000DDF80C9001E0DDF80890A88900F4004072
:102A400040B109EBC90000EB091031684900B0FB47
:102A5000F1F707E009EBC90000EB091031688900C4
:102A6000B0FBF1F76420B7FBF0F00401200964210A
:102A700001FB1078A88900F4004040B1322000EB3F
:102A8000C800B0FBF1F000F00700044308E032207A
:102A900000EB08106421B0FBF1F000F00F000443DC
:102AA0002C81BDE8FF874FF4165101600021818021
:102AB000C18001810C21418100218181704710B5C5
:102AC00002460020108A20F470600B884C88234353
:102AD0008C882343CC8823431843108210BD0021E7
:102AE000018041808180C180704721B1828942F498
:102AF0000052828104E082894DF6FF731A40828180
:102B00007047028B02F47F420283028B0A430283E6
:102B1000704721B1828942F40042828103E08289B8
:102B2000C2F30E028281704721B1828A42F40062B0
:102B3000828204E0828A4FF2FF731A4082827047D9
:102B4000C1F308028280704701468888C0F30800FC
:102B50007047028A4FF6F0731A400282028A0A43D3
:102B60000282704721B1828942F00202828104E030
:102B700082894FF6FD731A408281704782894FF235
:102B8000FF731A40828182890A4382817047028AD8
:102B90004FF6DF731A400282028A0A4302827047AC
:102BA00021B1028A42F48042028204E0028A4BF69A
:102BB000FF731A4002827047818941F001018181CF
:102BC000704721B1828A42F00802828204E0828A40
:102BD0004FF6F7731A4082827047028BD2B202839B
:102BE000028B42EA01220283704721B1828A42F0BD
:102BF0002002828204E0828A4FF6DF731A408282CA
:102C0000704721B1828A42F01002828204E0828AF7
:102C10004FF6EF731A4082827047828A4FF6FB7339
:102C20001A408282828A0A438282704721B1828A54
:102C300042F00202828204E0828A4FF6FD731A405B
:102C4000828270471AB1838A0B43838202E0838AAF
:102C50008B4383827047F0B503460024002600258D
:102C6000002040F66A17B94200D100BF1846C1F3F0
:102C7000421401F01F06012707FA06F5012C01D1C5
:102C80000C3004E0022C01D1103000E014301AB1F5
:102C900007682F43076002E00768AF430760F0BD95
:102CA00002460020B1F5007F00D100BF13880B4021
:102CB0000BB1012000E00020704701F40072B2F572
:102CC000007F00D100BFCA430280704770B5024642
:102CD000002400230025002040F66A16B14200D1EE
:102CE00000BFC1F3421501F01F03012606FA03F3EA
:102CF000012D13D19689334017E0000000100140E8
:102D00000044004000480040004C0040005000409B
:102D10000014014000780040007C0040022D02D1E8
:102D2000168A334001E0968A33400C12012606FAD7
:102D300004F41688344013B10CB1012000E00020E7
:102D400070BD10B50022002340F66A14A14200D1E4
:102D500000BF0A1201249440A3B2DC43048010BDDA
:102D600000BF704700BF374A128802F04002002AB5
:102D7000F9D0C2B2334B9A80704710B588B0044680
:102D800001210846FEF7DCFB01211020FEF732FC92
:102D9000072209212C48FEF7C0F907220A212A48F8
:102DA000FEF7BBF94FF4C060069002208DF81C00BE
:102DB0008DF81D0000208DF81E0001208DF81F00E9
:102DC00006A92148FEF71EF902940020ADF80C0078
:102DD000ADF80E00ADF81000ADF814000C20ADF801
:102DE000120002A91748FFF7F8FD01211548FFF767
:102DF0007CFE40211348FFF760FF012240F225517D
:102E00001048FFF728FF25208DF8040003208DF8D7
:102E100005008DF8060001208DF8070001A8FDF7D8
:102E2000B6FC08B010BD10B520210648FFF738FFEA
:102E300038B104488088C4B2214604A001F04AFC9D
:102E400000BF10BD001001400000024025630000DB
:102E500010B50021B148FFF7A4F910BD1CB5002042
:102E6000AF4908804EF6E66048800220AD49087000
:102E700016E0AC480078401EA94931F8100042F233
:102E80001071484342F6631190FBF1F0A449A54A42
:102E9000127821F81200A3480078401CA14908705C
:102EA000A04800780D28E4DB9F4800F025FA0321B4
:102EB0009D4800F059F99D4800689D49B0FBF1F02C
:102EC000401E84B24FF4807000909A48038800221C
:102ED0002146924800F038FB0020974909780123E9
:102EE0006022CDE900108D49042000F048FBFFF777
:102EF000AFFF1CBD10B58F48008810B9FFF7A8FFC1
:102F00000BE08C4800888C4909784843642190FB89
:102F1000F1F421468148FFF744F910BD10B502468F
:102F20000B4600211AB1501C08B10C2A01DD00200B
:102F300010BD7B4830F8121004E0084601EBD07455
:102F4000C4F34F011800A3F10104E3B2F5D1084620
:102F5000EEE710B50446774804800088002805DDB8
:102F6000744801886D48FEF777FF01E0FFF770FFB6
:102F700010BD38B571480078002803DC704800782F
:102F8000002826DD6F480088401E6E4908800846EC
:102F90000088002878D16948007808B9012000E04D
:102FA0000020664908700846007810B1FFF7A2FFBC
:102FB00001E0FFF74DFF64480088624908805F48E0
:102FC0000078002860D15E480078401E5C49087097
:102FD0005AE05E480078002856D05D4800685D4998
:102FE000098800EB4100008800909DF90000401C1A
:102FF00020B9002055490870FFF72AFF564800887D
:10300000002805DD54480088401E534908803AE0F6
:1030100052480088504908805148008898B151486A
:10302000007808B9012000E000204E4908700846E9
:10303000007830B14A48008847490880FFF708FF08
:1030400001E0FFF757FF4648008810B14548007877
:1030500010B143480088B0B93E480088401C80B297
:103060003C4908803A49096801EB4000008800901B
:103070009DF801109DF90000FFF750FF0446FFF78F
:1030800068FFFFF737FF00BF38BD00202F490870E9
:10309000704770B505460C4605B104B970BD2848A7
:1030A00005702848048028480480012023490870BE
:1030B000FFF720FFFFF7E9FF00BFEFE7642800DD1F
:1030C00064201D49087070472DE9F04104460D4603
:1030D00016460CB9BDE8F08100201849087018495F
:1030E000087001201949087000201A4908801B48FF
:1030F0000580194805801A48068000201949087083
:1031000013480460617894F90000FFF707FF074651
:10311000FFF71FFFFFF7EEFE00BFDBE700400140B7
:10312000A02000206D10002014620008281000204C
:1031300040420F005C1000205B1000205410002063
:103140005A10002058100020561000205E10002059
:10315000601000206410002068100020661000201D
:103160006A1000206C10002070B504460D46A0883F
:10317000012804D1EAB200212068FDF7CEFFA08823
:10318000022804D1EAB201212068FDF7C6FFA08819
:10319000042804D1EAB202212068FDF7BEFFA0880E
:1031A000082804D1EAB203212068FDF7B6FFA08801
:1031B000102804D1EAB204212068FDF7AEFFA088F0
:1031C000202804D1EAB205212068FDF7A6FFA088D7
:1031D000402804D1EAB206212068FDF79EFFA088AE
:1031E000802804D1EAB207212068FDF796FFA08865
:1031F000B0F5807F04D1EAB208212068FDF78DFF89
:10320000A088B0F5007F04D1EAB209212068FDF75B
:1032100084FFA088B0F5806F04D1EAB20A2120684B
:10322000FDF77BFF70BD10B504462068C0F30901AF
:10323000002944D18012A0F5801080380B283ED29E
:10324000DFE800F0060B10151A1F24292E33380072
:1032500001210846FEF774F931E001210220FEF752
:103260006FF92CE001210420FEF76AF927E0012123
:103270000820FEF765F922E001211020FEF760F931
:103280001DE001212020FEF75BF918E0012140201C
:10329000FEF756F913E001218020FEF751F90EE008
:1032A00001210802FEF74CF909E001214802FEF76E
:1032B00047F904E001218802FEF742F900BF00BF90
:1032C00010BD2DE9FC4104460D4616461F46DDF8AB
:1032D00020802046FFF7A7FFA08800908DF80450BB
:1032E0008DF806608DF805708DF8078069462068B6
:1032F000FDF788FEBDE8FC811CB504462046FFF7BB
:1033000092FFA088009002208DF8040000208DF824
:10331000060002208DF8050000208DF807006946A0
:103320002068FDF76FFE1CBD1CB504462046FFF764
:103330007AFFA088009000208DF804008DF8060028
:1033400001208DF805008DF8070069462068FDF71B
:1033500059FE1CBD10B50446A1882068FDF7B4FED7
:1033600010BD70B504460D46A1882A462068FDF7B9
:10337000C9FE70BD30B500BF33480068334AB0FBAA
:10338000F2F1481EB0F1807F01D301201BE0481EFE
:103390004FF0E022506150170F22002807DA130780
:1033A0001D0E2B4B00F00F04241F1D5503E01307C7
:1033B0001C0E284B1C5400BF00204FF0E0229061EF
:1033C0000720106100200028D6D130BD22480068B7
:1033D00020B121480068401E1F49086070471F48FF
:1033E00000681F49884205D21C480068401C1B49E0
:1033F000086002E00020194908607047174800681B
:103400007047164800684FF47A71B0FBF1F07047CE
:103410001149086000BF104909680029FBD17047B5
:103420004FF47A700C49086000BF0B480068002810
:10343000FBD1704700B5024601E0FFF7F1FF100035
:10344000A2F10102F9D100BD2810002040420F0076
:1034500018ED00E000E400E070100020741000207F
:103460008096980010B504467048844204D101212A
:103470000846FEF7BFF866E0B4F1804F04D10121A1
:103480000846FEF7A6F85EE06948844204D10121AF
:103490000220FEF79EF856E06648844204D10121DE
:1034A0000420FEF796F84EE06348844204D10121DF
:1034B0000820FEF78EF846E06048844204D10121DE
:1034C0001020FEF786F83EE05D48844204D10121D9
:1034D0002020FEF77EF836E05A48844204D10121CC
:1034E0000220FEF787F82EE05748844204D10121DC
:1034F0000804FEF77FF826E05448844204D10121F5
:103500004804FEF777F81EE05148844204D10121B7
:103510008804FEF76FF816E04E48844204D101217A
:103520004020FEF756F80EE04B48844204D10121BA
:103530008020FEF74EF806E04848844203D101217E
:103540008015FEF746F810BD2DE9FE4307460C46F0
:1035500015461E46DDF828803846FFF783FF0196A2
:10356000ADF80880ADF80040ADF8025000208DF8AD
:103570000A0069463846FEF724FCBDE8FE832DE9C3
:10358000F04385B004460D4616461F46DDE90C891A
:10359000ADF80C90ADF80060ADF80270CDF8088081
:1035A0002248854202D02748854208D10020ADF844
:1035B0000E00ADF81000ADF81200ADF804003CB9F3
:1035C00069462846FEF792FC08212846FEF71BFEB6
:1035D000042C07D169462846FEF7C1FC082128467D
:1035E000FEF71AFE082C07D169462846FEF704FDAF
:1035F00008212846FEF71DFE0C2C07D169462846F7
:10360000FEF760FD08212846FEF71CFE0121284632
:10361000FFF751F801212846FEF73EFC012128461C
:10362000FEF758FC05B0BDE8F08300000000014043
:103630000004004000080040000C00400010004062
:1036400000140040000401400040014000440140DB
:103650000048014000180040001C004000200040CD
:1036600010B504462046FFF775FE08B9012010BDCD
:103670000020FCE710B5002405E0334951F8240090
:10368000FFF752FE641C062CF7DB10BD10B50024BA
:1036900042E02D4951F82400FFF7E2FF012813D141
:1036A0002A4830F81400294931F81410142901D09F
:1036B000012100E000210844244921F814000020E1
:1036C000234921F8140026E0204830F8140000288F
:1036D00003DD01201E4921F814001D4830F81400B4
:1036E00060B11B4830F81400142807DA184830F885
:1036F0001400401C164921F8140008E0144830F862
:103700001400142803D10020114921F814000020CE
:103710000E4921F81400641C062CBADB10BD0146CA
:103720000A4810F8110070470146094810F81100C6
:1037300070470146054830F81100142801D10120D6
:1037400070470020FCE7000078100020BA2000201D
:10375000C62000201CB504462046FFF764FDA08863
:10376000009001208DF8040000208DF80600032051
:103770008DF8050000208DF8070069462068FDF7E8
:1037800041FC0C48844204D1A18800222068FDF746
:10379000C4FC1CBD70B504460D46012D03D1A188A3
:1037A0002068FDF7ABFC1DB9A1882068FDF7A8FCD7
:1037B00070BD00005C60000800B587B0F648FFF7F8
:1037C000C9FFF648FFF7C6FFF548FFF7C3FF012121
:1037D0000220FDF7B5FE01218803FDF7FAFE4FF444
:1037E0002040009002208DF8040000208DF8060093
:1037F00003208DF8050000208DF807006946E94890
:10380000FDF700FC05220D21E648FDF786FC0522A8
:103810000F21E448FDF781FC0020ADF808004FF4CB
:103820008270ADF80A000020ADF80C000220ADF85F
:103830000E000120ADF810004002ADF8120000208B
:10384000ADF81400ADF8160002A9D748FEF718F835
:103850000121D548FEF70EF90021D348FEF78DF976
:103860000021D148FEF744F907B000BD10B5044669
:103870004FF48051CB48FDF743FC1021CB48FDF7B6
:103880003FFC00BF0221C848FEF7BEF90028F9D06E
:103890002146C548FEF76FF900BF0121C248FEF777
:1038A000B3F90028F9D0C048FEF762F94FF480510F
:1038B000BC48FDF723FC10BD10B504464FF4805101
:1038C000B848FDF71DFC1021B848FDF717FC00BFF4
:1038D0000221B548FEF798F90028F9D02146B248F0
:1038E000FEF749F900BF0121AF48FEF78DF9002826
:1038F000F9D0AD48FEF73CF94FF48051A948FDF7E7
:10390000FDFB10BD10B50120FFF7B0FF1120FFF740
:10391000ADFFB120FFF7AAFF0120FFF7CDFF2C205C
:10392000FFF7CAFF2D20FFF7C7FFB220FFF79EFF6A
:103930000120FFF7C1FF2C20FFF7BEFF2D20FFF76E
:10394000BBFFB320FFF792FF0120FFF7B5FF2C204C
:10395000FFF7B2FF2D20FFF7AFFF0120FFF7ACFF0D
:103960002C20FFF7A9FF2D20FFF7A6FFB420FFF7BB
:103970007DFF0720FFF7A0FFC020FFF777FFA22001
:10398000FFF79AFF0220FFF797FF8420FFF794FFCD
:10399000C120FFF76BFFC520FFF78EFFC220FFF7A6
:1039A00065FF0A20FFF788FF0020FFF785FFC3208F
:1039B000FFF75CFF8A20FFF77FFF2A20FFF77CFFDD
:1039C000C420FFF753FF8A20FFF776FFEE20FFF7B2
:1039D00073FFC520FFF74AFF0E20FFF76DFF36206B
:1039E000FFF744FFC820FFF767FFE020FFF73EFF27
:1039F0000220FFF761FF1C20FFF75EFF0720FFF7A3
:103A00005BFF1220FFF758FF3720FFF755FF3220EA
:103A1000FFF752FF2920FFF74FFF2D20FFF74CFF44
:103A20002920FFF749FF2520FFF746FF2B20FFF74E
:103A300043FF3920FFF740FF0020FFF73DFF012043
:103A4000FFF73AFF0320FFF737FF1020FFF734FF9F
:103A5000E120FFF70BFF0320FFF72EFF1D20FFF7EC
:103A60002BFF0720FFF728FF0620FFF725FF2E205A
:103A7000FFF722FF2C20FFF71FFF2920FFF71CFF75
:103A80002D20FFF719FF2E20FFF716FF2E20FFF73E
:103A900013FF3720FFF710FF3F20FFF70DFF002037
:103AA000FFF70AFF0020FFF707FF0220FFF704FFE0
:103AB0001020FFF701FF2A20FFF7D8FE0020FFF7B4
:103AC000FBFE0020FFF7F8FE0020FFF7F5FE7F2049
:103AD000FFF7F2FE2B20FFF7C9FE0020FFF7ECFEF8
:103AE0000020FFF7E9FE0020FFF7E6FE9F20FFF72A
:103AF000E3FE3A20FFF7BAFE0520FFF7DDFE29209E
:103B0000FFF7B4FE10BD10B54FF400712848FDF763
:103B1000F7FA0120FFF78EFC4FF400712448FDF7FF
:103B2000EDFA0120FFF786FC10BD70B504462A208F
:103B3000FFF79CFE0020FFF7BFFE0020FFF7BCFE52
:103B40000020FFF7B9FE7F20FFF7B6FE2B20FFF71E
:103B50008DFE0020FFF7B0FE0020FFF7ADFE002035
:103B6000FFF7AAFE9F20FFF7A7FE2C20FFF77EFE9F
:103B7000002507E02012FFF79FFEE0B2FFF79CFE52
:103B8000681C85B2B5F5A04FF4DB70BD094908800B
:103B900070470949088070472C610008C46000081C
:103BA00004600008000402400038004000000240A9
:103BB000000802409420002092200020FB49088049
:103BC00070472DE9F04780460E4617469946FFF7A5
:103BD000F3FDFFF798FFFFF795FE2C20FFF746FE59
:103BE0003046FFF7EBFF3846FFF7D3FF4846FFF7B5
:103BF000CDFF3046FFF799FFED4880F800800024A4
:103C000031E000252BE0202004EB8401E94A02EB9F
:103C10004101485504EB8400E74901EB800020F89E
:103C2000157004EB8400E54901EB800020F8156075
:103C3000202004EB8401E24A02EB4101485504EBE9
:103C40008400E04901EB800020F8157004EB84004B
:103C5000DD4901EB800020F81560681CC5B20A2D13
:103C6000D1DB601CC4B2142CCBDBBDE8F087012093
:103C7000D649087070470020D44908707047CB4877
:103C800000887047D24800887047D2480088704743
:103C9000C7480078704770B5002420E000251AE07E
:103CA000202004EB8401C64A02EB41014855C84874
:103CB000008804EB8401C34A02EB810121F815005E
:103CC000BA48008804EB8401BF4A02EB810121F865
:103CD0001500681CC5B20A2DE2DB601CC4B2142CAE
:103CE000DCDBB2480088FFF720FF70BD10B504464A
:103CF0002046E11704EB91718910A4EB8101AC4AD5
:103D00001170FFF7C8FF10BDA948017801EBD17011
:103D10004010A1EB400008B1142070471020FCE7D0
:103D2000A348017801EBD1704010A1EB400008B12D
:103D3000082070470A20FCE770B505460C462A208B
:103D4000FFF794FD0020FFF7B7FD2846FFF7B4FD0D
:103D50000020FFF7B1FD691CC8B2FFF7ADFD2B20B5
:103D6000FFF784FD0020FFF7A7FD2046FFF7A4FD25
:103D70000020FFF7A1FD611CC8B2FFF79DFD2C20BC
:103D8000FFF774FD70BD2DE9F04107460C4615465E
:103D90001E462A20FFF76AFD0020FFF78DFD3846FA
:103DA000FFF78AFD0020FFF787FD2846FFF784FD17
:103DB0002B20FFF75BFD0020FFF77EFD2046FFF77D
:103DC0007BFD0020FFF778FD3046FFF775FD2C20C6
:103DD000FFF74CFDBDE8F08110B5014600201AE068
:103DE000202200EB8003734C04EB43035A54784ABF
:103DF000128800EB8003704C04EB830323F811203E
:103E00006A4A128800EB80036C4C04EB830323F8AE
:103E10001120421CD0B21428E2DB10BD10B50024E2
:103E200004E02046FFF7D8FF601CC4B20A2CF8DB80
:103E300010BD10B5FFF72FFFFFF7F0FF5C490978C1
:103E4000481CC11700EB91718910A0EB8101584A01
:103E5000117010BD70B504460D46164654480078E2
:103E600030B1012809D002280ED003281CD114E05B
:103E700029462046FFF760FF16E0C5F17F01C8B272
:103E80002146FFF759FF0FE0C5F19F02D1B2C4F1FF
:103E90007F02D0B2FFF750FF06E0C4F19F00C1B22D
:103EA0002846FFF749FF00BF00BF3012FFF704FDAF
:103EB000F0B2FFF701FD70BD30B5024602EB8203A0
:103EC0003F4C04EB43035B5C02EB8204394D05EB92
:103ED0004404645CA3421FD102EB8203394C04EB1F
:103EE000830333F8113002EB8204334D05EB840475
:103EF00034F81140A3420FD102EB8203324C04EBA1
:103F0000830333F8113002EB82042C4D05EB84045B
:103F100034F81140A34201D0012300E000231846E9
:103F200002EB8203234C04EB43035B5C02EB820451
:103F3000234D05EB4404635402EB82031E4C04EB57
:103F4000830333F8113002EB82041E4D05EB840429
:103F500024F8113002EB8203184C04EB830333F88E
:103F6000113002EB8204184D05EB840424F8113063
:103F700030BD0FB4F0B5C1B005460E460027002491
:103F800049A8009001A8009A489900F091FB0020F0
:103F9000009001AC6CE020785B281DD114F8010C76
:103FA0005C2819D00127641C61E0000090200020EB
:103FB00096200020D22000206222002082250020AE
:103FC0009A210020F22300201227002097200020B1
:103FD000922000209420002020785D2806D114F83B
:103FE000010C5C2802D00027641C40E020780D28DA
:103FF00002D020780A2801D1641C38E0142D01DC9D
:104000000A2E01DD641C33E020785C2806D160783C
:104010005B2802D060785D2800D1641C14F8010B85
:1040200005EB8501FE4A02EB4101885517B1FD48B9
:10403000008801E0FC48008805EB8501FB4A02EBA3
:10404000810121F81600FA48008805EB8501F94A3C
:1040500002EB810121F81600142D03DB0025701CF2
:10406000C6B201E0681CC5B20A2E00DB002600BF04
:10407000207800288FD141B0F0BC5DF814FB2DE909
:10408000F05F0026EC48007808B9BDE8F09F0024F6
:1040900068E0002562E005EB8500E44901EB800063
:1040A00030F8140000F4004008B1402000E0002087
:1040B00005EB8501DD4A02EB810131F8141001F4B2
:1040C000806109B1202100E00021084305EB850152
:1040D000D64A02EB810111F8141001F0100109B168
:1040E000102100E00021084305EB8501D34A02EBD3
:1040F0004101085505EB8500CE4901EB800030F801
:10410000140000F4004008B1042000E0002005EB9A
:104110008501CA4A02EB4101095D084305EB8501AF
:10412000C44A02EB810131F8141001F4806109B135
:10413000022100E00021084305EB8501BD4A02EBA6
:10414000810111F81410C1F30011084305EB85013A
:10415000BA4A02EB41010855681C05B2102D9ADBE2
:10416000601C04B20A2C94DBB548007830B10128F9
:104170007ED002287DD003287CD1C5E1002488E0D0
:10418000002581E0E1B2E8B2FFF796FE002879D081
:10419000012605E0A819102800DB0BE0701C06B210
:1041A000A819102806DAE1B2AA19D0B2FFF784FEE6
:1041B0000028EFD100BF04F1010C4FF0010ECEEB4F
:1041C0000C1C0CF0FF0305EB060CCEEBCC0C0CF03A
:1041D000FF024FEA047C4FEA1C614FEAC56C4FEACC
:1041E0001C60FFF7D0FDA2464FF000083FE000271B
:1041F00036E03846F91707EB517105EBE1010FFA8C
:1042000081F9F91707EB5171C910A7EBC1028021A1
:10421000114109EB8902824B03EB420212F80A209A
:1042200008EB0212874B9A5C114039B109EB890106
:104230007E4A02EB810131F81A1006E009EB890190
:104240007C4A02EB810131F81A108B464FEA2B2091
:10425000FFF732FB0BF0FF00FFF72EFB781C07B2D5
:10426000B7EBC60FC5DB08F101000FFA80F803E0D9
:1042700013E0A1E0D7E105E0B8F1100FB7DB701E45
:10428000284405B2681C05B2102DFFF67BAF601CF8
:1042900004B20A2CFFF674AFC5E1002588E00724BC
:1042A00081E0E1B2E8B2FFF707FE002879D00126ED
:1042B00004E0A01B00D50AE0701C06B2A01B06D4C7
:1042C000A21BD1B2E8B2FFF7F7FD0028F1D100BF81
:1042D00005F1010C4FF0010ECEEBCC0C0CF0FF03FE
:1042E000C4F1070CB444CEEB0C1C0CF0FF024FEAF7
:1042F000C56C4FEA1C61C4F1070C4FEA0C7C4FEA15
:104300001C60FFF740FDA946002745E04FF000087C
:104310003DE040464FEAE87108EB1171A4EB211132
:104320000FFA81FA4FEAE87108EB11710911A8EB55
:10433000011209EB89013A4B03EB410111F80A1014
:10434000102303EB0111891A491E3E4A515C802259
:104350003A41114039B109EB8901344A02EB81013C
:1043600031F81A1006E009EB8901324A02EB8101AB
:1043700031F81A108B464FEA2B20FFF79DFA0BF00D
:10438000FF00FFF799FA08F101000FFA80F8B8EB87
:10439000061FBEDB781C07B2082FB7DB701E201A81
:1043A00004B2601E04B2002CBFF67BAF681C05B2DD
:1043B000142DFFF674AF36E10924A1E00F259AE031
:1043C000E1B2E8B2FFF778FD002872D0012604E0E0
:1043D000A81B00D50AE0701C06B2A81B06D4E1B2E7
:1043E000AA1BD0B2FFF768FD0028F1D100BFC4F1CD
:1043F0000A0C4FF0010ECEEB0C1C0CF0FF03C5F1C4
:104400000F0CB444CEEBCC0C0CF0FF02C4F1090C41
:104410004FEA0C7C4FEA1C61C5F10F0C14E0000060
:10442000D220002094200020922000206222002030
:10443000902000208225002097200020A228002024
:1044400096200020901000204FEACC6C4FEA1C60B0
:10445000FFF799FCA2464FF0000844E000273BE03C
:104460003846F91707EB5171A5EBE1010FFA81F915
:10447000C8F10F0109EB89026C4B03EB420212F801
:104480000A2001EB02116A4A515CFA1707EB5272DB
:10449000D210A7EBC202C2F10702802313411940D8
:1044A00041B109EB8901634A02EB810131F81A102D
:1044B00007E01EE009EB89015F4A02EB810131F858
:1044C0001A108B464FEA2B20FFF7F6F90BF0FF008E
:1044D000FFF7F2F9781C07B2B7EBC60FC0DB08F1A3
:1044E00001000FFA80F8B8F1100FB7DB701E281A20
:1044F00005B2681E05B2002DBFF662AF601E04B2A1
:10450000002CBFF65BAF8EE0132588E0002481E02D
:10451000E1B2E8B2FFF7D0FC78B3012605E0A019BC
:10452000082800DB0BE0701C06B2A019082806DA88
:10453000A219D1B2E8B2FFF7BFFC0028EFD100BF4B
:10454000C5F1140C4FF0010ECEEBCC0C0CF0FF03B8
:1045500004EB060CCEEB0C1C0CF0FF02C5F1130CA7
:104560004FEACC6C4FEA1C614FEA047C4FEA1C60B6
:10457000FFF709FCA946002745E049E04FF0000895
:104580003CE040464FEAE87108EB117104EB211161
:104590000FFA81FA4FEAE87108EB11710911A8EBE3
:1045A000011209EB8901214B03EB410111F80A10BB
:1045B00002EB01111E4A515CC7F10702802313412F
:1045C000194039B109EB89011A4A02EB810131F82E
:1045D0001A1006E009EB8901174A02EB810131F854
:1045E0001A108B464FEA2B20FFF766F90BF0FF00FD
:1045F000FFF762F908F101000FFA80F8B8EB061F27
:10460000BFDB781C07B2082FB8DB701E204404B251
:10461000601C04B2082CFFF67BAF681E05B2002DAB
:10462000BFF674AF00BF00BF00BF2EE5D220002050
:1046300090100020622200208225002001461A48A6
:10464000006830F921007047F0B5ADF57F7D054673
:104650000E46FF27002206E01046FFF7EFFF4DF859
:104660002200501CC2B2FF2AF6DB4DF82560FCF791
:1046700037F9F120FCF735FC02215820FCF784F9CA
:10468000002409E05DF82410074A126802EB840058
:10469000FCF793FA601CC4B2FF2CF3DBFCF72DF996
:1046A0000DF57F7DF0BD00009C20002070470000CC
:1046B0001CB50C46064B7B4469460090204600F032
:1046C000EEF904460020694600F0FCF920461CBDC6
:1046D0000B0400000FB4044910B503AA029800F0BF
:1046E0000DFA10BC5DF814FB4C10002070B50C46A0
:1046F0000546012A05D02878800600D5EA690023FE
:1047000002E0012305E05B1C934202D2E05C00283A
:10471000F9D1A869E618C01AA861286A1844286265
:10472000284600F011F904E0D5E9012114F8010B45
:104730009047B442F8D3284600F01CF970BD000041
:104740002DE9F0410646002410687529314616A56A
:1047500010D000F020F9002802DA404213A507E04B
:1047600031688A0701D512A502E0490704D511A5D1
:10477000012401E000F018F900210A2206F12407C3
:1047800009E0B0FBF2FCB0FBF2F302FB1C0030309E
:1047900078541846491C0028F3D123462A4630464F
:1047A000BDE8F04100F009B9000000002D00000054
:1047B0002B000000200000002DE9F05F8946044630
:1047C0004FF0000ADFF874B1FB44C0F820A0204687
:1047D000E1688847002874D0252806D0D4E9012153
:1047E0009047206A401C2062F1E700265F46204681
:1047F000E16888472028054607DB312D05D2781966
:1048000010F8200C08B10643F1E7B00701D526F0F7
:104810000406C4F81CA00027C4F818A02A2D09D04B
:10482000284601F0A2FB38B304EB8708303DC8F8F6
:10483000185019E059F8041B204604EB87029161D7
:10484000E1688847012F054618D1E069002820DA81
:1048500026F020061DE0D8F8180000EB800005EBDC
:1048600040003038C8F818002046E16888470546FF
:1048700001F07BFB0028EED1012F0AD02E2D08D1AC
:104880002046E16888477F1C0546022F46F0200637
:10489000C4DBA069002803DA404246F00106A061AB
:1048A000F00701D026F010066C2D0BD0682D09D032
:1048B0004C2D39D06A2D35D0742D35D07A2D33D08A
:1048C00016E038E0E1682F4620468847B8420546A2
:1048D00009D16C2F26D04FF48060E1680643204652
:1048E0008847054604E06C2F1AD04FF480700643C9
:1048F0000DB3A5F14100192802D8203546F4006611
:104900004A462946204626604E46FBF79BFC80B16E
:1049100001280BD0F61D26F0070000F1080956E724
:104920004020E4E78020D8E70020D6E706F104091C
:104930004DE7284652E7206ABDE8F09F5E1C000064
:10494000704770477047704770B5044685690068C6
:10495000C10601D5302600E02026C00707D070BD73
:10496000D4E9012130469047206A401C20626D1E28
:10497000F6D570BD70B5044685690078C00707D1CB
:1049800070BDD4E9012120209047206A401C20629C
:104990006D1EF6D570BD09684A0501D540B2704755
:1049A000C905FCD500B2704709684A0501D5C0B2F7
:1049B0007047C905FCD580B270472DE9F0470D4618
:1049C00099469246044600F124080168880604D5F9
:1049D000E06921F01001216000E00120A84201DD22
:1049E000471B00E00027A1697A1902EB0900081AA9
:1049F000A0612078C00602D42046FFF7A5FF00265C
:104A000008E0D4E901211AF806009047206A401C0A
:104A1000761C20624E45F4DB2078C0060AD520467D
:104A2000FFF792FF06E0D4E9012130209047206A89
:104A3000401C2062381EA7F10107F4DC07E0D4E92E
:104A4000012118F805009047206A401C2062281EAA
:104A5000A5F10105F3DC2046FFF78CFF2078000666
:104A600002D50220BDE8F0870120FBE7116802684B
:104A7000006A530501D508700AE0D30501D5088006
:104A800006E0130603D5C217C1E9000200E0086082
:104A90000120704701694A1C02610878704700B51F
:104AA0008FB0CDE901310021059105497944CDE967
:104AB000031011466846FFF77FFE0FB000BD0000EF
:104AC000E5FFFFFF0A6802F8010B0A60704710B5A6
:104AD000436913B1AFF3008001E0FFF707FE012047
:104AE00010BD127800F124010A7000224A700122E0
:104AF000EDE711684FF0FF32E9E70000074B70B5B2
:104B00000D467B44FFF7CBFF0446284600F00CFD22
:104B100010B14FF0FF3070BD204670BD5FE2FFFF67
:104B20002DE9FF5F15468A460446DFF8AC80F8445D
:104B30000027D8E900103E46CDE9001010E03AF811
:104B400016106A4602A800F0F3FC411C07D0217839
:104B5000890603D5E269391891420DD80744761CBD
:104B60002078800602D5E069B84205DDAE42E6DB7A
:104B70003AF816000028E2D1A069C01BA0612046C7
:104B8000FFF7E2FED8E90010CDE90010002017E0A1
:104B90003AF818106A4602A800F0CAFCB0F1FF3FCC
:104BA00081460BD000250DF1080B05E0D4E9012169
:104BB0001BF8050090476D1C4D45F7D308F1010027
:104BC000B0428046E4DB206A384420622046FFF78A
:104BD000D1FEBDE8FF9F00000A1900002DE9F04159
:104BE0008046D21D22F007020025D2E90002F529F5
:104BF00015A614D0011E72F1000106DA0023D0EBD5
:104C0000030063EB020211A608E0D8F800108B073E
:104C100001D50FA602E0490701D50EA601251146D0
:104C2000002408F1240704E000F098F830323A55E7
:104C3000641C50EA0102F7D12B4632462146404619
:104C4000BDE8F041FFF7B9BE000000002D000000F4
:104C50002B0000002000000030B4002100F12404EB
:104C600008E002F00705D208303542EA4372DB085B
:104C70006554491C52EA0305F3D10468002310A2CD
:104C8000250708D504F020040C4304D0C46901238F
:104C90000CA2641EC46130BCFFF78FBE10B5044681
:104CA00021461068FFF780FE02462046BDE810400E
:104CB0000023D1E7D21D22F00701D1E90023CBE781
:104CC0000000000030000000F0B40D460188090526
:104CD00002D5214C7C4402E01F4C7C440E34002160
:104CE00000F1240608E002F00F071209E75D42EA2E
:104CF00003721B097754491C52EA0307F3D1027867
:104D00000023120704D5702D06D009B102231134F7
:104D10002246F0BCFFF751BE01231034F8E770B50E
:104D200004460D4621461068FFF73EFE024629461E
:104D30002046BDE870400023C6E7D21D22F00703DD
:104D4000D3E90023C0E70368126843F0200303603F
:104D50000823C3610023B7E76C17000030B5B0F13A
:104D60000A024FEA900E71F100034EEA817EB0EB29
:104D70000E0061EB91014FEA101E4EEA017E10EB2E
:104D80000E0041EB11114FEA102E4EEA016E10EBAE
:104D90000E0041EB11214FEA104E4EEA014E10EB8E
:104DA0000E0041EB1141401841F100014FEAD000E3
:104DB00040EA41704FEAD10110EB80054FEA8104CF
:104DC00044EA907444EB01046D1944EB0404521B53
:104DD000A3414FF0000348BF0A3200D530BD401C4C
:104DE00041F1000130BD70472DE9FF4F0C461E46D2
:104DF0004FF0FF378BB0D2E90001DDF860800A90F8
:104E00008A46C1F30A5505B93D46002108464FF0D0
:104E10000000BAF1000F00F4400005DA00EB80005A
:104E20004FF4400101EA50004FEA9059B9F1010FE7
:104E300000DDB9460A9850EA4A000ED044F61050F8
:104E4000A5F2FF3545432F14B8F1000F1ED075426F
:104E5000291E1EDDC9F100021CE0B8F1010F4FF060
:104E6000000001D0302103E0F24305E02154401C52
:104E7000B042FBDB30460022002121540B99C1F8DF
:104E80000880C1E900200FB0BDE8F08FBD1B6D1C8C
:104E9000DEE74A4600DA694206A800F0DBFB06AB13
:104EA00093E8070003AB83E8070050460A9900F037
:104EB00089FC8DE80700A0F500501F38009003988A
:104EC000002D09DD42F21F014A46084403A9039060
:104ED000684600F0E8FE08E0A0F500504A461F389A
:104EE00003A90390684600F0F2FE8DE80700000475
:104EF000000C03D04FF0FF30410800E01046B8F13D
:104F0000000F03D00022009215461EE0751E05D446
:104F1000FFF724FF303262556D1EF9D5B3460122EA
:104F2000084302D000227F1C04E02078302801D101
:104F300000227F1E002A099786D01DE0112D07DA76
:104F4000FFF70CFF303262556D1C50EA0102F5D1BB
:104F5000084302D00098C8B10EE00021681E05E0A9
:104F6000235C625C63542254401E491C8142F7DB7F
:104F7000AB46A81B401E0990002004F80B000B98BC
:104F8000099AC0F80880C0E9002B7CE711264FF091
:104F9000000859E72DE9F04F88460446D21D22F05B
:104FA000070191B0D1E90001CDE90A0100F0C5FF88
:104FB00002460B98C00F01D02D2007E02068810722
:104FC00001D52B2002E0202101EAC000032A09902C
:104FD00001D0072A05DB03464146204600F0FAFAD5
:104FE0000BE12078800601D5E06900E00620B8F1E9
:104FF000650F814606D0B8F1660F18D0B8F1670F7B
:1050000070D131E00020B9F1110F009001DB1123C4
:1050100001E009F101030AAA01A90CA8FFF7E4FEC7
:10502000DDE90C70002609F10105834647E0012007
:105030004B4600904FF000470AAA01A90CA8FFF7C1
:10504000D3FEDDE90DB00C995D46002610B909F1DB
:1050500001000D18B9EB050003D4C0F1FF3609F1CA
:105060000105A5EB09002BE0B9F1010F01DA4FF0C2
:1050700001090020B9F1110F0090484601DD11230C
:1050800000E003460AAA01A90CA8FFF7ADFEDDE97E
:105090000C704D4600268346207800070AD4AB45A5
:1050A00000DA5D4601A8012D04DD411911F8011C4B
:1050B000302907D04F4502DA17F1040F04DA012036
:1050C00082460FE06D1EEEE7002F02DCED1B3E4432
:1050D00003E0781CA84200DD7D1CB81B00F1010A2A
:1050E0004FF000472078000703D4AA4501DB4FF0BA
:1050F000FF3A0021B7F1004F0DF143088DF843103E
:1051000024D002202B23002F01DA7F422D230A21F5
:10511000021EA0F1010000DC5FB197FBF1FC97FBE0
:10512000F1F201FB1C7C17460CF1300C08F801CDA4
:10513000EEE7A8F1010003702188090501D545219A
:1051400000E06521A0F1010800F8011C09980FA9F1
:10515000A1EB0807FF1D00B10120411901EBEA7026
:10516000A1693844081A401EA0612078C00602D404
:105170002046FFF7E9FB099828B1D4E901219047BF
:10518000206A401C20622078C00622D52046FFF706
:10519000DBFB1EE0002E04DBB34502DD01A8805DD1
:1051A00000E03020D4E901219047206A401C2062B1
:1051B000761CAAF101005FEA000A0AD100F006FAA3
:1051C000C0680168405CD4E901219047206A401C16
:1051D0002062281EA5F10105DCDC07E0D4E90121ED
:1051E00018F8010B9047206A401C2062381EA7F176
:1051F0000107F3DC2046FFF7BDFB032011B043E6B7
:105200002DE9F04F04460D46D21D22F0070089B06B
:10521000D0E9009248461746394600F08EFE024615
:10522000F80F01D02D2307E02068810701D52B233B
:1052300002E0202101EAC0038DF820300BB10120EB
:1052400000E00020032A824601D0072A04DB294619
:10525000204600F0BFF93DE12078800601D40D25FD
:1052600000E0E569C7F30A560D2D49DA00214FEA3F
:10527000175B08464FF00000002F00F4400007DAEB
:1052800000EB80004FF4400100EBD07001EA6000B9
:105290008115012901DD4FF0FF3100224FEA850C15
:1052A000BCF1180F06D31346ACF118004FF0805232
:1052B000C24003E04FF4801323FA0CF30CF10C0C02
:1052C000BCF1200F04D3ACF1200C09FA0CF001E082
:1052D00007FA0CF000294FF0004801DD18B90FE083
:1052E0000ED140450CD319EB02095F4121B940456D
:1052F00002D19F4329EA0209BBEB175F00D0761C5D
:105300002088000502D57B48784402E0794878443B
:10531000193808AA302302F80A30037C0AF1010187
:10532000002E0AF1020A53546A4602DC4FF03001A3
:1053300001E04FF031014FF001088DF8001002D06C
:10534000A6F2FF3603E059EA470100D06A4E002D6D
:1053500002DC2178090704D54FF002082E218DF8D0
:105360000110C44600210BE0C7F303433F01C35CB7
:10537000491C6D1E02F80830052908F1010801DA00
:10538000002DF1DC00210CE000EB1973491C1B78A7
:105390006D1E082902F808304FEA091908F10108C2
:1053A00001DA002DF0DC2178890602D514E0A8F19D
:1053B0000108E04505DD02EB080111F8011C302968
:1053C000F5D0B8F1000F07DD02EB080111F8011C60
:1053D0002E2901D1A8F10108002D05DD3E2102F89A
:1053E00008106D1E08F10108407C002E02F808002C
:1053F00008F1010804DA2D20764202F8080002E0E4
:105400002B2002F808000A214FF47A70864208F136
:1054100001080BDB96FBF0F3303302F8083096FB03
:10542000F0F308F1010800FB136601E0642E0CDBC9
:10543000642096FBF0F3303302F8083096FBF0F36B
:1054400008F1010800FB136601E00A2E06DB96FB5B
:10545000F1F0303002F8080008F1010896FBF1F095
:1054600001FB1060303002F80800A16908F1010862
:1054700008EB050202EB0A00081AA0612078C006BA
:1054800002D42046FFF760FA216A08AE01EB0A0059
:10549000206204E0D4E9012116F8010B9047BAF12B
:1054A000010AF7D22078C00602D52046FFF74CFA51
:1054B0006E4609E016F8010B3E280FD0D4E9012111
:1054C0009047206A401C2062B8F10108F2D22046C1
:1054D000FFF750FA09B00320BDE8F08F206A284496
:1054E000206203E0D4E90121302090476D1EEBD308
:1054F000F8E700007311000002FCFFFF10B54369DC
:1055000013B1AFF3008001E0FFF70AFB012010BDEB
:10551000128800F1240182840022C2840122EDE776
:1055200011684FF0FF32E9E7007B00F08000704720
:1055300070B516460C46054600F040F8036893F82F
:105540000101012806D0FF2C0FD8185D68B1012099
:105550002C7070BDD3F807013246214603F20713C1
:1055600003442846BDE8704018474FF0FF3070BD37
:10557000754600F0E3F8AE4605006946534620F054
:105580000700854618B020B5FBF7EAF8BDE82040D3
:105590004FF000064FF000074FF000084FF0000BEF
:1055A00021F00701AC46ACE8C009ACE8C009ACE8A2
:1055B000C009ACE8C0098D467047000010B500F086
:1055C00005F8001D10BD00BFDD0900000048704750
:1055D0008C2900202DE9F0411F460446032601686E
:1055E000072A01F4006004DB08B116A505E016A542
:1055F00003E008B115A500E015A521F0100020601A
:10560000A069C01EA0610FB1401EA0612046FFF737
:105610009BF94FB1D4E9012138469047206A401CDC
:105620002062C01C206206E0206AFAE7D4E901216A
:1056300015F8010B9047761EF8D22046FFF79AF92D
:10564000BDE8F0814E414E006E616E00494E46004D
:10565000696E66002DE9F047814616468AB03348E8
:1056600078440DC88DE80D0030487844801C03ACA8
:105670000DC884E80D0041F69B300844372190FBAB
:10568000F1F290FBF1F5A5F1800501FB12041B3C42
:1056900002D56442012000E00020DFF890A080469F
:1056A0000027FA44AAF1BE0A0DE0E00709D032460D
:1056B000684607EB47010AEB810100F008FB8DE823
:1056C000070064107F1C002CEFD1184F7F44AC3FC3
:1056D00018E0E80714D007EB04100DF1180A90E861
:1056E0000E008AE80E00C068F04201D198190890B7
:1056F000324606A903A800F0EAFA03AB83E80700E4
:105700006D10641C002DE4D132466946B8F1000FDB
:1057100003A802D000F0C7FA01E000F0D8FAC9E906
:105720000001C9F808200AB0BDE8F087AC0E0000FF
:105730000446AFF300802046FAF7E9FD00487047C1
:105740006C2900204FF0013C50F8042B51F8043B29
:105750009A4221D1A2EB0C03934313EACC1317D145
:1057600050F8042B51F8043B9A4215D1A2EB0C03DC
:10577000934313EACC130BD150F8042B51F8043B9C
:105780009A4209D1A2EB0C03934313EACC13DBD06A
:105790004FF00000704700BFD01A01BAB1FA81F192
:1057A00001F0180122FA01F0CB40C1F12001DBB277
:1057B000C0B2C01A2CFA01F3D11A914311EAC311F5
:1057C000E6D170475FEA400C08BF91F0000F4FEA46
:1057D0008C234FEAC12243EA51514FEA1C5018BFB3
:1057E00000F5F0404FEA300018BF41F000415FEA99
:1057F0006C5C00F02980BCF1FF3F08BF40F08040A6
:105800007047130C06BF12044FF0100C4FF0000C41
:10581000130E04BF12020CF1080C130F04BF120187
:105820000CF1040C930F04BF92000CF1020CD30F87
:1058300004BF52000CF1010C11464FF00002A0F120
:105840001F00A0EB0C00704711F0004F08BF70471D
:1058500031F000413FF4D5AF0B0C06BF09044FF007
:10586000100C4FF0000C0B0E04BF09020CF1080CD9
:105870000B0F04BF09010CF1040C8B0F04BF89004E
:105880000CF1020CCB0F04BF49000CF1010CCCF160
:105890002003A0EB0C0022FA03F302FA0CF241EA17
:1058A000030100F10100704720F07F4C80EA030003
:1058B00023F07F47ACEB070303F57C5300F0004077
:1058C00003F1FF032DE980494FEA154B09B44FEA74
:1058D000144325EA0B4E24EA03480FF2042606EB94
:1058E000132749083E785FEA320203FB0667C7F5D3
:1058F000000707FB06F64FEA54374FEAD64606F193
:10590000020607FB066CCCF1005C4FEA1C472CEA50
:10591000074C07FB06F40CFB06F504EB15464FEAB3
:10592000961634BF00204FF000404FEAD13706FBF7
:1059300007FC4FEA1C4C0CFB0BF7D21B03FB0CF7CC
:1059400061EB07010CFB0EF7B0EB074072EB17425F
:105950000CFB08F734BFA2EB0742B2EB074261EB46
:1059600017414FEA0C444FEA910706FB07FC4FEA48
:105970001C4C0CFB0BF7B0EBC74072EB573203FB30
:105980000CF734BFA2EBC742B2EBC74261EB573111
:105990000CFB0EF7B0EBC70072EB57720CFB08F76D
:1059A00034BFA2EBC702B2EBC70261EB5771039F92
:1059B0004FEA816141EA921104EBCC044FEAD137FE
:1059C0004FEA826206FB07FC42EA90124FEA8060CF
:1059D0004FEA1C4C0CFB0BF7D21B03FB0CF761EBE3
:1059E00007010CFB0EF7B0EB074072EB17420CFB04
:1059F00008F734BFA2EB0742B2EB074261EB174155
:105A00004FEA8C554FEA910704EB9C2406FB07FCF8
:105A10004FEA1C4C0CFB0BF7B0EBC74072EB573254
:105A200003FB0CF734BFA2EBC742B2EBC74261EBFA
:105A300057310CFB0EF7B0EBC70072EB57720CFB43
:105A400008F734BFA2EBC702B2EBC70261EB577194
:105A500015EB4C254FEA816141EA92114FEA8262CF
:105A60004FEAD13742EA901206FB07FC44F10004EA
:105A70004FEA80604FEA1C4C0CFB0BF7D21B03FB78
:105A80000CF761EB07010CFB0EF7B0EB074072EB74
:105A900017420CFB08F734BFA2EB0742B2EB0742F8
:105AA00061EB174115EB1C154FEA813141EA924138
:105AB0004FEA823242EA90424FEA80304FEA0C7657
:105AC00044F1000448EA03434EEA0B484FF0000E4D
:105AD000B2EB080C71EB030724BF624639464EEB6C
