:020000040800F2
:10000000E00E0020C9280008D1280008D3280008E5
:10001000D5280008D7280008D928000800000000CB
:10002000000000000000000000000000DB280008C5
:10003000DD28000800000000DF280008E128000893
:10004000E3280008E3280008E3280008E328000864
:10005000E3280008E3280008E3280008E328000854
:10006000E3280008E3280008E3280008E328000844
:10007000E3280008E3280008E3280008E328000834
:10008000E3280008E3280008E3280008E328000824
:10009000E3280008E3280008E3280008E328000814
:1000A000E3280008E3280008E3280008E328000804
:1000B0008B050008E3280008E3280008E32800086F
:1000C000E3280008E3280008E3280008E3280008E4
:1000D000E3280008E3280008D5010008D908000833
:1000E000E3280008E3280008E3280008E3280008C4
:1000F000E3280008E3280008E3280008E3280008B4
:10010000E3280008E3280008E3280008E3280008A3
:10011000E3280008E3280008210A0008511000081D
:10012000E3280008E3280008E3280008E328000883
:10013000DFF80CD002F0D6FD00480047450100086A
:10014000E00E002000F048FC00F0ECF900F094FA1A
:100150004FF4E131012000F085FC012000F0E7FCC4
:100160000021072000F05FFA304C00BF00F02EFCA9
:1001700021888842FAD000F029FC208000F029FC78
:100180006188884202D000F024FC6080208840B161
:10019000B0F5FA7FEAD100215FF0070000F043FAE2
:1001A000E4E7628822A1012000F0FEFC60880321C0
:1001B000B0FBF1F201FB120030B1012807D0022898
:1001C000D4D101210420E9E701210846E6E7012115
:1001D0000220E3E710B5194C40F22551204602F009
:1001E000A4FA002821D0204602F038FAC4B22146F1
:1001F000012000F0C6FC0021072000F014FA0A21BB
:10020000012000F0EEF9422C09D0472C04D0522CEA
:100210000BD10121084604E00121022001E0012167
:100220000420BDE8104000F0FEB910BD0000002021
:100230004F75747075743A2025640A0000440040BC
:1002400070B501E000F561600028FBDB4FF46161EF
:1002500090FBF1F201FB120040F68C2102B24FF448
:10026000E165884202DDC0F5616009E0A84202DD77
:10027000A0F5E16004E0B0F5617F01DDC0F5E1606B
:100280000A2390FBF3F1A64CC1F15A0603FB1100BF
:1002900034F9111034F91660484300F58F7040F2BC
:1002A0003D2190FBF1F03044AA4200DD404270BD98
:1002B000C0F56170C4E710B500EB80000C4640004B
:1002C00002E000BF00F561600028FBDB4FF46161D4
:1002D000884202DDA0F56160FAE7FFF7E9FF6043BD
:1002E00042F2107190FBF1F010BD10B500EB8000F0
:1002F0000C46400002E000BF00F561600028FBDB17
:100300004FF46161884202DDA0F56160FAE7FFF712
:1003100097FF604342F2107190FBF1F010BD002195
:10032000002806DA0121404200E0B43000B2002883
:10033000FBDBB42290FBF2F302FB1300784AB63ADF
:100340005A2803DDC0F1B40039B901E009DA21B15E
:1003500032F91000C0F1000001E032F9100000B2E3
:1003600070474FF0FF3070472DE9F04100254FF402
:1003700061784FF4E1762F46002801DA01274042E8
:100380000FFA80FCA81904B22046FFF759FF0EB1FE
:1003900084450DD104F104044FF00A0094FBF0F001
:1003A00000B2002F02D0C0F1000000B2BDE8F08121
:1003B00001DAA04600E02546A8EB050000EBD0706E
:1003C00040F34F06DEE700B5FFF7CEFFC0F15A005D
:1003D00000B200BDF0B5051E4FF0000420461ADB48
:1003E00006462046FFF79BFF854201DCB54210DA46
:1003F000641C24B25A2CF3DB0BE006462046FFF7C0
:100400008EFF854201DBB54203DD641E24B2BC428F
:10041000F3DA2046F0BD6FF05807EEE700B579B18A
:10042000B8B16422504301EBD17200EB620090FB43
:10043000F1F0002913DAFFF7CDFFB43000B200BDB0
:10044000002802DA6FF0590000BD06D04FF05A00C4
:1004500000BD002901DAB42000BD002000BD5DF818
:1004600004EBB7E7F0B505460C4617461046FFF714
:100470001FFF296800FB01F63846FFF7E1FE2168FF
:1004800000FB11663846FFF7DBFE296800FB01FC24
:100490003846FFF70DFF216800FB01C042F21071E2
:1004A00096FBF1F290FBF1F02A602060F0BD00E0D5
:1004B00008440028FCDB90FBF1F201FB12007047BE
:1004C000002800DA40427047002800DA40427047B6
:1004D0004043704730B503004FF0010002D003E005
:1004E000400001D5002030BD00FB00F19942F7DD4E
:1004F0004110441A6410621802FB02F59D4201DAB1
:10050000114601E01046EEDD022CF3DA01FB01F4A6
:1005100000FB0042B3EB620FE5DA084630BD000095
:10052000BA0000207CB50121802001F094F801215F
:10053000084601F099F810208DF8070002208DF888
:1005400006000124ADF8044001A95B4800F097FEC5
:100550004FF47A71C806818541F61F410185848276
:100560000025058284810480294601F03EFD032098
:100570008DF801008DF802508DF803401C208DF895
:100580000000684600F0D1FD7CBD70B501218D07EB
:10059000284601F04FFF0121284601F05AFF474C41
:1005A000454A207880B160784FF0010110F0010FCA
:1005B000A0F101006070104610D000F0D0FE60780D
:1005C000002800D1207070BD0121104600F0C7FE48
:1005D0002846BDE87040002101F007BD00F0BDFED7
:1005E000EDE74FF0FF3202EB4003344810B54370A3
:1005F0000123037001EBC10000EB011002EB80004E
:1006000081B29C07204601F0EEFE0021204601F059
:10061000E8FE0121284800F0A0FE2046BDE8104079
:10062000012101F0E2BC70B50446254E0D46C0071D
:1006300008D04FF04001304615B100F090FE01E0C7
:1006400000F08BFEA00708D54FF08001304615B1B1
:1006500000F085FE01E000F080FE60070BD5194830
:100660004FF080011DB1BDE8704000F078BEBDE8DC
:10067000704000F072BE70BD08B501214FF490705B
:1006800000F0E9FF14208DF8030002208DF802002D
:10069000C020ADF800006946094800F0F0FD802058
:1006A000ADF800006946074800F0E9FD0021072089
:1006B000FFF7B9FF08BD0000001C014070010020D9
:1006C000002001400014014010B54FF4E131022038
:1006D00000F0C8F9BDE81040022000F028BA70B55B
:1006E000B74CB4F90600FFF7E3FDB4F9101000FBB6
:1006F00001F5B4F90600FFF7A3FDB4F912106FF489
:100700001C7301FB0052B4F9080042F21071484317
:10071000B4F91010594300EB0110104442F210716B
:1007200090FBF1F000B270BD70B5A54CB4F90600B5
:10073000FFF7BEFDB4F90A2042F210714A43B4F942
:1007400012106FF41C734B4302EB031201FB0025E4
:10075000B4F90600FFF774FDB4F9101001FB105056
:1007600042F2107190FBF1F000B270BD9448B0F904
:100770000600704710B50121022000F002FA102196
:10078000022000F0FEF90021BDE81040022000F038
:10079000F8B970B500F01AF9894D0446E87820F0F0
:1007A0000200E8700121022000F0EBF92021022074
:1007B00000F0E7F90021022000F0E3F94FF47A7627
:1007C0000DE000BF00F002F9001B00F57A7090FB0D
:1007D000F6F106FB1100142801DB002070BDE8785B
:1007E0008007EFD5012070BD2DE9F04705460F4683
:1007F000164600F0EBF8724C8146E07820F00100DC
:10080000E0703046FFF754FDB4F9101040F2712249
:10081000484329445143C0EB01153046FFF710FD12
:10082000B4F9121042F2107801FB105191FBF8F567
:100830003046FFF73DFDB4F9121040F271224843F3
:1008400039445143C0EB01173046FFF7F9FCB4F9C6
:10085000101001FB007191FBF8F70121022000F05C
:1008600090F93021022000F08CF90621022000F0DE
:1008700088F9C5F30721022000F083F9E9B20220CC
:1008800000F07FF9C7F30721022000F07AF9F9B2EE
:10089000022000F076F9C6F30721022000F071F97A
:1008A000F1B2022000F06DF94FF47A750FE000BF4D
:1008B00000F08CF8A0EB090000F57A7090FBF5F1E0
:1008C00005FB1100142802DB0020BDE8F087E0786A
:1008D000C007EDD00120F8E72DE9F041394C40F296
:1008E0002551204601F021FF002818D0204601F0B4
:1008F000B5FEC5B2324804270122067832490024E9
:1009000000F10E0C052E0AD2DFE806F0030B1E28BC
:100910003400012D03D1FF21417084700270BDE8C5
:10092000F081274A00210C32535CAB4203D1417065
:10093000761C067003E0491CC9B20229F4D3417841
:10094000FF29ECD10470EAE743781CF80330AB428E
:10095000F8D103250570002BE1D10AE043781CF89B
:10096000036036B18378CD545B1CDBB283709E424A
:10097000D5D8077043783BB1012BE3D109788A4081
:10098000C1780A43C270DDE70B784FF6FF7606EABE
:1009900003254B782B438D7806EA0527CD783D4318
:1009A0000F79497906EA07263143B1F5616F04D220
:1009B000027103814581C180C4E70471C2E7000070
:1009C00072010020004800401802002021480088E1
:1009D000704720484088704708B50121102000F07A
:1009E00043FE1D484FF47A7181851C491C4A0968F1
:1009F000B1FBF2F1491E01850121818200220282B0
:100A0000818101808DF8012003208DF802008DF88E
:100A1000031036208DF80000684600F086FB08BD04
:100A200010B50D4C0121204601F004FD01212046A6
:100A300001F00FFD0748018840F2E732914205D3EB
:100A4000002101804188491C418010BD0188491C5A
:100A5000018010BD8601002000100040040200202B
:100A600040420F0070B50E4604466849674814318D
:100A700086B050F8240051F82410084340F00100DB
:100A8000012100F0E8FD614D143DECB3022C48D08B
:100A900055F82400012100F0E7FD18208DF813001F
:100AA0005A4804A9283030F81400ADF8100003208B
:100AB0008DF81200564850F8240000F0E0FB0420A6
:100AC0008DF81300514804A9323030F81400ADF805
:100AD00010004F48143050F8240000F0D0FB0020E4
:100AE000ADF804004A4DADF80600ADF80800ADF8C9
:100AF0000C000C20143D0096ADF80A0055F82400B7
:100B0000694601F0D9FC00E006E055F82400012117
:100B100001F04AFD06B070BD0121286800F09BFD80
:100B2000BBE701213B4800F039FCA868B2E738B5C3
:100B3000044600214FF0006000F024FB33483C30B5
:100B400010F814008DF8000001208DF801008DF8D8
:100B500002008DF80300684600F0E7FA2C480122F5
:100B6000143840F2255150F8240001F027FD38BD1B
:100B700027491839087070472549FF20183908702F
:100B8000704770B5224D04460E46143D402155F87D
:100B9000240001F0C0FD0028F8D055F824003146AB
:100BA000BDE8704001F056BD0FB430B58BB00546BE
:100BB00010AA68460F9902F065F96C4603E0641CC0
:100BC0002846FFF7DEFF21780029F8D10BB030BCB2
:100BD0005DF814FB70B50E4C0646183C94F9000005
:100BE000401C11D014F1040594F90000402155F87F
:100BF000200001F090FD0028F6D094F90000F1B239
:100C000055F8200001F026FD304670BD88370008F9
:100C1000A40100203000140008B50121202000F0BC
:100C200023FDF9491E200880FF20091F0880F6498E
:100C3000012018390880F44A00211C3A1180111F44
:100C40000880F1492C3908808DF8010003218DF8C6
:100C500002108DF8030037208DF80000684600F080
:100C600064FA08BDF8B54FF42040ADF80000032445
:100C70008DF802401820E54E8DF803006946304695
:100C800000F0FDFA4FF48040ADF800008DF802400E
:100C900048208DF803006946304600F0F0FAB5149C
:100CA000ADF800508DF8024004208DF8030069462D
:100CB000304600F0E4FA28208DF80300A810ADF8C3
:100CC00000006946D24800F0DAFA2946304600F0C2
:100CD00044FBF8BD30B5044685B00121082000F082
:100CE000BAFC0121880300F0BFFCFFF7BBFF684698
:100CF00000F08CFD0220ADF806000120ADF80800E0
:100D00008020ADF80E004FF48270ADF8020018207C
:100D1000C04DADF80C00284600F0ECFC0021284640
:100D200000F089FD6946284600F008FD01212846AB
:100D300000F0B9FD0021284600F0CCFD684600F027
:100D400065FD0121284600F076FDFFF765FF002CC8
:100D500002D1B1490320087005B030BDAE48007B18
:100D600070477047F0B5AC4901251427487815261F
:100D70002C4600B94C70A94A92F800C00023A2F199
:100D80000C00BC4502D1977BB74204D0CA7A521CF2
:100D9000CA72002502E00E7B012E04D0CA7A322AE4
:100DA00071D985B36FE00C6A4C61557B96782D0440
:100DB00005EB0625567835440D62D5780580157902
:100DC00045805579967905EB06258580D579167A83
:100DD00005EB0625C580557A967A05EB0625058133
:100DE000D57A127B05EB02224281B0F904604FF400
:100DF000FA525542964203DCB0F90460AE4203DA7F
:100E0000B0F9046001E033E000268680B0F90660A6
:100E1000964203DCB0F90660AE4202DAB0F9066031
:100E200000E00026C680B0F90860964203DCB0F905
:100E30000860AE4202DAB0F9086000E000260681E0
:100E4000B0F90A60964203DCB0F90A20AA4202DA3D
:100E5000B0F90A2000E000224281086A0A6A604074
:100E600010408861086A8443CC61CB720120F0BDD8
:100E70000B62038043808380C380038143818B6145
:100E8000CB614C73CB728869400505D5487B421C09
:100E90004A73042800D94C730020F0BD70B55E4C35
:100EA0005C48A17881B3012932D00025022936D0CF
:100EB000C91E112391FBF3F203FB121111F0FF0184
:100EC000217142D0A27901EB8101D20747D0544A67
:100ED00002EB41016279114411F80A1C00F0D3FCC5
:100EE000A078401CC0B2A07058280CD9A07903216A
:100EF000A0B3012835D0022838D0032836D002D933
:100F0000A570A571E57170BDFFE74FF001010CE020
:100F1000A179C90701D0522107E0512105E0E1780C
:100F2000FF2908D039B1A572812100F0ACFCA0786E
:100F3000401CA070E7E7A570A07A411CA17232287E
:100F4000E1D9E5712573A572DDE7A179490800D1E2
:100F5000521DD1B2617141F08001BFE701E0314A19
:100F6000B6E7A570E171401CA071CCE7A570E171F6
:100F7000411CA1710328C6D9A571C4E72DE9F04130
:100F8000254C244FA07818B1384600F07EFCE07064
:100F9000A178C1B1012918D0204E002502291CD00A
:100FA000A07B421EA27370B38121384600F06BFC17
:100FB000A078042803D33218E17802F8041C401CFE
:100FC000A070BDE8F081012102E0A079C0074221B4
:100FD000384600F058FCA078F1E7E078FF2809D007
:100FE00040B1A5728121384600F04DFCE0784628DA
:100FF0001AD01DE0A570A07A411CA1723228E0D958
:10100000E571A572DDE719E02C140040000C0140E9
:101010000014014000380040CC010020C60A002026
:1010200022020020F2090020012060720F20A0732C
:10103000A078401CA0703570B573C2E7042903D3B3
:101040003144E07801F8040CA5702078E071B8E72D
:101050002DE9F0412F4C0121204601F0EBF901214F
:10106000204601F0F6F92C4C60780028A9D0E079F0
:1010700001250026062843D2DFE800F003063139B7
:101080003131E57126729CE7207ADFF890804FF4C9
:10109000805720B93946404600F04BF918B1207A04
:1010A000012803D007E0FFF769FF0FE0394640460B
:1010B00000F03FF940B12682608A40F28A218842DE
:1010C00007D2401C60827CE7FFF7E8FE668225734A
:1010D00077E740F289218842D5D9267371E7208AC3
:1010E000411C21821E28CED92682257206E0208A44
:1010F000411C21821E28C6D926822672E57160E72E
:10110000E6715EE7044900204870704702490120FB
:101110004870704700140040CC010020000C0140D2
:1011200027490843274908607047F0B50F21C47864
:10113000027801234FF0E026DCB1224C2468457888
:1011400004F4E064C4F5E064240AC4F10407E14057
:101150008478BD400C402C4321011B4C1155007874
:1011600000F01F018B40400906EB8000C0F8003101
:10117000F0BD02F01F008340500906EB8000C0F86C
:101180008031F0BD114A114001430E48001F01603B
:1011900070470C4A121D0029116801D0014300E07C
:1011A0008143116070474FF0E0210428086903D0A3
:1011B00020F004000861704740F00400FAE70000E6
:1011C0000000FA050CED00E000E400E080FFFF1FE6
:1011D000914910B5884206D10121042000F04DFA52
:1011E000002104203BE08D49884206D101210820DE
:1011F00000F043FA0021082031E08949884206D1F5
:101200000121102000F039FA0021102027E0854943
:10121000884206D10121202000F02FFA0021202051
:101220001DE08149884206D10121402000F025FAC5
:101230000021402013E07D49884206D10121802011
:1012400000F01BFA0021802009E0794988420AD188
:1012500084150121204600F010FA00212046BDE847
:10126000104000F00ABA10BD10B50121084600F088
:1012700004FA0021BDE81040012000F0FEB9F0B5ED
:10128000CA78002502F00F03D20601D58A781343ED
:101290000A784FF00F0E12F0FF0F4FF001021DD031
:1012A000D0F800400F8802FA05F63740B74211D156
:1012B0004FEA850C0EFA0CF724EA070703FA0CF440
:1012C0003C43CF78282F02D0482F02D002E046615D
:1012D00000E006616D1C082DE4D304600C88FF2C2F
:1012E0001ED944685FF0000606F1080702FA07F508
:1012F0000F882F40AF420FD14FEA860C0EFA0CF741
:10130000BC4303FA0CF73C43CF78282F00D145614A
:10131000CF78482F00D10561761C082EE4D34460B5
:10132000F0BD4FF6FF710180022181700421C17070
:1013300070470246002092680A4200D001207047A0
:10134000806880B2704702460020D2680A4200D00E
:1013500001207047C06880B27047016170474161E9
:1013600070470AB10161704741617047C1607047C1
:1013700041F4803282618161826181698069704754
:101380002C4B10B51A684FF68074224042EA0010C8
:101390000843186010BD2849C8617047F0B5254C56
:1013A000002801DAE36900E06368420D120185B2AA
:1013B000C0F301579540C0F30346032F05D0C20286
:1013C0000AD50322B240934307E023F070626368BA
:1013D00023F07063636002E0AB4343F0706201B1DD
:1013E0002A43002801DAE261F0BD6260F0BD10B569
:1013F0008A0721F003040F49130F21440F228C6840
:101400009A4094438C608A68984002438A6010BD79
:101410000949DC310860704700080140000C0140B8
:10142000001001400014014000180140001C014060
:10143000002001400000014000002042A548016852
:1014400041F0010101604168A34A11404160016817
:10145000A24A11400160016821F4802101604168C5
:1014600021F4FE0141604FF41F01816070479949EA
:101470000A6822F480320A600A6822F480220A6034
:10148000B0F5803F07D0B0F5802F03D1086840F455
:10149000A02008607047086840F48030F9E70246F1
:1014A000002053098B49012B0AD0022B0AD0496A2C
:1014B00002F01F02012393400B4200D0012070472D
:1014C0000968F5E7096AF3E730B500244FF4A06531
:1014D0003120FFF7E4FF641CAC4201D00028F7D0B4
:1014E0003120FFF7DCFF002800D0012030BD794912
:1014F0000A6822F0F80242EAC000086070477849A2
:1015000008607047734A5368084323F47C131843F8
:10151000506070477249086670476E4A516821F002
:1015200003010143516070476A48406800F00C00B5
:101530007047684A516821F0F001014351607047DB
:10154000644A516821F4E061014351607047614988
:101550004A6822F4605242EAC000486070475D4A1F
:101560000029517A01D0014300E081435172704754
:101570005B49D83108607047564A516821F44041B0
:101580000143516070475349002281F8202081F8BF
:101590002020012802D0042802D1052081F8200053
:1015A00070475049086070474A490A6A02430A6214
:1015B00070474C49443908607047464A10B5516835
:1015C00011F00C03484903D0042B01D0082B26D07E
:1015D00001605168454B01F0F00109095C5C01684C
:1015E000E1404160546804F4E064240A1C5D21FA7F
:1015F00004F48460546804F460544FEAD4241B5DFE
:1016000021FA03F1C1605268384B02F440424FEABC
:1016100092321B1F9A5CB1FBF2F1016110BD51685F
:10162000536801F470114FF0020413F4803F04EB8F
:10163000914102D053689B0301D52D4B00E02A4B0A
:101640005943C5E7234A0029516901D0014300E00D
:101650008143516170471F4A0029916901D00143BC
:1016600000E08143916170471A4A0029D16901D095
:10167000014300E08143D1617047164A0029D168D7
:1016800001D0014300E08143D1607047114A002935
:10169000116901D0014300E0814311617047114994
:1016A0004039086070470E49C86470470949C871DD
:1016B00070470848416A41F0807141627047054AAD
:1016C0000146002092680A4200D00120704701497B
:1016D00088727047001002400000FFF8FFFFF6FE1E
:1016E000000042428004424200127A00F4010020CD
:1016F00000093D00994910B588420AD1841401219E
:101700002046FFF7BAFF2046BDE810400021FFF752
:10171000B4BF9349884202D10121041404E09149E5
:1017200088420AD10121C4132046FFF7AFFF2046AB
:10173000BDE810400021FFF7A9BF10BD30B50288F9
:101740004C8802F441530A88CD8822438C882C436C
:1017500022430C8922434C8922438C892243CC8921
:1017600022431A430280828B22F400628283098A18
:10177000018230BDF0B505460C4602200021AA8B3F
:1017800085B001264FF240031A40AA832884AF8B0C
:10179000A268022A27D0A08800B102266846FFF777
:1017A0000CFFE1880098B1F5007F2DD07101B0FBEE
:1017B000F1F000BF00EB8000A1684000B0FBF1F049
:1017C000401D80B20A21B0FBF1F000F00101401A87
:1017D0004FF6FF72C0F34F0002EA0121821EFE2A7B
:1017E00001D302200021E288084302432A84208892
:1017F0006188A2890843A18811430843384340F413
:101800000060A88305B0F0BD000AD3E70021018085
:1018100041808180C180018141818181C181072115
:10182000018270470021018041808180C1800222B5
:101830008260818170470029018802D041F0400117
:1018400001E021F04001018070470029818B02D026
:1018500041F4806101E021F48061818370470909CE
:1018600001238B40002A828899B201D00A4300E00C
:101870008A4382807047002A828801D00A4300E0B0
:101880008A43828070478181704780897047A1F5C3
:101890007E420188FF3A02D041F4807101E021F4D8
:1018A0008071018070470029818802D041F00401D5
:1018B00001E021F0040181807047028822F4006277
:1018C000028002880A4302807047018841F48051F7
:1018D000018070470029018802D041F4005101E0E5
:1018E00021F4005101807047012901D0008B70471D
:1018F000808A7047008A7047B1F5804F018803D015
:1019000021F480410180704741F48041FAE70246AA
:10191000002012890A4200D001207047C94301818A
:10192000704710B501F00F040122034602FA04F4D7
:10193000002009098A4091B29A88A4B20A40198904
:10194000214202D0002A00D0012010BD01F00F0278
:1019500001219140C94301817047000000300140DE
:1019600000380040003C0040F94910B5884202D1DF
:101970000121C41486E0B0F1804F09D0F5498842B6
:101980000DD101210220FFF781FE0021022064E039
:1019900001210846FFF77AFE002101205DE0EE49B3
:1019A000884206D101210420FFF770FE00210420A7
:1019B00053E0EA49884206D101210820FFF766FE7C
:1019C0000021082049E0E649884206D10121102083
:1019D000FFF75CFE002110203FE0E249884206D17B
:1019E00001212020FFF752FE0021202035E0DE49B2
:1019F000884202D10121441444E0DC49884202D1EA
:101A00000121CC043EE0DA49884202D101210C05D3
:101A100038E0D849884202D101214C0532E0D6494C
:101A2000884206D101214020FFF730FE00214020EE
:101A300013E0D249884206D101218020FFF726FE1B
:101A40000021802009E0CE4988420AD18415012175
:101A50002046FFF71BFE00212046BDE81040FFF79F
:101A600015BEC849884202D101210C040AE0C649CA
:101A7000884202D101214C0404E0C44988420AD1C1
:101A800001218C042046FFF7F8FD2046BDE81040F8
:101A90000021FFF7F2BD10BD30B50288AC4BB24C4F
:101AA00098420DD0A0420BD0B0F1804F08D0A94D84
:101AB000A84205D0A84DA84202D0A84DA84203D103
:101AC00022F070054A882A43A54DA84206D0A54DAC
:101AD000A84203D022F44075CA882A4302808A882B
:101AE00082850A88028598420AD0A04208D0A54A79
:101AF000904205D0A44A904202D0A44A904201D11B
:101B0000097A01860121818230BD30B5028C22F034
:101B100001020284028C8388048B22F0020224F0EA
:101B200073050C882C430D8915434A882A43884D38
:101B3000A8420BD08C4DA84208D0924DA84205D0A7
:101B4000914DA84202D0914DA8420DD122F0080536
:101B50004A8923F440732A4322F004058A882A43E1
:101B60008D891D43CB892B4383800483C98881865B
:101B7000028430BD70B5028C22F010020284028C07
:101B80008488038B0D8823F4E6464FF6FF7303EA3F
:101B9000052535430E8922F0200203EA0616164376
:101BA0004A8803EA02123243694EB04202D06E4EB6
:101BB000B04215D122F080064A8924F4406403EA39
:101BC0000212324322F040068A8803EA02123243AC
:101BD0008E8903EA86062643CC8903EA84043443CB
:101BE00084800583C9880187028470BD70B5028C2A
:101BF00022F480720284028C8488838B0D8823F007
:101C000073031D4322F400730E894FF6FF7202EA3C
:101C100006261E434B8802EA032333434C4EB04250
:101C200002D0514EB04215D123F400664B8924F402
:101C3000405402EA0323334323F480668B8802EA8C
:101C4000032333438E8902EA06162643CC8902EA2F
:101C50000414344384808583C9888187038470BDDC
:101C600070B5028C22F480520284048C8288838BAB
:101C70000D8823F4E6464FF6FF7303EA0525354346
:101C800024F400560C8903EA043434434E8803EAF2
:101C9000063626432E4CA04202D0334CA04205D13A
:101CA00022F480448A8903EA821222438280858357
:101CB000C988A0F84010068470BD828B22F440626F
:101CC0008283828B4FF6FF7303EA01210A438283EA
:101CD0007047828B22F00C028283828B0A438283BC
:101CE0007047028B22F440620283028B4FF6FF732F
:101CF00003EA01210A4302837047F0B5048C24F003
:101D000010040484078B048C4FF6FF7527F4734787
:101D100005EA03333B4305EA02221A430C4B05EA6A
:101D2000011698420ED0104B98420BD0B0F1804F64
:101D300008D0084B984205D0074B984202D0074B79
:101D4000984225D124F02001314341F0100124E0D4
:101D5000002C01400004004000080040000C00403E
:101D6000001000400014004000340140004C0140CD
:101D7000005001400054014000180040001C004089
:101D80000020004000400140004401400048014064
:101D900024F0A0030B4343F0100102830184F0BD43
:101DA000028B22F00C020283028B0A4302837047EB
:101DB00070B5048C24F001040484058B048C4FF668
:101DC000FF7606EA0313134325F0F305F84A2B4385
:101DD00090420ED0F74A90420BD0B0F1804F08D01D
:101DE000F54A904205D0F54A904202D0F44A90421A
:101DF00002D124F0020201E024F00A020A4342F078
:101E000001010383018470BD2DE9F05F0D46044696
:101E10000888E74FDFF89CC3DFF89C834988AA88CD
:101E20002B894FF0804960B3042832D04FF6FF7EF3
:101E3000082836D0208C9B4620F480502084A38B29
:101E4000268C704600EA022223F473431A4300EA08
:101E50000B3010430EEA013EBC420BD0644509D062
:101E60004C4507D0444505D0D44A944202D0D44BC7
:101E70009C4245D126F4005141EA0E0141F48051C3
:101E800043E02046FFF794FFE9882046BDE8F05F75
:101E900086E72046FFF731FFE9882046BDE8F05F7E
:101EA0001FE7208C20F480702084B4F81CA0208CC4
:101EB0000EEA031313432AF0F30A0EEA012B43EA56
:101EC0000A03BC420BD0644509D04C4507D04445B9
:101ED00005D0BA4A944202D0B94A944204D120F4BF
:101EE000007040EA0B0002E020F42060084340F458
:101EF0008070A3832084E9882046BDE8F05FE8E68F
:101F000026F402420A4342F48051A08320462184F1
:101F1000E988BDE8F05FD0E62DE9F0410C460025E8
:101F200049880746012601B90225A288012A00D165
:101F30000226208823890028384610D0FFF7DDFECE
:101F4000E1883846FFF7CDFE2389324629463846D8
:101F5000FFF72EFFE1883846BDE8F04120E7FFF7A4
:101F600027FFE1883846FFF71BFF238932462946C1
:101F70003846FFF7C2FEE1883846BDE8F041B0E6DA
:101F800010B50A884B88CC881A438B8823431A43A0
:101F90000B891A434B8989891A430A43A0F84420C4
:101FA00010BD4FF6FF71818000210180C18041800A
:101FB000017270470021018041808180C1800181D0
:101FC00041818181C18170470021018041800122CE
:101FD0008280C18001817047002101804180818021
:101FE000C18001814181818170470029018802D02F
:101FF00041F0010101E021F0010101807047002959
:1020000030F8441F02D041F4004101E0C1F30E0159
:1020100001807047002A828901D00A4300E08A4388
:1020200082817047818270471143A0F84810704741
:10203000002A828901D00A4300E08A4382817047E6
:10204000018921F0070101817047028922F07002A5
:102050000A430281704700B50346FFF7F6FF18896F
:1020600040F00700188100BD70B50D4611460446CA
:10207000602D4FF001020AD0FFF79AFE2946204654
:10208000FFF7E3FF208940F00700208170BDFFF7D4
:1020900034FEF3E730B504894FF6FF7505EA0323F4
:1020A0001343E4B20B432343038130BD10B5044610
:1020B000FFF7F0FF208940F07700208110BD10B5B8
:1020C0000446FFF7E7FF208940F48040208110BDDF
:1020D000018582827047028822F070020A430280E2
:1020E000704770B50589048B068C25F007050D43F4
:1020F0004FF6FC410C4040F201110C434FF6FF71CA
:1021000001EA031126F022061143314305810483BD
:10211000018470BD028B22F070020A430283704773
:10212000028B4FF6FF7322F4E04203EA01211143D0
:1021300001837047828B22F070020A4382837047CA
:10214000828B4FF6FF7322F4E04203EA0121114330
:10215000818370470029018802D041F0800101E0AD
:1021600021F08001018070470029818802D041F070
:10217000040101E021F00401818070470029818879
:1021800002D041F0080101E021F008018180704790
:102190000029818802D041F0010101E021F0010114
:1021A00081807047028B22F008020A430283704745
:1021B000002C0140003401400004004000080040B1
:1021C000000C0040028B4FF6FF7322F4006203EA1A
:1021D000012111430183EAE7828B22F008020A43BE
:1021E0008283E4E7828B4FF6FF7322F4006203EAF6
:1021F000012111438183DAE7028B22F004020A43B2
:102200000283D4E7028B4FF6FF7322F4806203EA65
:10221000012111430183CAE7828B22F004020A43A1
:102220008283C4E7828B4FF6FF7322F4806203EA55
:10223000012111438183BAE7028B22F080020A4315
:102240000283B4E7028B4FF6FF73C2F30E0203EA78
:10225000012111430183AAE7828B22F080020A4305
:102260008283A4E7828B4FF6FF73C2F30E0203EA68
:102270000121114381839AE7028C22F002020A4372
:10228000028494E7028C22F008020A4302848EE75B
:10229000028C4FF6FF7322F0200203EA0111114372
:1022A000018484E7028C4FF6FF7322F0800203EA78
:1022B0000111114301847AE7028C4FF6FF7322F477
:1022C000007203EA01211143018470E7028C4FF68A
:1022D000FF7322F4006203EA01211143018466E7DF
:1022E000028C4FF6FF7322F4005203EA01311143CE
:1022F00001845CE710B50123048C8B409C4304846B
:10230000038C8A401343038410BD10B50423048C4E
:102310008B409C430484038C8A401343038410BD88
:1023200030B50124058C00F118038C40A5430584C9
:1023300089B108290FD0091FC1F34E001844016864
:1023400021F4E041016001684FF6FF7303EA0222C5
:102350001143016030BD03EB5100016821F07001B1
:1023600001600168F4E70029018802D041F0020110
:1023700001E021F00201018019E70029018802D063
:1023800041F0040101E021F0040101800FE7002980
:10239000818802D041F0800101E021F0800181803C
:1023A00005E7028822F00802028002880A430280C0
:1023B000FDE6828822F07002828082880A43828051
:1023C000F5E6028922F00702028102890A430281AE
:1023D000EDE6028922F08002028102890A4302812D
:1023E000E5E68184E3E68185E1E68186DFE6018733
:1023F000DDE68187DBE6A0F84010D8E6028822F40B
:102400004072028002880A430280D0E6808ECEE6C7
:10241000008FCCE6808FCAE6B0F84000C7E6808C1B
:10242000C5E6008DC3E602460020128A0A4200D0AB
:102430000120BCE6C9430182B9E602460020138AA6
:1024400092890B4202EA010202D0002A00D0012048
:10245000ADE6C9430182AAE6C64910B588420AD151
:1024600001218C032046FFF708F92046BDE8104003
:102470000021FFF702B9C049884202D101214C0472
:1024800010E0BE49884202D101218C040AE0BC4917
:10249000884202D10121CC0404E0BA4988420AD121
:1024A00001210C052046FFF7F1F82046BDE8104059
:1024B0000021FFF7EBB810BD30B50446008A85B0A7
:1024C0000D464CF6FF710840E98801432182A1893D
:1024D0004EF6F3100140A8882A8910436A890A43FE
:1024E0001043A081A08A4FF6FF410840A98901430B
:1024F000A1826846FFF761F89E48844201D10398A3
:1025000000E00298A1890904002900EBC00101EB59
:102510000010296802DA4FEA410101E04FEA810127
:10252000B0FBF1F06422B0FBF2F14FEA01114FEA87
:1025300011136FF018056B4300EB8300A3891D0492
:102540004FF0320306D503EBC000B0FBF2F000F011
:10255000070005E003EB0010B0FBF2F000F00F0005
:102560000843208105B030BD4FF4165101600021B1
:102570008180C18001810C2242818181704710B528
:10258000038A4FF2FF0213400A884C8822438C884A
:10259000C9880C4322431A43028210BD00210180E6
:1025A00041808180C18070470029818902D041F437
:1025B000005101E021F400518181704710B5C1F351
:1025C000421301F01F040121A140012B07D0022B6F
:1025D00007D01430002A026805D00A4304E00C300A
:1025E000F8E71030F6E78A43026010BD002A828ABD
:1025F00001D00A4300E08A4382827047028A22F0B7
:102600000F020282028A0A4302827047828922F400
:102610000062828182890A43828170470029818910
:1026200002D041F0020101E021F0020181817047F6
:10263000028A22F020020282028A0A430282704742
:102640000029018A02D041F4804101E021F4804157
:1026500001827047C1F30801818070478088C0F310
:1026600008007047818941F0010181817047028B28
:10267000D2B20283028B42EA012101837047028BAE
:1026800002F47F420283028B0A43028370470029CF
:10269000818A02D041F0200101E021F020018182F5
:1026A00070470029818A02D041F0100101E021F039
:1026B0001001818270470029818A02D041F008010F
:1026C00001E021F00801818270470029818902D050
:1026D00041F4004101E0C1F30E01818170470029FE
:1026E000818A02D041F4006101E021F4006181821D
:1026F0007047828A22F004028282828A0A4382829E
:1027000070470029818A02D041F0020101E021F0E6
:102710000201818270470246002012880A4200D0DE
:1027200001207047C9430180704730B501F01F0296
:1027300001240025C1F3421304FA02F2012B0FD049
:10274000022B0FD0838A4FEA11210088134204FA2A
:1027500001F400EA040001D000B10125284630BD93
:102760008389F0E7038AEEE70A0A01219140C94311
:10277000018070470038014000440040004800409C
:10278000004C004000500040474810B5016841F03F
:10279000010101604168454A114041600168444AB5
:1027A00011400160016821F480210160416821F439
:1027B000FE0141604FF41F01816000F030F83D4997
:1027C0004FF00060086010BD374910B548683A4ABC
:1027D00010F00C03394803D0042B01D0082B0BD088
:1027E00002604968354AC1F30311121D515C026849
:1027F00022FA01F2026010BD4A684B6802F47012BE
:102800004FF0020413F4803F04EB924202D04B6875
:102810009B0301D52A4B00E0274B5A43E0E72248AF
:102820000021026842F4803202604FF4A063026823
:1028300001F1010112F4003F01D19942F7D1016881
:10284000890330D51F490A6842F010020A600A68FD
:1028500022F003020A600A6842F002020A6041683C
:10286000416041684160416841F480614160416874
:1028700021F47C114160416841F4E8114160016834
:1028800041F08071016001688901FCD5416821F047
:1028900003014160416841F0020141604168C1F3B8
:1028A00081010229FAD17047001002400000FFF8B0
:1028B000FFFFF6FE08ED00E000127A00040200209F
:1028C00000093D00002002400648804706480047B6
:1028D000FEE7FEE7FEE7FEE7FEE7FEE7FEE7FEE7D0
:1028E000FEE7FEE7892700083101000830B50B46F6
:1028F000014600202022012409E021FA02F59D4230
:1029000005D303FA02F5491B04FA02F52844151E03
:10291000A2F10102F1DC30BD2DE9F05F0546002097
:1029200092469B4688460646814640241BE0284640
:1029300041464746224600F0F6F953465A46C01A29
:10294000914110D311461846224600F0DDF92D1AA8
:1029500067EB01084F4622460120002100F0D4F920
:1029600017EB00094E41201EA4F10104DFDC4846AC
:1029700031462A464346BDE8F09F2DE9FE4F80468A
:1029800081EA0300C00F0C46009021F0004123F0C3
:102990000045B8EB0200A94105D2404621469046C9
:1029A0001C460B46024623F00040104304D140462B
:1029B000214603B0BDE8F08F270DC7F30A00C3F32B
:1029C0000A510290401A0190402866DAC3F31300BE
:1029D00040F4801B0098924620B10023D2EB030AFA
:1029E00063EB0B0B01985946C0F14002504600F0D2
:1029F0008BF906460D4650465946019A00F0A3F958
:102A000010EB08006141002487EA115284EAE77361
:102A10001A433BD0009A3AB3019A012A4FEA07526F
:102A200010DC001B61EB02014FF0004202EA07528A
:102A3000CDE90042001C41F5801132462B4600F0E2
:102A4000A1F9B6E7001B61EB0201001C41F5801300
:102A500000185B412018A2F5001747EB030140EA7C
:102A6000D570B6196D4111E06D084FEA360645EA9A
:102A7000C0754FEA0752001B61EB0201001C41F5D3
:102A8000801149084FEA30000019514132462B4667
:102A900003B0BDE8F04F00F068B900980122400093
:102AA0000023D0EB020263EBE073009821464FEA6B
:102AB000E074B8EB000061EB0401E9E783F0004348
:102AC0005BE781F0004158E72DE9FE4F81EA0304FE
:102AD00004F0004421F0004100944FF0000B23F07B
:102AE000004350EA010402D052EA030404D100205A
:102AF000014603B0BDE8F08FC3F30A54C1F30A5591
:102B00002C44A4F2F3340194A0FB0254C1F313014A
:102B100041F48011C3F3130343F4801301FB024417
:102B200000FB034E840A970A44EA815447EA83571C
:102B3000A4FB076802958D0A05FB07854FEA932CD5
:102B400004FB0C542705029D4FEA065847EA163746
:102B5000B5EB08056EEB070C870E920E47EA81175E
:102B600042EA8312A7FB0201B6EB0B0164EB0004FF
:102B70002B0D43EA0C335E1844EB1C50DA465146E9
:102B8000E7FB0201C5F313044FEA0B3343EA145386
:102B90004FEA0432019C43EA0603A4F10C040294B8
:102BA000009CCDE900B400F0EDF8A2E72DE9F04D6E
:102BB00081EA030404F0004B21F0004514464FF075
:102BC000000A23F0004150EA050220D054EA010235
:102BD0001DD0C5F30A570246C5F31303C1F3130012
:102BE000C1F30A5640F4801543F48013A7EB06089E
:102BF000101BD64608F2FD3873EB050002D308F12E
:102C0000010801E092185B41B8F1000F03DA0020DF
:102C10000146BDE8F08D00204FF480110646844641
:102C20000EE0171B73EB050705D3121B63EB0503BF
:102C300006434CEA010C49084FEA300092185B4108
:102C400050EA0107EDD152EA030012D082EA0400F3
:102C500083EA0501084303D100224FF0004308E056
:102C6000101BAB4102D20122002302E06FF00102EF
:102C700053101AEB06004CEB085110EB0A0041EB25
:102C80000B01BDE8F04D00F070B8C1F30A52C1F37A
:102C9000130140F2FF3341F480119A4202DA00201E
:102CA0000146704740F233439A42A2F2334202DCBB
:102CB000524200F038B800F027B8000030B50029C3
:102CC00004DB4FF00044404264EB0101002B04DBC5
:102CD0004FF00044524264EB0303994208BF904214
:102CE00030BD0000064C074D06E0E06840F00103EF
:102CF00094E8070098471034AC42F6D3FDF71CFA6D
:102D0000D0370008F0370008202A04DB203A00FA08
:102D100002F1002070479140C2F1200320FA03F332
:102D2000194390407047202A04DB203A21FA02F030
:102D30000021704721FA02F3D040C2F120029140F5
:102D4000084319467047202A06DBCB17203A41FA80
:102D500002F043EAE07306E041FA02F3D040C2F128
:102D60002002914008431946704710B5002B08DA3D
:102D7000401C41F1000192185B411A4301D120F03F
:102D8000010010BD2DE9F04D92469B4611B1B1FAFC
:102D900081F202E0B0FA80F220329046FFF7B4FFF1
:102DA00004460F4640EA0A0041EA0B0153465A46E0
:102DB000084303D120463946BDE8F08D114653EA59
:102DC000010015D0C8F140025046FFF7ACFF0546A0
:102DD0000E46504659464246FFF796FF084301D03B
:102DE000012000E00020054346EAE0762C4337430B
:102DF0000A984FEA4453A0EB08004FEAD4240A3063
:102E00004FF0000244EA47544FEAD72502D500208C
:102E10000146D1E7010510196941DDE908450019AE
:102E20006941BDE8F04DA0E770B501EB020410F870
:102E3000015B15F0070301D110F8013B2A1106D1FF
:102E400010F8012B03E010F8016B01F8016B5B1E19
:102E5000F9D12B0705D40023521E0FD401F8013BF2
:102E6000FAE710F8013B02F10202A1EB030303E0D1
:102E700013F8015B01F8015B521EF9D5A142D6D3CC
:102E8000002070BD37B514460846064B6A462146F9
:102E900000F0C8F804466946002000F066FC2046B1
:102EA0003EBD00006B37000802E008C8121F08C1D1
:102EB000002AFAD170477047002001E001C1121FBB
:102EC000002AFBD1704700002DE9FF5FDDE90220F9
:102ED000010DDDF838B0024310D10F9801244CA247
:102EE000012808D0002100980F9BC0E90021C0E90B
:102EF0000243BDE8FF9F6FEA0B01F4E7A1F2FF3147
:102F000044F6105041430D140F9801280ED0A5EB44
:102F10000B00401C4FF000043E4EDFF8FC90B0F177
:102F2000000AA04605DACAF1000717E0CBF100005D
:102F3000F0E7074612E0F80707D02246334640463E
:102F40004946FFF7C1FD8046894622463346104672
:102F50001946FFF7B9FD04460E467F10002FEAD14F
:102F6000DDE90201BAF1000F42464B4602DAFFF7F3
:102F7000ABFD01E0FFF71AFE04460E460022274B88
:102F8000FFF79CFE03D84FF0FF30014607E0002218
:102F9000234B20463146FFF7F0FCFFF776FE102466
:102FA00009E0002C0ADB0A220023FFF7B5FC019B95
:102FB00030321A55641E50EA0102F2D1641C019AA3
:102FC000C4F1110314440F9A012A09D001220843C5
:102FD00001D15B450FDD4FF0000205F101050DE069
:102FE000084303D1A3EB0B056D1E09E000204FF051
:102FF000110B0F9088E701DA00226D1E002A83D0A2
:1030000000980F99C0E90231C0E9004571E700005E
:1030100030000000000024400000F03F0000F043BA
:103020000000E03F2DE9FF4F95B09B4689460646DC
:10303000002512E2252878D10024761CF94A27467B
:10304000012105943378203B01FA03F0104202D0AD
:103050000443761CF6E730782A2811D06FF02F034E
:103060003078A0F13002092A16D8059A44F00204FB
:1030700002EB820203EB42021044761C0590EFE75C
:1030800059F8042B0592002A03DA504244F4005404
:10309000059044F00204761C30782E2816D116F8DC
:1030A000010F44F004042A280DD06FF02F0230786D
:1030B000A0F13003092B09D807EB870302EB430388
:1030C000C718761CF3E759F8047B761C30786C2817
:1030D0000FD006DC4C2817D068280DD06A2814D1F0
:1030E00004E0742810D07A280FD10DE044F40014C5
:1030F0000AE044F4801401E044F4401472788242FF
:1031000002D1761C04F58014761C307866280BD02A
:1031100013DC582877D009DC002875D04528F6D074
:103120004628F4D047281AD19FE118E0632835D00B
:10313000642879D0652812D197E1702873D008DC13
:103140006728F1D069286FD06E280DD06F2806D17E
:10315000B5E073282CD0752875D0782874D05A46DD
:10316000179990476D1C76E1C4F30250022809D0EC
:1031700003280DD0D9F8001004280DD00D6009F1F6
:10318000040968E1D9F80010EA17C1E90052F6E72E
:10319000D9F800100D80F2E70D70F0E719F8041B64
:1031A0008DF8001000208DF80100EA46012003E0B0
:1031B00059F804AB4FF0FF3061074FF0000102D423
:1031C0000DE008F101018846B9420FDA8045F8DBCD
:1031D0001AF808100029F4D108E008F10101884626
:1031E0008142FADB1AF808100029F6D105985B46EF
:1031F000A0EB080721463846179A00F09EFA2844AB
:1032000000EB080507E04DE02BE10DE01AF8010B9B
:103210005A4617999047B8F10108F7D25B46214604
:103220003846179A14E142E00A220092C4F302528F
:103230004FF0000A022A08D059F804CB032A4FEABB
:10324000EC710AD00DE029E02AE009F1070121F034
:103250000702F2E802C1914609E00FFA8CFC4FEA3E
:10326000EC71042A03D14FFA8CFC4FEAEC7100296F
:1032700007DA0A460021DCF1000C61EB02012D2285
:1032800002E0220504D52B228DF80420012203E060
:10329000E20701D02022F7E7904653E00A2102E03E
:1032A00010220DE010214FF0000A00910BE01022D7
:1032B0004FF0000A44F004040827009203E00822BB
:1032C0004FF0000A0092C4F30252022A05D059F8C6
:1032D00004CB0021032A08D009E009F1070121F0FD
:1032E0000702F2E802C1914605E01FFA8CFC042AAD
:1032F00001D10CF0FF0C4FF00008220722D57028F6
:1033000027D0009B83F0100353EA0A0309D15CEA3B
:10331000010206D030228DF804208DF8050002222B
:103320009046009B83F0080353EA0A030AD15CEA43
:10333000010201D1620705D530228DF804204FF03B
:1033400001087F1E582809D037A003900EA80290CC
:1033500013E040228DF804200122E1E737A0F4E7D2
:1033600053466046009AFFF7D7FA84460398825C7A
:103370000298A0F10100029002705CEA0100EFD116
:10338000029806A9A1EB000000F1200A600702D50F
:1033900024F4803400E00127574502DDA7EB0A0042
:1033A00000E0002000EB0A01009005984144A0EBEA
:1033B00001000590E00306D45B462146179A059864
:1033C00000F0BBF90544002706E001A85A46C05D9D
:1033D000179990476D1C7F1C4745F6DBE0030CD521
:1033E0005B462146179A059800F0A7F9054404E0CA
:1033F00030205A46179990476D1C0099481E00903E
:103400000029F5DC08E0029802995A460078491C28
:103410000291179990476D1CBAF10001AAF1010AB7
:10342000F1DC6BE1092801003031323334353637B5
:103430003839616263646566000000003031323300
:1034400034353637383941424344454600000000A0
:1034500000F060F9054406F10106307800287FF499
:10346000E9AD19B02846BDE8F08F620700D4062701
:1034700009F1070222F0070CFCE80223E14603F001
:1034800000485FEA080C02D00FF27C2C0DE05FEAE6
:10349000045C02D50FF2742C07E05FEAC47C02D012
:1034A0000FF26C2C01E0AFF2700C4FF0FF3823F0FC
:1034B0000043CDF850C065280CD006DC452809D063
:1034C00046281DD047283ED13EE0662818D0672800
:1034D00039D139E00021112F01DB112000E0781CE7
:1034E000CDE9000106A90EA8FFF7EEFCDDE90F010A
:1034F0000E9A03910021009207F1010A04914EE017
:103500004FF000400097CDE9011006A90EA8FFF783
:10351000DBFCDDE90F0203920E9B11990022DDF81E
:103520000CA00093049219B907F1010100EB010A04
:10353000B7EB0A0004D4C0F1FF3007F1010A049090
:10354000AAEB0700019046E0012F00DA01270021D5
:10355000112F01DD112000E03846CDE9000106A958
:103560000EA8FFF7B1FCDDE90F010E9A03910021CF
:1035700004910092BA4621070CD40399514500DA10
:103580008A46BAF1010F05DD009AAAF10101515CEA
:10359000302908D0B84202DA10F1040F06DA01210E
:1035A000CDE9011017E0AAF10101E9E7002805DCE7
:1035B000049901440491AAEB000102E0411C514529
:1035C00000DD8A460499A0EB010000F101000190A2
:1035D0004FF000400290200704D40198504501DBD1
:1035E000CDF8048000208DF84F0002980DF14F07B0
:1035F000B0F1004F25D02B200E9002984FF002081A
:1036000000280CDA404202902D200E9007E00A219B
:103610000298FFF76BF93031029007F8011DB8F1FD
:103620000001A8F10108F2DC02980028EFD1791E10
:103630000E980870307800F0200040F0450007F840
:10364000020D12A8A0EB070000F1070814980078FB
:1036500000B1012000EB0A01019801EBE07105982F
:103660004144A0EB0100A0F101000590E00306D465
:103670005B462146179A059800F05FF805441498B8
:10368000007820B15A461799904705F10105E003EB
:1036900023D55B462146179A059800F04EF805445D
:1036A0001BE00498002807DB0399814204DD04999C
:1036B0000098405C179901E0179930205A469047CE
:1036C00004986D1C401C04900198401E019004D188
:1036D0002E205A46179990476D1CBAF10001AAF1A5
:1036E000010ADEDC05E017F8010B5A4617999047EE
:1036F0006D1CB8F10001A8F10108F4DC5B4621461D
:10370000179A0598A4E600002D0000002B00000089
:10371000200000002DE9F041044600251E46174612
:10372000880405D406E039462020B04705F101059C
:10373000641EF8D52846BDE8F0812DE9F041044625
:1037400000251E469046C80301D5302700E02027FB
:10375000880405D506E041463846B04705F1010525
:10376000641EF8D52846BDE8F0810A68531C0B603A
:1037700010707047004000000000020000000400CC
:103780000000080000001000040000000400000019
:1037900020000000100000001000000004000000E5
:1037A00004000000200000001000000020000000C5
:1037B00000020400000100040010000408000002E0
:1037C0000008040025002600270034003500000012
:1037D000F03700080000002018020000282E000822
:1037E000A439000818020020C80C0000B82E0008F8
:1037F0006112021203120512071209120B120C12A7
:103800000E121012121213121512171219121B1285
:103810001D121F12201222122412261228122A12FE
:103820002D122F1231123312351237123A123C1266
:103830003E1241124312461249124B124E125112BD
:10384000541257125A125D126112641268126B12EE
:103850006F12731277127B12801285128A128F12E6
:1038600094129A12A012A612AD12B412BC12C41273
:10387000CD12D612E112EC12F8202B050113012211
:1038800001340147015D0175019101B101D60102C9
:103890000237027702C8022E03B703770496057435
:1038A00007300B6116104710270E270A270227F84A
:1038B00026EA26D926C526AF269526782658263507
:1038C000261026E725BB258D255B252725EF24B56A
:1038D0002478243824F523AF2367231C23CE227DAC
:1038E000222A22D4217C212021C3206220104420BE
:1038F0009A1F321FC81E5B1EEC1D7B1D071D921CEC
:10390000191C9F1B231BA41A231AA1191C199518F3
:103910000D188217F6166816D8154615B3141E141E
:103920008813F0125712BC1120118210E30F430FBD
:10393000A20E0029110E5C0DB80C120C6C0BC40AFF
:103940001C0A7309CA081F087407C8061C067005FC
:10395000C30415046803BA020B025D01AF16805060
:1039600006015CB3E8FE14380140124412401A48C4
:10397000041A4C041A50041A081429041A14045A7C
:103980001004E9141908B202031601013D020406ED
:1039900008202C0203040415060708097CA24A0427
:0439A000385914007E
:0400000508000131BD
:00000001FF
