:020000040800F2
:10000000C89000206938000871380008733800086B
:1000100075380008773800087938000800000000BB
:100020000000000000000000000000007B38000815
:100030007D380008000000007F3800088138000883
:1000400083380008833800088338000883380008A4
:100050008338000883380008833800088338000894
:100060008338000883380008833800088338000884
:100070008338000883380008833800088338000874
:100080008338000883380008833800085F050008BB
:10009000F705000883380008833800088338000813
:1000A0008338000883380008833800088338000844
:1000B000BD1600088338000883380008833800081C
:1000C0008338000883380008833800088338000824
:1000D000833800086D02000893020008B902000886
:1000E0008338000883380008833800088338000804
:1000F00083380008833800088338000883380008F4
:1001000083380008833800088338000883380008E3
:10011000DF02000805030008833800088338000860
:1001200083380008833800088338000883380008C3
:10013000DFF80CD003F0AAFD004800478501000855
:10014000C89000204FF07300A0F101000028FBD1FF
:100150007047000008B50121082002F044FA482049
:100160008DF8030003208DF80200C020ADF80000D8
:1001700069466E4802F04DF808BD6D484188491C3B
:100180004180704701F076FA4FF4FC634FF47842F7
:100190004FF6E071012000F066FE00F0D5FA00F0A5
:1001A00059FA00F0EDF901F08DFBFFF7D3FF4FF4A2
:1001B000E131002001F0A6FA5D4800227821001DFF
:1001C00000F0ADFB01210E2001F09EFB4FF47A7090
:1001D00000F0F7FB00210E2001F096FB544C00BF0D
:1001E00001F042FA21888842FAD001F03DFA052157
:1001F000B0FBF1F2208001FB120080B901F037FA68
:1002000068B10120A12660F3070501F030FA294604
:1002100060F30F2123461A46304600F03DF921884D
:100220004FF4FA70B1FBF0F200FB121020B9D9B113
:1002300000210E2001F068FB21883220B1FBF0F292
:1002400000FB12100028CBD100F009FF002139A2D9
:10025000084600F083FF63883AA20121002000F0E5
:100260007DFF00F0C8FFBBE70121E2E710B5364C87
:1002700040F22551204603F01DFA002808D0204600
:1002800003F0B1F9C1B2BDE81040002001F0C1BADD
:1002900010BD10B52D4C40F22551204603F00AFA4E
:1002A000002808D0204603F09EF9C1B2BDE81040F6
:1002B000012001F0AEBA10BD10B5254C40F2255119
:1002C000204603F0F7F9002808D0204603F08BF908
:1002D000C1B2BDE81040022001F09BBA10BD10B5BC
:1002E0001C4C40F22551204603F0E4F9002808D0C8
:1002F000204603F078F9C1B2BDE81040032001F0B8
:1003000088BA10BD10B5144C40F22551204603F0B8
:10031000D1F9002808D0204603F065F9C1B2BDE844
:100320001040042001F075BA10BD0000000C01401F
:100330000000002048454C4C4F5F574F524C442121
:100340000000000025640000003801400044004027
:1003500000480040004C004000500040BA4800886F
:100360007047B94840887047B74948880A88801A5A
:1003700000B2002802DA8988084400B280B27047CF
:10038000B14801884088814201D101207047002096
:100390007047AE4801680268C1F38061C2F3C06271
:1003A00000681144C0F300700844704730B58BB04A
:1003B000FFF7E6FF10B100200BB030BDFFF7E9FFFB
:1003C0000028F9D0A04C2088A16801EB0012126827
:1003D0000192042202EB00128A5C8DF808200522AB
:1003E00002EB00128A5C8DF80920062202EB001253
:1003F0008A5C8DF80A20072202EB00128A5C8DF8D5
:100400000B20082202EB00128A5C8DF80C200922D6
:1004100002EB00128A5C8DF80D200A2202EB00121A
:100420008A5C8DF80E200B2202EB00128A5C8DF89C
:100430000F200C2202EB0010085C019905918DF849
:10044000100000219DF808008DF81D108DF81C107B
:1004500006918DF81E0001A905AA03E00B181518D6
:100460005B79EB72401EC0B2F8D2099805AD0090DE
:1004700095E80F0000F052F938B12088A188401C9F
:10048000B0FBF1F201FB12002080FFF782FF08B100
:10049000FFF78CFF01208FE72DE9F0416A4C65885A
:1004A000A7886E1CB6FBF7FC07FB1C662788BE42BC
:1004B00004D1FFF77BFF0020BDE8F081A66806EBC2
:1004C0000515286065880426A06806EB05154155CA
:1004D000080A66880527A56807EB0616A8550D0CBF
:1004E00066880627A06807EB06168555080E6588FE
:1004F0000726A16806EB0515485561880825A06800
:1005000005EB01114254110A65880926A06806EB23
:1005100005154155100C65880A26A16806EB0515DE
:100520004855100E62880B25A16805EB021288540D
:1005300061880C22A06802EB011143546088A188F5
:10054000401CB0FBF1F201FB12006080FFF72EFFB0
:100550000120B1E73C48002141800180704710B57F
:100560003A4C0121083C204601F066FD002806D0E7
:100570000121204601F0B1FDBDE8104016E710BD95
:1005800008B514208DF8000000208DF8010004202B
:100590008DF8020001208DF80300684601F00BFA87
:1005A00008BD7FB5284C15461F22241F42EA411280
:1005B00021788DF80A1000214FF6FF7606EA4010E8
:1005C0000123ADF800008DF80B108DF80C30ADF85C
:1005D0000420ADF80210ADF80610ADF808108DF843
:1005E0000D30684601F0C1FA1949207841F82050D1
:1005F000401C20707FBD10B5144C86B0083C022111
:10060000204601F06AFD01AA0021204601F0F8FB16
:100610009DF80C00002814D10B499DF81700091F04
:10062000097888420DD21C280BD2094951F8204084
:10063000002C06D005980DF1040C00909CE80F00EA
:10064000A04706B010BD0000140000200864004060
:10065000BC83002070B5012186B0084601F0C3FFBD
:100660000121042001F0BFFF0121480601F0C4FF71
:100670000121042001F0B7FF4FF40060ADF80C0039
:1006800048208DF80F002C4D03248DF80E4003A94F
:10069000284601F0BEFDA814ADF80C0018208DF816
:1006A0000F008DF80E4003A9284601F0B2FD234E3D
:1006B000304601F0D3F9684601F0B8FA00248DF80D
:1006C000064001258DF8075002208DF804008DF8B2
:1006D00002408DF803400620ADF8000002948DF82A
:1006E00005506946304601F0CCF9012211463046EA
:1006F00001F06AFC01220221304601F065FC132062
:100700008DF810008DF8114004208DF812008DF83E
:10071000135004A801F04FF906B070BD0FB407489C
:1007200010B502A901F0DCFA042803D0012010BCA6
:100730005DF814FB0020FAE7000801400064004067
:100740000021844802F01FBEF0B589B001210820C5
:1007500001F049FF18208DF81F0003208DF81E00BE
:100760000124ADF81C402146022001F045FF012183
:10077000084601F038FF2002ADF816007648002543
:10078000ADF8125000687549754EB0FBF1F0401E8F
:10079000ADF8100070896F4FADF8140004A9384609
:1007A00002F042F96020ADF80850ADF80000B078D2
:1007B000ADF80600ADF802400121384602F093FC86
:1007C0000121384602F0D9FB6946384602F0D6F9D5
:1007D00007A9644801F01DFDFFF7B2FF09B0F0BDA5
:1007E0005F48418941B1807841436420B1FBF0F01A
:1007F00081B2584802F0C7BDA2E718B1421C01D02F
:100800000C2801DD00207047574A32F8100000E044
:100810004008491EC9B2FBD27047514948810100C6
:1008200002D04C4802F0A9BD8AE738B54C4C21787B
:100830006078084318D02089401E0004000C2081F5
:1008400011D121B1207020B1FFF7CAFF03E00120D0
:10085000F8E7FFF775FFE08820812078002802D1B3
:100860006078401E607038BDE0780028FBD0A18918
:10087000606900EB41000088ADF800009DF90000C0
:10088000401C02D1E070FFF75BFF208A10B1401ED0
:10089000208238BDE0892082618A89B1207930B117
:1008A0000020207128B12182FFF74AFF03E00120D8
:1008B000F7E7FFF795FF608A10B120790028E8D1AB
:1008C000A089401C80B2A081616901EB40000088D2
:1008D000ADF800009DF801109DF90000FFF78DFFB5
:1008E000FFF79BFFBDE838407AE71D490020C8703C
:1008F000704710B500280BD0002909D0184C607043
:100900002181E18001202070FFF76AFF0020E07064
:1009100010BD642800D9642011498870704770B5F3
:10092000002815D00E4B002401251C705C70DD7072
:100930009C81D98119825A821C715861417890F941
:100940000000FFF75AFFFFF768FFBDE8704047E778
:1009500070BD000000040040A806002040420F00C7
:1009600020000020000C0140044700082C4A10B56C
:10097000117819B10A21B0FBF1F415E000EBC001C8
:1009800001234FF0E0201370416100218161036178
:100990000369DC0701D0DB03FAD5016181611170C5
:1009A00010BD00BFFFF7CEFB641EFBD210BD10B51B
:1009B0005FF00004FFF7C6FB641CE4B2642CF9D3BB
:1009C00010BD2DE9F041164A0446107820BB4FF0C7
:1009D000010C82F800C04FF47A7700254FF0E02038
:1009E00013E039468C4200D8214642F228334B436B
:1009F00043618561C0F810C00369DE0701D0DB03E5
:100A0000FAD505618561611A8CB2002CE9D11570A7
:100A1000BDE8F081FFF7CBFF641EA4B2FAD2F7E77E
:100A200038000020F0B587B00121042001F0DBFD83
:100A30000121082001F0D7FD0121202001F0D3FD84
:100A40000121084601F0CFFD0121C80301F0D4FDCA
:100A50000121FC4801F06CFC8020ADF8000010255D
:100A6000F94F8DF8035001248DF80240694638464D
:100A700001F0CFFB4020ADF800008DF803508DF859
:100A800002406946384601F0C4FB3820ADF800004A
:100A900018208DF8030003268DF802606946EB48A4
:100AA00001F0B7FB2020ADF800008DF803508DF861
:100AB00002606946384601F0ACFB0020ADF8040046
:100AC0004FF48271ADF80610ADF808000221ADF8C0
:100AD0000A10ADF80C400902ADF80E100821ADF86F
:100AE0001010DB4CADF8120001A9204601F0EEFD1C
:100AF0000121204601F067FE0021204601F0B2FEF0
:100B00000021204601F097FE07B0F0BD70B5CE4D34
:100B100006462021284601F0ECFB4021284601F042
:100B2000E8FBCB4C0221204601F0B9FE0028F9D0A9
:100B30003146204601F06FFE0121204601F0AFFE54
:100B40000028F9D0204601F068FE2846BDE8704034
:100B5000202101F0CCBB70B5BB4D064620212846B4
:100B600001F0C7FB4021284601F0C1FBB84C02212F
:100B7000204601F094FE0028F9D03146204601F0CD
:100B80004AFE0121204601F08AFE0028F9D02046C5
:100B900001F043FE2846BDE87040202101F0A7BBCC
:100BA00010B50120FFF7B2FF0A20FFF70AFF11205E
:100BB000FFF7ACFF7820FFF704FFB120FFF7A6FF97
:100BC0000120FFF7C8FF2C20FFF7C5FF2D20FFF7FE
:100BD000C2FFB220FFF79AFF0120FFF7BCFF2C20D5
:100BE000FFF7B9FF2D20FFF7B6FFB320FFF78EFF09
:100BF0000120FFF7B0FF2C20FFF7ADFF2D20FFF7FE
:100C0000AAFF0120FFF7A7FF2C20FFF7A4FF2D204C
:100C1000FFF7A1FFB420FFF779FF0720FFF79BFF45
:100C2000C020FFF773FFA220FFF795FF0220FFF718
:100C300092FF8420FFF78FFFC120FFF767FFC520D9
:100C4000FFF789FFC220FFF761FF0A20FFF783FF4C
:100C50000020FFF780FFC320FFF758FF8A20FFF72F
:100C60007AFF2A20FFF777FFC420FFF74FFF8A2083
:100C7000FFF771FFEE20FFF76EFFC520FFF746FF7D
:100C80000E20FFF768FF3620FFF740FFC820FFF770
:100C900062FFE020FFF73AFF0220FFF75CFF1C2015
:100CA000FFF759FF0720FFF756FF1220FFF753FF0A
:100CB0003720FFF750FF3220FFF74DFF2920FFF7C5
:100CC0004AFF2D20FFF747FF2920FFF744FF25208B
:100CD000FFF741FF2B20FFF73EFF3920FFF73BFFD7
:100CE0000020FFF738FF0120FFF735FF0320FFF753
:100CF00032FF1020FFF72FFFE120FFF707FF03204F
:100D0000FFF729FF1D20FFF726FF0720FFF723FF2E
:100D10000620FFF720FF2E20FFF71DFF2C20FFF7F6
:100D20001AFF2920FFF717FF2D20FFF714FF2E20B1
:100D3000FFF711FF2E20FFF70EFF3720FFF70BFF05
:100D40003F20FFF708FF0020FFF705FF0020FFF717
:100D500002FF0220FFF7FFFE1020FFF7FCFE2A2013
:100D6000FFF7D4FE0020FFF7F6FE0020FFF7F3FEAA
:100D70000020FFF7F0FE7F20FFF7EDFE2B20FFF7AE
:100D8000C5FE0020FFF7E7FE0020FFF7E4FE00208D
:100D9000FFF7E1FE9F20FFF7DEFE3A20FFF7B6FEE9
:100DA0000520FFF7D8FE2920FFF7B0FEBDE8104070
:100DB0000A20FFF706BE10B5234C8021204601F023
:100DC00098FA6420FFF7FDFD8021204601F08FFA9C
:100DD000BDE810406420FFF7F4BD2DE9F041054661
:100DE0002A20FFF793FE0020FFF7B5FE0020FFF753
:100DF000B2FE0020FFF7AFFE7F20FFF7ACFE2B20F6
:100E0000FFF784FE0020FFF7A6FE0020FFF7A3FEF9
:100E10000020FFF7A0FE9F20FFF79DFE2C20FFF78C
:100E200075FE00244FF4A0472E0A3046FFF793FECC
:100E3000E8B2FFF790FE641CA4B2BC42F5D3BDE853
:100E4000F08100000002300000140140000C01405D
:100E5000003C0040FE4908817047FD49C88070474A
:100E6000FB49888070472DE9F05F984615460C468F
:100E70000746FFF7D7FDFFF79EFFFFF791FE2C20F7
:100E8000FFF744FEF24E2046B480F580A6F80880B5
:100E9000FFF7A3FFF8073770002802D04FF01400C7
:100EA00001E04FF01000B07002D04FF0080001E0F8
:100EB0004FF00A00F070DFF89CE34FF000004FF0B5
:100EC000200B00BF00EB8001E34A4FF0000302EB70
:100ED000810702F5487202EB8109A2F57A7202EBF2
:100EE000410802F5167202EB810602F548720EEB1C
:100EF000410A02EB810200BF0AF803B027F8135041
:100F000029F8134008F803B026F8135022F81340CC
:100F100003F10103DBB20A2BEED3401CC0B214284C
:100F2000D0D3BDE8F09FCA49012048707047C84936
:100F300000204870704770B505460C462A20FFF720
:100F4000E5FD0020FFF707FE2846FFF704FE00201E
:100F5000FFF701FE6D1CE8B2FFF7FDFD2B20FFF748
:100F6000D5FD0020FFF7F7FD2046FFF7F4FD002038
:100F7000FFF7F1FD641CE0B2FFF7EDFDBDE8704046
:100F80002C20C3E52DE9F04104461D4616460F46C8
:100F90002A20FFF7BBFD0020FFF7DDFD2046FFF70D
:100FA000DAFD0020FFF7D7FD3046FFF7D4FD2B20F8
:100FB000FFF7ACFD0020FFF7CEFD3846FFF7CBFD75
:100FC0000020FFF7C8FD2846FFF7C5FDBDE8F0414A
:100FD0002C209BE52DE9F00F9D48DFF87892002248
:100FE000C68809F1C8098088202709F5167A09F50D
:100FF000AF6802EB820309EB43050AEB830400218F
:1010000008EB83036F5424F8116023F81100491C86
:10101000C9B20A29F6D3521CD2B2142AE9D3BDE8C8
:10102000F00FDAE6F0B58A4A8A4E0021D488938818
:10103000894F202506F5966E01EB810206EB420CE6
:10104000491C0CF8005007EB820C0EEB82022CF8C6
:101050001040C9B222F810301429EDD3F0BD10B5FC
:1010600000242046FFF7DEFF641CE4B20A2CF8D30C
:1010700010BD10B5FFF7AEFFFFF7F1FF7448017820
:10108000491C01F003010170C907002902D04FF08B
:10109000140101E04FF01001817002D04FF00801FF
:1010A00001E04FF00A01C17010BD0B46684910B550
:1010B0000978144631B1012906D0022912D003293A
:1010C00009D116E0194604E0C3F17F01CAB2014616
:1010D0001046FFF730FF200AFFF73DFDE0B2BDE804
:1010E000104038E5C3F19F01C0F17F00C9B2C0B222
:1010F000EFE7C0F19F00C1B21846EAE7F0B5554AE4
:1011000000EB8000C83202EB4006C83A02EB400216
:10111000544F555C514A16F801C002EB80044E4A08
:10112000AC4502EB800232F811304D4A02EB8002EE
:1011300007EB800030F8117007D134F811009842A5
:1011400003D132F81100B84201D0012000E00020A4
:10115000755424F8113022F81170F0BD0FB4F0B5B9
:10116000C1B00D460646002449AA6846489902F0D7
:1011700059FE37486A46C7880389818834E05B286E
:101180000AD05D280AD00D2809D00A2807D0142ECD
:1011900005D80A2D03D804E0012400E00024521CE5
:1011A00022E0DFF8B0E006EB860C0EEB4C0E521C92
:1011B0000EF805000CB1184600E03846DFF898E05C
:1011C000142E0EEB8C0E2EF81500264800EB8C002A
:1011D00020F8151003D300266D1CEDB201E0761C3B
:1011E000F6B20A2D00D3002510780028C7D141B0EF
:1011F000F0BC5DF814FB2DE9F05F1548407800283D
:101200007ED00020184CDFF850C04FF0400A4FF05D
:10121000200E04275FF0000101EB81030CEB830239
:10122000E34632F810500AEA55220EEA55163243C8
:1012300005F010052A430B4E04EB430506EB830330
:10124000022633F8103006EA5326C3F300180DE0E7
:101250003A0000202C840020BC8500204C87002010
:101260006C8A0020DC880020FC8B002007EA5333C6
:1012700046EA080613431E43491C09B22E5410299E
:10128000CADB401C00B20A28C4DBF448007878B1FD
:1012900001287DD002287CD0032831D113250026D7
:1012A000F1B2E8B2FFF72AFF002873D001276AE104
:1012B00000240026E1B2F0B2FFF720FFE8B30127D7
:1012C00005E000BFB9F1100F0DDA7F1C3FB206EB4D
:1012D0000709B9F1100F06DAE1B209F0FF00FFF7D4
:1012E0000DFF0028EED10F2000EB0410C3B2F1195E
:1012F000FF2000EBC100C2B22007010EF00600E0A3
:101300004EE0000EFFF73EFE4FF0000800252EE0F5
:10131000E81705EB507106EBE10000B2D04A00EB94
:10132000800002EB40031A5D1201A2F5007202EB8D
:101330000803CA4A0A32D25C00E025E021F0070126
:101340006B1A8021D9400A4202D00BEB800102E0E7
:10135000C44901EB800131F814A04FEA1A20FFF7CD
:10136000FAFB0AF0FF00FFF7F6FB6D1C2DB2B5EBA0
:10137000C70FCDDB08F101000FFA80F8B8F1100FAC
:10138000C4DBA9F1010006B2761C36B2102E02E0D1
:1013900007E078E056E18DDB641C24B20A2C88DB80
:1013A000BFE500260724E1B2F0B2FFF7A7FEE8B3DD
:1013B000012703E0002D09D47F1C3FB2E51B05D4B3
:1013C000E9B2F0B2FFF79AFE0028F3D1072000EB54
:1013D000C600C3B2C4F108003844EF2101EB00108D
:1013E000C2B2F006010EC4F107000007000EFFF7BD
:1013F000C9FD4FF0000800252FE0E81705EB10723B
:10140000974BA4EB221006EB860100B203EB4103DD
:1014100022F00F021B5CAA1A1B01A3F500739B1A92
:101420008E4A0A321A44D37B802200E022E022FA5C
:1014300008F2134202D00BEB810102E0894A02EB71
:10144000810131F810904FEA1920FFF784FB09F071
:10145000FF00FFF780FB6D1C2DB2B5EB071FCCDB47
:1014600008F101000FFA80F8B8F1080FC3DBE01BA8
:10147000401C04B2641E24B2002C94DA761C36B2EE
:10148000142E8FDB4DE509240F25E1B2E8B2FFF7FA
:1014900035FEE8B3012703E0002E09D47F1C3FB2DC
:1014A000EE1B05D4E1B2F0B2FFF728FE0028F3D11D
:1014B000C4F10A01FF2000EB0110C3B2C5F1100016
:1014C0003844F72101EBC000C2B2C4F109000007A3
:1014D000010EC5F10F00C006000EFFF753FD4FF0DF
:1014E0000008002633E0F01706EB5071A5EBE10091
:1014F00000B25B4A00EB800002EB40031A5DC8F1CA
:1015000010031201A2F500721344544A0A3200E09B
:101510002AE01A4421F00701711AC1F1070312F8F9
:10152000012C8021D9400A4202D00BEB800102E05D
:101530004C4901EB800131F814904FEA1920FFF774
:101540000AFB09F0FF00FFF706FB761C36B2B6EB8C
:10155000C70FC8DB08F101000FFA80F8B8F1100FCF
:10156000BFDBE81B401C05B26D1E2DB2002D8CDACE
:10157000641E24B2002C87DAD3E400BFB9F1080F4F
:101580000DDA7F1C3FB206EB0709B9F1080F06DA46
:1015900009F0FF01E8B2FFF7B1FD0028EED1C5F177
:1015A00014014FF0FF3000EBC101CBB2F11900EB99
:1015B0000110C2B2C5F11300C006010E3007000EC3
:1015C000FFF7E0FC4FF0000800242EE0E01704EBEA
:1015D0001072234B06EB221005EB850100B203EBE2
:1015E000410322F00F021B5CA21A1B01A3F500733A
:1015F00013441A4AC8F1070C0A329B5C802222FA73
:101600000CF2134202D00BEB810102E0154A02EB0F
:10161000810131F810A04FEA1A20FFF79CFA0AF076
:10162000FF00FFF798FA641C24B2B4EB071FCDDB70
:1016300008F101000FFA80F8B8F1080FC4DBA9F136
:10164000010006B2761C36B2082EFFF629AE6D1EDA
:101650002DB2002DBFF623AE63E400003A00002057
:101660002C840020DC880020234800887047224812
:101670004088704708B50121084600F0BDFF1F48AB
:101680001F490068B0FBF1F14FF08040491E018511
:101690004FF47A7181850121818200220282818149
:1016A00001808DF801208DF802208DF803101C2098
:1016B0008DF80000684600F07EF908BD10B50121E4
:1016C0008C07204601F080FE0121204601F08BFEB0
:1016D0000948018840F2E732914205D30021018098
:1016E0004188491C418002E00188491C0180BDE815
:1016F0001040FFF79AB8000044060020A80600201A
:1017000040420F0030B50D4604466C496B48143119
:1017100085B050F8240051F82410084340F001002F
:10172000012100F060FF65481438ECB350F8240044
:10173000012100F061FF18208DF813005F4804A913
:10174000283030F81400ADF8100003208DF8120096
:101750005B4850F8240000F05CFD04208DF8130075
:10176000564804A9323030F81400ADF8100054483F
:10177000143050F8240000F04CFD00200095ADF826
:1017800004004F4DADF80600ADF80800ADF80C00B0
:101790000C20143DADF80A0055F82400694601F00C
:1017A00055FE55F8240000E004E0012101F0C1FEDF
:1017B00005B030BD0068012100F015FFBBE738B56A
:1017C000044600214FF0006000F024F93B483C3013
:1017D00010F814008DF8000001208DF801008DF83C
:1017E00002008DF80300684600F0E5F83448012255
:1017F000143840F2255150F8240001F0A4FE38BD01
:101800002F491839087070472D49FF201839087082
:10181000704770B52A4D0E460446143D402155F8D8
:10182000240001F03DFF0028F8D055F8240031468F
:10183000BDE8704001F0D3BE0FB430B58BB00546A3
:1018400010AA68460F9902F0EDFA6C4603E02846AC
:10185000641CFFF7DEFF21780029F8D10BB030BC03
:101860005DF814FB70B5164D0446143D402155F843
:10187000240001F015FF0028F8D055F8240001F0ED
:10188000B2FEC0B270BD70B50D4C0646183C94F95E
:101890000000401C10D0251D94F90000402155F88F
:1018A000200001F0FDFE0028F6D094F90000F1B20E
:1018B00055F8200001F093FE304670BD3447000813
:1018C0006006002010B5184C206803C800F03BF8F3
:1018D000606803C800F037F8A06803C800F033F868
:1018E00020681023022203C800F022F86068102349
:1018F000022203C800F01CF8A0681023022203C8CB
:10190000BDE8104000F014B80A460021830700D556
:101910000221430701D541F00401000701D541F040
:101920000801024800F0E7BC8806002000100140D2
:1019300008B58DF802208DF80330ADF80010694627
:1019400000F067FC08BD30B4164C2215011B530093
:10195000A0421CD009DC1449401812D0904213D088
:1019600098421DD10121102008E0914212D09942E5
:1019700013D0B1F5406F13D10121080230BC00F043
:1019800032BE01210420F9E701210820F6E70121F8
:101990002020F3E701214020F0E701218020EDE73E
:1019A00030BC70470014014000F8FEBF28490843CE
:1019B00028490860704770B50F23C4780178012268
:1019C000F4B1244C2468457804F4E064C4F5E06480
:1019D000240AC4F10406E3408478B5401C402C433B
:1019E00001F1E021230181F80034007800F01F01AB
:1019F0008A404009800000F1E020C0F8002170BD5D
:101A000001F01F0082404809800000F1E020C0F88A
:101A1000802170BD104A114001430E48001F016033
:101A200070470C4A121D0029116801D0014300E0E3
:101A30008143116070474FF0E0210428086903D00A
:101A400020F004000861704740F00400FAE700004D
:101A50000000FA050CED00E080FFFF1FFE4910B505
:101A600088424FF0010101D14C0601E04FF0806443
:101A7000204600F0D3FD2046BDE81040002100F0D4
:101A8000CDBD10B50368002223F002030360036894
:101A900043F0010303604FF6FF7300E0521C4468FB
:101AA000E40701D19A42F9D14268D2073ED08A793F
:101AB000012A02683CD022F080020260CA79012A21
:101AC000026838D022F0400202600A7A012A0268D5
:101AD00034D022F0200202604A7A012A026830D013
:101AE00022F0100202608A7A012A02682CD022F0C9
:101AF00008020260CA7A012A026828D022F0040291
:101B000002608A78CC78920742EA04620C7942EA51
:101B100004424C79098842EA0452491E0A43C261D0
:101B2000016821F001010160002114E0002010BDD6
:101B300042F08002C1E742F04002C5E742F02002D5
:101B4000C9E742F01002CDE742F00802D1E742F0C7
:101B50000402D5E7491C4268D20701D09942F9D165
:101B60004068C007E2D1012010BDF0B5827A0121A2
:101B70009140BA4A136843F001031360B74B1C331A
:101B80001C688C431C60B54D067BB54C0C35A6B962
:101B90002E688E432E604688C78846EA0746877AB5
:101BA00004EBC707C7F840660688878846EA0746F9
:101BB000877A04EBC707C7F84466067B012E12D16B
:101BC0002E680E432E60867A056804EBC6064FEA3F
:101BD0003545C6F84056867A456804EBC6044FEA98
:101BE0003545C4F844569D4CC57A241D002D256802
:101BF00006D00D432560994C0589143415B104E0D5
:101C00008D43F7E725688D4325600589012D02D1B5
:101C100025680D432560407B012802D118680843E0
:101C20001860106820F001001060F0BD0021817183
:101C3000C171017241728172C1728170C1700321E0
:101C400001710221417101210180704783490A68B5
:101C500042F001020A600A6843F60E739A430A6072
:101C60000A6842EA00200860086820F00100086065
:101C700070470029016802D041F4803101E021F46D
:101C80008031016070470029016813D041F0800164
:101C90000160D0F8841141F48071C0F88411D0F84B
:101CA000941141F48071C0F89411D0F8A41141F45A
:101CB000807112E021F080010160D0F8841121F4DC
:101CC0008071C0F88411D0F8941121F48071C0F8AB
:101CD0009411D0F8A41121F48071C0F8A4117047B8
:101CE00030B50246002093685B0108D4906800017B
:101CF00001D5012003E09068C00037D5022002EB37
:101D00000012D2F8803103F00103C2F880310B7A5F
:101D100073B3D2F880414D681C434B7A43EAC50344
:101D20001C43C2F880418B7A03F00F038B72D2F808
:101D3000843123F00F03C2F88431D2F884318C7AD5
:101D40002343C2F88431CB7ACC6843EA0423C2F837
:101D50008831CB7B096943EA0121C2F88C11D2F8A2
:101D6000801141F00101C2F8801130BD042030BD66
:101D7000D2F880314C7A23430C8843EA4453C2F8AA
:101D80008031D0E7002221B1012905D0022906D1F6
:101D900012E08268334801E08268334802403349E8
:101DA000501A8A4214D00ADCA2B16FF08060101879
:101DB0000FD002280CD10FE082682D48EEE7B0F575
:101DC000007F09D02B49401803D0B0F5003F03D065
:101DD00000207047022070470120704741B101295F
:101DE0000AD0022903D1816841F400018160704763
:101DF000816841F08001F9E7816841F40041F5E72D
:101E000010B500EB0113D3F8B04114F004041472C0
:101E1000D3F8B04145D0E408C2F80440D3F8B0414B
:101E200004F002045472D3F8B44104F00F04947225
:101E3000D3F8B441240AD474D3F8B841D472D3F897
:101E4000B841240A1473D3F8B841240C5473D3F85E
:101E5000B841240E94730FE0006400400066004017
:101E600000600040030000040003000800010008B7
:101E7000000003100001FFF7D3F8BC41D473D3F87E
:101E8000BC41240A1474D3F8BC41240C5474D3F814
:101E9000BC311B0E937439B1016941F0200101611D
:101EA00010BD640D1460B9E7C16841F02001C16044
:101EB00010BD21B1016941F0200101617047C16885
:101EC00041F02001C16070470246002029B101297C
:101ED00002D1106900F003007047D068FAE70023D0
:101EE0004FF6FF7221B1012917D0022924D03AE020
:101EF000016821F0020141F00101016000E0521E81
:101F0000416801F00301012901D0002AF7D140689E
:101F100000F00300012823D124E0016821F003012F
:101F2000016000E0521E4168890701D0002AF9D102
:101F30004068800714D115E0016821F0010141F0EB
:101F40000201016000E0521E416801F00301022914
:101F500001D0002AF7D1406800F00300022801D028
:101F6000002300E00123184670470268002122F098
:101F7000010242F002020260406800F00300022801
:101F800000D101210846704703684FF6FF71002217
:101F900023F00203036000E0491E43689B0701D55C
:101FA0000029F9D14068800700D40122104670470B
:101FB0008069C0F30210000170478069000E70470D
:101FC0008069C0F307407047002A426901D00A4384
:101FD00000E08A43426170470246002011F4700F0E
:101FE00003D0926904E001207047CB0104D5526808
:101FF0000A401103F7D170470B0101D59268F7E74A
:102000008B0101D5D268F3E71269F1E7534A914297
:1020100002D1002181617047C1F313028B0101D508
:10202000C26070474B0101D502617047090101D5BB
:1020300082607047426070470246002053690B423D
:102040004AD0B1F5807F3BD013DC08292ED007DCC5
:10205000012926D0022927D004293DD1D0682BE0C0
:10206000102925D0202926D0402935D110691021EA
:1020700030E0B1F5004F2BD00BDCB1F5007F22D062
:10208000B1F5806F22D0B1F5006F25D19069702134
:1020900020E0B1F5803F11D0B1F5003F1CD1506870
:1020A000E5E790682E4915E0D06802E0D068DEE7E9
:1020B000106903210EE0106908210BE05068FBE76E
:1020C0009069012106E09069022103E0906900E037
:1020D0005068042100F03BB8704730B50823102445
:1020E0000422B1F5007F1DD010DC202929D007DCA7
:1020F000012921D0042922D0082900D1C46030BD93
:10210000402920D0B1F5807FF9D10BE00025B1F551
:10211000004F06D008DCB1F5806F03D0B1F5006F39
:10212000EDD18561426030BDB1F5803F0DD0B1F594
:10213000003FF8D1446030BD0949816030BDC360C3
:1021400030BD036130BD046130BD436030BD024627
:1021500000200A4200D00120704700007000F030DB
:1021600001010100914910B5884206D101210420E6
:1021700000F04BFA002104203BE08D49884206D153
:102180000121082000F041FA0021082031E08949AE
:10219000884206D10121102000F037FA00211020DA
:1021A00027E08549884206D10121202000F02DFA40
:1021B000002120201DE08149884206D101214020D4
:1021C00000F023FA0021402013E07D49884206D127
:1021D0000121802000F019FA0021802009E07949CE
:1021E00088420AD184150121204600F00EFA002110
:1021F0002046BDE8104000F008BA10BD10B501211E
:10220000084600F002FA0021BDE81040012000F06D
:10221000FCB9F0B5CA78002502F00F03D20601D54B
:102220008A7813430A784FF00F0E12F0FF0F4FF029
:1022300001021DD0D0F800400F8802FA05F63740A1
:10224000B74211D14FEA850C0EFA0CF724EA0707C2
:1022500003FA0CF43C43CF78282F02D0482F02D049
:1022600002E0466100E006616D1C082DE4D30460C5
:102270000C88FF2C1ED944685FF0000606F10807A1
:1022800002FA07F50F882F40AF420FD14FEA860CB4
:102290000EFA0CF7BC4303FA0CF73C43CF78282F17
:1022A00000D14561CF78482F00D10561761C082EFA
:1022B000E4D34460F0BD4FF6FF71018002218170CC
:1022C0000421C17070470246002092680A4200D083
:1022D00001207047806880B2704702460020D268B3
:1022E0000A4200D001207047C06880B27047016187
:1022F0007047416170470AB10161704741617047A1
:10230000C160704741F4803282618161826181697C
:10231000806970472C4B10B51A684FF680742240C4
:1023200042EA00100843186010BD2849C861704790
:10233000F0B5254C002801DAE36900E06368420D3E
:10234000120185B2C0F301579540C0F30346032F35
:1023500005D0C2020AD50322B240934307E023F01E
:102360007062636823F07063636002E0AB4343F024
:10237000706201B12A43002801DAE261F0BD6260B7
:10238000F0BD10B58A0721F003040F49130F214453
:102390000F228C689A4094438C608A68984002436C
:1023A0008A6010BD0949C1F8DC007047000801408F
:1023B000000C0140001001400014014000180140D1
:1023C000001C0140002001400000014000002042AC
:1023D000A448016841F0010101604168A24A11402E
:1023E00041600168A14A11400160016821F4802127
:1023F0000160416821F4FE0141604FF41F018160DA
:10240000704798490A6822F480320A600A6822F408
:1024100080220A60B0F5803F07D0B0F5802F03D14D
:10242000086840F4A02008607047086840F48030D5
:10243000F9E70246002053098A49012B0AD0022BF2
:102440000AD0496A02F01F02012393400B4200D0D8
:10245000012070470968F5E7096AF3E718B500201D
:102460004FF4A06400903120FFF7E3FF0099491C6E
:102470000091A14201D00028F5D03120FFF7D9FF0B
:10248000002800D0012018BD76490A6822F0F80221
:1024900042EAC00008607047754908607047714A99
:1024A0005368084323F47C13184350607047704905
:1024B000086670476B4A516821F00301014351607F
:1024C00070476848406800F00C007047654A5168E2
:1024D00021F0F001014351607047624A516821F4D4
:1024E000E0610143516070475E494A6822F46052DE
:1024F00042EAC000486070475A4A0029517A01D028
:10250000014300E08143517270475949C1F8D80036
:102510007047544A516821F440410143516070476B
:102520005049002281F8202081F82020012802D083
:10253000042802D1052081F8200070474D49086029
:10254000704748490A6A02430A6270474949443958
:102550000860704730B543494A6812F00C03464A98
:1025600003D0042B01D0082B21D002604A680F232E
:10257000424C03EA1212A35C0268DA4042604B68E4
:10258000072505EA1323E35C22FA03F383604B6813
:1025900005EAD323E35CDA40C2604968032303EA17
:1025A0009131231F595CB2FBF1F1016130BD4A68E2
:1025B0004B6802F470124FF0020413F4803F04EBF6
:1025C000924202D04B689B0301D52D4B00E02A4B71
:1025D0005A43CAE7234A0029516901D0014300E068
:1025E0008143516170471F4A0029916901D001431D
:1025F00000E08143916170471A4A0029D16901D0F6
:10260000014300E08143D1617047164A0029D16837
:1026100001D0014300E08143D1607047114A002995
:10262000116901D0014300E08143116170471149F4
:102630004039086070470E49C86470470949C8713D
:1026400070470848416A41F0807141627047054A0D
:102650000146002092680A4200D0012070470149DB
:1026600088727047001002400000FFF8FFFFF6FE7E
:10267000000042428004424200127A009806002084
:1026800000093D00994910B588420AD184140121FE
:102690002046FFF7BAFF2046BDE810400021FFF7B3
:1026A000B4BF9349884202D10121041404E0914946
:1026B00088420AD10121C4132046FFF7AFFF20460C
:1026C000BDE810400021FFF7A9BF10BD30B502885A
:1026D0004C8802F441530A88CD8822438C882C43CD
:1026E00022430C8922434C8922438C892243CC8982
:1026F00022431A430280828B22F400628283098A79
:10270000018230BDF0B505460C4602200021AA8B9F
:1027100085B001264FF240031A40AA832884AF8B6C
:10272000A268022A27D0A08800B102266846FFF7D7
:1027300011FFE1880098B1F5007F2DD07101B0FB49
:10274000F1F000BF00EB8000A1684000B0FBF1F0A9
:10275000401D80B20A21B0FBF1F000F00101401AE7
:102760004FF6FF72C0F34F0002EA0121821EFE2ADB
:1027700001D302200021E288084302432A842088F2
:102780006188A2890843A18811430843384340F473
:102790000060A88305B0F0BD000AD3E700210180E6
:1027A00041808180C180018141818181C181072176
:1027B000018270470021018041808180C180022216
:1027C0008260818170470029018802D041F0400178
:1027D00001E021F04001018070470029818B02D087
:1027E00041F4806101E021F480618183704709092F
:1027F00001238B40002A828899B201D00A4300E06D
:102800008A4382807047002A828801D00A4300E010
:102810008A43828070478181704780897047A1F523
:102820007E420188FF3A02D041F4807101E021F438
:102830008071018070470029818802D041F0040135
:1028400001E021F0040181807047028822F40062D7
:10285000028002880A4302807047018841F4805157
:10286000018070470029018802D041F4005101E045
:1028700021F4005101807047012901D0008B70477D
:10288000808A7047008A7047B1F5804F018803D075
:1028900021F480410180704741F48041FAE702460B
:1028A000002012890A4200D001207047C9430181EB
:1028B000704710B501F00F040122034602FA04F438
:1028C000002009098A4091B29A88A4B20A40198965
:1028D000214202D0002A00D0012010BD01F00F02D9
:1028E00001219140C943018170470000003001403F
:1028F00000380040003C0040F94910B5884202D140
:102900000121C41486E0B0F1804F09D0F549884216
:102910000DD101210220FFF781FE0021022064E099
:1029200001210846FFF77AFE002101205DE0EE4913
:10293000884206D101210420FFF770FE0021042007
:1029400053E0EA49884206D101210820FFF766FEDC
:102950000021082049E0E649884206D101211020E3
:10296000FFF75CFE002110203FE0E249884206D1DB
:1029700001212020FFF752FE0021202035E0DE4912
:10298000884202D10121441444E0DC49884202D14A
:102990000121CC043EE0DA49884202D101210C0534
:1029A00038E0D849884202D101214C0532E0D649AD
:1029B000884206D101214020FFF730FE002140204F
:1029C00013E0D249884206D101218020FFF726FE7C
:1029D0000021802009E0CE4988420AD184150121D6
:1029E0002046FFF71BFE00212046BDE81040FFF700
:1029F00015BEC849884202D101210C040AE0C6492B
:102A0000884202D101214C0404E0C44988420AD121
:102A100001218C042046FFF7F8FD2046BDE8104058
:102A20000021FFF7F2BD10BD30B50288AC4BB24CAF
:102A300098420DD0A0420BD0B0F1804F08D0A94DE4
:102A4000A84205D0A84DA84202D0A84DA84203D163
:102A500022F070054A882A43A54DA84206D0A54D0C
:102A6000A84203D022F44075CA882A4302808A888B
:102A700082850A88028598420AD0A04208D0A54AD9
:102A8000904205D0A44A904202D0A44A904201D17B
:102A9000097A01860121818230BD30B5028C22F095
:102AA00001020284028C8388048B22F0020224F04B
:102AB00073050C882C430D8915434A882A43884D99
:102AC000A8420BD08C4DA84208D0924DA84205D008
:102AD000914DA84202D0914DA8420DD122F0080597
:102AE0004A8923F440732A4322F004058A882A4342
:102AF0008D891D43CB892B4383800483C9888186BC
:102B0000028430BD70B5028C22F010020284028C67
:102B10008488038B0D8823F4E6464FF6FF7303EA9F
:102B2000052535430E8922F0200203EA06161643D6
:102B30004A8803EA02123243694EB04202D06E4E16
:102B4000B04215D122F080064A8924F4406403EA99
:102B50000212324322F040068A8803EA021232430C
:102B60008E8903EA86062643CC8903EA840434432B
:102B700084800583C9880187028470BD70B5028C8A
:102B800022F480720284028C8488838B0D8823F067
:102B900073031D4322F400730E894FF6FF7202EA9D
:102BA00006261E434B8802EA032333434C4EB042B1
:102BB00002D0514EB04215D123F400664B8924F463
:102BC000405402EA0323334323F480668B8802EAED
:102BD000032333438E8902EA06162643CC8902EA90
:102BE0000414344384808583C9888187038470BD3D
:102BF00070B5028C22F480520284048C8288838B0C
:102C00000D8823F4E6464FF6FF7303EA05253543A6
:102C100024F400560C8903EA043434434E8803EA52
:102C2000063626432E4CA04202D0334CA04205D19A
:102C300022F480448A8903EA8212224382808583B7
:102C4000C988A0F84010068470BD828B22F44062CF
:102C50008283828B4FF6FF7303EA01210A4382834A
:102C60007047828B22F00C028283828B0A4382831C
:102C70007047028B22F440620283028B4FF6FF738F
:102C800003EA01210A4302837047F0B5048C24F063
:102C900010040484078B048C4FF6FF7527F47347E8
:102CA00005EA03333B4305EA02221A430C4B05EACB
:102CB000011698420ED0104B98420BD0B0F1804FC5
:102CC00008D0084B984205D0074B984202D0074BDA
:102CD000984225D124F02001314341F0100124E035
:102CE000002C01400004004000080040000C00409F
:102CF000001000400014004000340140004C01402E
:102D0000005001400054014000180040001C0040E9
:102D100000200040004001400044014000480140C4
:102D200024F0A0030B4343F0100102830184F0BDA3
:102D3000028B22F00C020283028B0A43028370474B
:102D400070B5048C24F001040484058B048C4FF6C8
:102D5000FF7606EA0313134325F0F305F94A2B43E4
:102D600090420ED0F84A90420BD0B0F1804F08D07C
:102D7000F64A904205D0F64A904202D0F54A904277
:102D800002D124F0020201E024F00A020A4342F0D8
:102D900001010383018470BD2DE9F05F0D460446F7
:102DA0000888E84FDFF8A0C3DFF8A0834988AA8825
:102DB0002B894FF0804960B3042832D04FF6FF7E54
:102DC000082836D0208C9B4620F480502084A38B8A
:102DD000268C704600EA022223F473431A4300EA69
:102DE0000B3010430EEA013EBC420BD0644509D0C3
:102DF0004C4507D0444505D0D54A944202D0D54B26
:102E00009C4245D126F4005141EA0E0141F4805123
:102E100043E02046FFF794FFE9882046BDE8F05FD5
:102E200086E72046FFF731FFE9882046BDE8F05FDE
:102E30001FE7208C20F480702084B4F81CA0208C24
:102E40000EEA031313432AF0F30A0EEA012B43EAB6
:102E50000A03BC420BD0644509D04C4507D0444519
:102E600005D0BB4A944202D0BA4A944204D120F41D
:102E7000007040EA0B0002E020F42060084340F4B8
:102E80008070A3832084E9882046BDE8F05FE8E6EF
:102E900026F402420A4342F48051A0832046218452
:102EA000E988BDE8F05FD0E62DE9F0410C46002648
:102EB00049880746012501B90226A288012A00D1C6
:102EC0000225208823890028384610D0FFF7DDFE30
:102ED000E1883846FFF7CDFE23892A463146384639
:102EE000FFF72EFFE1883846BDE8F04120E7FFF705
:102EF00027FFE1883846FFF71BFF23892A46314622
:102F00003846FFF7C2FEE1883846BDE8F041B0E63A
:102F100010B50A884B88CC881A438B8823431A4300
:102F20000B891A434B8989891A430A43A0F8442024
:102F300010BD4FF6FF71818000210180C18041806A
:102F4000017270470021018041808180C180018130
:102F500041818181C181704700210180418001222E
:102F60008280C18001817047002101804180818081
:102F7000C18001814181818170470029018802D08F
:102F800041F0010101E021F00101018070470029B9
:102F900030F8441F02D041F4004101E0C1F30E01BA
:102FA00001807047002A828901D00A4300E08A43E9
:102FB00082817047818270471143A0F848107047A2
:102FC000002A828901D00A4300E08A438281704747
:102FD000018921F0070101817047028922F0700206
:102FE0000A430281704700B50346FFF7F6FF1889D0
:102FF00040F00700188100BD70B516460D466029E7
:1030000004464FF0010231460AD0FFF799FE2946E7
:103010002046FFF7E2FF208940F00700208170BDC5
:10302000FFF733FEF3E730B504894FF6FF7505EA85
:1030300003231343E4B20B432343038130BD10B594
:103040000446FFF7F0FF208940F07700208110BD93
:1030500010B50446FFF7E7FF208940F48040208147
:1030600010BD018582827047028822F070020A43F7
:103070000280704770B50589048B068C25F0070522
:103080000D434FF6FC410C4040F201110C434FF64A
:10309000FF7101EA031126F0220611433143058135
:1030A0000483018470BD028B22F070020A43028304
:1030B0007047028B4FF6FF7322F4E04203EA0121CE
:1030C000114301837047828B22F070020A4382838E
:1030D0007047828B4FF6FF7322F4E04203EA01212E
:1030E0001143818370470029018802D041F080019B
:1030F00001E021F08001018070470029818802D021
:1031000041F0040101E021F00401818070470029B1
:10311000818802D041F0080101E021F0080181809E
:1031200070470029818802D041F0010101E021F0BF
:10313000010181807047028B22F008020A4302835A
:1031400070470000002C01400034014000040040A2
:1031500000080040000C0040028B4FF6FF7322F481
:10316000006203EA012111430183E9E7828B22F027
:1031700008020A438283E3E7828B4FF6FF7322F44F
:10318000006203EA012111438183D9E7028B22F017
:1031900004020A430283D3E7028B4FF6FF7322F443
:1031A000806203EA012111430183C9E7828B22F087
:1031B00004020A438283C3E7828B4FF6FF7322F433
:1031C000806203EA012111438183B9E7028B22F077
:1031D00080020A430283B3E7028B4FF6FF73C2F308
:1031E0000E0203EA012111430183A9E7828B22F039
:1031F00080020A438283A3E7828B4FF6FF73C2F3F8
:103200000E0203EA01211143818399E7028C22F027
:1032100002020A43028493E7028C22F008020A4366
:1032200002848DE7028C4FF6FF7322F0200203EA3E
:1032300001111143018483E7028C4FF6FF7322F0E2
:10324000800203EA01111143018479E7028C4FF6F1
:10325000FF7322F4007203EA0121114301846FE736
:10326000028C4FF6FF7322F4006203EA012111433E
:10327000018465E7028C4FF6FF7322F4005203EAE3
:103280000131114301845BE710B50123048C8B40AD
:103290009C430484038C8A401343038410BD10B5FF
:1032A0000423048C8B409C430484038C8A40134386
:1032B000038410BD30B50124058C00F118038C4047
:1032C000A543058489B108290FD0091FC1F34E0019
:1032D0001844016821F4E041016001684FF6FF7372
:1032E00003EA02221143016030BD03EB5100016883
:1032F00021F0700101600168F4E70029018802D023
:1033000041F0020101E021F00201018018E70029EB
:10331000018802D041F0040101E021F004010180A4
:103320000EE70029818802D041F0800101E021F000
:103330008001818004E7028822F00802028002886E
:103340000A430280FCE6828822F070028280828832
:103350000A438280F4E6028922F007020281028990
:103360000A430281ECE6028922F08002028102898E
:103370000A430281E4E68184E2E68185E0E6818613
:10338000DEE60187DCE68187DAE6A0F84010D7E6C2
:10339000028822F44072028002880A430280CFE64B
:1033A000808ECDE6008FCBE6808FC9E6B0F8400076
:1033B000C6E6808CC4E6008DC2E602460020128A72
:1033C0000A4200D00120BBE6C9430182B8E60246AA
:1033D0000020138A92890B4202EA010202D0002ADD
:1033E00000D00120ACE6C9430182A9E6C44910B56A
:1033F00088420AD101218C032046FFF706F92046B6
:10340000BDE810400021FFF700B9BE49884202D153
:1034100001214C0410E0BC49884202D101218C04F6
:103420000AE0BA49884202D10121CC0404E0B8493B
:1034300088420AD101210C052046FFF7EFF820460B
:10344000BDE810400021FFF7E9B810BD30B50446D3
:10345000008A85B00D464CF6FF710840E9880143AB
:103460002182A1894EF6F3100140A8882A891043D1
:103470006A890A431043A081A08A4FF6FF410840A1
:10348000A9890143A1826846FFF764F89C488442F9
:1034900001D1039800E00298A189090400EBC00162
:1034A00001EB0010296801D5490000E08900B0FB5C
:1034B000F1F06422B0FBF2F109010B096FF018057D
:1034C0006B4300EB8300A3891D044FF0320306D544
:1034D00003EBC000B0FBF2F000F0070005E003EBE7
:1034E0000010B0FBF2F000F00F000843208105B09F
:1034F00030BD4FF41651016000218180C1800181EF
:103500000C2242818181704710B5038A4FF2FF027D
:1035100013400A884C8822438C88C9880C43224374
:103520001A43028210BD0021018041808180C18048
:1035300070470029818902D041F4005101E021F453
:1035400000518181704710B5C1F3421301F01F048F
:103550000121A140012B07D0022B07D01430002AF3
:10356000026805D00A4304E00C30F8E71030F6E7B3
:103570008A43026010BD002A828A01D00A4300E01B
:103580008A4382827047028A22F00F020282028AF4
:103590000A4302827047828922F400628281828912
:1035A0000A43828170470029818902D041F00201DB
:1035B00001E021F0020181817047028A22F020029D
:1035C0000282028A0A43028270470029018A02D0DD
:1035D00041F4804101E021F4804101827047C1F350
:1035E0000801818070478088C0F308007047818996
:1035F00041F0010181817047028BD2B20283028BBC
:1036000042EA012101837047028B02F47F42028368
:10361000028B0A43028370470029818A02D041F05D
:10362000200101E021F02001818270470029818A78
:1036300002D041F0100101E021F0100181827047B9
:103640000029818A02D041F0080101E021F008013F
:10365000818270470029818902D041F4004101E054
:10366000C1F30E01818170470029818A02D041F4A3
:10367000006101E021F4006181827047828A22F0BA
:1036800004028282828A0A43828270470029818AE8
:1036900002D041F0020101E021F002018182704775
:1036A0000246002012880A4200D001207047C94318
:1036B0000180704730B501F01F0201240025C1F3DD
:1036C000421304FA02F2012B0FD0022B0FD0838A8F
:1036D0004FEA11210088134204FA01F400EA0400C1
:1036E00001D000B10125284630BD8389F0E7038A67
:1036F000EEE70A0A01219140C943018070470000AA
:10370000003801400044004000480040004C0040A8
:10371000005000400CB500214B4801910091026817
:1037200042F4803202604FF4A063026802F4003277
:103730000092019A521C0192009A12B9019A9A427F
:10374000F3D10268920333D5012100913F490A6801
:1037500042F010020A600A6822F003020A600A6856
:1037600042F002020A60416841604168416041687C
:1037700041F480614160416821F47C1141604168FD
:1037800041F4E8114160016841F080710160016815
:103790008901FCD5416821F003014160416841F095
:1037A000020141604168C1F381010229FAD10CBDD7
:1037B00000910CBD244810B5016841F00101016081
:1037C0004168234A114041600168224A114001606A
:1037D000016821F480210160416821F4FE0141600B
:1037E0004FF41F018160FFF795FF1B494FF0006008
:1037F000086010BD144910B54868184A10F00C0351
:10380000174803D0042B01D0082B0AD00260496866
:10381000134AC1F30311121D515C0268CA400260D1
:1038200010BD4A684B6802F470124FF0020413F4A2
:10383000803F04EB924202D04B689B0301D5094BB9
:1038400000E0064B5A43E1E700100240002002402E
:103850000000FFF8FFFFF6FE08ED00E000127A001E
:10386000A806002000093D0006488047064800479A
:10387000FEE7FEE7FEE7FEE7FEE7FEE7FEE7FEE720
:10388000FEE7FEE7B53700083101000830B50B460A
:10389000014600202022012409E021FA02F59D4280
:1038A00005D303FA02F5491B04FA02F52844151E54
:1038B000A2F10102F1DC30BD2DE9F05F05460020E8
:1038C00092469B4688460646814640241BE0284691
:1038D00041464746224600F0FAF953465A46C01A76
:1038E000914110D311461846224600F0E1F92D1AF5
:1038F00067EB01084F4622460120002100F0D8F96D
:1039000017EB00094E41201EA4F10104DFDC4846FC
:1039100031462A464346BDE8F09F2DE9FE4F8046DA
:1039200081EA0300C00F0C46009021F0004123F013
:103930000045B8EB0200A94105D240462146904619
:103940001C460B46024623F00040104347D0270D8B
:10395000C7F30A00C3F30A510290401A01904028AD
:103960006BDAC3F3130040F4801B0098924620B139
:103970000023D2EB030A63EB0B0B01985946C0F10D
:103980004002504600F094F906460D46504659460E
:10399000019A00F0ACF910EB08006141002487EABD
:1039A000115284EAE7731A4340D0009A62B3019A35
:1039B000012A4FEA075215DC001B61EB02014FF0B0
:1039C000004202EA0752CDE90042001C41F5801195
:1039D00032462B4600F0ACF903B0BDE8F08F40460C
:1039E0002146F9E7001B61EB0201001C41F5801341
:1039F00000185B412018A2F5001747EB030140EACD
:103A0000D570B6196D4111E06D084FEA360645EAEA
:103A1000C0754FEA0752001B61EB0201001C41F523
:103A2000801149084FEA30000019514132462B46B7
:103A300003B0BDE8F04F00F06CB9009801224000DF
:103A40000023D0EB020263EBE073009821464FEABB
:103A5000E074B8EB000061EB0401E9E783F0004398
:103A60005BE781F0004158E72DE9FE4F81EA03044E
:103A700004F0004421F0004100944FF0000B23F0CB
:103A8000004350EA01045ED052EA03045BD0C3F362
:103A90000A54C1F30A552C44A4F2F3340194A0FB58
:103AA0000254C1F3130141F48011C3F3130343F42F
:103AB000801301FB024400FB034E840A970A44EA88
:103AC000815447EA8357A4FB076802958D0A05FBDA
:103AD00007854FEA932C04FB0C542705029D4FEAFF
:103AE000065847EA1637B5EB08056EEB070C870E4C
:103AF000920E47EA811742EA8312A7FB0201B6EB56
:103B00000B0164EB00042B0D43EA0C335E1844EB0D
:103B10001C50DA465146E7FB0201C5F313044FEA95
:103B20000B3343EA14534FEA0432019C43EA060381
:103B3000A4F10C040294009CCDE900B400F0F8F864
:103B400003B0BDE8F08F00200146F9E72DE9F04D04
:103B500081EA030404F0004B21F0004514464FF0C5
:103B6000000A23F0004150EA050220D054EA010285
:103B70001DD0C5F30A570246C5F31303C1F3130062
:103B8000C1F30A5640F4801543F48013A7EB0608EE
:103B9000101BD64608F2FD3873EB050002D308F17E
:103BA000010801E092185B41B8F1000F03DA002030
:103BB0000146BDE8F08D00204FF480110646844692
:103BC0000EE0171B73EB050705D3121B63EB050310
:103BD00006434CEA010C49084FEA300092185B4159
:103BE00050EA0107EDD152EA030012D082EA040044
:103BF00083EA0501084305D0101BAB4106D2012220
:103C0000002306E000224FF0004302E06FF00102C3
:103C100053101AEB06004CEB085110EB0A0041EB75
:103C20000B01BDE8F04D00F074B8C1F30A52C1F3C6
:103C3000130140F2FF3341F480119A4202DA00206E
:103C40000146704740F233439A42A2F2334202DC0B
:103C5000524200F03CB800F02BB8000030B5041E12
:103C600071F1000404DB4FF00044404264EB0101B9
:103C7000141E73F1000405DB1C464FF00043524252
:103C800063EB0403994208BF904230BD064C074DD8
:103C900006E0E06840F0010394E80700984710341C
:103CA000AC42F6D3FCF748FA94470008B447000842
:103CB000202A04DB203A00FA02F1002070479140EC
:103CC000C2F1200320FA03F3194390407047202AE1
:103CD00004DB203A21FA02F00021704721FA02F3B6
:103CE000D040C2F120029140084319467047202A73
:103CF00006DBCB17203A41FA02F043EAE07306E014
:103D000041FA02F3D040C2F1200291400843194623
:103D1000704710B5141E73F1000408DA401C41F11D
:103D2000000192185B411A4301D120F0010010BD3F
:103D30002DE9F04D92469B4611B1B1FA81F202E0B5
:103D4000B0FA80F220329046FFF7B2FF04460F46E9
:103D500040EA0A0041EA0B0153465A46084313D091
:103D6000114653EA010019D0C8F140025046FFF74E
:103D7000AEFF05460E46504659464246FFF798FFAD
:103D8000084305D0012004E020463946BDE8F08D07
:103D90000020054346EAE0762C4337430A98630542
:103DA000E40AA0EB08000022FD0A44EA47540A3066
:103DB00002D500200146E9E7010510196941DDE956
:103DC000084500196941BDE8F04DA2E770B58C18AF
:103DD00010F8015B15F0070301D110F8013B2A111F
:103DE00006D110F8012B03E010F8016B01F8016B0C
:103DF0005B1EF9D12B0705D40023521E0DD401F808
:103E0000013BFAE710F8013BCB1A921C03E013F8D0
:103E1000015B01F8015B521EF9D5A142D8D3002005
:103E200070BD000037B514460846064B6A46214669
:103E300000F0CCF804466946002000F05EFC204605
:103E40003EBD0000FB46000802E008C8121F08C182
:103E5000002AFAD170477047002001E001C1121F0B
:103E6000002AFBD1704700002DE9FF5FDDE9022049
:103E7000010DDDF838B0024318D044F61050A1F21D
:103E8000FF3141430D140F98012820D0A5EB0B0002
:103E9000401C5FEA000A4FF00004474EDFF81C9117
:103EA000A046504616D5CAF1000728E00F98012415
:103EB00043A2012808D0002100980F9BC0E90021EF
:103EC000C0E90243BDE8FF9F6FEA0B01F4E7CBF1C5
:103ED0000000DEE7074612E0F80707D02246334627
:103EE00040464946FFF7C0FD804689462246334694
:103EF00010461946FFF7B8FD04460E467F10002F06
:103F0000EAD1DDE90201BAF1000F42464B4602DA7E
:103F1000FFF7AAFD01E0FFF719FE04460E46002256
:103F2000284BFFF79BFE03D84FF0FF30014607E018
:103F30000022254B20463146FFF7EFFCFFF775FEC8
:103F4000102409E0002C0ADB0A220023FFF7B4FC4E
:103F5000019B30321A55641E50EA0102F2D1641CF2
:103F6000019AC4F1110314440F9A012A03D00122CB
:103F700008430DD10AE0084304D000204FF0110B94
:103F80000F9080E7A3EB0B056D1E0DE05B4504DD94
:103F90004FF0000205F1010504E003DA4FF00002E2
:103FA000A5F10105002AECD000980F99C0E9023173
:103FB000C0E9004586E70000000024400000F03F13
:103FC000300000000000F0430000E03F2DE9FF4F0B
:103FD00095B09B468946064600250FE2252877D1F5
:103FE00000242746F84A0121059400E0044316F80E
:103FF000013F203B01FA03F01042F7D130782A2824
:1040000011D06FF02F033078A0F13002092A16D8B2
:10401000059A44F0020402EB820203EB42021044D0
:10402000761C0590EFE759F8042B0592002A03DA75
:10403000504244F40054059044F00204761C307859
:104040002E2816D116F8010F44F004042A280DD0AA
:104050006FF02F023078A0F13003092B09D807EB5D
:10406000870302EB4303C718761CF3E759F8047B78
:10407000761C30786C280FD006DC4C2817D06828C6
:104080000DD06A2814D104E0742810D07A280FD1FA
:104090000DE044F400140AE044F4801401E044F418
:1040A00040147278824202D104F58014761C761C8A
:1040B000307866280BD013DC582877D009DC00282C
:1040C00075D04528F6D04628F4D047281AD19DE16E
:1040D00018E0632835D0642879D0652812D195E19D
:1040E000702873D008DC6728F1D069286FD06E285B
:1040F0000DD06F2806D1B5E073282CD0752875D067
:10410000782874D05A46179990476D1C75E1C4F30E
:104110000250022809D003280DD0D9F80010042835
:104120000DD00D6009F1040967E1D9F80010EA1714
:10413000C1E90052F6E7D9F800100D80F2E70D70E2
:10414000F0E719F8041B8DF8001000208DF801002D
:10415000EA46012003E059F804AB4FF0FF30610755
:104160004FF0000102D40DE008F101018846B94288
:104170000FDA8045F8DB1AF808100029F4D108E0BE
:1041800008F1010188468142FADB1AF8081000297B
:10419000F6D105985B46A0EB080721463846179AEA
:1041A00000F094FA284400EB080507E04DE029E10F
:1041B0000DE01AF8010B5A4617999047B8F101081B
:1041C000F7D25B4621463846179A13E142E00A22AD
:1041D0000092C4F302524FF0000A022A08D059F8A4
:1041E00004CB032A4FEAEC710AD00DE029E02AE063
:1041F00009F1070121F00702F2E802C1914609E046
:104200000FFA8CFC4FEAEC71042A03D14FFA8CFCB4
:104210004FEAEC71002907DA0A460021DCF1000CB4
:1042200061EB02012D2202E0220504D52B228DF83C
:104230000420012203E0E20701D02022F7E79046A4
:1042400059E00A2102E010220DE010214FF0000A8F
:1042500000910BE010224FF0000A44F004040827FC
:10426000009203E008224FF0000A0092C4F30252C9
:10427000022A05D059F804CB0021032A08D009E00E
:1042800009F1070121F00702F2E802C1914605E0B9
:104290001FFA8CFC042A01D10CF0FF0C4FF000082F
:1042A000220728D5702806D0009B83F0100353EA1C
:1042B0000A0305D00EE040228DF80420012208E018
:1042C0005CEA010206D030228DF804208DF805004A
:1042D00002229046009B83F0080353EA0A030AD1A6
:1042E0005CEA010201D1620705D530228DF8042075
:1042F0004FF001087F1E582804D034A003900EA868
:1043000002900DE036A0F9E753466046009AFFF7A9
:10431000D3FA84460398825C0298401E0290027091
:104320005CEA0100F0D1029806A9081A00F1200AFF
:10433000600702D524F4803400E00127574502DDF0
:10434000A7EB0A0000E0002000EB0A0100900598AE
:104350004144401A0590E00306D45B462146179A73
:10436000059800F0B3F90544002706E001A85A4675
:10437000C05D179990476D1C7F1C4745F6DBE00335
:104380000CD55B462146179A059800F09FF9054425
:1043900004E030205A46179990476D1C0099481E3A
:1043A00000900029F5DC08E0029802995A4600784E
:1043B000491C0291179990476D1CBAF10001AAF1AE
:1043C000010AF1DC65E100000928010030313233D7
:1043D0003435363738396162636465660000000041
:1043E000303132333435363738394142434445462B
:1043F0000000000000F058F90544761C30780028D1
:104400007FF4ECAD19B02846BDE8F08F620700D408
:10441000062709F1070222F0070CFCE80223E14617
:1044200003F000485FEA080C02D00FF2702C0DE098
:104430005FEA045C02D50FF2682C07E05FEAC47CF7
:1044400002D00FF2602C01E0AFF2700C4FF0FF3899
:1044500023F00043CDF850C065280CD006DC452879
:1044600009D046281DD047283DD13DE0662818D008
:1044700067287ED138E00021112F01DB112000E0F8
:10448000781CCDE9000106A90EA8FFF7EDFCDDE9D7
:104490000F010E9A03910021009207F1010A049185
:1044A0004DE04FF000400097CDE9011006A90EA89D
:1044B000FFF7DAFCDDE90F0203920E9B119900224F
:1044C000DDF80CA00093049211B9791C00EB010AED
:1044D000B7EB0A0004D4C0F1FF3007F1010A0490E1
:1044E000AAEB0700019044E0012F00DA0127002128
:1044F000112F01DD112000E03846CDE9000106A9A9
:104500000EA8FFF7B1FCDDE90F010E9A039100211F
:1045100004910092BA4621070CD40399514500DA60
:104520008A46BAF1010F05DD009AAAF10101515C3A
:10453000302908D0B84202DA10F1040F06DA01215E
:10454000CDE9011015E0AAF10101E9E7002805DC39
:10455000049901440491AAEB000102E0411C514579
:1045600000DD8A460499401A401C01904FF000403B
:104570000290200704D40198504501DBCDF8048057
:1045800000208DF84F0002980DF14F07B0F1004F59
:1045900025D02B200E9002984FF0020800280CDA4C
:1045A000404202902D200E9007E00A210298FFF76A
:1045B0006DF93031029007F8011DB8F10001A8F142
:1045C0000108F2DC02980028EFD1791E0E980870DD
:1045D000307800F0200040F0450007F8020D12A8E6
:1045E000C01B00F107081498007800B1012000EB0F
:1045F0000A01019801EBE07105984144401A401E00
:104600000590E00306D45B462146179A059800F012
:104610005DF805441498007818B15A4617999047E8
:104620006D1CE00324D55B462146179A059800F0DF
:104630004DF805441CE00498002807DBDDE9030180
:10464000884203DD0098405C179901E017993020FB
:104650005A469047049805F10105401C04900198C2
:10466000401E019004D12E205A46179990476D1C88
:10467000BAF10001AAF1010ADDDC05E017F8010B2F
:104680005A46179990476D1CB8F10001A8F101082E
:10469000F4DC5B462146179A0598ABE62D00000036
:1046A0002B000000200000002DE9F0410446002509
:1046B0001E461746880404D405E039462020B0473A
:1046C0006D1C641EF9D52846BDE8F0812DE9F04146
:1046D000044600251E469046C80301D5302700E059
:1046E0002027880404D505E041463846B0476D1CB4
:1046F000641EF9D52846BDE8F0810A68531C0B609A
:10470000107070470000E6EE7DE1D5D4E2C89CBD94
:10471000F8B2EDA8729F7F960C8E13868D7E0000F6
:10472000004000000000020000000400000008003B
:104730000000100004000000040000000800000059
:104740001000000010000000040000000400000041
:10475000080000001000000020000000000204001B
:104760000004000400100004080000080008040011
:10477000250026002700340035000000001001400D
:104780000200000000100140040000000010014081
:1047900008000000B447000800000020BC0600002C
:1047A000CC3D0008C84A0008BC0600200C8A000066
:1047B000583E000823FFFF180808060C06030708E8
:1047C0000283FF0223D00713BC062220721E0210B0
:1047D00001F911A11008183C3C3C181818190341A4
:1047E000E5666666243D6C6CFE6C04392E580B1829
:1047F0007CC6C2C07C0686C67C31216009C2C60C5C
:10480000183060C686500B386C6C3876DCCCCCCC5B
:1048100076D530303060192C390163180C190939FC
:1048200001931830AE663CFF3C66A37B187E6D8911
:10483000149931110A11FED879322B0206A063C0F7
:1048400080580B7CC6C6CED6D6E6C6C67C281B389A
:10485000784C19016A7E20492F5AC65419106E06E9
:104860003C060606301F0C1C3C6CCCFEB15A1E7B6D
:104870008EC0C0C0FC0E201B3860101AC601591033
:104880001AFE4049F479802AC6046920290C1A7E50
:1048900060BB0C78BA99F1591069EF399FA53018AF
:1048A0000C0619AB59AE31391C292479601A0CDE7B
:1048B000895119115EDEDEDEDCC0802F10386CC637
:1048C000C6FE91611EFC6666667C046366FC1C3C49
:1048D00066C2E265C0C2663C2BF86C1D5D66666C04
:1048E000F87C580966626878686062668259109C34
:1048F0006060F04066DEC6C6663A296A396F597054
:104900001A3C9D390159602B1E0C0165CCCCCC782A
:104910001FE6666C6C78787562E61AF05B190179AF
:10492000709EC6EEFEFED6508FC6E6F6FEDECE10B8
:1049300029DF29019B6C38E0294259A04A7C1F7E5F
:10494000D6DE7C0C0E2029E45970192060086038EE
:104950000C06C6C67CBC7E7E5AB0493F1901592060
:10496000590E9C6C3810106ED6D6FE6C6C101E6CF6
:104970006C38386C9661196A9B663C50580AFEC6C2
:10498000860C183060C2C6E05B3C300159201158DB
:104990000A80C0E070381C0E0602205A0C01392033
:1049A0001A10EF011922FF04123030186008780C39
:1049B0007CCCCCCC762EE06060786C9592DC6E7C02
:1049C000C6C0C0C0E01A1C6A1A6C2F693039208A30
:1049D000FE201F386C6460F0600192F02A762F4E42
:1049E000CC7C0CCC78602B6C766062E61318181ABD
:1049F00038FE5B1818E01306063B0E06012B6666B0
:104A00001319301C666C78935930492D8930312C3C
:104A1000ECFED601912ADC5F9B6666A0290159A0B5
:104A200079207A7CA369A05B0C1E20BB7662C06EE5
:104A30007CC660380C401E103030FC300193361CB0
:104A4000393F93CC76395F933C18197D8DD6D6FECD
:104A50006C10AF6C3838386CC6201901657E060CB6
:104A6000F86008FECC183060C6FE1A0EEB2A70F013
:104A7000620E290B39055960291C29245B1870CD59
:104A8000C2DCCAFF01A114380140124412401A4886
:104A9000041A4C041A50041A081429041A0C045A53
:104AA0001004E914161401407C471B0884041A8C76
:104AB0000445020406082D01020304041506070834
:084AC0000984A24A04691400F4
:0400000508000131BD
:00000001FF
