:020000040800F2
:10000000F893002041540008495400084B5400085C
:100010004D5400084F5400085154000800000000DF
:100020000000000000000000000000005354000821
:1000300055540008000000005754000859540008A7
:100040005B5400085B5400085B5400085B540008D4
:100050005B5400085B5400085B5400085B540008C4
:100060005B5400085B5400085B5400085B540008B4
:100070005B5400085B5400085B5400085B540008A4
:100080005B5400085B5400085B5400081308000828
:10009000B70800085B5400085B5400085B54000874
:1000A0005B5400085B5400085B5400085B54000874
:1000B000992600085B5400085B5400085B54000854
:1000C0005B5400085B5400085B5400085B54000854
:1000D0005B5400085B540008A10200081D250008BD
:1000E0005B5400085B5400085B5400085B54000834
:1000F0005B5400085B5400085B5400085B54000824
:100100005B5400085B5400085B5400085B54000813
:100110005B5400085B5400085B540008472C00083F
:100120005B5400085B5400085B5400085B540008F3
:10013000DFF80CD005F09EFB00480047E10A0008FC
:10014000F89300204FF07300A0F101000028FBD1CC
:100150007047000010B54FF4E131012002F0C0FA01
:10016000012002F01AFB9148416891480161002189
:10017000C170C18010BD0146012002F038BB0FB430
:1001800010B58AB00DAA68460C9905F03FFC6C4684
:1001900003E00120641C02F02AFB21780029F8D139
:1001A0000AB010BC5DF814FB7FB51646082929D8A3
:1001B00012228DF800208DF8010003236C468DF883
:1001C0000210002505E0725DE2545B1C6D1CDBB281
:1001D000EDB28D42F7D3E0545B1CDDB20A466019E4
:1001E000314600F0B1FBAD1CE8B234212154401C73
:1001F000C6B2002504E0605DFFF7BDFF6D1CEDB2E7
:10020000B542F8D37FBD6A4A10B5082000211170AD
:1002100002F1140300E01954401EC0B2FBD264483E
:100220009170001D4170017010BD30B5604C614D82
:10023000E37805F8330005EBC3005B1C41704260B6
:10024000E37030BD5A48007870475948C0887047FD
:100250005748C188491CC180C16821B10021C160D3
:10026000022002F0A5BF0121F9E7F0B4504C0023B1
:10027000504DE67810E000BF05EBC30415F833706D
:10028000647827400440A74204D105EBC3035B68B0
:10029000F0BC18475B1CDBB2B342EDD3F0BC704737
:1002A00070B5434D40F22551286904F0EFFFE0B1ED
:1002B000286904F084FFC4B2287830B101280CD03A
:1002C00002280DD00F281DD304E0122C02D10120EA
:1002D00028700AE0FFF797FF07E0AC700220F7E70D
:1002E000082CF7D8032028706C7002F08FF90446B0
:1002F00002F08FF900EB4001C1EBC01004EBC0002D
:10030000A86070BD6978CA1C904206D2284901F1E4
:100310001401014401F8034C02E004D1A97818E06B
:1003200000F10100D4E7224E01F1040206F10406B7
:1003300090420AD10A4606F11001304600F004FB53
:100340003078A042C6D12878EAE74A1D904203D10E
:100350007178A142E4D0BDE78A1D9042BAD1342C15
:10036000B8D1134AA8781432FFF77FFFFFF770FF68
:10037000B0E710B502F04AF9044602F04AF900EB82
:100380004001C1EBC01004EBC000094CA168401A49
:1003900032280AD9FFF737FFE068012805D100218C
:1003A000BDE81040022002F003BF10BD000800208D
:1003B000000000209408002070B5012186B0084696
:1003C00003F0FDFE0121042003F0F9FE012148069F
:1003D00003F0FEFE0121042003F0F1FE4FF4006063
:1003E000ADF80C0048208DF80F002A4D03248DF83D
:1003F0000E4003A9284603F0F8FCA814ADF80C0041
:1004000018208DF80F008DF80E4003A9284603F040
:10041000ECFC214E304603F00DF9684603F0F2F98A
:1004200000248DF8064001258DF8075002208DF834
:1004300004008DF802408DF803400620ADF800005E
:1004400002948DF805506946304603F006F9012202
:100450001146304603F0A4FB13208DF810008DF8F0
:10046000114004208DF812008DF8135004A802F0FA
:10047000F6FE06B070BD0FB4074810B502A903F030
:100480001BFA042803D0012010BC5DF814FB0020E7
:10049000FAE70000000801400064004000224FF429
:1004A000FE61B02000F0DDB92DE9F04100F1B006A9
:1004B000062060F307048846AA2060F30F2417463D
:1004C0000021404600F025FA60F317440121404620
:1004D00000F01FFA60F31F640221404600F019FA91
:1004E00060F307050321404600F013FA60F30F257F
:1004F0002A4667F31742434621463046BDE8F0419D
:1005000000F024B92DE9F04100F1B006072060F3B6
:1005100007040D46BB2060F30F2417460021284630
:1005200000F0F7F960F317440121284600F0F1F9D3
:1005300060F31F640021384600F0EBF960F3070513
:100540000121384600F0E5F960F30F250221384615
:1005500000F0DFF960F317450321384600F0D9F9C0
:100560002A4660F31F623B4621463046BDE8F04113
:1005700000F0ECB870B500F1B005032060F307049B
:100580000E46442060F30F240021304600F0C1F9EC
:1005900060F317440121304600F0BBF960F31F649B
:1005A000334621462846BDE870401A4600F0CEB8D2
:1005B00030B4012464F30701EE2464F30F2130BC4E
:1005C000B03000F0C3B80FB410B59DF81300222866
:1005D00013D19DF8120005280FD10298B0381028C9
:1005E0000BD2042105A800F09BF9074A029902EBFF
:1005F0008101A1F58051C1F8400D10BC5DF814FBDC
:10060000014951F82000704774090020CB48008848
:100610007047CA4840887047C84948880A88801A85
:1006200000B2002802DA8988084400B280B270471C
:10063000C24801884088814201D1012070470020D2
:100640007047BF4801680268C1F38061C2F3C062AD
:1006500000681144C0F300700844704730B58BB097
:10066000FFF7E6FF00286FD1FFF7EBFF00286BD004
:10067000B24C2088A16801EB00121268019204229A
:1006800002EB00128A5C8DF80820052202EB0012B2
:100690008A5C8DF80920062202EB00128A5C8DF834
:1006A0000A20072202EB00128A5C8DF80B20082238
:1006B00002EB00128A5C8DF80C20092202EB00127A
:1006C0008A5C8DF80D200A2202EB00128A5C8DF8FC
:1006D0000E200B2202EB00128A5C8DF80F200C22F8
:1006E00002EB0010085C019905918DF810000021C3
:1006F0009DF808008DF81D108DF81C1006918DF8DE
:100700001E0001A905AA03E00B1815185B79EB720E
:10071000401EC0B2F8D2099805AD009095E80F00D0
:10072000FFF7A9FE38B12088A188401CB0FBF1F288
:1007300001FB12002080FFF784FF08B1FFF78EFF56
:1007400001200BB030BDFFE70020FAE72DE9F041B2
:100750007A4C6588A7886E1CB6FBF7FC07FB1C6605
:100760002788BE4204D1FFF779FF0020BDE8F08161
:10077000A66806EB0515286065880426A06806EBC8
:1007800005154155080A66880527A56807EB061672
:10079000A8550D0C66880627A06807EB0616855538
:1007A000080E65880726A16806EB0515485561887F
:1007B0000825A06805EB01114254110A6588092635
:1007C000A06806EB05154155100C65880A26A1683E
:1007D00006EB05154855100E62880B25A16805EB40
:1007E0000212885461880C22A06802EB0111435464
:1007F0006088A188401CB0FBF1F201FB1200608010
:10080000FFF72CFF0120B1E74C4800214180018017
:10081000704710B54A4C0121083C204603F0F8F916
:10082000002806D00121204603F043FABDE810401D
:1008300014E710BD424808B501220221083803F030
:10084000AFF914208DF8000000208DF8010004207D
:100850008DF8020001208DF80300684602F0FFFCCD
:1008600008BD7FB5354C15461F22241F42EA4112B0
:1008700021788DF80A1000214FF6FF7606EA401025
:100880000123ADF800008DF80B108DF80C30ADF899
:100890000420ADF80210ADF80610ADF808108DF880
:1008A0000D30684602F04DFF2649207841F820506F
:1008B000401C20707FBD10B5214C86B0083C022141
:1008C000204603F0A5F9002821D00221204603F09C
:1008D000F0F901AA0021204603F07EF89DF80C00F3
:1008E000002814D115499DF81700091F097888427E
:1008F0000DD21C280BD2134951F82040002C06D0F1
:1009000005980DF1040C00909CE80F00A04706B07C
:1009100010BD19B1491EC9B20012FAE7C0B2704742
:1009200010B5044641B1491EC9B2601CFFF7F8FF7B
:10093000217801EB002010BD007810BD20000020C0
:1009400008640040B486002070B500231C460A4DA0
:100950000AE000BF11F8016B641C86EA132635F823
:10096000166086EA03239BB29442F3DB190A0170F6
:100970004370012070BD0000F862000810B5044605
:1009800001210E2002F014FC01F0BFF90022962193
:10099000404800F01AFE00F0A5FC00F0F3FC28B17E
:1009A00001280AD002282AD003281DD1002278214C
:1009B000384800F00AFE38A20AE00721052000F0BE
:1009C00072FD00F080FD6421052000F0E8FD36A2F4
:1009D0000021084601F018FA00F09AFC034636A2FE
:1009E0000121002001F010FA01F05BFA204600F02E
:1009F0003EFE0021BDE810400E2002F0D9BB0721C9
:100A0000012000F050FD00F05EFD32210A2000F0D0
:100A1000C6FD00212BA2084601F0F6F900F078FC93
:100A2000034625A20121002001F0EEF901F039FA78
:100A3000C82000F01CFE002125A2084601F0E4F9C0
:100A400001F02FFAC82000F012FE00211DA2084676
:100A500001F0DAF9EAE710B500F094FC002818D0AC
:100A600001280DD0022814D10721052000F01BFD1C
:100A700000F029FDC8210620BDE8104000F08FBD20
:100A80000721052000F00FFD00F01DFD642102206C
:100A9000F2E710BDEC62000842617474657279205F
:100AA0006F6B6179210000004C4F57204241545434
:100AB0004552592100000000426174746572793A10
:100AC000202573004E4F2042415454455259210075
:100AD0002020202020202020202020200000000096
:100AE00001F0A4FD00F086FC02F040FB00214FF471
:100AF00078434FF6FF72084601F00BF801F00AFC4C
:100B000000F0ADFBFFF758FCFFF794FEFFF722FB68
:100B100000F03DF94FF49660FFF730FF00F028F841
:100B20000E4C322501F072FD21888842FAD001F086
:100B30006DFDB0FBF5F1208005FB11000028F1D11F
:100B400001F0E3F801F065FD0346002104A2084628
:100B500001F05AF901F0A5F9E4E700002C000020AB
:100B600055534152545F544553543A202564000074
:100B70001FB500F0C3F8474C0A2500BF01F046FD41
:100B800021888842FAD001F041FDB0FBF5F12080C8
:100B900005FB110018B9FFF7ECFB00F025F92088E0
:100BA000FA21B0FBF1F201FB1200012801D100F0A3
:100BB00099FB01F02EFDB0FBF5F105FB110020B90A
:100BC0002088022801D1FFF746FF20886421B0FB6E
:100BD000F1F201FB1200032801D100F08EF9208808
:100BE0003221B0FBF1F201FB12000728C6D101A8A7
:100BF00000F0E2F801F089F800F08AFB03460021DA
:100C000025A2084601F000F900F072FB034625A278
:100C10000121002001F0F8F824A202210020019B0C
:100C200001F0F2F823A203210020029B01F0ECF86E
:100C300022A204210020039B01F0E6F800F0B9F89D
:100C4000034620A20521002001F0DEF801F092FB0E
:100C5000064601F06AFB03461DA20621002000960D
:100C600001F0D2F801F0A5FB03461DA207210020E8
:100C700001F0CAF801F0CAFC064601F0CAFC0346BE
:100C80001AA209210020009601F0BEF801F009F92E
:100C900074E700002E000020426174746572793A96
:100CA000202573004144433A2025640056583A20D9
:100CB0002564000056593A202564000056573A2012
:100CC0002564000053706565643A202564000000C7
:100CD000506F733A20252D34642C252D3464000088
:100CE000416E673A20252D346400000054696D651B
:100CF0003A202564272530336422000010B51421E2
:100D00000020FFF737FC19210120FFF733FC1421E5
:100D10000220FFF72FFC1921BDE810400320FFF748
:100D200029BC092801D8844908707047834B83E89F
:100D30000700704710B5402809D0412826D1012965
:100D400024D11078092821D8BDE81040E9E703290B
:100D50001CD17BA392F900001C6892F9011092F952
:100D6000022063B2834211DC44F3072484420DDB8A
:100D70008B420BDC8C4209DB934207DC944205DB9F
:100D8000FFF7D4FF01F048FC6B49486010BD10B577
:100D9000AFF25F02F0214020FFF747FA67490020D9
:100DA000886048600860644948608860BDE8104019
:100DB000A4E7614800787047604B0ECB80E80E00D6
:100DC00070475D485D490C300A6803689A4207D154
:100DD0004A6843689A4203D189688068814201D099
:100DE00001207047002070472DE9FF4701F014FCF7
:100DF000514C524D6168401A642803D90020A86004
:100E000068602860FFF7DDFF30B901F005FCA168DC
:100E1000401AB0F5FA6F6ED9A9464A482178D5E94B
:100E2000006530F81170731940F2C32003FB00FC19
:100E30004FF47A70DFF81081D9F808209CFBF0FCA1
:100E400002FB08F292FBF0F8C444CDF800C0A6EB18
:100E5000050C40F2C3280CFB08FC9CFBF0FC92FB49
:100E6000F0F8C444CDF804C0DFF8DCC000210CF178
:100E70005D0C03FB0CF393FBF0F392FBF0FC63447B
:100E80000293AB1B40F2C3256B4393FBF0F392FB41
:100E9000F0F01844039068465FF0640250F8213087
:100EA0007B4393FBF2F340F82130491CC9B204297B
:100EB000F4D3012200200099FFF7F6FA0122104630
:100EC0000199FFF7F1FA012202200299FFF7ECFAEB
:100ED000012203200399FFF7E7FA1749D9F8002008
:100EE0000C310A60D9F804204A60D9F808008860FB
:100EF00001F092FBA060BDE8FF877CB501F015FA18
:100F0000044601F037FA054601F053FA210A8DF83C
:100F100000108DF80140290A8DF80210010A8DF8A1
:100F200004108DF805008DF803506A4606216020F4
:100F3000FFF73AF97CBD0000300000202487002034
:100F40009C640000F8640008E0FCFFFF70B501E05D
:100F500000F561600028FBDB4FF4616190FBF1F26A
:100F600001FB120040F68C2102B24FF4E165884289
:100F700002DDC0F5616009E0A84202DDA0F5E16094
:100F800004E0B0F5617F01DDC0F5E1600A2190FB6E
:100F9000F1F3C3F15A04A74B33F9146090FBF1F459
:100FA00001FB140490FBF1F033F91000444340F2CC
:100FB0003D2004F58F7494FBF0F03044AA4200DD2C
:100FC000404270BDC0F56170C0E710B500EB800015
:100FD0000C46400002E000BF00F561600028FBDB2A
:100FE0004FF46161884202DDA0F56160FAE7FFF726
:100FF000E9FF604342F2107190FBF1F010BD10B5B3
:1010000000EB80000C46400002E000BF00F561608C
:101010000028FBDB4FF46161884202DDA0F56160CE
:10102000FAE7FFF793FF604342F2107190FBF1F093
:1010300010BD0021002806DA0121404200E0B43052
:1010400000B20028FBDBB42290FBF2F302FB13009A
:10105000784AB63A5A2803DDC0F1B40039B901E044
:1010600009DA21B132F91000C0F1000001E032F9D3
:10107000100000B270474FF0FF3070472DE9F0418B
:1010800000254FF461784FF4E1762F46002801DA0D
:10109000012740420FFA80FCA81904B22046FFF74E
:1010A00055FF0EB184450DD14FF00A0004F1040440
:1010B00094FBF0F000B2002F02D0C0F1000000B2AB
:1010C000BDE8F08101DAA04600E02546A8EB050066
:1010D00000EBD07040F34F06DEE700B5FFF7CEFF20
:1010E000C0F15A0000B200BDF0B505004FF0000499
:1010F00020461AD406462046FFF79BFF854201DCB6
:10110000B54210DA641C24B25A2CF3DB0BE006461D
:101110002046FFF78EFF854201DBB54203DD641EEA
:1011200024B2BC42F3DA2046F0BD6FF05807EEE778
:1011300000B579B1B8B16422504301EBD17200EB34
:10114000620090FBF1F0002913DAFFF7CDFFB43015
:1011500000B200BD002802DA6FF0590000BD06D0D1
:101160004FF05A0000BD002901DAB42000BD002074
:1011700000BD5DF804EBB7E7F0B505460C46174631
:101180001046FFF71FFF296800FB01F63846FFF7FE
:10119000DDFE216800FB11663846FFF7D7FE29689F
:1011A00000FB01FC3846FFF70DFF216800FB01C082
:1011B00042F2107196FBF1F290FBF1F02A60206090
:1011C000F0BD00E008440028FCDB90FBF1F201FBDD
:1011D00012007047002800DA40427047002800DA09
:1011E000404270474043704730B503004FF0010064
:1011F00002D003E0400001D5002030BD00FB00F12B
:101200009942F7DD4110441A6410621802FB02F59E
:101210009D420BDA1146022CF6DA01FB01F400FBC9
:101220000042B3EB620FE8DA084630BD1046F2DC4C
:1012300030BD0000FE00002008B50121102002F0A2
:10124000BEFF00208DF8030002208DF8020001206F
:10125000ADF8000069465F4802F0C7FD08BD10B553
:1012600086B0FFF7E9FF5C480024012104804802B2
:1012700002F0A5FF4FF46021CDE9021400948DF82F
:1012800004400120554C8DF805008DF8100069468A
:10129000204602F053F8072301220A21204602F0DB
:1012A000CDF8012002F092F90121204602F078F8F1
:1012B0000121204602F06AF8204602F084F8204618
:1012C00002F086F80028FAD1204602F088F820467D
:1012D00002F08AF80028FAD10121204602F08BF8AA
:1012E00006B010BD3D484C3000683B49088070474F
:1012F000394800887047384839490088400100EB78
:101300004110642190FBF1F000F5966080B27047C7
:1013100070B53148324964250088400100EB411026
:1013200090FBF5F000F5966084B22B482DA1801C4F
:1013300004F098F84FF47A70B4FBF0F00A21B0FB97
:10134000F1F201FB12022448801C03781A44027057
:10135000B4FBF5F2B2FBF1F301FB132243781A441C
:101360004270B4FBF1F2B2FBF1F301FB1322C3783C
:101370001A44C270B4FBF1F201FB1241027911442C
:10138000017170BD144800884101154801EB4010FF
:10139000642190FBF1F202F5966292B2B2F5167FEB
:1013A00001D80320704790FBF1F202F5966292B2E9
:1013B000B2F58C6F01D80220704790FBF1F000F578
:1013C000966080B2B0F5916F01D80120704700207F
:1013D0007047000000100140B401002000240140CB
:1013E000DCF1FFFF30302E30305600000021844801
:1013F00003F0B5BDF0B589B00121082002F0DFFE91
:1014000018208DF81F0003208DF81E000124ADF870
:101410001C402146022002F0DBFE0121084602F0BA
:10142000CEFE2002ADF8160076480025ADF8125029
:1014300000687549754EB0FBF1F0401EADF8100024
:1014400070896F4FADF8140004A9384603F0D8F83E
:101450006020ADF80850ADF80000B078ADF8060097
:10146000ADF802400121384603F029FC012138463D
:1014700003F06FFB6946384603F06CF907A964482E
:1014800002F0B3FCFFF7B2FF09B0F0BD5F4841893D
:1014900041B1807841436420B1FBF0F081B25848FB
:1014A00003F05DBDA2E718B1421C01D00C2801DD9C
:1014B00000207047574A32F8100000E04008491EEB
:1014C000C9B2FBD2704751494881010002D04C4853
:1014D00003F03FBD8AE738B54C4C2178607808436B
:1014E00018D02089401E0004000C208111D121B1A8
:1014F000207020B1FFF7CAFF03E00120F8E7FFF7F3
:1015000075FFE08820812078002802D16078401E95
:10151000607038BDE0780028FBD0A189606900EBDD
:1015200041000088ADF800009DF90000401C02D188
:10153000E070FFF75BFF208A10B1401E208238BDAB
:10154000E0892082618A89B1207930B10020207140
:1015500028B12182FFF74AFF03E00120F7E7FFF7F8
:1015600095FF608A10B120790028E8D1A089401C3D
:1015700080B2A081616901EB40000088ADF80000F5
:101580009DF801109DF90000FFF78DFFFFF79BFF0D
:10159000BDE838407AE71D490020C870704710B593
:1015A00000280BD0002909D0184C60702181E180FF
:1015B00001202070FFF76AFF0020E07010BD642852
:1015C00000D9642011498870704770B5002815D083
:1015D0000E4B002401251C705C70DD709C81D9814C
:1015E00019825A821C715861417890F90000FFF706
:1015F0005AFFFFF768FFBDE8704047E770BD000085
:10160000000400408008002040420F00C00100207C
:10161000000C01400C6500082C4A10B5117819B176
:101620000A21B0FBF1F415E000EBC00101234FF0FB
:10163000E020137041610021816103610369DC07CF
:1016400001D0DB03FAD501618161117010BD00BFCB
:10165000FEF778FD641EFBD210BD10B55FF00004EC
:10166000FEF770FD641CE4B2642CF9D310BD2DE9C3
:10167000F041164A0446107820BB4FF0010C82F866
:1016800000C04FF47A7700254FF0E02013E0394690
:101690008C4200D8214642F228334B434361856196
:1016A000C0F810C00369DE0701D0DB03FAD505617D
:1016B0008561611A8CB2002CE9D11570BDE8F0810A
:1016C000FFF7CBFF641EA4B2FAD2F7E7D8010020DF
:1016D000F0B587B00121042002F071FD012108203E
:1016E00002F06DFD0121202002F069FD0121084674
:1016F00002F065FD0121C80302F06AFD0121FC48EA
:1017000002F002FC8020ADF800001025F94F8DF8A2
:10171000035001248DF802406946384602F065FB0B
:101720004020ADF800008DF803508DF80240694666
:10173000384602F05AFB3820ADF8000018208DF82A
:10174000030003268DF802606946EB4802F04DFB6A
:101750002020ADF800008DF803508DF80260694636
:10176000384602F042FB0020ADF804004FF48271CD
:10177000ADF80610ADF808000221ADF80A10ADF87A
:101780000C400902ADF80E100821ADF81010DB4C2A
:10179000ADF8120001A9204602F084FD0121204687
:1017A00002F0FDFD0021204602F048FE0021204607
:1017B00002F02DFE07B0F0BD70B5CE4D06462021DB
:1017C000284602F082FB4021284602F07EFBCB4CEB
:1017D0000221204602F04FFE0028F9D03146204673
:1017E00002F005FE0121204602F045FE0028F9D056
:1017F000204602F0FEFD2846BDE87040202102F0A0
:1018000062BB70B5BB4D06462021284602F05DFB49
:101810004021284602F057FBB84C0221204602F036
:101820002AFE0028F9D03146204602F0E0FD0121D1
:10183000204602F020FE0028F9D0204602F0D9FD13
:101840002846BDE87040202102F03DBB10B50120C4
:10185000FFF7B2FF0A20FFF70AFF1120FFF7ACFFE6
:101860007820FFF704FFB120FFF7A6FF0120FFF764
:10187000C8FF2C20FFF7C5FF2D20FFF7C2FFB220C5
:10188000FFF79AFF0120FFF7BCFF2C20FFF7B9FFFD
:101890002D20FFF7B6FFB320FFF78EFF0120FFF7E3
:1018A000B0FF2C20FFF7ADFF2D20FFF7AAFF01208E
:1018B000FFF7A7FF2C20FFF7A4FF2D20FFF7A1FFC4
:1018C000B420FFF779FF0720FFF79BFFC020FFF749
:1018D00073FFA220FFF795FF0220FFF792FF8420FD
:1018E000FFF78FFFC120FFF767FFC520FFF789FFD4
:1018F000C220FFF761FF0A20FFF783FF0020FFF7F8
:1019000080FFC320FFF758FF8A20FFF77AFF2A20C5
:10191000FFF777FFC420FFF74FFF8A20FFF771FF23
:10192000EE20FFF76EFFC520FFF746FF0E20FFF702
:1019300068FF3620FFF740FFC820FFF762FFE02076
:10194000FFF73AFF0220FFF75CFF1C20FFF759FF6B
:101950000720FFF756FF1220FFF753FF3720FFF74E
:1019600050FF3220FFF74DFF2920FFF74AFF2D20BF
:10197000FFF747FF2920FFF744FF2520FFF741FF2E
:101980002B20FFF73EFF3920FFF73BFF0020FFF73A
:1019900038FF0120FFF735FF0320FFF732FF10204B
:1019A000FFF72FFFE120FFF707FF0320FFF729FFD5
:1019B0001D20FFF726FF0720FFF723FF0620FFF774
:1019C00020FF2E20FFF71DFF2C20FFF71AFF2920F4
:1019D000FFF717FF2D20FFF714FF2E20FFF711FF51
:1019E0002E20FFF70EFF3720FFF70BFF3F20FFF7FA
:1019F00008FF0020FFF705FF0020FFF702FF02208D
:101A0000FFF7FFFE1020FFF7FCFE2A20FFF7D4FEB1
:101A10000020FFF7F6FE0020FFF7F3FE0020FFF79F
:101A2000F0FE7F20FFF7EDFE2B20FFF7C5FE002024
:101A3000FFF7E7FE0020FFF7E4FE0020FFF7E1FEDE
:101A40009F20FFF7DEFE3A20FFF7B6FE0520FFF7E6
:101A5000D8FE2920FFF7B0FEBDE810400A20FFF7AE
:101A600006BE10B5234C8021204602F02EFA6420D9
:101A7000FFF7FDFD8021204602F025FABDE8104069
:101A80006420FFF7F4BD2DE9F04105462A20FFF759
:101A900093FE0020FFF7B5FE0020FFF7B2FE002006
:101AA000FFF7AFFE7F20FFF7ACFE2B20FFF784FE91
:101AB0000020FFF7A6FE0020FFF7A3FE0020FFF79F
:101AC000A0FE9F20FFF79DFE2C20FFF775FE00244F
:101AD0004FF4A0472E0A3046FFF793FEE8B2FFF717
:101AE00090FE641CA4B2BC42F5D3BDE8F0810000B6
:101AF0000002300000140140000C0140003C004096
:101B0000FE4908817047FD49C8807047FB498880BD
:101B100070472DE9F05F984615460C460746FFF7DB
:101B2000D7FDFFF79EFFFFF791FE2C20FFF744FE45
:101B3000F24E2046B480F580A6F80880FFF7A3FF98
:101B4000F8073770002802D04FF0140001E04FF082
:101B50001000B07002D04FF0080001E04FF00A0012
:101B6000F070DFF89CE34FF000004FF0200B00BF57
:101B700000EB8001E34A4FF0000302EB810702F51E
:101B8000487202EB8109A2F57A7202EB410802F574
:101B9000167202EB810602F548720EEB410A02EB67
:101BA000810200BF0AF803B027F8135029F8134048
:101BB00008F803B026F8135022F8134003F101038C
:101BC000DBB20A2BEED3401CC0B21428D0D3BDE840
:101BD000F09FCA49012048707047C84900204870EA
:101BE000704770B505460C462A20FFF7E5FD00203A
:101BF000FFF707FE2846FFF704FE0020FFF701FE6F
:101C00006D1CE8B2FFF7FDFD2B20FFF7D5FD00208E
:101C1000FFF7F7FD2046FFF7F4FD0020FFF7F1FD89
:101C2000641CE0B2FFF7EDFDBDE870402C20C3E579
:101C30002DE9F04104461D4616460F462A20FFF7BF
:101C4000BBFD0020FFF7DDFD2046FFF7DAFD002099
:101C5000FFF7D7FD3046FFF7D4FD2B20FFF7ACFD93
:101C60000020FFF7CEFD3846FFF7CBFD0020FFF741
:101C7000C8FD2846FFF7C5FDBDE8F0412C209BE5D7
:101C80002DE9F00F9D48DFF878920022C68809F10F
:101C9000C8098088202709F5167A09F5AF6802EB94
:101CA000820309EB43050AEB8304002108EB83035D
:101CB0006F5424F8116023F81100491CC9B20A2995
:101CC000F6D3521CD2B2142AE9D3BDE8F00FDAE6FB
:101CD000F0B58A4A8A4E0021D4889388894F2025FE
:101CE00006F5966E01EB810206EB420C491C0CF8DE
:101CF000005007EB820C0EEB82022CF81040C9B2A8
:101D000022F810301429EDD3F0BD10B50024204680
:101D1000FFF7DEFF641CE4B20A2CF8D310BD10B547
:101D2000FFF7AEFFFFF7F1FF74480178491C01F09F
:101D300003010170C907002902D04FF0140101E02E
:101D40004FF01001817002D04FF0080101E04FF018
:101D50000A01C17010BD0B46684910B509781446D8
:101D600031B1012906D0022912D0032909D116E088
:101D7000194604E0C3F17F01CAB201461046FFF7DD
:101D800030FF200AFFF73DFDE0B2BDE8104038E526
:101D9000C3F19F01C0F17F00C9B2C0B2EFE7C0F14B
:101DA0009F00C1B21846EAE7F0B5554A00EB800043
:101DB000C83202EB4006C83A02EB4002544F555C71
:101DC000514A16F801C002EB80044E4AAC4502EBC2
:101DD000800232F811304D4A02EB800207EB80009E
:101DE00030F8117007D134F81100984203D132F85D
:101DF0001100B84201D0012000E00020755424F801
:101E0000113022F81170F0BD0FB4F0B5C1B00D461D
:101E10000646002449AA6846489903F0F7FD37486A
:101E20006A46C7880389818834E05B280AD05D2828
:101E30000AD00D2809D00A2807D0142E05D80A2D5B
:101E400003D804E0012400E00024521C22E0DFF863
:101E5000B0E006EB860C0EEB4C0E521C0EF80500A3
:101E60000CB1184600E03846DFF898E0142E0EEB6F
:101E70008C0E2EF81500264800EB8C0020F815106B
:101E800003D300266D1CEDB201E0761CF6B20A2DDC
:101E900000D3002510780028C7D141B0F0BC5DF810
:101EA00014FB2DE9F05F1548407800287ED0002013
:101EB000184CDFF850C04FF0400A4FF0200E0427B6
:101EC0005FF0000101EB81030CEB8302E34632F883
:101ED00010500AEA55220EEA5516324305F0100555
:101EE0002A430B4E04EB430506EB8303022633F82B
:101EF000103006EA5326C3F300180DE0DA01002083
:101F000030870020C0880020508A0020708D00207B
:101F1000E08B0020008F002007EA533346EA0806D2
:101F200013431E43491C09B22E541029CADB401C1E
:101F300000B20A28C4DBF448007878B101287DD0CB
:101F400002287CD0032831D113250026F1B2E8B253
:101F5000FFF72AFF002873D001276AE1002400263A
:101F6000E1B2F0B2FFF720FFE8B3012705E000BFC0
:101F7000B9F1100F0DDA7F1C3FB206EB0709B9F17A
:101F8000100F06DAE1B209F0FF00FFF70DFF00289D
:101F9000EED10F2000EB0410C3B2F119FF2000EBCB
:101FA000C100C2B22007010EF00600E04EE0000EB4
:101FB000FFF73EFE4FF0000800252EE0E81705EB86
:101FC000507106EBE10000B2D04A00EB800002EB5A
:101FD00040031A5D1201A2F5007202EB0803CA4A1F
:101FE0000A32D25C00E025E021F007016B1A802163
:101FF000D9400A4202D00BEB800102E0C44901EB58
:10200000800131F814A04FEA1A20FFF7FAFB0AF01A
:10201000FF00FFF7F6FB6D1C2DB2B5EBC70FCDDB54
:1020200008F101000FFA80F8B8F1100FC4DBA9F134
:10203000010006B2761C36B2102E02E007E078E00E
:1020400056E18DDB641C24B20A2C88DBBFE5002638
:102050000724E1B2F0B2FFF7A7FEE8B3012703E0DF
:10206000002D09D47F1C3FB2E51B05D4E9B2F0B2C4
:10207000FFF79AFE0028F3D1072000EBC600C3B299
:10208000C4F108003844EF2101EB0010C2B2F006A1
:10209000010EC4F107000007000EFFF7C9FD4FF065
:1020A000000800252FE0E81705EB1072974BA4EB12
:1020B000221006EB860100B203EB410322F00F026F
:1020C0001B5CAA1A1B01A3F500739B1A8E4A0A32E5
:1020D0001A44D37B802200E022E022FA08F2134265
:1020E00002D00BEB810102E0894A02EB810131F859
:1020F00010904FEA1920FFF784FB09F0FF00FFF76B
:1021000080FB6D1C2DB2B5EB071FCCDB08F1010085
:102110000FFA80F8B8F1080FC3DBE01B401C04B2D3
:10212000641E24B2002C94DA761C36B2142E8FDB97
:102130004DE509240F25E1B2E8B2FFF735FEE8B31B
:10214000012703E0002E09D47F1C3FB2EE1B05D40B
:10215000E1B2F0B2FFF728FE0028F3D1C4F10A0182
:10216000FF2000EB0110C3B2C5F110003844F72185
:1021700001EBC000C2B2C4F109000007010EC5F1B5
:102180000F00C006000EFFF753FD4FF000080026B9
:1021900033E0F01706EB5071A5EBE10000B25B4AAB
:1021A00000EB800002EB40031A5DC8F1100312013E
:1021B000A2F500721344544A0A3200E02AE01A449D
:1021C00021F00701711AC1F1070312F8012C8021D7
:1021D000D9400A4202D00BEB800102E04C4901EBEE
:1021E000800131F814904FEA1920FFF70AFB09F03B
:1021F000FF00FFF706FB761C36B2B6EBC70FC8DB55
:1022000008F101000FFA80F8B8F1100FBFDBE81BEE
:10221000401C05B26D1E2DB2002D8CDA641E24B256
:10222000002C87DAD3E400BFB9F1080F0DDA7F1C68
:102230003FB206EB0709B9F1080F06DA09F0FF0112
:10224000E8B2FFF7B1FD0028EED1C5F114014FF05F
:10225000FF3000EBC101CBB2F11900EB0110C2B2AB
:10226000C5F11300C006010E3007000EFFF7E0FCB9
:102270004FF0000800242EE0E01704EB1072234B0F
:1022800006EB221005EB850100B203EB410322F0BF
:102290000F021B5CA21A1B01A3F5007313441A4A18
:1022A000C8F1070C0A329B5C802222FA0CF213421E
:1022B00002D00BEB810102E0154A02EB810131F8FB
:1022C00010A04FEA1A20FFF79CFA0AF0FF00FFF770
:1022D00098FA641C24B2B4EB071FCDDB08F10100AF
:1022E0000FFA80F8B8F1080FC4DBA9F1010006B2BB
:1022F000761C36B2082EFFF629AE6D1E2DB2002DCB
:10230000BFF623AE63E40000DA010020308700202E
:10231000E08B002010B54FF4E131022000F0E0F92D
:10232000BDE81040022000F038BA70B5B44CB4F9E2
:102330000600FEF747FEB4F9101000FB01F5B4F9F2
:102340000600FEF703FEB4F912106FF41C7301FBD4
:102350000052B4F9080042F210714843B4F9101069
:10236000594300EB0110104442F2107190FBF1F060
:1023700000B270BD70B5A24CB4F90600FEF722FEA3
:10238000B4F91210B4F90A20484311446FF41C72D6
:10239000514300EB0115B4F90600FEF7D7FDB4F97F
:1023A000101001FB105042F2107190FBF1F000B2DE
:1023B00070BD9348B0F90600704710B501210220A6
:1023C00000F015FA1021022000F011FA0021BDE8FA
:1023D0001040022000F00BBA70B500F017F9884DDC
:1023E0000446E87820F00200E8700121022000F0A5
:1023F000FEF92021022000F0FAF90021022000F06D
:10240000F6F94FF47A760CE000F000F9001B00F5C5
:102410007A7090FBF6F106FB1100142801DB002016
:1024200070BDE8788007EFD5012070BD2DE9F04739
:1024300016460F46054600F0E9F8714C8146E078F3
:1024400020F00100E0703046FEF7BCFDB4F910103A
:1024500040F27122484329445143C0EB01153046F4
:10246000FEF774FDB4F9121042F2107801FB10511E
:1024700091FBF8F53046FEF7A5FDB4F9121040F2D5
:102480007122484339445143C0EB01173046FEF7EF
:102490005DFDB4F9101001FB007191FBF8F701210B
:1024A000022000F0A4F93021022000F0A0F906215A
:1024B000022000F09CF9C5F30721022000F097F9F3
:1024C000E9B2022000F093F9C7F30721022000F0DF
:1024D0008EF9F9B2022000F08AF9C6F30721022032
:1024E00000F085F9F1B2022000F081F94FF47A751D
:1024F0000FE000BF00F08AF8A0EB090000F57A7049
:1025000090FBF5F105FB1100142802DB0020BDE86B
:10251000F087E078C007EDD00120F8E72DE9F04121
:10252000384C40F22551204602F0B0FE002818D069
:10253000204602F044FEC4B2314804260122057848
:102540003149002300F10E07052D0AD2DFE805F01E
:10255000030B1E273200012C03D1FF214170837031
:102560000270BDE8F081264A00210C32565CA6427A
:1025700003D141706D1C057003E0491CC9B20229EA
:10258000F4D34178FF29ECD10370EAE745787D5D0B
:10259000A542F9D103240470002DE2D109E0457869
:1025A0007F5D37B185784C556D1CECB28470A742C5
:1025B000D7D8067044783CB1012CE5D109788A401F
:1025C000C1780A43C270DFE70C784FF6FF7606EA5F
:1025D00004254C782C438D7806EA0527CD783D43B9
:1025E0000F79497906EA07263143B1F5616F04D2C4
:1025F000027104814581C180C6E70371C4E7000010
:10260000E407002000480040C88F002031480088BF
:1026100070473048408870472E484188008801EB59
:102620004102C2EBC11100EBC10070471FB501218F
:10263000084601F0CDFD4FF47A70ADF80800264849
:1026400026494FF080440068B0FBF1F0401EADF821
:10265000040001A9204601F0D3FF0121204602F029
:10266000AEFC01221146204602F088FA01212046E4
:1026700002F06FFA00248DF801408DF8024001202D
:102680008DF803001C208DF80000684600F0E7FD7F
:102690001048448004801FBD10B501218C072046DE
:1026A00002F07EFC0121204602F089FC09480188E5
:1026B00040F2E732914205D3002101804188491C54
:1026C000418002E00188491C0180BDE81040FEF70E
:1026D00002BF0000F80700208008002040420F00E1
:1026E00030B50D4604466C496B48143185B050F83E
:1026F000240051F82410084340F00100012101F0AA
:102700005EFD65481438ECB350F82400012101F057
:102710005FFD18208DF813005F4804A9283030F8B9
:102720001400ADF8100003208DF812005B4850F83B
:10273000240001F05AFB04208DF81300564804A928
:10274000323030F81400ADF810005448143050F80E
:10275000240001F04AFB00200095ADF804004F4D25
:10276000ADF80600ADF80800ADF80C000C20143DE3
:10277000ADF80A0055F82400694602F053FC55F8FC
:10278000240000E004E0012102F0BFFC05B030BDF0
:102790000068012101F013FDBBE738B504460021B4
:1027A0004FF0006000F08AFD3B483C3010F8140008
:1027B0008DF8000001208DF801008DF802008DF8E1
:1027C0000300684600F04BFD34480122143840F203
:1027D000255150F8240002F0A2FC38BD2F491839C9
:1027E000087070472D49FF2018390870704770B580
:1027F0002A4D0E460446143D402155F8240002F0AF
:102800003BFD0028F8D055F824003146BDE8704063
:1028100002F0D1BC0FB430B58BB0054610AA6846A3
:102820000F9903F0F3F86C4603E02846641CFFF7A9
:10283000DEFF21780029F8D10BB030BC5DF814FB25
:1028400070B5164D0446143D402155F8240002F0A1
:1028500013FD0028F8D055F8240002F0B0FCC0B2F7
:1028600070BD70B50D4C0646183C94F90000401C34
:1028700010D0251D94F90000402155F8200002F0E9
:10288000FBFC0028F6D094F90000F1B255F82000C6
:1028900002F091FC304670BD3C6500081408002031
:1028A00008B50121202001F093FCFD491E2008807D
:1028B000FF20091F0880FA49012018390880F84ACA
:1028C00000211C3A1180111F0880F5492C3908801D
:1028D0008DF8010003218DF802108DF803003720D8
:1028E0008DF80000684600F0BAFC08BDF8B54FF45A
:1028F0002040ADF8000003248DF802401820E94E76
:102900008DF803006946304601F06FFA4FF48040BD
:10291000ADF800008DF8024048208DF803006946AC
:10292000304601F062FAB514ADF800508DF802405F
:1029300004208DF803006946304601F056FA28203D
:102940008DF80300A810ADF800006946D64801F0E4
:102950004CFA2946304601F0B6FAF8BD30B50446C7
:1029600085B00121082001F02AFC0121880301F033
:102970002FFCFFF7BBFF684601F0FCFC0220ADF81E
:1029800006000120ADF808008020ADF80E004FF4DD
:102990008270ADF802001820C44DADF80C00284636
:1029A00001F05CFC0021284601F0F9FC694628464C
:1029B00001F078FC0121284601F029FD002128467C
:1029C00001F03CFD684601F0D5FC0121284601F0EC
:1029D000E6FCFFF765FF002C02D1B5490320087023
:1029E00005B030BDB248007B70477047F0B5B048C5
:1029F00001251427417815262C4601B94470AD49AC
:102A000091F800C00022A1F10C03BC4502D18F7BDC
:102A1000B74204D0C17A491CC172002502E0067B8E
:102A2000012E04D0C17A322939D96DB337E0046A56
:102A300044614D7B8E782D0405EB06254E78354498
:102A40000562CD781D800D795D804D798E7905EB1D
:102A500006259D80CD790E7A05EB0625DD804D7A21
:102A60008E7A05EB06251D81CD7A097B05EB0121C8
:102A70005981016A036A614019408161016A8C438E
:102A8000C461C2720120F0BD02621A805A809A802D
:102A9000DA801A815A818261C2614473C27281698B
:102AA000490505D5417B4A1C4273042900D944736A
:102AB0000020F0BD70B57E4C7C48A17881B301291F
:102AC00032D00025022936D01123C91E91FBF3F222
:102AD00003FB121212F0FF02227142D0A179C90742
:102AE00002EB820149D0744A02EB41016279114440
:102AF00011F80A1C01F07BFCA078401CC0B2A07049
:102B000058280CD9A0790321B0B3012837D0022866
:102B10003AD0032838D002D9A570A571E57170BDEF
:102B2000FFE74FF001010CE0A179C90701D0522164
:102B300007E0512105E0E178FF2908D039B1A572FD
:102B4000812101F054FCA078401CA070E7E7A5703B
:102B5000A07A411CA1723228E1D9E5712573A572D2
:102B6000DDE791FBF3F1A279520800D1491DC9B20A
:102B7000617141F08001BDE701E0504AB4E7A57002
:102B8000E171401CA071CAE7A570E171411CA171FF
:102B90000328C4D9A571C2E72DE9F041444C434F45
:102BA000A07818B1384601F024FCE070A178C1B1DA
:102BB000012918D03F4E002502291AD0A07B421EC1
:102BC000A27336D38121384601F011FCA078042885
:102BD00003D33218E17802F8041C401CA070BDE851
:102BE000F081012100E04221384601F000FCA0788C
:102BF000F3E7E078FF2809D040B1A572812138467B
:102C000001F0F5FBE078462809D00CE0A570A07A29
:102C1000411CA1723228E2D9E571A572DFE70120DB
:102C200060720F20A073A078401CA0703570B5733F
:102C3000D5E7042903D33144E07801F8040CA570EA
:102C40002078E071CBE72DE9F041154C01212C3CB7
:102C5000204602F0A5F90121204602F0B0F9144CFB
:102C600060780028BBD0E07901250026062854D2E0
:102C7000DFE800F00306424A4242E5712672AEE701
:102C8000207ADFF820804FF4805720B9394640463B
:102C900001F005F9A0B1207A012814D018E0000055
:102CA0002C140040000C014000140140003800408A
:102CB0003C080020DE8F002030870020008F00209D
:102CC000FFF76AFF0FE03946404601F0E8F840B1EF
:102CD0002682608A40F28A21884207D2401C6082A4
:102CE0007DE7FFF7E7FE6682257378E740F28921EA
:102CF0008842C4D9267372E7208A411C21821E288B
:102D0000BDD92682257206E0208A411C21821E2818
:102D1000B5D926822672E57161E7E6715FE7A349BE
:102D2000002048707047A1490120487070472DE984
:102D3000F84300263546B146B0469DA2314630469E
:102D4000FFF762F89EA201210020FFF75DF8A0A224
:102D500002210020FFF758F8944C00BFFFF756FC03
:102D6000B042FBD01420B6FBF0F100FB116000284C
:102D7000F4D1A769FFF73AFE132D71D2DFE805F011
:102D80000A16202A343E48525C66717B858F99A3CF
:102D9000ADB7C100A069C00607D5FEF7B6FF002198
:102DA0008FA20846FFF730F80125BBE0A069C007F5
:102DB000FBD000218DA20846FFF726F80225B1E0DE
:102DC000A0698007F1D500218CA20846FFF71CF806
:102DD0000325A7E0A0694007E7D500218BA208469C
:102DE000FFF712F804259DE0A0690007DDD500215A
:102DF0008BA20846FFF708F8052593E0A069800636
:102E0000D3D500218AA20846FEF7FEFF062589E0F9
:102E1000A069C004C9D5002189A20846FEF7F4FFC5
:102E200007257FE0A06980047CD5002188A20846A0
:102E3000FEF7EAFF082575E0A069400472D500217D
:102E400087A20846FEF7E0FF09256BE0A0690004B1
:102E500068D5002186A20846FEF7D6FF0A2561E064
:102E60005EE0A069C0055DD5002185A20846FEF799
:102E7000CBFF0B2556E0A069800553D5002184A225
:102E80000846FEF7C1FF0C254CE0A069400549D576
:102E9000002184A20846FEF7B7FF0D2542E0A06995
:102EA000C0033FD5002183A20846FEF7ADFF0E25E3
:102EB00038E0A069800335D5002182A20846FEF7DC
:102EC000A3FF0F252EE0A06940032BD5002181A28E
:102ED0000846FEF799FF102524E0A069000321D5DC
:102EE000002180A20846FEF78FFF11251AE0A06995
:102EF000C00217D500217FA20846FEF785FF1225E4
:102F000010E0A06980020DD500217EA20846FEF7E0
:102F10007BFF00217EA20846FEF776FF132501E025
:102F20004FF00108A069B84205D0A06918B109F1B5
:102F300001001FFA80F97B4FB7F902000090B7F942
:102F4000003079A203210020FEF75EFFB7F90430BC
:102F500079A204210020FEF757FFB7F9063078A2C6
:102F600005210020FEF750FFB7F9083076A20621B0
:102F70000020FEF749FFB7F90A3075A207210020AB
:102F8000FEF742FF4B4674A208210020FEF73CFFEB
:102F9000334675A209210F20FEF736FFFEF781FFA9
:102FA000B8F1000F3FF4DAAEBDE8F8833C0800202A
:102FB00058424F5820434F4E54524F4C4C455200AC
:102FC00074657374696E672070726F6772616D00EB
:102FD0005052455353205B53544152545D000000FE
:102FE0005052455353205B55505D0000505245539D
:102FF00053205B444F574E5D2020200050524553D4
:1030000053205B4C4546545D2020200050524553D0
:1030100053205B52494748545D20202000000000A7
:103020005052455353205B4241434B5D20202000CA
:103030005052455353205B415D202020202000004A
:103040005052455353205B425D2020202000000059
:103050005052455353205B585D2020202000000033
:103060005052455353205B595D2020202020000002
:103070005052455353205B4C42205D2020200000DD
:103080005052455353205B5242205D2020200000C7
:103090005052455353205B58424F5820205D20200A
:1030A000200000005B4C20425554544F4E20315DAF
:1030B000000000005B4C20425554544F4E20325DBE
:1030C000000000005B4C20425554544F4E20335DAD
:1030D000000000005B5220425554544F4E20315D99
:1030E000000000005B5220425554544F4E20325D88
:1030F000000000005B5220425554544F4E20335D77
:10310000000000004B45592054455354204F4B00BC
:103110007072657373205B4241434B5D2065786933
:1031200074000000D28F00204C543A25336C642088
:1031300052543A25336C64004C583A25356C64007F
:103140004C593A25356C640052583A25356C640068
:1031500052593A25356C640070726573735F636E03
:10316000743A2533640000002564000010B5184C43
:10317000206803C800F03BF8606803C800F037F827
:10318000A06803C800F033F820681023022203C8A7
:1031900000F022F860681023022203C800F01CF837
:1031A000A0681023022203C8BDE8104000F014B844
:1031B0000A460021830700D50221430701D541F0CB
:1031C0000401000701D541F00801024800F07FBE6C
:1031D000600800200010014008B58DF802208DF82D
:1031E0000330ADF80010694600F0FFFD08BD30B4B3
:1031F000164C2215011B5300A0421CD009DC1449B7
:10320000401812D0904213D098421DD101211020B5
:1032100008E0914212D0994213D0B1F5406F13D11A
:103220000121080230BC00F0CABF01210420F9E7E7
:1032300001210820F6E701212020F3E701214020A9
:10324000F0E701218020EDE730BC70470014014019
:1032500000F8FEBF2849084328490860704770B548
:103260000F23C47801780122F4B1244C24684578F6
:1032700004F4E064C4F5E064240AC4F10406E34005
:103280008478B5401C402C4301F1E021230181F8F2
:103290000034007800F01F018A404009800000F1EE
:1032A000E020C0F8002170BD01F01F0082404809F5
:1032B000800000F1E020C0F8802170BD104A11406C
:1032C00001430E48001F016070470C4A121D00297F
:1032D000116801D0014300E08143116070474FF055
:1032E000E0210428086903D020F004000861704739
:1032F00040F00400FAE700000000FA050CED00E0E1
:1033000080FFFF1FC54910B5884202D10121441535
:103310000AE0C349884202D10121041504E0C149F1
:1033200088420AD10121CC03204600F05AFF2046F2
:10333000BDE81040002100F054BF10BD10B5426838
:10334000B94B0C791A400B6842EA042213434360DC
:103350008368B64A1340D1E9024222434C7943EADA
:1033600044031A438260C26A097C22F47002491E37
:10337000C9B242EA0151C16210BD00210160017170
:1033800041718160C1600121017470470029816829
:1033900002D041F0010101E021F00101816070479C
:1033A0000029816802D041F4807101E021F480712C
:1033B00081607047002A4268C9B201D00A4300E028
:1033C0008A4342607047816841F00801816070471C
:1033D000014600208968090700D5012070478168EF
:1033E00041F0040181607047014600208968490767
:1033F00000D5012070470029816802D041F4A00166
:1034000001E021F4A0018160704701460020896835
:10341000490200D5012070474268491E22F46042EB
:1034200042EA4131416070470029416802D041F4CD
:10343000006101E021F400614160704770B507242C
:1034400009290AD9C568A1F10A0606EB4606B44067
:10345000A543B3401D43C56007E0056901EB410684
:10346000B440A543B3401D4305611F23072A09D279
:10347000446B521E02EB820293409C4391400C43EA
:10348000446370BD0D2A09D2046BD21F02EB820285
:1034900093409C4391400C43046370BDC46A0D3A51
:1034A00002EB820293409C4391400C43C46270BD86
:1034B0000029816802D041F4801101E021F48011DB
:1034C00081607047C06C80B2704754484C300068CF
:1034D00070470029416802D041F4806101E021F485
:1034E0008061416070470029416802D041F48051F9
:1034F00001E021F4805141607047826822F4E0428B
:103500000A43826070470029816802D041F400417B
:1035100001E021F40041816070470029816802D0F8
:1035200041F4021101E021F402118160704701466B
:1035300000208968890200D50120704770B50724F2
:1035400009290AD9C568A1F10A0606EB4606B44066
:10355000A543B3401D43C56007E0056901EB410683
:10356000B440A543B3401D430561836BC3F30154CD
:10357000121B921C02EB82041F22A2409343A14023
:103580000B43836370BD826B491E22F4401242EAF2
:1035900001518163704708B508440090026008BD7E
:1035A00008B5084428300090006880B208BD426821
:1035B0001F4B1A400A434260704741628262704763
:1035C000426822F01F020A434260704713490831E3
:1035D0000028086802D040F4000001E020F4000058
:1035E000086070470246002012680A4200D001209D
:1035F0007047C9430160704710B502460020546807
:103600000B0AC9B20C401168194202D0002C00D03C
:10361000012010BD6FEA11210160704700240140B4
:1036200000280140003C0140FFFEF0FFFDF7F1FFE4
:10363000FFFD3FFFFE4910B588424FF0010101D167
:103640004C0601E04FF08064204600F0D3FD204698
:10365000BDE81040002100F0CDBD10B50368002288
:1036600023F002030360036843F0010303604FF695
:10367000FF7300E0521C4468E40701D19A42F9D17B
:103680004268D2073ED08A79012A02683CD022F0F3
:1036900080020260CA79012A026838D022F0400212
:1036A00002600A7A012A026834D022F02002026005
:1036B0004A7A012A026830D022F0100202608A7A27
:1036C000012A02682CD022F008020260CA7A012A7C
:1036D000026828D022F0040202608A78CC7892072F
:1036E00042EA04620C7942EA04424C79098842EACF
:1036F0000452491E0A43C261016821F001010160C0
:10370000002114E0002010BD42F08002C1E742F029
:103710004002C5E742F02002C9E742F01002CDE7BF
:1037200042F00802D1E742F00402D5E7491C4268A2
:10373000D20701D09942F9D14068C007E2D10120F7
:1037400010BDF0B5827A01219140BA4A136843F066
:1037500001031360B74B1C331C688C431C60B54DD0
:10376000067BB54C0C35A6B92E688E432E60468874
:10377000C78846EA0746877A04EBC707C7F840665A
:103780000688878846EA0746877A04EBC707C7F8A2
:103790004466067B012E12D12E680E432E60867A77
:1037A000056804EBC6064FEA3545C6F84056867AEA
:1037B000456804EBC6044FEA3545C4F844569D4CB1
:1037C000C57A241D002D256806D00D432560994C2F
:1037D0000589143415B104E08D43F7E725688D435E
:1037E00025600589012D02D125680D432560407BA8
:1037F000012802D1186808431860106820F0010001
:103800001060F0BD00218171C1710172417281723D
:10381000C1728170C17003210171022141710121C6
:103820000180704783490A6842F001020A600A6811
:1038300043F60E739A430A600A6842EA0020086061
:10384000086820F00100086070470029016802D074
:1038500041F4803101E021F480310160704700299A
:10386000016813D041F080010160D0F8841141F467
:103870008071C0F88411D0F8941141F48071C0F8BF
:103880009411D0F8A41141F4807112E021F080016C
:103890000160D0F8841121F48071C0F88411D0F84F
:1038A000941121F48071C0F89411D0F8A41121F47E
:1038B0008071C0F8A411704730B5024600209368AB
:1038C0005B0108D49068000101D5012003E09068F5
:1038D000C00037D5022002EB0012D2F8803103F08D
:1038E0000103C2F880310B7A73B3D2F880414D687E
:1038F0001C434B7A43EAC5031C43C2F880418B7AD0
:1039000003F00F038B72D2F8843123F00F03C2F857
:103910008431D2F884318C7A2343C2F88431CB7A53
:10392000CC6843EA0423C2F88831CB7B096943EAB7
:103930000121C2F88C11D2F8801141F00101C2F8C6
:10394000801130BD042030BDD2F880314C7A234341
:103950000C8843EA4453C2F88031D0E7002221B1F9
:10396000012905D0022906D112E08268334801E01E
:103970008268334802403349501A8A4214D00ADC24
:10398000A2B16FF0806010180FD002280CD10FE0A8
:1039900082682D48EEE7B0F5007F09D02B4940182A
:1039A00003D0B0F5003F03D00020704702207047DD
:1039B0000120704741B101290AD0022903D1816851
:1039C00041F4000181607047816841F08001F9E7AE
:1039D000816841F40041F5E710B500EB0113D3F81D
:1039E000B04114F004041472D3F8B04145D0E40897
:1039F000C2F80440D3F8B04104F002045472D3F882
:103A0000B44104F00F049472D3F8B441240AD4747E
:103A1000D3F8B841D472D3F8B841240A1473D3F858
:103A2000B841240C5473D3F8B841240E94730FE0BA
:103A30000064004000660040006000400300000495
:103A40000003000800010008000003100001FFF758
:103A5000D3F8BC41D473D3F8BC41240A1474D3F80E
:103A6000BC41240C5474D3F8BC311B0E937439B18F
:103A7000016941F02001016110BD640D1460B9E7D6
:103A8000C16841F02001C16010BD21B1016941F060
:103A9000200101617047C16841F02001C160704799
:103AA0000246002029B1012902D1106900F003006B
:103AB0007047D068FAE700234FF6FF7221B1012961
:103AC00017D0022924D03AE0016821F0020141F028
:103AD0000101016000E0521E416801F0030101296B
:103AE00001D0002AF7D1406800F00300012823D15B
:103AF00024E0016821F00301016000E0521E4168EA
:103B0000890701D0002AF9D14068800714D115E057
:103B1000016821F0010141F00201016000E0521E44
:103B2000416801F00301022901D0002AF7D1406861
:103B300000F00300022801D0002300E00123184612
:103B400070470268002122F0010242F00202026086
:103B5000406800F00300022800D1012108467047A8
:103B600003684FF6FF71002223F00203036000E0B8
:103B7000491E43689B0701D50029F9D14068800799
:103B800000D40122104670478069C0F30210000182
:103B900070478069000E70478069C0F30740704726
:103BA000002A426901D00A4300E08A43426170471B
:103BB0000246002011F4700F03D0926904E0012046
:103BC0007047CB0104D552680A401103F7D1704702
:103BD0000B0101D59268F7E78B0101D5D268F3E7B5
:103BE0001269F1E7534A914202D100218161704785
:103BF000C1F313028B0101D5C26070474B0101D59F
:103C000002617047090101D58260704742607047C8
:103C10000246002053690B424AD0B1F5807F3BD069
:103C200013DC08292ED007DC012926D0022927D051
:103C300004293DD1D0682BE0102925D0202926D099
:103C4000402935D11069102130E0B1F5004F2BD05B
:103C50000BDCB1F5007F22D0B1F5806F22D0B1F539
:103C6000006F25D19069702120E0B1F5803F11D01F
:103C7000B1F5003F1CD15068E5E790682E4915E08A
:103C8000D06802E0D068DEE7106903210EE0106919
:103C900008210BE05068FBE79069012106E090697C
:103CA000022103E0906900E05068042100F03BB875
:103CB000704730B5082310240422B1F5007F1DD0D1
:103CC00010DC202929D007DC012921D0042922D0A9
:103CD000082900D1C46030BD402920D0B1F5807FD3
:103CE000F9D10BE00025B1F5004F06D008DCB1F5A5
:103CF000806F03D0B1F5006FEDD18561426030BDBA
:103D0000B1F5803F0DD0B1F5003FF8D1446030BD32
:103D10000949816030BDC36030BD036130BD0461BD
:103D200030BD436030BD024600200A4200D0012071
:103D3000704700007000F03001010100914910B59A
:103D4000884206D10121042000F04BFA0021042012
:103D50003BE08D49884206D10121082000F041FA5C
:103D60000021082031E08949884206D10121102034
:103D700000F037FA0021102027E08549884206D15B
:103D80000121202000F02DFA002120201DE0814992
:103D9000884206D10121402000F023FA0021402072
:103DA00013E07D49884206D10121802000F019FAF4
:103DB0000021802009E0794988420AD18415012137
:103DC000204600F00EFA00212046BDE8104000F029
:103DD00008BA10BD10B50121084600F002FA002112
:103DE000BDE81040012000F0FCB9F0B5CA7800250C
:103DF00002F00F03D20601D58A7813430A784FF0F8
:103E00000F0E12F0FF0F4FF001021DD0D0F800404E
:103E10000F8802FA05F63740B74211D14FEA850CF8
:103E20000EFA0CF724EA070703FA0CF43C43CF78A8
:103E3000282F02D0482F02D002E0466100E0066140
:103E40006D1C082DE4D304600C88FF2C1ED9446837
:103E50005FF0000606F1080702FA07F50F882F4009
:103E6000AF420FD14FEA860C0EFA0CF7BC4303FAAF
:103E70000CF73C43CF78282F00D14561CF78482FED
:103E800000D10561761C082EE4D34460F0BD4FF6E6
:103E9000FF710180022181700421C17070470246C8
:103EA000002092680A4200D001207047806880B2EA
:103EB000704702460020D2680A4200D001207047B5
:103EC000C06880B2704701617047416170470AB1B4
:103ED0000161704741617047C160704741F48032B1
:103EE0008261816182618169806970472C4B10B564
:103EF0001A684FF68074224042EA001008431860A6
:103F000010BD2849C8617047F0B5254C002801DA7A
:103F1000E36900E06368420D120185B2C0F3015706
:103F20009540C0F30346032F05D0C2020AD50322F1
:103F3000B240934307E023F07062636823F070633C
:103F4000636002E0AB4343F0706201B12A43002892
:103F500001DAE261F0BD6260F0BD10B58A0721F0C0
:103F600003040F49130F21440F228C689A40944395
:103F70008C608A68984002438A6010BD0949C1F884
:103F8000DC00704700080140000C014000100140B7
:103F90000014014000180140001C014000200140B5
:103FA0000000014000002042A448016841F00101E6
:103FB00001604168A24A114041600168A14A114074
:103FC0000160016821F480210160416821F4FE0153
:103FD00041604FF41F018160704798490A6822F4DC
:103FE00080320A600A6822F480220A60B0F5803FBD
:103FF00007D0B0F5802F03D1086840F4A0200860F6
:104000007047086840F48030F9E702460020530901
:104010008A49012B0AD0022B0AD0496A02F01F02FA
:10402000012393400B4200D0012070470968F5E757
:10403000096AF3E718B500204FF4A064009031201E
:10404000FFF7E3FF0099491C0091A14201D000282D
:10405000F5D03120FFF7D9FF002800D0012018BD8E
:1040600076490A6822F0F80242EAC0000860704708
:10407000754908607047714A5368084323F47C13FC
:104080001843506070477049086670476B4A516822
:1040900021F003010143516070476848406800F017
:1040A0000C007047654A516821F0F00101435160EE
:1040B0007047624A516821F4E061014351607047E2
:1040C0005E494A6822F4605242EAC0004860704784
:1040D0005A4A0029517A01D0014300E081435172CC
:1040E00070475949C1F8D8007047544A516821F4C3
:1040F00040410143516070475049002281F820201F
:1041000081F82020012802D0042802D1052081F85E
:10411000200070474D490860704748490A6A0243C9
:104120000A627047494944390860704730B54349CD
:104130004A6812F00C03464A03D0042B01D0082B26
:1041400021D002604A680F23424C03EA1212A35C9A
:104150000268DA4042604B68072505EA1323E35CF6
:1041600022FA03F383604B6805EAD323E35CDA4069
:10417000C2604968032303EA9131231F595CB2FBF3
:10418000F1F1016130BD4A684B6802F470124FF0E2
:10419000020413F4803F04EB924202D04B689B036D
:1041A00001D52D4B00E02A4B5A43CAE7234A002988
:1041B000516901D0014300E08143516170471F4ABA
:1041C0000029916901D0014300E08143916170476A
:1041D0001A4A0029D16901D0014300E08143D1612D
:1041E0007047164A0029D16801D0014300E081439D
:1041F000D1607047114A0029116901D0014300E0E4
:1042000081431161704711494039086070470E4978
:10421000C86470470949C87170470848416A41F04D
:10422000807141627047054A0146002092680A4247
:1042300000D0012070470149887270470010024089
:104240000000FFF8FFFFF6FE0000424280044242F9
:1042500000127A007008002000093D00994910B54D
:1042600088420AD1841401212046FFF7BAFF204674
:10427000BDE810400021FFF7B4BF9349884202D146
:104280000121041404E0914988420AD10121C41398
:104290002046FFF7AFFF2046BDE810400021FFF7A2
:1042A000A9BF10BD30B502884C8802F441530A887A
:1042B000CD8822438C882C4322430C8922434C898D
:1042C00022438C892243CC8922431A430280828B69
:1042D00022F400628283098A018230BDF0B505466E
:1042E0000C4602200021AA8B85B001264FF2400324
:1042F0001A40AA832884AF8BA268022A27D0A088FC
:1043000000B102266846FFF711FFE1880098B1F579
:10431000007F2DD07101B0FBF1F000BF00EB8000F9
:10432000A1684000B0FBF1F0401D80B20A21B0FB53
:10433000F1F000F00101401A4FF6FF72C0F34F0098
:1043400002EA0121821EFE2A01D302200021E28816
:10435000084302432A8420886188A2890843A188EF
:1043600011430843384340F40060A88305B0F0BD12
:10437000000AD3E70021018041808180C180018152
:1043800041818181C1810721018270470021018023
:1043900041808180C1800222826081817047002932
:1043A000018802D041F0400101E021F0400101808C
:1043B00070470029818B02D041F4806101E021F433
:1043C000806181837047090901238B40002A82881C
:1043D00099B201D00A4300E08A4382807047002AE4
:1043E000828801D00A4300E08A438280704781813D
:1043F000704780897047A1F57E420188FF3A02D05C
:1044000041F4807101E021F480710180704700293E
:10441000818802D041F0040101E021F00401818093
:104420007047028822F40062028002880A430280F8
:104430007047018841F4805101807047002901884C
:1044400002D041F4005101E021F400510180704795
:10445000012901D0008B7047808A7047008A70471D
:10446000B1F5804F018803D021F48041018070476D
:1044700041F48041FAE70246002012890A4200D046
:1044800001207047C9430181704710B501F00F0446
:104490000122034602FA04F4002009098A4091B27D
:1044A0009A88A4B20A401989214202D0002A00D079
:1044B000012010BD01F00F0201219140C94301818B
:1044C000704700000030014000380040003C0040D0
:1044D000F94910B5884202D10121C41486E0B0F137
:1044E000804F09D0F54988420DD101210220FFF704
:1044F00081FE0021022064E001210846FFF77AFED8
:10450000002101205DE0EE49884206D1012104200E
:10451000FFF770FE0021042053E0EA49884206D1EB
:1045200001210820FFF766FE0021082049E0E64946
:10453000884206D101211020FFF75CFE00211020E7
:104540003FE0E249884206D101212020FFF752FED8
:104550000021202035E0DE49884202D101214414A7
:1045600044E0DC49884202D10121CC043EE0DA4932
:10457000884202D101210C0538E0D849884202D195
:1045800001214C0532E0D649884206D10121402064
:10459000FFF730FE0021402013E0D249884206D1C7
:1045A00001218020FFF726FE0021802009E0CE496E
:1045B00088420AD1841501212046FFF71BFE002105
:1045C0002046BDE81040FFF715BEC849884202D119
:1045D00001210C040AE0C649884202D101214C04A1
:1045E00004E0C44988420AD101218C042046FFF727
:1045F000F8FD2046BDE810400021FFF7F2BD10BDD8
:1046000030B50288AC4BB24C98420DD0A0420BD0D2
:10461000B0F1804F08D0A94DA84205D0A84DA842BE
:1046200002D0A84DA84203D122F070054A882A433F
:10463000A54DA84206D0A54DA84203D022F440754E
:10464000CA882A4302808A8882850A88028598421D
:104650000AD0A04208D0A54A904205D0A44A904270
:1046600002D0A44A904201D1097A018601218182B7
:1046700030BD30B5028C22F001020284028C8388A6
:10468000048B22F0020224F073050C882C430D8960
:1046900015434A882A43884DA8420BD08C4DA84226
:1046A00008D0924DA84205D0914DA84202D0914D1C
:1046B000A8420DD122F008054A8923F440732A4309
:1046C00022F004058A882A438D891D43CB892B4318
:1046D00083800483C9888186028430BD70B5028CD2
:1046E00022F010020284028C8488038B0D8823F44C
:1046F000E6464FF6FF7303EA052535430E8922F09F
:10470000200203EA061616434A8803EA02123243DD
:10471000694EB04202D06E4EB04215D122F08006F2
:104720004A8924F4406403EA0212324322F040062C
:104730008A8803EA021232438E8903EA86062643F8
:10474000CC8903EA8404344384800583C9880187C3
:10475000028470BD70B5028C22F480720284028CD7
:104760008488838B0D8823F073031D4322F4007328
:104770000E894FF6FF7202EA06261E434B8802EAB4
:10478000032333434C4EB04202D0514EB04215D1B8
:1047900023F400664B8924F4405402EA0323334394
:1047A00023F480668B8802EA032333438E8902EA6E
:1047B00006162643CC8902EA041434438480858398
:1047C000C9888187038470BD70B5028C22F4805241
:1047D0000284048C8288838B0D8823F4E6464FF68E
:1047E000FF7303EA0525354324F400560C8903EAD8
:1047F000043434434E8803EA063626432E4CA04246
:1048000002D0334CA04205D122F480448A8903EAC5
:104810008212224382808583C988A0F840100684D2
:1048200070BD828B22F440628283828B4FF6FF73CD
:1048300003EA01210A4382837047828B22F00C0233
:104840008283828B0A4382837047028B22F4406208
:104850000283028B4FF6FF7303EA01210A430283AE
:104860007047F0B5048C24F010040484078B048C8A
:104870004FF6FF7527F4734705EA03333B4305EA18
:1048800002221A430C4B05EA011698420ED0104B37
:1048900098420BD0B0F1804F08D0084B984205D019
:1048A000074B984202D0074B984225D124F02001B3
:1048B000314341F0100124E0002C0140000400408D
:1048C00000080040000C00400010004000140040B0
:1048D00000340140004C01400050014000540140B0
:1048E00000180040001C0040002000400040014033
:1048F000004401400048014024F0A0030B4343F072
:10490000100102830184F0BD028B22F00C020283AD
:10491000028B0A430283704770B5048C24F00104B3
:104920000484058B048C4FF6FF7606EA03131343C9
:1049300025F0F305F94A2B4390420ED0F84A9042F5
:104940000BD0B0F1804F08D0F64A904205D0F64A1D
:10495000904202D0F54A904202D124F0020201E0D6
:1049600024F00A020A4342F001010383018470BD6E
:104970002DE9F05F0D4604460888E84FDFF8A0C334
:10498000DFF8A0834988AA882B894FF0804960B35B
:10499000042832D04FF6FF7E082836D0208C9B4664
:1049A00020F480502084A38B268C704600EA0222DB
:1049B00023F473431A4300EA0B3010430EEA013E1E
:1049C000BC420BD0644509D04C4507D0444505D0C6
:1049D000D54A944202D0D54B9C4245D126F4005191
:1049E00041EA0E0141F4805143E02046FFF794FF75
:1049F000E9882046BDE8F05F86E72046FFF731FFF3
:104A0000E9882046BDE8F05F1FE7208C20F4807025
:104A10002084B4F81CA0208C0EEA031313432AF060
:104A2000F30A0EEA012B43EA0A03BC420BD06445A9
:104A300009D04C4507D0444505D0BB4A944202D02A
:104A4000BA4A944204D120F4007040EA0B0002E01C
:104A500020F42060084340F48070A3832084E98818
:104A60002046BDE8F05FE8E626F402420A4342F43D
:104A70008051A08320462184E988BDE8F05FD0E61C
:104A80002DE9F0410C46002649880746012501B969
:104A90000226A288012A00D1022520882389002825
:104AA000384610D0FFF7DDFEE1883846FFF7CDFE2F
:104AB00023892A4631463846FFF72EFFE1883846DB
:104AC000BDE8F04120E7FFF727FFE1883846FFF710
:104AD0001BFF23892A4631463846FFF7C2FEE1888C
:104AE0003846BDE8F041B0E610B50A884B88CC885E
:104AF0001A438B8823431A430B891A434B898989AC
:104B00001A430A43A0F8442010BD4FF6FF7181807C
:104B100000210180C1804180017270470021018025
:104B200041808180C180018141818181C181704743
:104B300000210180418001228280C1800181704773
:104B40000021018041808180C1800181418181817A
:104B500070470029018802D041F0010101E021F0F5
:104B6000010101807047002930F8441F02D041F450
:104B7000004101E0C1F30E0101807047002A8289E3
:104B800001D00A4300E08A438281704781827047E6
:104B90001143A0F848107047002A828901D00A43C7
:104BA00000E08A4382817047018921F00701018179
:104BB0007047028922F070020A430281704700B5F3
:104BC0000346FFF7F6FF188940F00700188100BD83
:104BD00070B516460D46602904464FF00102314675
:104BE0000AD0FFF799FE29462046FFF7E2FF208909
:104BF00040F00700208170BDFFF733FEF3E730B5CA
:104C000004894FF6FF7505EA03231343E4B20B430F
:104C10002343038130BD10B50446FFF7F0FF208920
:104C200040F07700208110BD10B50446FFF7E7FF84
:104C3000208940F48040208110BD01858282704728
:104C4000028822F070020A430280704770B505891D
:104C5000048B068C25F007050D434FF6FC410C40F4
:104C600040F201110C434FF6FF7101EA031126F0E7
:104C700022061143314305810483018470BD028BF8
:104C800022F070020A4302837047028B4FF6FF73D3
:104C900022F4E04203EA0121114301837047828B31
:104CA00022F070020A4382837047828B4FF6FF73B3
:104CB00022F4E04203EA0121114381837047002975
:104CC000018802D041F0800101E021F080010180E3
:104CD00070470029818802D041F0040101E021F0F1
:104CE0000401818070470029818802D041F00801C9
:104CF00001E021F00801818070470029818802D0FD
:104D000041F0010101E021F0010181807047028B37
:104D100022F008020A43028370470000002C014081
:104D2000003401400004004000080040000C004036
:104D3000028B4FF6FF7322F4006203EA0121114354
:104D40000183E9E7828B22F008020A438283E3E7CA
:104D5000828B4FF6FF7322F4006203EA01211143B4
:104D60008183D9E7028B22F004020A430283D3E74E
:104D7000028B4FF6FF7322F4806203EA0121114394
:104D80000183C9E7828B22F004020A438283C3E7CE
:104D9000828B4FF6FF7322F4806203EA01211143F4
:104DA0008183B9E7028B22F080020A430283B3E7D2
:104DB000028B4FF6FF73C2F30E0203EA0121114387
:104DC0000183A9E7828B22F080020A438283A3E752
:104DD000828B4FF6FF73C2F30E0203EA01211143E7
:104DE000818399E7028C22F002020A43028493E74E
:104DF000028C22F008020A4302848DE7028C4FF6EF
:104E0000FF7322F0200203EA01111143018483E7BA
:104E1000028C4FF6FF7322F0800203EA0111114366
:104E2000018479E7028C4FF6FF7322F4007203EAE3
:104E30000121114301846FE7028C4FF6FF7322F4C6
:104E4000006203EA01211143018465E7028C4FF6F9
:104E5000FF7322F4005203EA0131114301845BE73E
:104E600010B50123048C8B409C430484038C8A403E
:104E70001343038410BD10B50423048C8B409C4362
:104E80000484038C8A401343038410BD30B501248D
:104E9000058C00F118038C40A543058489B10829CD
:104EA0000FD0091FC1F34E001844016821F4E041FE
:104EB000016001684FF6FF7303EA022211430160AB
:104EC00030BD03EB5100016821F070010160016801
:104ED000F4E70029018802D041F0020101E021F04D
:104EE0000201018018E70029018802D041F0040185
:104EF00001E021F0040101800EE70029818802D041
:104F000041F0800101E021F08001818004E7028806
:104F100022F00802028002880A430280FCE68288AE
:104F200022F07002828082880A438280F4E602893D
:104F300022F00702028102890A430281ECE602891B
:104F400022F08002028102890A430281E4E6818420
:104F5000E2E68185E0E68186DEE60187DCE68187A0
:104F6000DAE6A0F84010D7E6028822F44072028008
:104F700002880A430280CFE6808ECDE6008FCBE622
:104F8000808FC9E6B0F84000C6E6808CC4E6008D8C
:104F9000C2E602460020128A0A4200D00120BBE687
:104FA000C9430182B8E602460020138A92890B4267
:104FB00002EA010202D0002A00D00120ACE6C94377
:104FC0000182A9E6C44910B588420AD101218C03A7
:104FD0002046FFF706F92046BDE810400021FFF704
:104FE00000B9BE49884202D101214C0410E0BC49FD
:104FF000884202D101218C040AE0BA49884202D1D8
:105000000121CC0404E0B84988420AD101210C05F1
:105010002046FFF7EFF82046BDE810400021FFF7DB
:10502000E9B810BD30B50446008A85B00D464CF68F
:10503000FF710840E98801432182A1894EF6F310EF
:105040000140A8882A8910436A890A431043A08135
:10505000A08A4FF6FF410840A9890143A182684612
:10506000FFF764F89C48844201D1039800E002985D
:10507000A189090400EBC00101EB0010296801D5EA
:10508000490000E08900B0FBF1F06422B0FBF2F1CE
:1050900009010B096FF018056B4300EB8300A3892E
:1050A0001D044FF0320306D503EBC000B0FBF2F055
:1050B00000F0070005E003EB0010B0FBF2F000F099
:1050C0000F000843208105B030BD4FF41651016038
:1050D00000218180C18001810C2242818181704741
:1050E00010B5038A4FF2FF0213400A884C8822430E
:1050F0008C88C9880C4322431A43028210BD0021C8
:10510000018041808180C18070470029818902D05F
:1051100041F4005101E021F400518181704710B544
:10512000C1F3421301F01F040121A140012B07D05C
:10513000022B07D01430002A026805D00A4304E08D
:105140000C30F8E71030F6E78A43026010BD002A01
:10515000828A01D00A4300E08A4382827047028A31
:1051600022F00F020282028A0A4302827047828979
:1051700022F40062828182890A4382817047002979
:10518000818902D041F0020101E021F00201818118
:105190007047028A22F020020282028A0A430282B7
:1051A00070470029018A02D041F4804101E021F4D6
:1051B000804101827047C1F3080181807047808877
:1051C000C0F308007047818941F001018181704777
:1051D000028BD2B20283028B42EA01210183704723
:1051E000028B02F47F420283028B0A4302837047E0
:1051F0000029818A02D041F0200101E021F0200144
:10520000818270470029818A02D041F0100101E0BB
:1052100021F01001818270470029818A02D041F07B
:10522000080101E021F0080181827047002981898D
:1052300002D041F4004101E0C1F30E0181817047C9
:105240000029818A02D041F4006101E021F400616B
:1052500081827047828A22F004028282828A0A4313
:10526000828270470029818A02D041F0020101E068
:1052700021F00201818270470246002012880A4212
:1052800000D001207047C9430180704730B501F05C
:105290001F0201240025C1F3421304FA02F2012B7C
:1052A0000FD0022B0FD0838A4FEA112100881342BE
:1052B00004FA01F400EA040001D000B101252846F7
:1052C00030BD8389F0E7038AEEE70A0A01219140A5
:1052D000C94301807047000000380140004400408D
:1052E00000480040004C0040005000400CB5002138
:1052F0004B4801910091026842F4803202604FF401
:10530000A063026802F400320092019A521C0192DA
:10531000009A12B9019A9A42F3D10268920333D5E6
:10532000012100913F490A6842F010020A600A68B0
:1053300022F003020A600A6842F002020A60416831
:10534000416041684160416841F480614160416869
:1053500021F47C114160416841F4E8114160016829
:1053600041F08071016001688901FCD5416821F03C
:1053700003014160416841F0020141604168C1F3AD
:1053800081010229FAD10CBD00910CBD244810B551
:10539000016841F0010101604168234A1140416008
:1053A0000168224A11400160016821F480210160F6
:1053B000416821F4FE0141604FF41F018160FFF755
:1053C00095FF1B494FF00060086010BD144910B5EF
:1053D0004868184A10F00C03174803D0042B01D07A
:1053E000082B0AD002604968134AC1F30311121D49
:1053F000515C0268CA40026010BD4A684B6802F402
:1054000070124FF0020413F4803F04EB924202D07A
:105410004B689B0301D5094B00E0064B5A43E1E77B
:1054200000100240002002400000FFF8FFFFF6FEDF
:1054300008ED00E000127A008008002000093D001D
:105440000648804706480047FEE7FEE7FEE7FEE71E
:10545000FEE7FEE7FEE7FEE7FEE7FEE78D53000806
:1054600031010008034611F8012B00F8012B002A36
:10547000F9D11846704730B50B460146002020226E
:10548000012409E021FA02F59D4205D303FA02F551
:10549000491B04FA02F52844151EA2F10102F1DCB1
:1054A00030BD2DE9F05F0546002092469B468846B8
:1054B0000646814640241BE0284641464746224690
:1054C00000F0F9F953465A46C01A914110D31146DB
:1054D0001846224600F0E0F92D1A67EB01084F4606
:1054E00022460120002100F0D7F917EB00094E41B8
:1054F000201EA4F10104DFDC484631462A4643461B
:10550000BDE8F09F2DE9FE4F804681EA0300C00F01
:105510000C46009021F0004123F00045B8EB02005A
:10552000A94105D24046214690461C460B460246FC
:1055300023F00040104347D0270DC7F30A00C3F300
:105540000A510290401A019040286BDAC3F313000D
:1055500040F4801B0098924620B10023D2EB030A4E
:1055600063EB0B0B01985946C0F14002504600F026
:1055700093F906460D4650465946019A00F0ABF99C
:1055800010EB08006141002487EA115284EAE773B6
:105590001A4340D0009A62B3019A012A4FEA075297
:1055A00015DC001B61EB02014FF0004202EA0752DA
:1055B000CDE90042001C41F5801132462B4600F037
:1055C000ABF903B0BDE8F08F40462146F9E7001B78
:1055D00061EB0201001C41F5801300185B412018AB
:1055E000A2F5001747EB030140EAD570B6196D41EB
:1055F00011E06D084FEA360645EAC0754FEA0752DA
:10560000001B61EB0201001C41F5801149084FEAC3
:1056100030000019514132462B4603B0BDE8F04F2F
:1056200000F06BB90098012240000023D0EB020289
:1056300063EBE073009821464FEAE074B8EB00009A
:1056400061EB0401E9E783F000435BE781F000418F
:1056500058E72DE9FE4F81EA030404F0004421F0ED
:10566000004100944FF0000B23F0004350EA010486
:105670005ED052EA03045BD0C3F30A54C1F30A5567
:105680002C44A4F2F3340194A0FB0254C1F313019F
:1056900041F48011C3F3130343F4801301FB02446C
:1056A00000FB034E840A970A44EA815447EA835771
:1056B000A4FB076802958D0A05FB07854FEA932C2A
:1056C00004FB0C542705029D4FEA065847EA16379B
:1056D000B5EB08056EEB070C870E920E47EA8117B3
:1056E00042EA8312A7FB0201B6EB0B0164EB000454
:1056F0002B0D43EA0C335E1844EB1C50DA4651463E
:10570000E7FB0201C5F313044FEA0B3343EA1453DA
:105710004FEA0432019C43EA0603A4F10C0402940C
:10572000009CCDE900B400F0F7F803B0BDE8F08FBD
:1057300000200146F9E72DE9F04D81EA030404F069
:10574000004B21F0004514464FF0000A23F00041C1
:1057500050EA050220D054EA01021DD0C5F30A57D1
:105760000246C5F31303C1F31300C1F30A5640F414
:10577000801543F48013A7EB0608101BD64608F2E9
:10578000FD3873EB050002D308F1010801E092181F
:105790005B41B8F1000F03DA00200146BDE8F08D4F
:1057A00000204FF48011064684460EE0171B73EB71
:1057B000050705D3121B63EB050306434CEA010CF6
:1057C00049084FEA300092185B4150EA0107EDD1D9
:1057D00052EA030012D082EA040083EA050108437A
:1057E00005D0101BAB4106D20122002306E00022A7
:1057F0004FF0004302E06FF0010253101AEB060075
:105800004CEB085110EB0A0041EB0B01BDE8F04DE9
:1058100000F073B8C1F30A52C1F3130140F2FF3331
:1058200041F480119A4202DA00200146704740F2AA
:1058300033439A42A2F2334202DC524200F03BB8B8
:1058400000F02AB830B5041E71F1000404DB4FF0FB
:105850000044404264EB0101141E73F1000405DBB7
:105860001C464FF00043524263EB0403994208BFC9
:10587000904230BD064C074D06E0E06840F0010361
:1058800094E8070098471034AC42F6D3FAF754FC7A
:105890009C650008BC650008202A04DB203A00FA59
:1058A00002F1002070479140C2F1200320FA03F377
:1058B000194390407047202A04DB203A21FA02F075
:1058C0000021704721FA02F3D040C2F1200291403A
:1058D000084319467047202A06DBCB17203A41FAC5
:1058E00002F043EAE07306E041FA02F3D040C2F16D
:1058F0002002914008431946704710B5141E73F1F9
:10590000000408DA401C41F1000192185B411A437F
:1059100001D120F0010010BD2DE9F04D92469B46CB
:1059200011B1B1FA81F202E0B0FA80F22032904671
:10593000FFF7B2FF04460F4640EA0A0041EA0B01B6
:1059400053465A46084313D0114653EA010019D072
:10595000C8F140025046FFF7AEFF05460E465046DE
:1059600059464246FFF798FF084305D0012004E05E
:1059700020463946BDE8F08D0020054346EAE07632
:105980002C4337430A986305E40AA0EB0800002281
:10599000FD0A44EA47540A3002D500200146E9E7EF
:1059A000010510196941DDE9084500196941BDE8A3
:1059B000F04DA2E770B58C1810F8015B15F00703E5
:1059C00001D110F8013B2A1106D110F8012B03E098
:1059D00010F8016B01F8016B5B1EF9D12B0705D4A0
:1059E0000023521E0DD401F8013BFAE710F8013BE9
:1059F000CB1A921C03E013F8015B01F8015B521E05
:105A0000F9D5A142D8D3002070BD000037B51446A7
:105A10000846064B6A46214600F0CCF80446694623
:105A2000002000F05EFC20463EBD0000E36200085E
:105A300002E008C8121F08C1002AFAD17047704757
:105A4000002001E001C1121F002AFBD170470000B5
:105A50002DE9FF5FDDE90220010DDDF838B00243DA
:105A600018D044F61050A1F2FF3141430D140F98A5
:105A7000012820D0A5EB0B00401C5FEA000A4FF084
:105A80000004474EDFF81C91A046504616D5CAF1D7
:105A9000000728E00F98012443A2012808D0002124
:105AA00000980F9BC0E90021C0E90243BDE8FF9FB9
:105AB0006FEA0B01F4E7CBF10000DEE7074612E0E6
:105AC000F80707D02246334640464946FFF7C1FD56
:105AD000804689462246334610461946FFF7B9FDEF
