:020000040800F2
:1000000060960020855F00088D5F00088F5F000804
:10001000915F0008935F0008955F000800000000F2
:10002000000000000000000000000000975F0008D2
:10003000995F0008000000009B5F00089D5F0008BA
:100040009F5F00089F5F00089F5F00089F5F000898
:100050009F5F00089F5F00089F5F00089F5F000888
:100060009F5F00089F5F00089F5F00089F5F000878
:100070009F5F00089F5F00089F5F00089F5F000868
:100080009F5F00089F5F00089F5F000899060008B7
:10009000390700089F5F00089F5F00089F5F000806
:1000A0009F5F00089F5F00089F5F00089F5F000838
:1000B000B53100089F5F00089F5F00089F5F000840
:1000C0009F5F00089F5F00089F5F00089F5F000818
:1000D0009F5F00089F5F0008B502000839300008E4
:1000E0009F5F00089F5F00089F5F00089F5F0008F8
:1000F0009F5F00089F5F00089F5F00089F5F0008E8
:100100009F5F00089F5F00089F5F00089F5F0008D7
:100110009F5F00089F5F00089F5F0008633700082B
:100120009F5F00089F5F00089F5F00089F5F0008B7
:10013000DFF80CD006F078F900480047F90E000807
:10014000609600204FF07300A0F101000028FBD161
:100150007047000010B54FF4E131012003F04EF874
:10016000012003F0A8F896484168964841610021B3
:10017000017101810121017010BD924909780029A6
:1001800003D00146012003F0C0B870470FB410B58A
:100190008AB00DAA68460C9906F012FA6C4603E084
:1001A0000120641C03F0B1F821780029F8D10AB0CD
:1001B00010BC5DF814FB7FB51646824A1278002AFF
:1001C0002BD0082929D812228DF800208DF80100A3
:1001D00003236C468DF80210002505E0725DE254A1
:1001E0005B1C6D1CDBB2EDB28D42F7D3E0545B1C9F
:1001F000DDB20A466019314600F0A0FBAD1CE8B242
:1002000034212154401CC6B2002504E0605DFFF794
:10021000B4FF6D1CEDB2B542F8D37FBD694A10B58D
:1002200008200021517002F1180300E01954401E0B
:10023000C0B2FBD26348D170401D4170017010BD47
:1002400030B5604C604D237905F8330005EBC300F1
:100250005B1C41704260237130BD5A484078704742
:1002600058480089704757480189491C0181016934
:1002700021B100210161022003F01BBD0121F9E73A
:10028000F0B4504C0023504D26790FE005EBC30429
:1002900015F83370647827400440A74204D105EB79
:1002A000C3035B68F0BC18475B1CDBB2B342EDD301
:1002B000F0BC704770B5434D40F22551686905F0B8
:1002C00087FDE0B1686905F01CFDC4B2687830B103
:1002D00001280CD002280DD00F281DD304E0122CC9
:1002E00002D1012068700AE0FFF798FF07E0EC7088
:1002F0000220F7E7082CF7D803206870AC7002F0F2
:1003000013FF044602F013FF00EB4001C1EBC010E5
:1003100004EBC000E86070BDA978CA1C904206D208
:10032000284901F11801014401F8034C02E004D10D
:10033000E97818E000F10100D4E7224E01F104024F
:1003400006F1050690420AD10A4606F1130130462D
:1003500000F0F4FA3078A042C6D16878EAE74A1D86
:10036000904203D17178A142E4D0BDE78A1D90424A
:10037000BAD1342CB8D1134AE8781832FFF780FF8D
:10038000FFF771FFB0E710B502F0CEFE044602F0B1
:10039000CEFE00EB4001C1EBC01004EBC000094CE5
:1003A000E168401A32280AD9FFF738FF206901288E
:1003B00005D10021BDE81040022003F07ABC10BD39
:1003C0003C08002000000020C408002070B5012176
:1003D00086B0084604F095FC0121042004F091FC4D
:1003E0000121480604F096FC0121042004F089FC58
:1003F0004FF40060ADF80C0048208DF80F00EF4D71
:1004000003248DF80E4003A9284604F090FAA8149E
:10041000ADF80C0018208DF80F008DF80E4003A9E0
:10042000284604F084FAE64E304603F0A5FE6846FE
:1004300003F08AFF00248DF8064001258DF807504F
:1004400002208DF804008DF802408DF8034006204C
:10045000ADF8000002948DF805506946304603F06F
:100460009EFE01221146304604F03CF913208DF81F
:1004700010008DF8114004208DF812008DF81350F3
:1004800004A803F08EFC06B070BDCE48008870470B
:10049000CC4840887047CB4948880A88801A00B207
:1004A000002802DA8988084400B280B27047C54843
:1004B00001884088814201D10120704700207047A7
:1004C000BF48083001680268C1F38061C2F3C062AE
:1004D00000681144C0F300700844704730B58FB015
:1004E000FFF7E5FF002872D1FFF7EAFF00286ED082
:1004F000B44C2088A16801EB00121268009204221B
:1005000002EB00128A5C8DF80420052202EB001237
:100510008A5C8DF80520062202EB00128A5C8DF8B9
:100520000620072202EB00128A5C8DF807200822C1
:1005300002EB00128A5C8DF80820092202EB0012FF
:100540008A5C8DF809200A2202EB00128A5C8DF881
:100550000A200B2202EB00128A5C8DF80B200C2281
:1005600002EB0010085C009904918DF80C0000214A
:100570009DF804008DF819108DF8181005918DF86C
:100580001A00694604AA03E00B1815185B79EB7290
:10059000401EC0B2F8D2142204A909A805F004FD37
:1005A00009A9874803F02AFF042807D02088A188DA
:1005B000401CB0FBF1F201FB12002080FFF780FF2E
:1005C00008B1FFF78BFF01200FB030BDFFE700201F
:1005D000FAE72DE9F0417B4C6588A7886E1CB6FBD5
:1005E000F7FC07FB1C662788BE4204D1FFF776FFA5
:1005F0000020BDE8F081A66806EB05152860658837
:100600000426A06806EB05154155080A66880527EB
:10061000A56807EB0616A8550D0C66880627A06886
:1006200007EB06168555080E65880726A16806EBB8
:100630000515485561880825A06805EB011142544D
:10064000110A65880926A06806EB05154155100CAE
:1006500065880A26A16806EB05154855100E6288C4
:100660000B25A16805EB0212885461880C22A06852
:1006700002EB011143546088A188401CB0FBF1F2E9
:1006800001FB12006080FFF729FF0120B1E74D4810
:10069000002141800180704710B5494C012120465E
:1006A00004F058F8002806D00121204604F0A3F8F1
:1006B000BDE8104012E710BD08B5012202214048F4
:1006C00004F010F814208DF8000000208DF80100CF
:1006D00004208DF8020001208DF80300684603F025
:1006E00060FB08BD7FB5374C15461F22241F42EA28
:1006F000411221788DF80A1000214FF6FF7606EAA4
:1007000040100123ADF800008DF80B108DF80C306F
:10071000ADF80420ADF80210ADF80610ADF80810E1
:100720008DF80D30684603F0AEFD2749207841F87A
:100730002050401C20707FBD10B5214C86B0022196
:10074000204604F007F8002821D00221204604F0BA
:1007500052F801AA0021204603F0E0FE9DF80C00AB
:10076000002814D117499DF81700091F09788842FD
:100770000DD21C280BD2144951F82040002C06D071
:1007800005980DF1040C00909CE80F00A04706B0FE
:1007900010BD19B1491EC9B20012FAE7C0B27047C4
:1007A00010B5044641B1491EC9B2601CFFF7F8FFFD
:1007B000217801EB002010BD007810BD0008014039
:1007C0000064004024000020A486002000224FF492
:1007D000FE61B020FFF786BF2DE9F04100F1B006C1
:1007E000062060F307048846AA2060F30F2417460A
:1007F00000214046FFF7CDFF60F31744012140463A
:10080000FFF7C7FF60F31F6402214046FFF7C1FFF7
:1008100060F3070503214046FFF7BBFF60F30F2598
:100820002A4667F31742434621463046BDE8F04169
:10083000FFF7CFBE2DE9F04100F1B006072060F3CD
:1008400007040D46BB2060F30F24174600212846FD
:10085000FFF79FFF60F3174401212846FFF799FF38
:1008600060F31F6400213846FFF793FF60F307052C
:1008700001213846FFF78DFF60F30F25022138462E
:10088000FFF787FF60F3174503213846FFF781FF25
:100890002A4660F31F623B4621463046BDE8F041E0
:1008A000FFF797BE70B500F1B005032060F30704B1
:1008B0000E46442060F30F2400213046FFF769FF05
:1008C00060F3174401213046FFF763FF60F31F64B4
:1008D000334621462846BDE870401A46FFF779BEE8
:1008E00030B4012464F30701EE2464F30F2130BC1B
:1008F000B030FFF76EBE0FB410B59DF8130022287C
:1009000013D19DF8120005280FD10298B038102895
:100910000BD2042105A8FFF743FF074A029902EB17
:100920008101A1F58051C1F8400D10BC5DF814FBA8
:10093000014951F8200070471487002070B500234A
:100940001C460A4D0AE000BF11F8016B641C86EAE0
:10095000132635F8166086EA03239BB29442F3DB34
:10096000190A01704370012070BD0000AC6E0008D0
:1009700070B50E46044686B001210E2003F099F9A9
:1009800001F049FF1421684605F027FB01F043FF01
:100990000121FDA2084601F0BDFFFDA202210120B8
:1009A00001F0B8FFFE4D214668462A78921E05F0F8
:1009B0001FFB6B46FBA20421012001F0ABFF204688
:1009C00005F022FB2A78911E88420BD3A1186846B5
:1009D000891E921E05F00CFB6B46F2A20521012038
:1009E00001F098FF01F0E3FF00227821EE4801F0CA
:1009F00062FB01F03AF901F06DFE044601F0ABF93B
:100A000028B101280ED0022835D0032825D1002294
:100A10007821E54801F04FFB4FF4CC6001F0E9FD8F
:100A2000E2A20EE00721052001F0B3FA01F0C1FABD
:100A300040F2DF4001F0DDFD6421052001F025FBDF
:100A4000DDA20721002001F065FF01F04AF903460D
:100A5000DDA20821002001F05DFF01F0A8FF204683
:100A600001F0C7FD304601F078FB00210E2003F0B5
:100A700020F906B070BD0721012001F08AFA01F0CB
:100A800098FA1F2001F0B5FD32210A2001F0FDFA8D
:100A9000D0A20721002001F03DFF01F022F903461A
:100AA000C9A20821002001F035FF00BF01F07FFF3F
:100AB000C82001F052FB00210E2003F0FAF80720B5
:100AC00001F08BFE01F073FFC82001F046FB01210D
:100AD0000E2003F0EEF8BFA20721002001F01AFF5C
:100AE000E4E710B501F037F9002818D001280DD03F
:100AF000022814D10721052001F04BFA01F059FA20
:100B0000C8210620BDE8104001F0BFBA072105202A
:100B100001F03FFA01F04DFA64210220F2E710BD26
:100B20002DE9F84F05469E48AE4C0078C01F3C2D7D
:100B30000DD90A22B5FBF2F1B5FBF2F302FB11511C
:100B40000091C0B2A8A2002101F0E4FE05E0C0B20D
:100B5000A7A2002101F0DEFE7E252078C00701D08B
:100B6000A02400E08024722D01D81F2006E0782DFB
:100B700002D84FF6C04001E04FF4FC608246722D6F
:100B800001D81F2001E04FF6FF7083467E2D01D96A
:100B90000D200CE06E2D01D2002008E06E3D05EB2B
:100BA000850000EBC500C11700EB117000111FFAA2
:100BB00080F8002645F2AA290025A719133F4645CB
:100BC00001D2524600E04A46681DC1B2F8B201F0B7
:100BD00048FE6D1CEDB2062DF1D3761CF6B20D2E3B
:100BE000EAD300256619153EF0B25A46032101F0FA
:100BF00038FEF0B25A460C2101F033FE6D1CEDB206
:100C0000112DEFD30025A4F11508661F2F1DF9B291
:100C100008F0FF005A4601F024FEF9B2F0B25A463D
:100C200001F01FFE6D1CEDB2082DEFD30025241F2F
:100C3000681DC1B2E0B25A4601F013FE6D1CEDB260
:100C4000062DF5D3BDE8F88F0EB56B4C4FF0320B87
:100C50004FF4FA7820704FF6FF7A00BF02F064FA82
:100C600061888842FAD002F05FFAC821B0FBF1F245
:100C7000608001FB120008B900F0F7FF61885D4653
:100C8000B1FBF5F00BFB1010022822D101F0B1F8F6
:100C9000022001F0DFF8012805D005220F210220F3
:100CA00001F0E3F830B161782078491E884210DA0B
:100CB000401C0DE0002001F0CDF8012805D00522F0
:100CC0000F21002001F0D1F818B1207808B1401EA2
:100CD00020706088B0FBF5F105FB11000728BDD13D
:100CE00001F0F5FC029001F0F5FC019001F093FD9C
:100CF00046F2041001F080FC5746504601F079FCA2
:100D0000002001F06AFD02F012FA01463C26B0FB19
:100D1000F6F006FB101502F00AFAB0FBF6F300211C
:100D200036A20846009501F0F5FD6088C0F5FA701E
:100D300000F006FFC0F5FA70C0EB0020454690FBBE
:100D4000F5F000EB002101EB00404FF4FC6101EAFB
:100D500060166088C0F5FA7000F0F2FEC0F5FA7017
:100D6000C0EB002090FBF5F000EB002101EB004010
:100D7000000246EAD0666088C0F5FA7000F0E0FE36
:100D8000C0F5FA7040E000005B484B5553545D00DD
:100D90005B526F626F74696373205465616D5D00AF
:100DA0001802002025730000A06E00082042617424
:100DB00074657279204F4B00204C4F5720424154AC
:100DC0005445525921000000204C6576656C3A204C
:100DD00025730000204E4F20424154544552592162
:100DE00000000000160200202532642E2564000059
:100DF00020555342000000003000002020253032F2
:100E00006420253032640000C0EB002090FBF5F038
:100E100000EB002101EB00414FF4784000EA012093
:100E2000304301F0E6FB31A20021032001F072FD06
:100E3000384601F0DEFB00F034FF0A21B0FBF1F090
:100E4000C0B2FFF76DFE0025BA46012645F2AA2979
:100E5000274F1FE02078854228D16088404501D285
:100E6000002000E0484601F0C7FB304601F0B5FC29
:100E70004FEA0A0001F0BDFB05EB450007EBC0039C
:100E8000AFF2E0023146012001F044FD6D1C761CFA
:100E9000EDB2F6B260788542DCD3029801F0ACFB8B
:100EA000019801F0A6FB01F082FDD7E6504601F063
:100EB000A3FB304601F091FC0020DBE770B50D4C40
:100EC0000E460146607814280ED2094D00EB400012
:100ED00005EBC00005F09FF8607800EB400105EBE2
:100EE000C101401C4E61607070BD00003A000000FE
:100EF00054870020300000208CB002F025F900F06B
:100F0000EFFF00F05DFF02F0BFFE00221F234FF64F
:100F1000FF71104601F073FB01F082FF00F055FEF7
:100F2000FFF754FAFFF7C8FBFFF714F900F09BFB3B
:100F300000F099FC4FF4966199A0FFF719FD00218C
:100F40009FA0FFF7BBFF0021A1A0FFF7B7FF002183
:100F5000A3A0FFF7B3FF0021A5A0FFF7AFFF00217B
:100F6000A6A0FFF7ABFF0021A8A0FFF7A7FF002175
:100F7000A9A0FFF7A3FF0020FFF766FE00F08EF99F
:100F800002F0D2F8A74C21888842F9D002F0CCF8C0
:100F90003221B0FBF1F2208001FB12000728EFD1D3
:100FA00000F027FF09A800F072FB01F034FC00F00C
:100FB00098FE034600219CA2084601F0ABFC00F01D
:100FC0006DFE03469BA20121002001F0A3FC9BA221
:100FD00002210020099B01F09DFC9AA20321002020
:100FE0000A9B01F097FC99A2042100200B9B01F0C1
:100FF00091FC00F049FB034696A20521002001F078
:1010000089FC01F018FFB0F9045001F014FFB0F9A9
:10101000024001F010FFB0F9003091A2062100203B
:10102000CDE9004501F076FC092000F013FF0A2409
:10103000B0FBF4F104FB11000190082000F00AFF5E
:10104000B0FBF4F104FB1108062000F003FFB0FB35
:10105000F4F104FB1105072000F0FCFEB0FBF4F1F5
:1010600004FB11020520009200F0F4FEB0FBF4F145
:1010700004FB110B042000F0EDFEB0FBF4F104FBC7
:10108000110A032000F0E6FEB0FBF4F104FB1109A5
:10109000012000F0DFFEB0FBF4F104FB1107022099
:1010A00000F0D8FEB0FBF4F104FB1106002000F0C4
:1010B000D1FEB0FBF4F104FB1103DDE90002CDE940
:1010C0000782CDE905058DE8C00E6AA20721002040
:1010D00001F020FC092000F0DDFEB0FBF4F104FB80
:1010E00011020820019200F0D5FEB0FBF4F104FBE0
:1010F0001108062000F0CEFEB0FBF4F104FB110B4A
:10110000072000F0C7FEB0FBF4F104FB11000090D3
:10111000052000F0BFFEB0FBF4F104FB1107042032
:1011200000F0B8FEB0FBF4F104FB110A032000F05C
:10113000B1FEB0FBF4F104FB1109012000F0AAFE9E
:10114000B0FBF4F104FB1106022000F0A3FEB0FB9B
:10115000F4F104FB1105002000F09CFEB0FBF4F15B
:1011600004FB1103DDE90002CDF818B0CDE90782D8
:10117000CDE904708DE860063EA20721002001F051
:10118000C9FB01F0D1FF044601F0D1FF03463FA2A5
:1011900009210020009401F0BDFB01F008FCEFE6FE
:1011A000526F626F636F6E2032303135202053549E
:1011B0004D333256472053797374656D000000003B
:1011C0004D61696E2070726F6772616D3100000051
:1011D0004D61696E2070726F6772616D3200000040
:1011E000506F736974696F6E2074657374000000CA
:1011F0004D6F746F72207465737400004261747473
:1012000065727920746573740000000042757A7A03
:101210006572207465737400427574746F6E207407
:101220006573740034000020426174746572793A09
:10123000202573004144433A2025640056583A2043
:101240002564000056593A202564000056573A207C
:101250002564000053706565643A20256400000031
:1012600028252D34642C252D34642C252D34642917
:101270000000000025642564256425642564256438
:1012800025642564256425640000000054696D65AB
:101290003A20256427253033642200008CB000F00A
:1012A000CFF90A2401F040FFAC4D29888842F9D0DB
:1012B00001F03AFFB0FBF4F1288004FB110028B9DB
:1012C000FFF761F800F0FBF900F0EEFA2888FA2148
:1012D000B0FBF1F201FB1200012801D100F0C5FCC6
:1012E00001F025FFB0FBF4F104FB110020B92888C0
:1012F000022801D1FFF7F5FB28886421B0FBF1F249
:1013000001FB1200032801D100F061FA28884FF494
:10131000FA71B0FBF1F201FB120129B900287DD06E
:101320000021082002F0C5FC28883221B0FBF1F230
:1013300001FB12000728B5D100F05BFD09A800F001
:10134000A6F901F068FA00F0CCFC0346002184A263
:10135000084601F0DFFA00F0A1FC034683A2012158
:10136000002001F0D7FA83A202210020099B01F09E
:10137000D1FA82A2032100200A9B01F0CBFA81A2BC
:10138000042100200B9B01F0C5FA00F07DF9034613
:101390007EA20521002001F0BDFA002001F02CF909
:1013A000052001F01AFA4FF6FF7001F025F901F05F
:1013B00042FDB0F9046001F03EFDB0F9025001F0C9
:1013C0003AFDB0F90030CDE9005673A206210020A5
:1013D00001F0A0FA092000F03DFDB0FBF4F104FBA0
:1013E000110B082000F036FDB0FBF4F104FB1109ED
:1013F000062000F02FFDB0FBF4F104FB11070720DD
:1014000000F028FDB0FBF4F104FB1106052000F00C
:1014100021FDB0FBF4F104FB110C00E09CE0042082
:10142000CDF804C000F016FDB0FBF4F104FB11018F
:101430000320009100F00EFDB0FBF4F104FB110855
:10144000012000F007FDB0FBF4F104FB110A0220BB
:1014500000F000FDB0FBF4F104FB1105002000F0EA
:10146000F9FCB0FBF4F104FB110305A84FA280E8DE
:10147000C00ADDE9001CCDE90281CDE9005ACDF8B2
:1014800010C00721002001F045FA092000F002FDFC
:10149000B0FBF4F104FB11000190082000F0FAFC0D
:1014A000B0FBF4F104FB110B062000F0F3FCB0FBE1
:1014B000F4F104FB1109072000F0ECFCB0FBF4F19F
:1014C00004FB110C0520CDF800C000F0E3FCB0FBDC
:1014D000F4F104FB1108042000F0DCFCB0FBF4F193
:1014E00004FB110A032000F0D5FCB0FBF4F104FB6F
:1014F0001107012000F0CEFCB0FBF4F104FB110653
:10150000022000F0C7FCB0FBF4F104FB1105002041
:1015100000F0C0FCB0FBF4F104FB1103DDE9000CAA
:10152000CDE90480CDF81890CDE907BC8DE8E00442
:101530001EA20821002001F0EDF901F0F5FD05469D
:1015400001F0F5FD03461FA209210020009501F0DE
:10155000E1F901F02CFAA5E60121E2E636000020CF
:10156000426174746572793A202573004144433AAC
:101570002025640056583A202564000056593A2028
:101580002564000056573A202564000053706565B5
:10159000643A20256400000028252D34642C252D74
:1015A00034642C252D346429000000002564256452
:1015B00025642564256425642564256425642564E3
:1015C0000000000054696D653A20256427253033FA
:1015D00064220000092801D88C49087070478C4BA0
:1015E00083E80700704710B5402809D0412826D16C
:1015F000012924D11078092821D8BDE81040E9E755
:1016000003291CD183A392F900001C6892F90110F0
:1016100092F9022063B2834211DC44F3072484422E
:101620000DDB8B420BDC8C4209DB934207DC9442DE
:1016300005DBFFF7D4FF01F07DFD7449486010BD64
:1016400010B514210020FFF72DF919210120FFF713
:1016500029F914210220FFF725F91921BDE81040CE
:101660000320FFF71FB910B56B4AF0214020FEF7A9
:10167000E7FD67490020886048600860634948606A
:101680008860BDE81040DBE7604800787047604B39
:101690000ECB80E80E0070475C485D490C300A684C
:1016A00003689A4207D14A6843689A4203D189681D
:1016B0008068814201D001207047002070472DE9E9
:1016C000FF4701F037FD514C514D6168401A6428C5
:1016D00003D90020A86068602860FFF7DDFF30B9FB
:1016E00001F028FDA168401AB0F5FA6F6DD9A9463E
:1016F0004A482178D5E9006530F81170731940F235
:10170000C32003FB00FC4FF47A70DFF81481D9F892
:1017100008209CFBF0FC02FB08F292FBF0F8C444AA
:10172000CDF800C0A6EB050C40F2C3280CFB08FC6A
:101730009CFBF0FC92FBF0F8C444CDF804C0DFF849
:10174000E0C000210CF15D0C03FB0CF393FBF0F304
:1017500092FBF0FC63440293AB1B40F2C3256B4346
:1017600093FBF0F392FBF0F0184403906846642278
:1017700050F821307B4393FBF2F340F82130491CB1
:10178000C9B20429F4D3012200200099FFF724F8FC
:10179000012210460199FFF71FF801220220029949
:1017A000FFF71AF8012203200399FFF715F81749EC
:1017B000D9F800200C310A60D9F804204A60D9F821
:1017C0000800886001F0B6FCA060BDE8FF877CB52A
:1017D00001F031FB058801F02EFB448801F02BFB62
:1017E0008088290A8DF800108DF80150210A8DF8A3
:1017F0000210010A8DF804108DF805008DF80340E1
:101800006A4606216020FEF7D6FC7CBD3800002029
:10181000348900209C640000E7150008AC700008C3
:10182000E0FCFFFF21490020487070471F4901205C
:1018300048707047502806D01C4A51280ED05228B4
:101840000BD100200DE0062907D118485178801CE3
:101850000180D17841805179818070470029FCD185
:1018600001205070704710B5114AF0215020FEF74A
:10187000E7FC0E490120087010BD0E4B83E80700FD
:1018800070470A49D1F802200260C98881807047F8
:1018900003B506480099C0F80210BDF80410C180D5
:1018A0000CBD02484078704770470000500000208F
:1018B000351800084089002070B501E000F561602E
:1018C0000028FBDB4FF4616190FBF1F201FB120099
:1018D00040F68C2102B24FF4E165884202DDC0F58A
:1018E000616009E0A84202DDA0F5E16004E0B0F526
:1018F000617F01DDC0F5E1600A2190FBF1F3C3F1E6
:101900005A04A74B33F9146090FBF1F401FB140463
:1019100090FBF1F033F91000444340F23D2004F510
:101920008F7494FBF0F03044AA4200DD404270BD59
:10193000C0F56170C0E710B500EB80000C464000B8
:1019400002E000BF00F561600028FBDB4FF461613D
:10195000884202DDA0F56160FAE7FFF7E9FF604326
:1019600042F2107190FBF1F010BD10B500EB800059
:101970000C46400002E000BF00F561600028FBDB80
:101980004FF46161884202DDA0F56160FAE7FFF77C
:1019900093FF604342F2107190FBF1F010BD002103
:1019A000002806DA0121404200E0B43000B20028ED
:1019B000FBDBB42290FBF2F302FB1300784AB63A49
:1019C0005A2803DDC0F1B40039B901E009DA21B1C8
:1019D00032F91000C0F1000001E032F9100000B24D
:1019E00070474FF0FF3070472DE9F04100254FF46C
:1019F00061784FF4E1762F46002801DA0127404252
:101A00000FFA80FCA81904B22046FFF755FF0EB16B
:101A100084450DD14FF00A0004F1040494FBF0F06A
:101A200000B2002F02D0C0F1000000B2BDE8F0818A
:101A300001DAA04600E02546A8EB050000EBD070D7
:101A400040F34F06DEE700B5FFF7CEFFC0F15A00C6
:101A500000B200BDF0B505004FF0000420461AD4D6
:101A600006462046FFF79BFF854201DCB54210DAAF
:101A7000641C24B25A2CF3DB0BE006462046FFF729
:101A80008EFF854201DBB54203DD641E24B2BC42F9
:101A9000F3DA2046F0BD6FF05807EEE700B579B1F4
:101AA000B8B16422504301EBD17200EB620090FBAD
:101AB000F1F0002913DAFFF7CDFFB43000B200BD1A
:101AC000002802DA6FF0590000BD06D04FF05A002E
:101AD00000BD002901DAB42000BD002000BD5DF882
:101AE00004EBB7E7F0B505460C4617461046FFF77E
:101AF0001FFF296800FB01F63846FFF7DDFE21686D
:101B000000FB11663846FFF7D7FE296800FB01FC91
:101B10003846FFF70DFF216800FB01C042F210714B
:101B200096FBF1F290FBF1F02A602060F0BD00E03E
:101B300008440028FCDB90FBF1F201FB1200704727
:101B4000002800DA40427047002800DA404270471F
:101B50004043704730B503004FF0010002D003E06E
:101B6000400001D5002030BD00FB00F19942F7DDB7
:101B70004110441A6410621802FB02F59D420BDA10
:101B80001146022CF6DA01FB01F400FB0042B3EB34
:101B9000620FE8DA084630BD1046F2DC30BD0000C6
:101BA0000E01002008B50121102003F0AAF8002042
:101BB0008DF8030002208DF802000120ADF800002E
:101BC0006946784802F0B3FE08BD10B586B0FFF74D
:101BD000E9FF7548002401210480480203F091F8D0
:101BE0004FF46021CDE9021400948DF804400120E7
:101BF0006E4C8DF805008DF810006946204602F005
:101C00003FF9072301220A21204602F0B9F90120F9
:101C100002F07EFA0121204602F064F901212046FB
:101C200002F056F9204602F070F9204602F072F9EF
:101C30000028FAD1204602F074F9204602F076F925
:101C40000028FAD10121204602F077F906B010BD34
:101C5000554857490088400100EB4110642190FB32
:101C6000F1F000F5966080B27047504800B54C30F6
:101C700000684D4A1080FFF7EBFF4E4B918823F828
:101C800011001420491CB1FBF0F300FB13109080ED
:101C90005088142801D8401C508000BD424800885C
:101CA0007047414810B54288002112B10020414BD5
:101CB00011E000883E49400100EB4110642190FB97
:101CC000F1F000F596600AE033F81040401CC0B215
:101CD0002144142801D29042F6D3B1FBF2F080B235
:101CE00010BD70B53048324964250088400100EBD2
:101CF000411090FBF5F000F5966084B22A482EA1C1
:101D0000801D04F088F94FF47A70B4FBF0F00A21DA
:101D1000B0FBF1F201FB12022348801D03781A4444
:101D20000270B4FBF5F2B2FBF1F301FB132243782E
:101D30001A444270B4FBF1F2B2FBF1F301FB13223F
:101D4000C3781A44C270B4FBF1F201FB124102796C
:101D50001144017170BD144800884101144801EB21
:101D60004010642190FBF1F202F5966292B2B2F556
:101D7000167F01D80320704790FBF1F202F59662BE
:101D800092B2B2F58C6F01D80220704790FBF1F04F
:101D900000F5966080B2B0F5916F01D801207047D0
:101DA0000020704700100140C401002000240140C1
:101DB000DCF1FFFF4C89002030302E30305600001F
:101DC0002DE9F041434F0024414E254607F1140808
:101DD00056F8240001234822022101F0B7FF27F81A
:101DE000145028F81450641CE4B20A2CF0D3BDE857
:101DF000F0812DE9F041DFF8DC800024344F354DCF
:101E000008F11408264600BF57F8240001F0B1FF7E
:101E1000002835F8140004D048B1012128F8141026
:101E200011E0401C25F8140028F814600DE038F883
:101E30001400414638B1401C80B221F81400142827
:101E400001D928F8146025F81460641CE4B20A2C47
:101E5000DAD3CCE710B50A2805D200F027F81D49DF
:101E600031F8100010BD002010BD70B515460C46AD
:101E70000646FFF7EFFFA0420AD93046FFF7EAFF18
:101E8000001B90FBF5F105FB110008B1012070BDAE
:101E9000002070BD10B50A2806D200F007F80D49E1
:101EA000143131F8100010BD002010BD10B50446EB
:101EB00000F016FC032C08D8201A401DC11700EBB7
:101EC000917121F00301401AC4B2204610BD0000F8
:101ED000D4010020748900200021844803F0E1BD72
:101EE000F0B589B00121082002F00BFF18208DF811
:101EF0001F0003208DF81E000124ADF81C40214670
:101F0000022002F007FF0121084602F0FAFE20023B
:101F1000ADF8160076480025ADF8125000687549F6
:101F2000754EB0FBF1F0401EADF8100070896F4F98
:101F3000ADF8140004A9384603F004F96020ADF8A8
:101F40000850ADF80000B078ADF80600ADF80240DA
:101F50000121384603F055FC0121384603F09BFB74
:101F60006946384603F098F907A9644802F0DFFC97
:101F7000FFF7B2FF09B0F0BD5F48418941B18078F9
:101F800041436420B1FBF0F081B2584803F089BDB1
:101F9000A2E718B1421C01D00C2801DD00207047D7
:101FA000574A32F8100000E04008491EC9B2FBD27F
:101FB000704751494881010002D04C4803F06BBD85
:101FC0008AE738B54C4C21786078084318D02089CE
:101FD000401E0004000C208111D121B1207020B1DD
:101FE000FFF7CAFF03E00120F8E7FFF775FFE0887D
:101FF00020812078002802D16078401E607038BDB2
:10200000E0780028FBD0A189606900EB41000088DE
:10201000ADF800009DF90000401C02D1E070FFF710
:102020005BFF208A10B1401E208238BDE0892082EB
:10203000618A89B1207930B10020207128B12182D4
:10204000FFF74AFF03E00120F7E7FFF795FF608AFB
:1020500010B120790028E8D1A089401C80B2A0816D
:10206000616901EB40000088ADF800009DF80110A7
:102070009DF90000FFF78DFFFFF79BFFBDE838409B
:102080007AE71D490020C870704710B500280BD0B2
:10209000002909D0184C60702181E1800120207056
:1020A000FFF76AFF0020E07010BD642800D96420AB
:1020B00011498870704770B5002815D00E4B002468
:1020C00001251C705C70DD709C81D98119825A8257
:1020D0001C715861417890F90000FFF75AFFFFF733
:1020E00068FFBDE8704047E770BD00000004004095
:1020F000B008002040420F00FC010020000C01400D
:10210000C07000082C4A10B5117819B10A21B0FB33
:10211000F1F415E000EBC00101234FF0E020137053
:1021200041610021816103610369DC0701D0DB03A8
:10213000FAD501618161117010BD00BFFEF702F890
:10214000641EFBD210BD10B55FF00004FDF7FAFF6E
:10215000641CE4B2642CF9D310BD2DE9F041164A99
:102160000446107820BB4FF0010C82F800C04FF4F9
:102170007A7700254FF0E02013E039468C4200D8F2
:10218000214642F228334B4343618561C0F810C0B9
:102190000369DE0701D0DB03FAD505618561611AA9
:1021A0008CB2002CE9D11570BDE8F081FFF7CBFFB0
:1021B000641EA4B2FAD2F7E714020020F0B587B08B
:1021C0000121042002F09DFD0121082002F099FD6B
:1021D0000121202002F095FD0121084602F091FD29
:1021E0000121C80302F096FD0121FC4802F02EFCFB
:1021F0008020ADF800001025F94F8DF80350012420
:102200008DF802406946384602F091FB4020ADF857
:1022100000008DF803508DF802406946384602F000
:1022200086FB3820ADF8000018208DF80300032647
:102230008DF802606946EB4802F079FB2020ADF88A
:1022400000008DF803508DF802606946384602F0B0
:102250006EFB0020ADF804004FF48271ADF806105B
:10226000ADF808000221ADF80A10ADF80C400902E3
:10227000ADF80E100821ADF81010DB4CADF81200CF
:1022800001A9204602F0B0FD0121204602F029FEFE
:102290000021204602F074FE0021204602F059FE83
:1022A00007B0F0BD70B5CE4D06462021284602F09D
:1022B000AEFB4021284602F0AAFBCB4C022120466F
:1022C00002F07BFE0028F9D03146204602F031FEB4
:1022D0000121204602F071FE0028F9D0204602F0CC
:1022E0002AFE2846BDE87040202102F08EBB70B562
:1022F000BB4D06462021284602F089FB4021284696
:1023000002F083FBB84C0221204602F056FE002862
:10231000F9D03146204602F00CFE0121204602F0A1
:102320004CFE0028F9D0204602F005FE2846BDE804
:102330007040202102F069BB10B50120FFF7B2FF09
:102340000A20FFF70AFF1120FFF7ACFF7820FFF704
:1023500004FFB120FFF7A6FF0120FFF7C8FF2C20E4
:10236000FFF7C5FF2D20FFF7C2FFB220FFF79AFF4E
:102370000120FFF7BCFF2C20FFF7B9FF2D20FFF74E
:10238000B6FFB320FFF78EFF0120FFF7B0FF2C2030
:10239000FFF7ADFF2D20FFF7AAFF0120FFF7A7FFF2
:1023A0002C20FFF7A4FF2D20FFF7A1FFB420FFF79B
:1023B00079FF0720FFF79BFFC020FFF773FFA220E4
:1023C000FFF795FF0220FFF792FF8420FFF78FFFB2
:1023D000C120FFF767FFC520FFF789FFC220FFF785
:1023E00061FF0A20FFF783FF0020FFF780FFC32073
:1023F000FFF758FF8A20FFF77AFF2A20FFF777FFC1
:10240000C420FFF74FFF8A20FFF771FFEE20FFF790
:102410006EFFC520FFF746FF0E20FFF768FF36204E
:10242000FFF740FFC820FFF762FFE020FFF73AFF09
:102430000220FFF75CFF1C20FFF759FF0720FFF782
:1024400056FF1220FFF753FF3720FFF750FF3220CF
:10245000FFF74DFF2920FFF74AFF2D20FFF747FF29
:102460002920FFF744FF2520FFF741FF2B20FFF72E
:102470003EFF3920FFF73BFF0020FFF738FF012028
:10248000FFF735FF0320FFF732FF1020FFF72FFF84
:10249000E120FFF707FF0320FFF729FF1D20FFF7CB
:1024A00026FF0720FFF723FF0620FFF720FF2E203F
:1024B000FFF71DFF2C20FFF71AFF2920FFF717FF5A
:1024C0002D20FFF714FF2E20FFF711FF2E20FFF71E
:1024D0000EFF3720FFF70BFF3F20FFF708FF00201C
:1024E000FFF705FF0020FFF702FF0220FFF7FFFEC6
:1024F0001020FFF7FCFE2A20FFF7D4FE0020FFF794
:10250000F6FE0020FFF7F3FE0020FFF7F0FE7F202D
:10251000FFF7EDFE2B20FFF7C5FE0020FFF7E7FEDB
:102520000020FFF7E4FE0020FFF7E1FE9F20FFF709
:10253000DEFE3A20FFF7B6FE0520FFF7D8FE292081
:10254000FFF7B0FEBDE810400A20FFF706BE10B549
:10255000234C8021204602F05AFA6420FFF7FDFD4B
:102560008021204602F051FABDE810406420FFF7B8
:10257000F4BD2DE9F04105462A20FFF793FE002027
:10258000FFF7B5FE0020FFF7B2FE0020FFF7AFFE19
:102590007F20FFF7ACFE2B20FFF784FE0020FFF723
:1025A000A6FE0020FFF7A3FE0020FFF7A0FE9F205D
:1025B000FFF79DFE2C20FFF775FE00244FF4A04787
:1025C0002E0A3046FFF793FEE8B2FFF790FE641C38
:1025D000A4B2BC42F5D3BDE8F08100000002300097
:1025E00000140140000C0140003C0040FE490881FD
:1025F0007047FD49C8807047FB49888070472DE9C6
:10260000F05F984615460C460746FFF7D7FDFFF7E3
:102610009EFFFFF791FE2C20FFF744FEF24E20466E
:10262000B480F580A6F80880FFF7A3FFF80737709D
:10263000002802D04FF0140001E04FF01000B070FD
:1026400002D04FF0080001E04FF00A00F070DFF810
:102650009CE34FF000004FF0200B00BF00EB800127
:10266000E34A4FF0000302EB810702F5487202EBE8
:102670008109A2F57A7202EB410802F5167202EBAB
:10268000810602F548720EEB410A02EB810200BF9F
:102690000AF803B027F8135029F8134008F803B0DC
:1026A00026F8135022F8134003F10103DBB20A2B82
:1026B000EED3401CC0B21428D0D3BDE8F09FCA4965
:1026C000012048707047C849002048707047C648CC
:1026D00080887047C448C0887047C34800897047E5
:1026E000C14800787047C0490870704770B505460A
:1026F0000C462A20FFF7D6FD0020FFF7F8FD2846FC
:10270000FFF7F5FD0020FFF7F2FD6D1CE8B2FFF7C3
:10271000EEFD2B20FFF7C6FD0020FFF7E8FD204669
:10272000FFF7E5FD0020FFF7E2FD641CE0B2FFF7D4
:10273000DEFDBDE870402C20B4E52DE9F0410446F3
:102740001D4616460F462A20FFF7ACFD0020FFF776
:10275000CEFD2046FFF7CBFD0020FFF7C8FD304639
:10276000FFF7C5FD2B20FFF79DFD0020FFF7BFFD04
:102770003846FFF7BCFD0020FFF7B9FD2846FFF7FC
:10278000B6FDBDE8F0412C208CE52DE9F00F964810
:10279000DFF858920022C68809F1C80980882027EE
:1027A00009F5167A09F5AF6802EB820309EB4305D8
:1027B0000AEB8304002108EB83036F5424F81160B3
:1027C00023F81100491CC9B20A29F6D3521CD2B20F
:1027D000142AE9D3BDE8F00FCBE6F0B5824A834E68
:1027E0000021D4889388824F202506F5966E00BF7D
:1027F00001EB810206EB420C491C0CF8005007EB80
:10280000820C0EEB82022CF81040C9B222F8103074
:102810001429EDD3F0BD10B500242046FFF7DDFFED
:10282000641CE4B20A2CF8D310BD10B5FFF7ADFF5D
:10283000FFF7F1FF6C480178491C01F003010170BA
:10284000C907002902D04FF0140101E04FF0100138
:10285000817002D04FF0080101E04FF00A01C17011
:1028600010BD0B46604910B50978144631B10129F5
:1028700006D0022912D0032909D116E0194604E036
:10288000C3F17F01CAB201461046FFF72FFF200AAD
:10289000FFF72DFDE0B2BDE8104028E5C3F19F0130
:1028A000C0F17F00C9B2C0B2EFE7C0F19F00C1B272
:1028B0001846EAE7F0B54D4A00EB8000C83202EB5B
:1028C0004006C83A02EB40024C4F555C494A16F8A4
:1028D00001C002EB8004464AAC4502EB800232F8AC
:1028E0001130454A02EB800207EB800030F811708E
:1028F00007D134F81100984203D132F81100B842E0
:1029000001D0012000E00020755424F8113022F895
:102910001170F0BD0FB4F0B5C1B00D4606460024ED
:1029200049AA6846489903F04BFE2F486A46C78873
:102930000389818834E05B280AD05D280AD00D28FD
:1029400009D00A2807D0142E05D80A2D03D804E090
:10295000012400E00024521C22E0DFF890E006EBA6
:10296000860C0EEB4C0E521C0EF805000CB11846EE
:1029700000E03846DFF878E0142E0EEB8C0E2EF8CF
:1029800015001E4800EB8C0020F8151003D300261C
:102990006D1CEDB201E0761CF6B20A2D00D30025C5
:1029A00010780028C7D141B0F0BC5DF814FB2DE9C8
:1029B000F05F0D48407800287ED00020104CDFF8F2
:1029C00030C04FF0400A4FF0200E04275FF00001A6
:1029D00001EB81030CEB8302E34632F810500AEA64
:1029E00055220EEA55160DE0160200209C890020A3
:1029F0002C8B0020BC8C0020DC8F00204C8E002013
:102A00006C910020324305F010052A43FF4E04EB81
:102A1000430506EB8303022633F81030491C06EA0F
:102A20005326C3F3001807EA533346EA0806134354
:102A30001E4309B22E541029CADB401C00B20A28DA
:102A4000C4DBF348007878B101287DD002287CD01F
:102A5000032831D113250026F1B2E8B2FFF72AFF8F
:102A6000002873D001276AE100240026E1B2F0B209
:102A7000FFF720FFE8B3012705E000BFB9F1100F11
:102A80000DDA7F1C3FB206EB0709B9F1100F06DA29
:102A9000E1B209F0FF00FFF70DFF0028EED10F2093
:102AA00000EB0410C3B2F119FF2000EBC100C2B269
:102AB0002007010EF00600E04EE0000EFFF73DFE9D
:102AC0004FF0000800252EE0E81705EB507106EBEB
:102AD000E10000B2CF4A00EB800002EB40031A5D38
:102AE0001201A2F5007202EB0803C94A0A32D25C55
:102AF00000E025E021F007016B1A8021D9400A424D
:102B000002D00BEB800102E0C04901EB800131F8FB
:102B100014A04FEA1A20FFF7EAFB0AF0FF00FFF7C4
:102B2000E6FB6D1C2DB2B5EBC70FCDDB08F1010044
:102B30000FFA80F8B8F1100FC4DBA9F1010006B25A
:102B4000761C36B2102E02E007E078E056E18DDB0D
:102B5000641C24B20A2C88DBAFE500260724E1B20E
:102B6000F0B2FFF7A7FEE8B3012703E0002D09D478
:102B70007F1C3FB2E51B05D4E9B2F0B2FFF79AFE25
:102B80000028F3D1072000EBC600C3B2C4F108004F
:102B90003844EF2101EB0010C2B2F006010EC4F17F
:102BA00007000007000EFFF7C8FD4FF000080025E2
:102BB0002FE0E81705EB1072964BA4EB221006EB02
:102BC000860100B203EB410322F00F021B5CAA1A3C
:102BD0001B01A3F500739B1A8D4A0A321A44D37B5A
:102BE000802200E022E022FA08F2134202D00BEB2E
:102BF000810102E0854A02EB810131F810904FEA31
:102C00001920FFF774FB09F0FF00FFF770FB6D1C44
:102C10002DB2B5EB071FCCDB08F101000FFA80F8ED
:102C2000B8F1080FC3DBE01B401C04B2641E24B2E1
:102C3000002C94DA761C36B2142E8FDB3DE5092485
:102C40000F25E1B2E8B2FFF735FEE8B3012703E054
:102C5000002E09D47F1C3FB2EE1B05D4E1B2F0B2C6
:102C6000FFF728FE0028F3D1C4F10A01FF2000EB92
:102C70000110C3B2C5F110003844F72101EBC000C8
:102C8000C2B2C4F109000007010EC5F10F00C00671
:102C9000000EFFF752FD4FF00008002633E0F0175A
:102CA00006EB5071A5EBE10000B25A4A00EB800040
:102CB00002EB40031A5DC8F110031201A2F5007285
:102CC0001344534A0A3200E02AE01A4421F0070173
:102CD000711AC1F1070312F8012C8021D9400A4270
:102CE00002D00BEB800102E0484901EB800131F892
:102CF00014904FEA1920FFF7FAFA09F0FF00FFF7E6
:102D0000F6FA761C36B2B6EBC70FC8DB08F1010045
:102D10000FFA80F8B8F1100FBFDBE81B401C05B2BA
:102D20006D1E2DB2002D8CDA641E24B2002C87DAC1
:102D3000C3E400BFB9F1080F0DDA7F1C3FB206EB08
:102D40000709B9F1080F06DA09F0FF01E8B2FFF749
:102D5000B1FD0028EED1C5F114014FF0FF3000EBBA
:102D6000C101CBB2F11900EB0110C2B2C5F11300E1
:102D7000C006010E3007000EFFF7DFFC4FF0000821
:102D800000242EE0E01704EB1072224B06EB221019
:102D900005EB850100B203EB410322F00F021B5C3F
:102DA000A21A1B01A3F500731344194AC8F1070CBA
:102DB0000A329B5C802222FA0CF2134202D00BEB07
:102DC000810102E0114A02EB810131F810A04FEAC3
:102DD0001A20FFF78CFA0AF0FF00FFF788FA641C4C
:102DE00024B2B4EB071FCDDB08F101000FFA80F825
:102DF000B8F1080FC4DBA9F1010006B2761C36B2A7
:102E0000082EFFF629AE6D1E2DB205E04C8E002077
:102E1000160200209C890020002DBFF61CAE4CE459
:102E200010B54FF4E131022000F0E8F9BDE81040A0
:102E3000022000F040BAB948704770B5B74CB4F9F9
:102E40000400FEF775FDA4F10E05B5F90A1000FBAC
:102E500001F6B4F90400FEF72FFDB5F90C106FF47C
:102E60001C7301FB0062B4F9000042F21071484388
:102E7000B5F90A10594300EB0110104442F21071E9
:102E800090FBF1F000B270BD70B5A44CB4F9040031
:102E9000FEF74EFDA4F10E05B4F90220B5F90C10B1
:102EA000484311446FF41C72514300EB0116B4F90E
:102EB0000400FEF701FDB5F90A1001FB106042F2B3
:102EC000107190FBF1F000B270BD9448B0F90400AD
:102ED000704710B50121022000F017FA10210220DE
:102EE00000F013FA0021BDE81040022000F00DBAF6
:102EF00070B500F019F9894D04460E3DE87820F0D0
:102F00000200E8700121022000F0FFF920210220D8
:102F100000F0FBF90021022000F0F7F94FF47A7677
:102F20000DE000BF00F000F9001B00F57A7090FB87
:102F3000F6F106FB1100142801DB002070BDE878D3
:102F40008007EFD5012070BD2DE9F04716460F46EA
:102F5000054600F0E9F8714C81460E3CE07820F01F
:102F60000100E0703046FEF7E3FCB4F90A1040F2CD
:102F70007122484329445143C0EB01153046FEF706
:102F80009BFCB4F90C1042F2107801FB105191FB3C
:102F9000F8F53046FEF7CCFCB4F90C1040F2712283
:102FA000484339445143C0EB01173046FEF784FCD7
:102FB000B4F90A1001FB007191FBF8F7012102201E
:102FC00000F0A3F93021022000F09FF90621022031
:102FD00000F09BF9C5F30721022000F096F9E9B251
:102FE000022000F092F9C7F30721022000F08DF9CA
:102FF000F9B2022000F089F9C6F30721022000F09F
:1030000084F9F1B2022000F080F94FF47A750EE0F5
:1030100000F08AF8A0EB090000F57A7090FBF5F15A
:1030200005FB1100142802DB0020BDE8F087E078E2
:10303000C007EDD00120F8E72DE9F041384C40F20F
:103040002551204602F0C4FE002818D0204602F088
:1030500058FEC4B2314804260E3801220578C71D37
:1030600030490023052D0AD2DFE805F0030B1E27A7
:103070003200012C03D1FF21417083700270BDE842
:10308000F081264A0021093A565CA64203D14170DC
:103090006D1C057003E0491CC9B20229F4D34178C4
:1030A000FF29ECD10370EAE745787D5DA542F9D1AF
:1030B00003240470002DE2D109E045787F5D37B12B
:1030C00085784C556D1CECB28470A742D7D8067039
:1030D00044783CB1012CE5D109788A40C1780A4393
:1030E000C270DFE70C784FF6FF7606EA04254C78CD
:1030F0002C438D7806EA0527CD783D430F79497931
:1031000006EA07263143B1F5616F05D20271034A21
:10311000148055809180C5E70371C3E72E08002015
:103120000048004034920020314800887047304801
:10313000408870472E484188008801EB4102C2EB6D
:10314000C11100EBC10070471FB50121084601F015
:10315000E1FD4FF47A70ADF80800264826494FF09B
:1031600080440068B0FBF1F0401EADF8040001A9F6
:10317000204601F0E7FF0121204602F0C2FC0122B7
:103180001146204602F09CFA0121204602F083FA03
:1031900000248DF801408DF8024001208DF80300D5
:1031A0001C208DF80000684600F0FBFD10484480AC
:1031B00004801FBD10B501218C07204602F092FC4F
:1031C0000121204602F09DFC0948018840F2E732C7
:1031D000914205D3002101804188491C418002E0D1
:1031E0000188491C0180BDE81040FEF7EABE0000DE
:1031F00034080020B008002040420F0030B50D46D2
:1032000004466C496B48143185B050F8240051F8DD
:103210002410084340F00100012101F072FD6548CF
:103220001438ECB350F82400012101F073FD18208C
:103230008DF813005F4804A9283030F81400ADF869
:10324000100003208DF812005B4850F8240001F0B4
:103250006EFB04208DF81300564804A9323030F874
:103260001400ADF810005448143050F8240001F058
:103270005EFB00200095ADF804004F4DADF8060050
:10328000ADF80800ADF80C000C20143DADF80A00B4
:1032900055F82400694602F067FC55F8240000E068
:1032A00004E0012102F0D3FC05B030BD006801212B
:1032B00001F027FDBBE738B5044600214FF0006060
:1032C00000F09EFD3B483C3010F814008DF80000E3
:1032D00001208DF801008DF802008DF8030068468A
:1032E00000F05FFD34480122143840F2255150F8B7
:1032F000240002F0B6FC38BD2F4918390870704719
:103300002D49FF2018390870704770B52A4D0E46B8
:103310000446143D402155F8240002F04FFD0028DA
:10332000F8D055F824003146BDE8704002F0E5BC05
:103330000FB430B58BB0054610AA68460F9903F05C
:103340003FF96C4603E02846641CFFF7DEFF217856
:103350000029F8D10BB030BC5DF814FB70B5164DE8
:103360000446143D402155F8240002F027FD0028B2
:10337000F8D055F8240002F0C4FCC0B270BD70B59E
:103380000D4C0646183C94F90000401C10D0251D39
:1033900094F90000402155F8200002F00FFD0028AC
:1033A000F6D094F90000F1B255F8200002F0A5FC27
:1033B000304670BDF07000085008002008B50121AB
:1033C000202001F0A7FCFD491E200880FF20091FD6
:1033D0000880FA49012018390880F84A00211C3A6F
:1033E0001180111F0880F5492C3908808DF80100E3
:1033F00003218DF802108DF8030037208DF80000AE
:10340000684600F0CEFC08BDF8B54FF42040ADF89A
:10341000000003248DF802401820E94E8DF80300C7
:103420006946304601F083FA4FF48040ADF8000061
:103430008DF8024048208DF803006946304601F0BF
:1034400076FAB514ADF800508DF8024004208DF8DE
:1034500003006946304601F06AFA28208DF803001F
:10346000A810ADF800006946D64801F060FA294678
:10347000304601F0CAFAF8BD30B5044685B00121E6
:10348000082001F03EFC0121880301F043FCFFF716
:10349000BBFF684601F010FD0220ADF806000120D8
:1034A000ADF808008020ADF80E004FF48270ADF842
:1034B00002001820C44DADF80C00284601F070FC45
:1034C0000021284601F00DFD6946284601F08CFCDC
:1034D0000121284601F03DFD0021284601F050FD64
:1034E000684601F0E9FC0121284601F0FAFCFFF7EB
:1034F00065FF002C02D1B5490320087005B030BD2E
:10350000B248007B70477047F0B5B04801251427DA
:10351000417815262C4601B94470AD4991F800C098
:103520000022A1F10C03BC4502D18F7BB74204D02D
:10353000C17A491CC172002502E0067B012E04D02D
:10354000C17A322939D96DB337E0046A44614D7BC1
:103550008E782D0405EB06254E7835440562CD782E
:103560001D800D795D804D798E7905EB06259D8056
:10357000CD790E7A05EB0625DD804D7A8E7A05EB46
:1035800006251D81CD7A097B05EB01215981016A50
:10359000036A614019408161016A8C43C461C2724F
:1035A0000120F0BD02621A805A809A80DA801A8166
:1035B0005A818261C2614473C2728169490505D52D
:1035C000417B4A1C4273042900D944730020F0BD9A
:1035D00070B57E4C7C48A17881B3012932D000259A
:1035E000022936D01123C91E91FBF3F203FB1212FC
:1035F00012F0FF02227142D0A179C90702EB8201C9
:1036000049D0744A02EB41016279114411F80A1C55
:1036100001F08FFCA078401CC0B2A07058280CD9D3
:10362000A0790321B0B3012837D002283AD003286B
:1036300038D002D9A570A571E57170BDFFE74FF0D4
:1036400001010CE0A179C90701D0522107E0512105
:1036500005E0E178FF2908D039B1A572812101F098
:1036600068FCA078401CA070E7E7A570A07A411C18
:10367000A1723228E1D9E5712573A572DDE791FBCE
:10368000F3F1A279520800D1491DC9B2617141F02C
:103690008001BDE701E0504AB4E7A570E171401C2C
:1036A000A071CAE7A570E171411CA1710328C4D9BA
:1036B000A571C2E72DE9F041444C434FA07818B101
:1036C000384601F038FCE070A178C1B1012918D06A
:1036D0003F4E002502291AD0A07B421EA27336D38A
:1036E0008121384601F025FCA078042803D3321844
:1036F000E17802F8041C401CA070BDE8F0810121B3
:1037000000E04221384601F014FCA078F3E7E078AD
:10371000FF2809D040B1A5728121384601F009FC8B
:10372000E078462809D00CE0A570A07A411CA1726F
:103730003228E2D9E571A572DFE7012060720F201F
:10374000A073A078401CA0703570B573D5E704292C
:1037500003D33144E07801F8040CA5702078E071BF
:10376000CBE72DE9F041154C01212C3C204602F01D
:10377000B9F90121204602F0C4F9144C6078002800
:10378000BBD0E07901250026062854D2DFE800F0FE
:103790000306424A4242E5712672AEE7207ADFF81C
:1037A00020804FF4805720B93946404601F019F97E
:1037B000A0B1207A012814D018E000002C14004099
:1037C000000C01400014014000380040780800203F
:1037D0004A9200209C8900206C910020FFF76AFF2C
:1037E0000FE03946404601F0FCF840B12682608A7D
:1037F00040F28A21884207D2401C60827DE7FFF7B1
:10380000E7FE6682257378E740F289218842C4D9B1
:10381000267372E7208A411C21821E28BDD9268288
:10382000257206E0208A411C21821E28B5D92682F5
:103830002672E57161E7E6715FE7A34900204870F1
:103840007047A1490120487070472DE9F8430026D0
:103850003546B146B0469DA231463046FFF75AF88C
:103860009EA201210020FFF755F8A0A2022100200E
:10387000FFF750F8944C00BFFFF756FCB042FBD066
:103880001420B6FBF0F100FB11600028F4D1A76909
:10389000FFF73AFE132D71D2DFE805F00A16202A51
:1038A000343E48525C66717B858F99A3ADB7C100E9
:1038B000A069C00607D5FEF7AEFF00218FA208461B
:1038C000FFF728F80125BBE0A069C007FBD0002165
:1038D0008DA20846FFF71EF80225B1E0A069800717
:1038E000F1D500218CA20846FFF714F80325A7E0C4
:1038F000A0694007E7D500218BA20846FFF70AF828
:1039000004259DE0A0690007DDD500218BA20846B3
:10391000FFF700F8052593E0A0698006D3D50021C4
:103920008AA20846FEF7F6FF062589E0A069C004D2
:10393000C9D5002189A20846FEF7ECFF07257FE0E4
:10394000A06980047CD5002188A20846FEF7E2FF2A
:10395000082575E0A069400472D5002187A20846B9
:10396000FEF7D8FF09256BE0A069000468D50021A7
:1039700086A20846FEF7CEFF0A2561E05EE0A06958
:10398000C0055DD5002185A20846FEF7C3FF0B25C3
:1039900056E0A069800553D5002184A20846FEF7B1
:1039A000B9FF0C254CE0A069400549D5002184A24F
:1039B0000846FEF7AFFF0D2542E0A069C0033FD5E2
:1039C000002183A20846FEF7A5FF0E2538E0A06976
:1039D000800335D5002182A20846FEF79BFF0F2504
:1039E0002EE0A06940032BD5002181A20846FEF7F6
:1039F00091FF102524E0A069000321D5002180A2B9
:103A00000846FEF787FF11251AE0A069C00217D506
:103A100000217FA20846FEF77DFF122510E0A06975
:103A200080020DD500217EA20846FEF773FF00211B
:103A30007EA20846FEF76EFF132501E04FF0010855
:103A4000A069B84205D0A06918B109F101001FFAB8
:103A500080F97B4FB7F902000090B7F9003079A2E6
:103A600003210020FEF756FFB7F9043079A20421A4
:103A70000020FEF74FFFB7F9063078A2052100209D
:103A8000FEF748FFB7F9083076A206210020FEF7BE
:103A900041FFB7F90A3075A207210020FEF73AFF6F
:103AA0004B4674A208210020FEF734FF334675A26E
:103AB00009210F20FEF72EFFFEF779FFB8F1000F66
:103AC0003FF4DAAEBDE8F8837808002058424F583A
:103AD00020434F4E54524F4C4C4552007465737402
:103AE000696E672070726F6772616D005052455346
:103AF00053205B53544152545D00000050524553D3
:103B000053205B55505D00005052455353205B4499
:103B10004F574E5D202020005052455353205B4CA0
:103B20004546545D202020005052455353205B529F
:103B3000494748545D202020000000005052455362
:103B400053205B4241434B5D20202000505245539F
:103B500053205B415D20202020200000505245531F
:103B600053205B425D20202020000000505245532E
:103B700053205B585D202020200000005052455308
:103B800053205B595D2020202020000050524553D7
:103B900053205B4C42205D202020000050524553B2
:103BA00053205B5242205D2020200000505245539C
:103BB00053205B58424F5820205D202020000000F9
:103BC0005B4C20425554544F4E20315D00000000A4
:103BD0005B4C20425554544F4E20325D0000000093
:103BE0005B4C20425554544F4E20335D0000000082
:103BF0005B5220425554544F4E20315D000000006E
:103C00005B5220425554544F4E20325D000000005C
:103C10005B5220425554544F4E20335D000000004B
:103C20004B45592054455354204F4B0070726573D7
:103C300073205B4241434B5D20657869740000004E
:103C40003E9200204C543A25336C642052543A255D
:103C5000336C64004C583A25356C64004C593A2555
:103C6000356C640052583A25356C640052593A2537
:103C7000356C640070726573735F636E743A2533DC
:103C8000640000002564000010B501231022022109
:103C9000134800F05BF8012310220221114800F0C4
:103CA00055F801231022BDE8104002210E4800F013
:103CB0004DB870B504460D46800702D5084800F09F
:103CC00060F8600703D52946064800F05AF8200737
:103CD00005D52946BDE87040034800F052B870BDD4
:103CE00060710008687100087071000830B4284CD9
:103CF00000682315021B5900A0421CD009DC254A8C
:103D0000801812D0984213D088421DD10121102072
:103D100008E09A4212D08A4213D0B2F5406F13D114
:103D20000121080230BC00F0ECBF01210420F9E7BA
:103D300001210820F6E701212020F3E7012140209E
:103D4000F0E701218020EDE730BC7047F8B515465B
:103D50000E4604460BB1FFF7C9FF8DF802608DF8DF
:103D60000350A088ADF800006946206800F0DFFD30
:103D7000F8BD8188006800F034BE8188006800F0DA
:103D80003ABE83880A460068194600F042BE000029
:103D90000014014000F8FEBF284908432849086084
:103DA000704770B50F23C47801780122F4B1244C18
:103DB0002468457804F4E064C4F5E064240AC4F19E
:103DC0000406E3408478B5401C402C4301F1E02117
:103DD000230181F80034007800F01F018A40400977
:103DE000800000F1E020C0F8002170BD01F01F004C
:103DF00082404809800000F1E020C0F8802170BDB9
:103E0000104A114001430E48001F016070470C4AE0
:103E1000121D0029116801D0014300E081431160A7
:103E200070474FF0E0210428086903D020F0040017
:103E30000861704740F00400FAE700000000FA054E
:103E40000CED00E080FFFF1FC54910B5884202D18C
:103E5000012144150AE0C349884202D10121041519
:103E600004E0C14988420AD10121CC03204600F078
:103E70005AFF2046BDE81040002100F054BF10BD9D
:103E800010B54268B94B0C791A400B6842EA04221B
:103E9000134343608368B64A1340D1E90242224388
:103EA0004C7943EA44031A438260C26A097C22F4D3
:103EB0007002491EC9B242EA0151C16210BD00211F
:103EC0000160017141718160C1600121017470471D
:103ED0000029816802D041F0010101E021F00101D7
:103EE000816070470029816802D041F4807101E04F
:103EF00021F4807181607047002A4268C9B201D004
:103F00000A4300E08A4342607047816841F008013B
:103F100081607047014600208968090700D50120AB
:103F20007047816841F004018160704701460020BC
:103F30008968490700D5012070470029816802D0AF
:103F400041F4A00101E021F4A00181607047014625
:103F500000208968490200D5012070474268491E47
:103F600022F4604242EA41314160704700294168D1
:103F700002D041F4006101E021F40061416070472A
:103F800070B5072409290AD9C568A1F10A0606EB0C
:103F90004606B440A543B3401D43C56007E005692C
:103FA00001EB4106B440A543B3401D4305611F2307
:103FB000072A09D2446B521E02EB820293409C43B3
:103FC00091400C43446370BD0D2A09D2046BD21F8B
:103FD00002EB820293409C4391400C43046370BD0A
:103FE000C46A0D3A02EB820293409C4391400C4319
:103FF000C46270BD0029816802D041F4801101E0E3
:1040000021F4801181607047C06C80B270475448C1
:104010004C30006870470029416802D041F480614B
:1040200001E021F48061416070470029416802D0BD
:1040300041F4805101E021F4805141607047826871
:1040400022F4E0420A43826070470029816802D06E
:1040500041F4004101E021F40041816070470029F2
:10406000816802D041F4021101E021F40211816063
:104070007047014600208968890200D501207047F9
:1040800070B5072409290AD9C568A1F10A0606EB0B
:104090004606B440A543B3401D43C56007E005692B
:1040A00001EB4106B440A543B3401D430561836B5A
:1040B000C3F30154121B921C02EB82041F22A24084
:1040C0009343A1400B43836370BD826B491E22F46E
:1040D000401242EA01518163704708B508440090DC
:1040E000026008BD08B5084428300090006880B21E
:1040F00008BD42681F4B1A400A4342607047416244
:1041000082627047426822F01F020A434260704791
:10411000134908310028086802D040F4000001E08B
:1041200020F40000086070470246002012680A422E
:1041300000D001207047C9430160704710B50246A6
:10414000002054680B0AC9B20C401168194202D011
:10415000002C00D0012010BD6FEA112101607047D2
:104160000024014000280140003C0140FFFEF0FF18
:10417000FDF7F1FFFFFD3FFFFE4910B588424FF00C
:10418000010101D14C0601E04FF08064204600F0AF
:10419000D3FD2046BDE81040002100F0CDBD10B594
:1041A0000368002223F002030360036843F0010365
:1041B00003604FF6FF7300E0521C4468E40701D12E
:1041C0009A42F9D14268D2073ED08A79012A026820
:1041D0003CD022F080020260CA79012A026838D0FD
:1041E00022F0400202600A7A012A026834D022F0EA
:1041F000200202604A7A012A026830D022F01002BE
:1042000002608A7A012A02682CD022F00802026039
:10421000CA7A012A026828D022F0040202608A7851
:10422000CC78920742EA04620C7942EA04424C7963
:10423000098842EA0452491E0A43C261016821F01A
:1042400001010160002114E0002010BD42F0800255
:10425000C1E742F04002C5E742F02002C9E742F060
:104260001002CDE742F00802D1E742F00402D5E7A0
:10427000491C4268D20701D09942F9D14068C00771
:10428000E2D1012010BDF0B5827A01219140BA4AF5
:10429000136843F001031360B74B1C331C688C4355
:1042A0001C60B54D067BB54C0C35A6B92E688E4307
:1042B0002E604688C78846EA0746877A04EBC70718
:1042C000C7F840660688878846EA0746877A04EB7F
:1042D000C707C7F84466067B012E12D12E680E432D
:1042E0002E60867A056804EBC6064FEA3545C6F8A7
:1042F0004056867A456804EBC6044FEA3545C4F853
:1043000044569D4CC57A241D002D256806D00D43CA
:104310002560994C0589143415B104E08D43F7E705
:1043200025688D4325600589012D02D125680D433F
:104330002560407B012802D1186808431860106886
:1043400020F001001060F0BD00218171C171017287
:1043500041728172C1728170C170032101710221A9
:10436000417101210180704783490A6842F00102CE
:104370000A600A6843F60E739A430A600A6842EAC2
:1043800000200860086820F00100086070470029DC
:10439000016802D041F4803101E021F480310160F4
:1043A00070470029016813D041F080010160D0F806
:1043B000841141F48071C0F88411D0F8941141F453
:1043C0008071C0F89411D0F8A41141F4807112E00A
:1043D00021F080010160D0F8841121F48071C0F8CF
:1043E0008411D0F8941121F48071C0F89411D0F8A0
:1043F000A41121F48071C0F8A411704730B50246B1
:10440000002093685B0108D49068000101D5012069
:1044100003E09068C00037D5022002EB0012D2F80A
:10442000803103F00103C2F880310B7A73B3D2F804
:1044300080414D681C434B7A43EAC5031C43C2F8D4
:1044400080418B7A03F00F038B72D2F8843123F012
:104450000F03C2F88431D2F884318C7A2343C2F836
:104460008431CB7ACC6843EA0423C2F88831CB7B11
:10447000096943EA0121C2F88C11D2F8801141F098
:104480000101C2F8801130BD042030BDD2F8803166
:104490004C7A23430C8843EA4453C2F88031D0E776
:1044A000002221B1012905D0022906D112E082683B
:1044B000334801E08268334802403349501A8A4247
:1044C00014D00ADCA2B16FF0806010180FD002285F
:1044D0000CD10FE082682D48EEE7B0F5007F09D0DF
:1044E0002B49401803D0B0F5003F03D0002070479F
:1044F000022070470120704741B101290AD00229EA
:1045000003D1816841F4000181607047816841F006
:104510008001F9E7816841F40041F5E710B500EB4F
:104520000113D3F8B04114F004041472D3F8B0416D
:1045300045D0E408C2F80440D3F8B04104F00204C6
:104540005472D3F8B44104F00F049472D3F8B44118
:10455000240AD474D3F8B841D472D3F8B841240AE9
:104560001473D3F8B841240C5473D3F8B841240E13
:1045700094730FE00064004000660040006000405B
:1045800003000004000300080001000800000310FD
:104590000001FFF7D3F8BC41D473D3F8BC41240A1F
:1045A0001474D3F8BC41240C5474D3F8BC311B0EE2
:1045B000937439B1016941F02001016110BD640DAE
:1045C0001460B9E7C16841F02001C16010BD21B19C
:1045D000016941F0200101617047C16841F020018B
:1045E000C16070470246002029B1012902D110693B
:1045F00000F003007047D068FAE700234FF6FF721F
:1046000021B1012917D0022924D03AE0016821F014
:10461000020141F00101016000E0521E416801F019
:104620000301012901D0002AF7D1406800F00300FE
:10463000012823D124E0016821F00301016000E09A
:10464000521E4168890701D0002AF9D140688007CD
:1046500014D115E0016821F0010141F0020101606F
:1046600000E0521E416801F00301022901D0002A36
:10467000F7D1406800F00300022801D0002300E0D9
:104680000123184670470268002122F0010242F01F
:1046900002020260406800F00300022800D10121FC
:1046A0000846704703684FF6FF71002223F00203AB
:1046B000036000E0491E43689B0701D50029F9D13A
:1046C0004068800700D40122104670478069C0F31B
:1046D0000210000170478069000E70478069C0F3C6
:1046E00007407047002A426901D00A4300E08A432C
:1046F000426170470246002011F4700F03D09269A6
:1047000004E001207047CB0104D552680A40110330
:10471000F7D170470B0101D59268F7E78B0101D5FE
:10472000D268F3E71269F1E7534A914202D10021BE
:1047300081617047C1F313028B0101D5C2607047DC
:104740004B0101D502617047090101D582607047B4
:10475000426070470246002053690B424AD0B1F5CF
:10476000807F3BD013DC08292ED007DC012926D01E
:10477000022927D004293DD1D0682BE0102925D06B
:10478000202926D0402935D11069102130E0B1F51B
:10479000004F2BD00BDCB1F5007F22D0B1F5806F3C
:1047A00022D0B1F5006F25D19069702120E0B1F5DC
:1047B000803F11D0B1F5003F1CD15068E5E790680B
:1047C0002E4915E0D06802E0D068DEE710690321C9
:1047D0000EE0106908210BE05068FBE790690121A9
:1047E00006E09069022103E0906900E0506804212E
:1047F00000F03BB8704730B5082310240422B1F50F
:10480000007F1DD010DC202929D007DC012921D010
:10481000042922D0082900D1C46030BD402920D00D
:10482000B1F5807FF9D10BE00025B1F5004F06D03E
:1048300008DCB1F5806F03D0B1F5006FEDD1856173
:10484000426030BDB1F5803F0DD0B1F5003FF8D1E9
:10485000446030BD0949816030BDC36030BD036133
:1048600030BD046130BD436030BD024600200A42C5
:1048700000D00120704700007000F03001010100FD
:10488000914910B5884206D10121042000F04BFA6D
:10489000002104203BE08D49884206D101210820F7
:1048A00000F041FA0021082031E08949884206D110
:1048B0000121102000F037FA0021102027E085495F
:1048C000884206D10121202000F02DFA002120206D
:1048D0001DE08149884206D10121402000F023FAE1
:1048E0000021402013E07D49884206D1012180202B
:1048F00000F019FA0021802009E0794988420AD1A4
:1049000084150121204600F00EFA00212046BDE862
:10491000104000F008BA10BD10B50121084600F0A3
:1049200002FA0021BDE81040012000F0FCB9F0B50A
:10493000CA78002502F00F03D20601D58A78134306
:104940000A784FF00F0E12F0FF0F4FF001021DD04A
:10495000D0F800400F8802FA05F63740B74211D16F
:104960004FEA850C0EFA0CF724EA070703FA0CF459
:104970003C43CF78282F02D0482F02D002E0466176
:1049800000E006616D1C082DE4D304600C88FF2C48
:104990001ED944685FF0000606F1080702FA07F521
:1049A0000F882F40AF420FD14FEA860C0EFA0CF75A
:1049B000BC4303FA0CF73C43CF78282F00D1456164
:1049C000CF78482F00D10561761C082EE4D34460CF
:1049D000F0BD4FF6FF710180022181700421C1708A
:1049E00070470246002092680A4200D001207047BA
:1049F000806880B2704702460020D2680A4200D028
:104A000001207047C06880B2704701617047416102
:104A100070470AB10161704741617047C1607047DA
:104A200041F480328261816182618169806970476D
:104A30002C4B10B51A684FF68074224042EA0010E1
:104A40000843186010BD2849C8617047F0B5254C6F
:104A5000002801DAE36900E06368420D120185B2C3
:104A6000C0F301579540C0F30346032F05D0C2029F
:104A70000AD50322B240934307E023F070626368D3
:104A800023F07063636002E0AB4343F0706201B1F6
:104A90002A43002801DAE261F0BD6260F0BD10B582
:104AA0008A0721F003040F49130F21440F228C6859
:104AB0009A4094438C608A68984002438A6010BD93
:104AC0000949C1F8DC00704700080140000C0140B2
:104AD000001001400014014000180140001C01407A
:104AE000002001400000014000002042A44801686D
:104AF00041F0010101604168A24A11404160016832
:104B0000A14A11400160016821F4802101604168DF
:104B100021F4FE0141604FF41F0181607047984904
:104B20000A6822F480320A600A6822F480220A604D
:104B3000B0F5803F07D0B0F5802F03D1086840F46E
:104B4000A02008607047086840F48030F9E702460A
:104B5000002053098A49012B0AD0022B0AD0496A46
:104B600002F01F02012393400B4200D00120704746
:104B70000968F5E7096AF3E718B500204FF4A06467
:104B800000903120FFF7E3FF0099491C0091A142FA
:104B900001D00028F5D03120FFF7D9FF002800D040
:104BA000012018BD76490A6822F0F80242EAC000E6
:104BB00008607047754908607047714A5368084338
:104BC00023F47C131843506070477049086670479F
:104BD0006B4A516821F003010143516070476848F6
:104BE000406800F00C007047654A516821F0F00100
:104BF000014351607047624A516821F4E06101430A
:104C0000516070475E494A6822F4605242EAC0002F
:104C1000486070475A4A0029517A01D0014300E0A8
:104C20008143517270475949C1F8D8007047544ABE
:104C3000516821F4404101435160704750490022BE
:104C400081F8202081F82020012802D0042802D1F8
:104C5000052081F8200070474D4908607047484999
:104C60000A6A02430A62704749494439086070473A
:104C700030B543494A6812F00C03464A03D0042B6E
:104C800001D0082B21D002604A680F23424C03EA6E
:104C90001212A35C0268DA4042604B68072505EAFD
:104CA0001323E35C22FA03F383604B6805EAD32302
:104CB000E35CDA40C2604968032303EA9131231FB1
:104CC000595CB2FBF1F1016130BD4A684B6802F4F6
:104CD00070124FF0020413F4803F04EB924202D0B2
:104CE0004B689B0301D52D4B00E02A4B5A43CAE782
:104CF000234A0029516901D0014300E081435161F9
:104D000070471F4A0029916901D0014300E08143A7
:104D1000916170471A4A0029D16901D0014300E02E
:104D20008143D1617047164A0029D16801D00143FF
:104D300000E08143D1607047114A0029116901D018
:104D4000014300E081431161704711494039086017
:104D500070470E49C86470470949C87170470848D0
:104D6000416A41F0807141627047054A0146002066
:104D700092680A4200D0012070470149887270474A
:104D8000001002400000FFF8FFFFF6FE0000424264
:104D90008004424200127A00A008002000093D0071
:104DA000994910B588420AD1841401212046FFF7A1
:104DB000BAFF2046BDE810400021FFF7B4BF934979
:104DC000884202D10121041404E0914988420AD1A9
:104DD0000121C4132046FFF7AFFF2046BDE8104075
:104DE0000021FFF7A9BF10BD30B502884C8802F43E
:104DF00041530A88CD8822438C882C4322430C8956
:104E000022434C8922438C892243CC8922431A4372
:104E10000280828B22F400628283098A018230BD83
:104E2000F0B505460C4602200021AA8B85B001266C
:104E30004FF240031A40AA832884AF8BA268022A4B
:104E400027D0A08800B102266846FFF711FFE1884D
:104E50000098B1F5007F2DD07101B0FBF1F000BFDB
:104E600000EB8000A1684000B0FBF1F0401D80B273
:104E70000A21B0FBF1F000F00101401A4FF6FF7279
:104E8000C0F34F0002EA0121821EFE2A01D3022054
:104E90000021E288084302432A8420886188A2898D
:104EA0000843A18811430843384340F40060A883B5
:104EB00005B0F0BD000AD3E7002101804180818068
:104EC000C180018141818181C181072101827047B7
:104ED0000021018041808180C18002228260818125
:104EE00070470029018802D041F0400101E021F023
:104EF0004001018070470029818B02D041F480611C
:104F000001E021F4806181837047090901238B400E
:104F1000002A828899B201D00A4300E08A43828045
:104F20007047002A828801D00A4300E08A438280C9
:104F300070478181704780897047A1F57E42018862
:104F4000FF3A02D041F4807101E021F480710180C8
:104F500070470029818802D041F0040101E021F06E
:104F6000040181807047028822F400620280028876
:104F70000A4302807047018841F4805101807047E4
:104F80000029018802D041F4005101E021F40051D0
:104F900001807047012901D0008B7047808A7047DB
:104FA000008A7047B1F5804F018803D021F4804119
:104FB0000180704741F48041FAE7024600201289DF
:104FC0000A4200D001207047C9430181704710B5E3
:104FD00001F00F040122034602FA04F4002009093B
:104FE0008A4091B29A88A4B20A401989214202D01B
:104FF000002A00D0012010BD01F00F0201219140D4
:10500000C943018170470000003001400038004072
:10501000003C0040F94910B5884202D10121C41476
:1050200086E0B0F1804F09D0F54988420DD10121C9
:105030000220FFF781FE0021022064E001210846E2
:10504000FFF77AFE002101205DE0EE49884206D19B
:1050500001210420FFF770FE0021042053E0EA49FB
:10506000884206D101210820FFF766FE00210820B2
:1050700049E0E649884206D101211020FFF75CFE95
:10508000002110203FE0E249884206D10121202082
:10509000FFF752FE0021202035E0DE49884202D190
:1050A0000121441444E0DC49884202D10121CC04AE
:1050B0003EE0DA49884202D101210C0538E0D849A6
:1050C000884202D101214C0532E0D649884206D1FE
:1050D00001214020FFF730FE0021402013E0D2499B
:1050E000884206D101218020FFF726FE0021802082
:1050F00009E0CE4988420AD1841501212046FFF7F4
:105100001BFE00212046BDE81040FFF715BEC84930
:10511000884202D101210C040AE0C649884202D12A
:1051200001214C0404E0C44988420AD101218C04C5
:105130002046FFF7F8FD2046BDE810400021FFF7AC
:10514000F2BD10BD30B50288AC4BB24C98420DD0C8
:10515000A0420BD0B0F1804F08D0A94DA84205D095
:10516000A84DA84202D0A84DA84203D122F0700554
:105170004A882A43A54DA84206D0A54DA84203D08F
:1051800022F44075CA882A4302808A8882850A8868
:10519000028598420AD0A04208D0A54A904205D084
:1051A000A44A904202D0A44A904201D1097A0186D1
:1051B0000121818230BD30B5028C22F001020284CF
:1051C000028C8388048B22F0020224F073050C8881
:1051D0002C430D8915434A882A43884DA8420BD099
:1051E0008C4DA84208D0924DA84205D0914DA842BE
:1051F00002D0914DA8420DD122F008054A8923F42E
:1052000040732A4322F004058A882A438D891D436E
:10521000CB892B4383800483C9888186028430BD77
:1052200070B5028C22F010020284028C8488038BF9
:105230000D8823F4E6464FF6FF7303EA0525354350
:105240000E8922F0200203EA061616434A8803EA72
:1052500002123243694EB04202D06E4EB04215D1B6
:1052600022F080064A8924F4406403EA02123243A1
:1052700022F040068A8803EA021232438E8903EA4A
:1052800086062643CC8903EA84043443848005835C
:10529000C9880187028470BD70B5028C22F48072C7
:1052A0000284028C8488838B0D8823F073031D4352
:1052B00022F400730E894FF6FF7202EA06261E439F
:1052C0004B8802EA032333434C4EB04202D0514E86
:1052D000B04215D123F400664B8924F4405402EA0D
:1052E0000323334323F480668B8802EA032333438A
:1052F0008E8902EA06162643CC8902EA0414344356
:1053000084808583C9888187038470BD70B5028CD1
:1053100022F480520284048C8288838B0D8823F4CB
:10532000E6464FF6FF7303EA0525354324F400569D
:105330000C8903EA043434434E8803EA06362643D4
:105340002E4CA04202D0334CA04205D122F480441E
:105350008A8903EA8212224382808583C988A0F861
:105360004010068470BD828B22F440628283828B5F
:105370004FF6FF7303EA01210A4382837047828B51
:1053800022F00C028283828B0A4382837047028B55
:1053900022F440620283028B4FF6FF7303EA01217D
:1053A0000A4302837047F0B5048C24F0100404848F
:1053B000078B048C4FF6FF7527F4734705EA033318
:1053C0003B4305EA02221A430C4B05EA01169842B8
:1053D0000ED0104B98420BD0B0F1804F08D0084B44
:1053E000984205D0074B984202D0074B984225D1EE
:1053F00024F02001314341F0100124E0002C014051
:105400000004004000080040000C00400010004074
:105410000014004000340140004C014000500140A5
:105420000054014000180040001C004000200040D3
:1054300000400140004401400048014024F0A00326
:105440000B4343F0100102830184F0BD028B22F074
:105450000C020283028B0A430283704770B5048CEE
:1054600024F001040484058B048C4FF6FF7606EAD1
:105470000313134325F0F305F94A2B4390420ED052
:10548000F84A90420BD0B0F1804F08D0F64A9042D3
:1054900005D0F64A904202D0F54A904202D124F05B
:1054A000020201E024F00A020A4342F001010383F0
:1054B000018470BD2DE9F05F0D4604460888E84F71
:1054C000DFF8A0C3DFF8A0834988AA882B894FF0B2
:1054D000804960B3042832D04FF6FF7E082836D0CA
:1054E000208C9B4620F480502084A38B268C704611
:1054F00000EA022223F473431A4300EA0B301043FC
:105500000EEA013EBC420BD0644509D04C4507D0A1
:10551000444505D0D54A944202D0D54B9C4245D152
:1055200026F4005141EA0E0141F4805143E0204647
:10553000FFF794FFE9882046BDE8F05F86E7204644
:10554000FFF731FFE9882046BDE8F05F1FE7208CB8
:1055500020F480702084B4F81CA0208C0EEA031381
:1055600013432AF0F30A0EEA012B43EA0A03BC4272
:105570000BD0644509D04C4507D0444505D0BB4A03
:10558000944202D0BA4A944204D120F4007040EA16
:105590000B0002E020F42060084340F48070A383F5
:1055A0002084E9882046BDE8F05FE8E626F4024260
:1055B0000A4342F48051A08320462184E988BDE853
:1055C000F05FD0E62DE9F0410C46002649880746F9
:1055D000012501B90226A288012A00D102252088CE
:1055E00023890028384610D0FFF7DDFEE1883846D1
:1055F000FFF7CDFE23892A4631463846FFF72EFFB6
:10560000E1883846BDE8F04120E7FFF727FFE18851
:105610003846FFF71BFF23892A4631463846FFF7F5
:10562000C2FEE1883846BDE8F041B0E610B50A8810
:105630004B88CC881A438B8823431A430B891A431F
:105640004B8989891A430A43A0F8442010BD4FF6BC
:10565000FF71818000210180C1804180017270470B
:105660000021018041808180C1800181418181814F
:10567000C181704700210180418001228280C18068
:10568000018170470021018041808180C1800181BA
:105690004181818170470029018802D041F00101D8
:1056A00001E021F0010101807047002930F8441F1A
:1056B00002D041F4004101E0C1F30E0101807047C6
:1056C000002A828901D00A4300E08A438281704720
:1056D000818270471143A0F848107047002A8289E0
:1056E00001D00A4300E08A4382817047018921F09A
:1056F000070101817047028922F070020A4302818A
:10570000704700B50346FFF7F6FF188940F0070021
:10571000188100BD70B516460D46602904464FF04D
:10572000010231460AD0FFF799FE29462046FFF7CD
:10573000E2FF208940F00700208170BDFFF733FEB3
:10574000F3E730B504894FF6FF7505EA03231343E9
:10575000E4B20B432343038130BD10B50446FFF789
:10576000F0FF208940F07700208110BD10B504467D
:10577000FFF7E7FF208940F48040208110BD0185BC
:1057800082827047028822F070020A4302807047CA
:1057900070B50589048B068C25F007050D434FF67F
:1057A000FC410C4040F201110C434FF6FF7101EA3D
:1057B000031126F02206114331430581048301843D
:1057C00070BD028B22F070020A4302837047028B85
:1057D0004FF6FF7322F4E04203EA012111430183F3
:1057E0007047828B22F070020A4382837047828B5B
:1057F0004FF6FF7322F4E04203EA01211143818353
:1058000070470029018802D041F0800101E021F0B9
:105810008001018070470029818802D041F0040195
:1058200001E021F00401818070470029818802D0C5
:1058300041F0080101E021F0080181807047002952
:10584000818802D041F0010101E021F00101818055
:105850007047028B22F008020A430283704700005F
:10586000002C0140003401400004004000080040CA
:10587000000C0040028B4FF6FF7322F4006203EA33
:10588000012111430183E9E7828B22F008020A43D8
:105890008283E3E7828B4FF6FF7322F4006203EA10
:1058A000012111438183D9E7028B22F004020A43CC
:1058B0000283D3E7028B4FF6FF7322F4806203EA80
:1058C000012111430183C9E7828B22F004020A43BC
:1058D0008283C3E7828B4FF6FF7322F4806203EA70
:1058E000012111438183B9E7028B22F080020A4330
:1058F0000283B3E7028B4FF6FF73C2F30E0203EA93
:10590000012111430183A9E7828B22F080020A431F
:105910008283A3E7828B4FF6FF73C2F30E0203EA82
:1059200001211143818399E7028C22F002020A438C
:10593000028493E7028C22F008020A4302848DE776
:10594000028C4FF6FF7322F0200203EA011111438B
:10595000018483E7028C4FF6FF7322F0800203EA92
:1059600001111143018479E7028C4FF6FF7322F491
:10597000007203EA0121114301846FE7028C4FF6A4
:10598000FF7322F4006203EA01211143018465E7F9
:10599000028C4FF6FF7322F4005203EA01311143E7
:1059A00001845BE710B50123048C8B409C43048485
:1059B000038C8A401343038410BD10B50423048C68
:1059C0008B409C430484038C8A401343038410BDA2
:1059D00030B50124058C00F118038C40A5430584E3
:1059E00089B108290FD0091FC1F34E00184401687E
:1059F00021F4E041016001684FF6FF7303EA0222DF
:105A00001143016030BD03EB5100016821F07001CA
:105A100001600168F4E70029018802D041F0020129
:105A200001E021F00201018018E70029018802D07D
:105A300041F0040101E021F0040101800EE700299A
:105A4000818802D041F0800101E021F08001818055
:105A500004E7028822F00802028002880A430280DA
:105A6000FCE6828822F07002828082880A4382806B
:105A7000F4E6028922F00702028102890A430281C8
:105A8000ECE6028922F08002028102890A43028147
:105A9000E4E68184E2E68185E0E68186DEE6018750
:105AA000DCE68187DAE6A0F84010D7E6028822F427
:105AB0004072028002880A430280CFE6808ECDE6E3
:105AC000008FCBE6808FC9E6B0F84000C6E6808C38
:105AD000C4E6008DC2E602460020128A0A4200D0C7
