:020000040800F2
:1000000030B90020BD7C0008C57C0008C77C000812
:10001000C97C0008CB7C0008CD7C000800000000F3
:10002000000000000000000000000000CF7C00087D
:10003000D17C000800000000D37C0008D57C0008BB
:10004000D77C0008D77C0008D77C0008D77C000844
:10005000D77C0008D77C0008D77C0008054D000835
:10006000D77C0008D77C0008D77C0008D77C000824
:10007000D77C0008D77C0008D77C0008D77C000814
:10008000D77C0008D77C0008D77C000851170008EF
:1000900007180008D77C0008D77C0008D77C000828
:1000A000D77C0008714D0008D77C0008D77C000879
:1000B0005D4B0008D77C0008D77C0008D77C00087F
:1000C000D77C0008D77C0008D77C0008D77C0008C4
:1000D000D77C0008FF5000080351000807510008B2
:1000E000D77C0008D77C0008D77C0008D77C0008A4
:1000F000D77C0008D77C0008D77C0008D77C000894
:10010000D77C0008D77C0008D77C0008D77C000883
:100110000B5100080F510008D77C0008C354000899
:10012000D77C0008D77C0008D77C0008D77C000863
:10013000DFF80CD008F014F800480047550100081B
:1001400030B900204FF07300A0F101000028FBD16E
:100150007047000010B504F0CBFC00F0B9FF00F0D0
:1001600019FF02F067FA1F2300224FF6FF710220E9
:1001700004F081F801F01DFD00F0FBFC01F082F9B4
:1001800001F0F6FA01F0E1F800F059FE00F084FA0F
:1001900004F00AFD00F07FFB00F090FB4FF4966145
:1001A0001EA001F01BFE254925A002F08CF928496C
:1001B00028A002F088F92B492BA002F084F92D49E0
:1001C0002DA002F080F9304930A002F07CF93349CB
:1001D00033A002F078F9354935A002F074F93749B7
:1001E00037A002F070F9394939A002F06CF93B49A7
:1001F0003BA002F068F93D493DA002F064F9404996
:1002000040A002F060F9424942A002F05CF90021EE
:10021000084602F025F8002010BD0000526F626F02
:10022000636F6E203230313520204D696E20537956
:100230007374656D20312E3000000000210300082A
:10024000596F75722070726F6772616D00000000E7
:10025000E92B0008506F736974696F6E20746573C1
:1002600074000000EF2800084D6F746F72207465F1
:1002700073740000992600084261747465727920D5
:10028000746573740000000031270008426C7565C6
:10029000746F6F7468207465737400001131000806
:1002A00043414E2074657374000000002D33000834
:1002B00058426F782074657374000000BF2D0008E9
:1002C00042757A7A6572207465737400C52C0008D3
:1002D000427574746F6E207465737400052800088D
:1002E0004153434949207465737400004536000842
:1002F0004750494F2050696E2074657374000000A8
:10030000A93A0008554152542074657374000000E6
:10031000C53C0008556C7472612E207465737400BE
:100320002DE9F0438DB000F0A4F9814C0A256FF05F
:1003300063094FF0320800BF04F0CAFB21888842ED
:10034000FAD004F0C5FBB0FBF5F1208005FB1100ED
:1003500018B900F0FEFD00F0D0F92088FA21B0FBBA
:10036000F1F201FB1200012801D100F052FC04F06F
:10037000B2FBB0FBF5F105FB1100022804D1208887
:10038000022801D101F0ECFD20886421B0FBF1F2DC
:1003900001FB1200032801D100F008FA20884FF475
:1003A000FA71B0FBF1F201FB1201042904D160B132
:1003B0000021082002F053F920884646B0FBF6F1F0
:1003C00008FB1100052802D034E00121F1E700F01C
:1003D000FAFD0A2000F048FE0A287DD80B2000F024
:1003E00043FE0A2878D8052000F03EFE18B16421AB
:1003F000002000F014FA072000F036FE18B149463C
:10040000002000F00CFA062000F02EFE18B10021AA
:10041000484600F004FA082000F026FE18B100213A
:10042000642000F0FCF9092000F01EFE012801D133
:1004300000F009FA2088B0FBF6F106FB110007284E
:100440007FF47AAF03A800F040F904F036F801F029
:1004500046FEDDE90401CDE9000136A201210020BC
:10046000039B04F0A9F800F02DF9034635A2022100
:10047000002004F0A1F801F0A9FBB0F9047001F02C
:10048000A5FBB0F9026001F0A1FBB0F9003030A289
:1004900003210020CDE9006704F08EF800F0BCF9DC
:1004A00008B130A300E031A332A20421002004F0FF
:1004B00083F80AA800F0A2F908A80B9F00F09EF9A3
:1004C00006A8089E00F09AF906983AB23114CDE9D0
:1004D000001203B21EA200E026E00521002004F075
:1004E0006BF80020029000F0D3F98DF808005B282B
:1004F00001D05D2804D18DF809005C208DF808003A
:1005000000F0C6F9009002AB1BA20621002004F007
:1005100053F800F0D8F903461BA20721002004F08D
:100520004BF804F0B7F807E70DB0BDE8F083000022
:1005300000000020563A282533642C2533642C25EE
:100540003364290053706565643A20256400000017
:1005500028252D34642C252D34642C252D34642934
:10056000000000005B4155544F5D00004D414E5569
:10057000414C000025730000436861723A202573E6
:1005800020282564290000004469642072656365A1
:10059000697665202775273A20256400092801D847
:1005A000AD4908707047AD4B83E80700704770B5E0
:1005B000402809D0412834D1012932D110780928A6
:1005C0002FD8BDE87040E9E703292AD1A4A392F906
:1005D00000001C6892F9011092F9022063B2834274
:1005E0001FDC44F3072484421BDB8B4219DC8C4262
:1005F00017DB934215DC944213DB974C994B25781B
:1006000033F8153064255A435943584392FBF5F2A9
:1006100091FBF5F190FBF5F0FFF7C5FF04F05EFAF2
:10062000606070BD8C490020487070478A49012085
:1006300048707047502806D0874A512814D0522855
:1006400011D1002013E006290DD1108841BA82484B
:100650000C300180518849BA4180918849BA01EB38
:1006600081014900818070470029FCD10120507030
:10067000704710B5C821002000F0D3FEC82101202A
:1006800000F0CFFEC821022000F0CBFEC821BDE85B
:100690001040032000F0C5BE10B5734AF021402081
:1006A00000F03BFC714AF021502000F036FC6B4911
:1006B0000020886048600860674948608860BDE83D
:1006C0001040D6E7644800787047644B0ECB80E852
:1006D0000E0070476048614914300A6803689A4206
:1006E00007D14A6843689A4203D189688068814289
:1006F00001D0012070470020704770B504F0EEF97A
:1007000055494968401A642804D900221146104608
:10071000FFF749FF514C6FF018024FF47A75D4E996
:100720000010084452494843A168514300EB41106E
:1007300090FBF5F10122022000F00DFED4E900103B
:10074000401A40F2C3214843A1686FF01802514398
:1007500000EB411090FBF5F10122032000F0FBFDBE
:10076000D4E90001401A40F2C3214843A1686FF068
:100770001802514300EB411090FBF5F101221046A5
:1007800000F0E9FDD4E90010084440F2C3214843D9
:10079000A1686FF01802514300EB411090FBF5F196
:1007A000BDE870400122002000F0D5BD7CB501F00D
:1007B0000DFA058801F00AFA448801F007FAB0F949
:1007C00004000A2190FBF1F0290A8DF800108DF841
:1007D0000150210A8DF80210010A8DF804108DF8DD
:1007E00005008DF803406A460621602000F062FB98
:1007F0007CBD1A4B0C3383E8070070471649CA6862
:100800000260098A8180704703B513480099C1606E
:10081000BDF8041001820CBD0F484078704710B538
:100820000D4C104A237832F813206423514350436F
:1008300091FBF3F190FBF3F00022FFF7B4FE04F01C
:100840004DF9606010BD04480A210078401CB0FBDF
:10085000F1F201FB1200A1E604000020B413002015
:100860009C640000F68B0008AF0500083506000800
:100870003DFDFFFF70280AD1012908D10A491078EF
:1008800008700A4951F82000002800D0004770473E
:10089000054800787047FF21054A702000F03DBBF5
:1008A000024A42F82010704724000020CC13002098
:1008B000750800080549012008707047AFF20B0168
:1008C0007520FFF7EDBF0148007870472500002034
:1008D00070B501E000F561600028FBDB4FF4616159
:1008E00090FBF1F201FB120040F68C2102B24FF4B2
:1008F000E165884202DDC0F5616009E0A84202DDE1
:10090000A0F5E16004E0B0F5617F01DDC0F5E160D4
:100910000A2190FBF1F3C3F15A048B4B33F91460B5
:1009200090FBF1F401FB140490FBF1F033F910009B
:10093000444340F23D2004F58F7494FBF0F03044C2
:10094000AA4200DD404270BDC0F56170C0E70021E1
:10095000002806DA0121404200E0B43000B200284D
:10096000FBDBB42290FBF2F302FB1300764AB63AAB
:100970005A2803DDC0F1B40039B901E009DA21B128
:1009800032F91000C0F1000001E032F9100000B2AD
:1009900070474FF0FF3070472DE9F04100254FF4CC
:1009A00061784FF4E1762F46002801DA01274042B2
:1009B0000FFA80FCA81904B22046FFF789FF0EB198
:1009C00084450DD14FF00A0004F1040494FBF0F0CB
:1009D00000B2002F02D0C0F1000000B2BDE8F081EB
:1009E00001DAA04600E02546A8EB050000EBD07038
:1009F00040F34F06DEE700B5FFF7CEFFC0F15A0027
:100A000000B200BDF0B505004FF0000420461AD436
:100A100006462046FFF79BFF854201DCB54210DA0F
:100A2000641C24B25A2CF3DB0BE006462046FFF789
:100A30008EFF854201DBB54203DD641E24B2BC4259
:100A4000F3DA2046F0BD6FF05807EEE700B579B154
:100A5000B8B16422504301EBD17200EB620090FB0D
:100A6000F1F0002913DAFFF7CDFFB43000B200BD7A
:100A7000002802DA6FF0590000BD06D04FF05A008E
:100A800000BD002901DAB42000BD002000BD5DF8E2
:100A900004EBB7E7F0B505460C4617461046FFF7DE
:100AA00053FF296800FB01F63846FFF711FF216864
:100AB00000FB11663846FFF70BFF296800FB01FCBD
:100AC0003846FFF741FF216800FB01C042F2107178
:100AD00096FBF1F290FBF1F02A602060F0BD00E09F
:100AE00008440028FCDB90FBF1F201FB1200704788
:100AF000002800DA404270474043704730B5030099
:100B00004FF0010002D003E0400001D5002030BDCD
:100B100000FB00F19942F7D94110441A64106218A1
:100B200002FB02F59D420BD21146022CF6DA01FBC4
:100B300001F400FB0042B3EB620FE8D2084630BD7F
:100B40001046F2D830BD0000DC00002008B50121BD
:100B5000102005F072FF00208DF8030002208DF8B0
:100B600002000120ADF8000069465B4805F07BFDFE
:100B700008BD10B586B0FFF7E9FF584800240121F1
:100B80000480480205F059FF4FF46021CDE90214BA
:100B900000948DF804400120514C8DF805008DF82B
:100BA00010006946204604F093FF072301220A2122
:100BB000204605F00DF8012005F0D2F8012120466D
:100BC00004F0B8FF0121204604F0AAFF204604F0FB
:100BD000C4FF204604F0C6FF0028FAD1204604F0E6
:100BE000C8FF204604F0CAFF0028FAD101212046A0
:100BF00004F0CBFF06B010BD38483A4900884001E8
:100C000000EB4110642190FBF1F000F5966080B29A
:100C10007047334800B54C300068304A1080FFF709
:100C2000EBFF314B918823F811001E20491CB1FBCA
:100C3000F0F300FB1310908050881E2801D2401C56
:100C4000508000BD254800887047244810B5428870
:100C5000002112B10020244B11E0008821494001FD
:100C600000EB4110642190FBF1F000F596600AE082
:100C700033F81040401CC0B221441E2801D29042DB
:100C8000F6D3B1FBF2F080B210BD144800884101E8
:100C9000144801EB4010642190FBF1F202F59662DA
:100CA00092B2B2F5167F01D80320704790FBF1F2A3
:100CB00002F5966292B2B2F58C6F01D802207047AD
:100CC00090FBF1F000F5966080B2B0F5916F01D81D
:100CD0000120704700207047001001409201002061
:100CE00000240140DCF1FFFFC8170020A74A10B51F
:100CF00008200021517002F1140300E01954401E35
:100D0000C0B2FBD2A148D170C01D4170017010BDAE
:100D10009E484189491C4181016921B1002101613D
:100D2000022001F09CBC0121F9E7F0B4974C0023AC
:100D3000974DA67910E000BF05EBC30415F833709A
:100D4000647827400440A74204D105EBC3035B68E5
:100D5000F0BC18475B1CDBB2B342EDD3F0BC70476C
:100D60002DE9F041894C05466078A0B1012816D0E4
:100D7000022817D00F2852D22346A1785A78CE1CC9
:100D8000521CD7B2DB7804F11402B04210D21044E6
:100D900000F8035C0FE0122D41D101201EE0E57048
:100DA00002201BE0082D3AD803206070A57038E0BF
:100DB00003D1AB4233D1677033E0744E01F1040CC0
:100DC000F61D60450CD10A4606F10D01304600F0D3
:100DD00079FD3078A84222D16078401C607020E014
:100DE00001F1050C604503D17078A842E3D016E00C
:100DF0008E1DB04213D1342D11D1644D23710020CA
:100E000061711C35165C2E54401CC0B20828F9D301
:100E10005E4A18461432FFF788FFFFF779FFFFF7A5
:100E200065FF03F055FE054603F055FE00EB40015B
:100E3000C1EBC01005EBC000E060BDE8F08110B56B
:100E40004FF4E131012003F0C9FFAFF2EB010120C3
:100E500004F036F84D480021817141810121017073
:100E600010BD4A49012008707047484900200870A9
:100E7000704746480078704744490978002903D0F4
:100E80000146012004F0B6B870470FB410B58AB01F
:100E90000DAA68460C9907F02FFA6C4603E0012072
:100EA000641C04F0A7F821780029F8D10AB010BC1E
:100EB0005DF814FB7FB51646344A1278002A2BD011
:100EC000082929D812228DF800208DF8010003236B
:100ED0006C468DF80210002505E0725DE2545B1C43
:100EE0006D1CDBB2EDB28D42F7D3E0545B1CDDB27A
:100EF0000A466019314600F0E5FCAD1CE8B2342129
:100F00002154401CC6B2002504E0605DFFF7B4FF29
:100F10006D1CEDB2B542F8D37FBD30B51B4C1C4DF6
:100F2000A37905F8330005EBC3005B1C41704260F8
:100F3000A37130BD15484078704714484089704708
:100F40001248007970471148407970470F481C30AB
:100F5000704710B503F0BCFD044603F0BCFD00EB88
:100F60004001C1EBC01004EBC000084CE168401A1E
:100F700032280AD9FFF7BAFE2069012805D10021DD
:100F8000BDE81040022001F06ABB10BD98010020AE
:100F9000041800202DE9F0414A4F0024484E254610
:100FA00007F1180856F8240001234822022100F016
:100FB0002FFD27F8145028F81450641CE4B20C2CB0
:100FC000F0D3BDE8F0812DE9F041DFF8F88000248E
:100FD0003B4F3C4D08F11808264600BF57F8240047
:100FE00000F029FD002835F8140004D048B1012193
:100FF00028F8141011E0401C25F8140028F814609B
:101000000DE038F81400414638B1401C80B221F898
:101010001400142801D928F8146025F81460641C01
:10102000E4B20C2CDAD3CCE710B5044603F094F903
:101030000146032C08D8601A401DC21700EB9272BB
:1010400022F00302801AC4B2601F03280AD8C0B27B
:10105000401A401DC11700EB917121F00301401AA5
:10106000401DC4B2204610BD10B50C2805D2FFF7B4
:10107000DBFF144931F8100010BD002010BD70B521
:1010800015460C460646FFF7EFFFA04208D930464A
:10109000FFF7EAFF001B90FBF5F105FB110008B11B
:1010A000002070BD012070BD10B50C2806D2FFF7DE
:1010B000BBFF0449183131F8100010BD002010BDED
:1010C000BC010020E418002000218B4806F085BBFD
:1010D00070B58A4988B000240C804EF6E6604880DE
:1010E000022042F6631200BF01EB400342F210758A
:1010F00033F8023C6B43B3FBF2F321F81030401C91
:10110000C0B20D28F0D30123182203217C4800F03F
:101110007FFC0121022005F099FC0121084605F021
:101120008CFC4FF48070ADF816007648ADF8124094
:1011300075490068754DB0FBF1F0401EADF8100028
:1011400068896D4EADF8140004A9304605F096FE8E
:101150006020ADF80840ADF80000A878ADF80600B2
:101160000120ADF802000146304606F0E6F9012103
:10117000304606F02CF96946304605F029FFFFF7A6
:10118000A3FF08B070BD6148418941B180784143F7
:101190006420B1FBF0F081B2574806F01EBB93E724
:1011A00018B1421C01D00C2801DD00207047534AC1
:1011B00032F8100000E04008491EC9B2FBD2704767
:1011C00052494881010002D04B4806F000BB7BE742
:1011D00038B54E4C21786078084318D02089401EDD
:1011E0000004000C208111D121B1207020B1FFF743
:1011F000CAFF03E00120F8E7FFF766FFE0882081DF
:101200002078002802D16078401E607038BDE078F8
:101210000028FBD0A189606900EB41000088ADF88F
:1012200000009DF90000401C02D1E070FFF74CFF68
:10123000208A10B1401E208238BDE0892082618A58
:1012400089B1207930B10020207128B12182FFF7C7
:101250003BFF03E00120F7E7FFF795FF608A10B13D
:1012600020790028E8D1A089401C80B2A081616962
:1012700001EB40000088ADF800009DF801109DF9D9
:101280000000FFF78DFFFFF79BFFBDE838407AE7CE
:101290001E490020C870704710B500280BD00029E7
:1012A00009D01A4C60702181E18001202070FFF785
:1012B0006AFF0020E07010BD642800D96420134943
:1012C0008870704770B5002815D0104B0024012598
:1012D0001C705C70DD709C81D98119825A821C71EE
:1012E0005861417890F90000FFF75AFFFFF768FF57
:1012F000BDE8704047E770BD0004004014190020AD
:101300002C8E0008A013002040420F00EC010020AA
:101310000FB410B59DF81300222813D19DF81200C8
:1013200005280FD10298B03810280BD2042105A847
:1013300000F0BAFA514A029902EB8101A1F58051FD
:10134000C1F8400D10BC5DF814FB4D4A4FF4FE612E
:10135000B02000F023BA2DE9F04100F1B0060620DC
:1013600060F307048846AA2060F30F241746002183
:10137000404600F08AFA60F317440121404600F02D
:1013800084FA60F31F640221404600F07EFA60F3A5
:1013900007050321404600F078FA60F30F252A463E
:1013A00067F31742434621463046BDE8F04100F05E
:1013B0006CB92DE9F04100F1B006072060F3070495
:1013C0000D46BB2060F30F2417460021284600F08D
:1013D0005CFA60F317440121284600F056FA60F3E6
:1013E0001F640021384600F050FA60F30705012120
:1013F000384600F04AFA60F30F250221384600F023
:1014000044FA60F317450321384600F03EFA2A46B5
:1014100060F31F623B4621463046BDE8F04100F0D4
:1014200034B970B500F1B005032060F307040E462F
:10143000442060F30F240021304600F026FA60F3C8
:1014400017440121304600F020FA60F31F64334650
:1014500021462846BDE870401A4600F016B930B45F
:10146000012464F30701EE2464F30F2130BCB03093
:1014700000F00BB9014951F82000704730190020E5
:101480001113000870B5012186B0084605F0D5FAA1
:101490000121042005F0D1FA0121480605F0D6FA11
:1014A0000121042005F0C9FA4FF40060ADF80C00EA
:1014B00048208DF80F00F84D03248DF80E4003A945
:1014C000284605F0D0F8A814ADF80C0018208DF8C7
:1014D0000F008DF80E4003A9284605F0C4F8EF4E22
:1014E000304604F071FC684604F056FD00248DF887
:1014F000064001258DF8075002208DF804008DF874
:1015000002408DF803400620ADF8000002948DF8EB
:1015100005506946304604F06AFC01221146304607
:1015200004F008FF13208DF810008DF811400420FE
:101530008DF812008DF8135004A804F05AFA06B082
:1015400070BDD74800887047D54840887047D44957
:1015500048880A88801A00B2002802DA898808447C
:1015600000B280B27047CE4801884088814201D1E4
:101570000120704700207047C848083001680268A1
:10158000C1F38061C2F3C06200681144C0F300700F
:101590000844704730B58FB0FFF7E5FF002872D1DF
:1015A000FFF7EAFF00286ED0BD4C2088A16801EB50
:1015B000001212680092042202EB00128A5C8DF87D
:1015C0000420052202EB00128A5C8DF80520062219
:1015D00002EB00128A5C8DF80620072202EB001253
:1015E0008A5C8DF80720082202EB00128A5C8DF8D5
:1015F0000820092202EB00128A5C8DF809200A22D9
:1016000002EB00128A5C8DF80A200B2202EB00121A
:101610008A5C8DF80B200C2202EB0010085C00990C
:1016200004918DF80C0000219DF804008DF819102C
:101630008DF8181005918DF81A00694604AA03E088
:101640000B1815185B79EB72401EC0B2F8D2142249
:1016500004A909A806F044FB09A9904804F0F6FC87
:10166000042807D02088A188401CB0FBF1F201FBC0
:1016700012002080FFF780FF08B1FFF78BFF0120E9
:101680000FB030BDFFE70020FAE72DE9F041844CB0
:101690006588A7886E1CB6FBF7FC07FB1C662788CD
:1016A000BE4204D1FFF776FF0020BDE8F081A668B6
:1016B00006EB0515286065880426A06806EB05156D
:1016C0004155080A66880527A56807EB0616A85540
:1016D0000D0C66880627A06807EB06168555080ED0
:1016E00065880726A16806EB051548556188082519
:1016F000A06805EB01114254110A65880926A0680B
:1017000006EB05154155100C65880A26A16806EB05
:1017100005154855100E62880B25A16805EB0212CD
:10172000885461880C22A06802EB01114354608840
:10173000A188401CB0FBF1F201FB12006080FFF7B2
:1017400029FF0120B1E75648002141800180704700
:1017500010B5524C0121204604F024FE002806D08A
:101760000121204604F06FFEBDE8104012E710BDD5
:1017700008B501220221494804F0DCFD14208DF84F
:10178000000000208DF8010004208DF802000120E7
:101790008DF80300684604F02CF908BD7FB5404C75
:1017A00015461F22083C42EA411221788DF80A10A2
:1017B00000214FF6FF7606EA40100123ADF8000045
:1017C0008DF80B108DF80C30ADF80420ADF8021038
:1017D000ADF80610ADF808108DF80D30684604F02D
:1017E0007AFB3049207841F82050401C20707FBDA2
:1017F0002B4808384068704710B52A4C103C1ECC66
:1018000080E81E0010BD30B5244C87B00221204670
:1018100004F0C8FD002836D00221204604F013FE53
:1018200001AA0021204604F0A1FC9DF80C0000282C
:1018300029D11B4C9DF81700083C217888420CD216
:101840001C280AD2174951F8205035B105980DF1DE
:10185000040C00909CE80F00A84712490198103929
:1018600001AA08609DF80E000871002005E0131819
:101870000D18DB7A401C6B71C0B20B798342F6D82D
:101880006068401C606007B0FBE619B1491EC9B230
:101890000012FAE7C0B2704700080140006400403F
:1018A0000C0200208096002010B5044641B1491E6C
:1018B000C9B2601CFFF7F8FF217801EB002010BDD2
:1018C000007810BD70B500231C460A4D0AE000BF29
:1018D00011F8016B641C86EA132635F8166086EA57
:1018E00003239BB29442F3DB190A01704370012079
:1018F00070BD00000A8C00082C4A10B5117819B18F
:101900000A21B0FBF1F415E000EBC00101234FF018
:10191000E020137041610021816103610369DC07EC
:1019200001D0DB03FAD501618161117010BD00BFE8
:10193000FEF708FC641EFBD210BD10B55FF000047A
:10194000FEF700FC641CE4B2642CF9D310BD2DE951
:10195000F041164A0446107820BB4FF0010C82F883
:1019600000C04FF47A7700254FF0E02013E03946AD
:101970008C4200D8214642F228334B4343618561B3
:10198000C0F810C00369DE0701D0DB03FAD505619A
:101990008561611A8CB2002CE9D11570BDE8F08127
:1019A000FFF7CBFF641EA4B2FAD2F7E718020020BB
:1019B00030B4284C00682315021B5900A0421CD0EB
:1019C00009DC254A801812D0984213D088421DD1D4
:1019D0000121102008E09A4212D08A4213D0B2F5B9
:1019E000406F13D10121080230BC05F026B8012157
:1019F0000420F9E701210820F6E701212020F3E780
:101A000001214020F0E701218020EDE730BC704744
:101A1000F8B515460E4604460BB1FFF7C9FF8DF821
:101A200002608DF80350A088ADF800006946206878
:101A300004F019FEF8BD8188006804F06EBE81884C
:101A4000006804F074BE83880A460068194604F0F2
:101A50007CBE00000014014000F8FEBF2DE9F047F5
:101A6000DC4C042501222378E61DDB490027052BE9
:101A70000AD2DFE803F0030B1D263100012803D151
:101A8000FF206070A7702270BDE8F087D14A002166
:101A9000521D555C854203D161705B1C237003E0CD
:101AA000491CC9B20229F4D36078FF287FD0EBE744
:101AB0006378F35C83427AD103202070002BE3D15A
:101AC00009E06378F65C36B1A378C8545B1CD8B2E1
:101AD000A0708642D8D82570607810B1012866D1F0
:101AE00060E008784FF6FF754B7805EA0020034365
:101AF000887805EA0026C87830430E79497905EAE6
:101B000006252943B1F5616F4AD22271B14D1435D2
:101B10002B80688008B2A880FEF716FFB4F90A107F
:101B200000FB01F6B5F90400FEF7D2FEB4F90C1083
:101B30006FF41C7301FB0062B5F9000042F21071F2
:101B40004843B4F90A1042F21079594300EB0110EE
:101B5000111891FBF9F0A5F10608A8F80000B5F9F5
:101B60000400FEF7F1FEB5F9022049464A43B4F9F4
:101B70000C106FF41C734B4302EB031201FB0026A5
:101B8000B5F90400FEF7A4FEB4F90A1001FB1061D8
:101B900091FBF9F0A8F80200A988A8F8041006E063
:101BA000277104E008788240E0780243E2702770F1
:101BB0006AE710B54FF4E131022003F00FF9AFF2FC
:101BC0006311BDE81040022003F07AB981480E305D
:101BD000704770B57F4C0E34B4F90400FEF7B4FEC4
:101BE0007C4DB5F90A1000FB01F6B4F90400FEF7CC
:101BF0006FFEB5F90C106FF41C7301FB0062B4F9B1
:101C0000000042F210714843B5F90A10594300EB45
:101C10000110104442F2107190FBF1F000B270BD5F
:101C200070B56C4C0E34B4F90400FEF78DFEB4F9B7
:101C30000220684D42F210714A43B5F90C106FF45E
:101C40001C734B4302EB031201FB0026B4F90400A2
:101C5000FEF73EFEB5F90A1001FB106042F210716A
:101C600090FBF1F000B270BD5A480E30B0F904009C
:101C7000704710B50121022003F0BCF910210220A9
:101C800003F0B8F90021BDE81040022003F0B2B91A
:101C900070B502F01DFF4F4D0446E87820F00200B9
:101CA000E8700121022003F0A5F92021022003F0B1
:101CB000A1F90021022003F09DF94FF47A760CE09F
:101CC00002F006FF001B00F57A7090FBF6F106FBB0
:101CD0001100142801DB002070BDE8788007EFD5E3
:101CE000012070BD2DE9F04716460F46054602F06B
:101CF000EFFE384C8146E07820F00100E07030467D
:101D0000FEF722FEB4F90A1040F27122484329443A
:101D10005143C0EB01153046FEF7DAFDB4F90C1063
:101D200042F2107801FB105191FBF8F53046FEF7B6
:101D30000BFEB4F90C1040F2712248433944514370
:101D4000C0EB01173046FEF7C3FDB4F90A1001FBE2
:101D5000007191FBF8F70121022003F04BF93021CB
:101D6000022003F047F90621022003F043F9C5F3EE
:101D70000721022003F03EF9E9B2022003F03AF90C
:101D8000C7F30721022003F035F9F9B2022003F06E
:101D900031F9C6F30721022003F02CF9F1B2022039
:101DA00003F028F94FF47A750EE000BF02F090FEC0
:101DB000A0EB090000F57A7090FBF5F105FB11002E
:101DC000142801DB00205FE6E078C007EED0012098
:101DD0005AE600001A020020F0960020F0B50D46E9
:101DE000044687B001210E2000F039FC02F065FBAB
:101DF000142101A805F08DFF02F05FFB0121F7A27D
:101E0000084602F0D9FBF7A20221012002F0D4FB20
:101E1000F84E214601A83278921E05F085FF01ABED
:101E2000F5A20421012002F0C7FB204605F088FF3F
:101E30003278911E88420BD3A11801A8891E921EE8
:101E400005F072FF01ABECA20521012002F0B4FB0A
:101E500002F020FC00227821E848FFF733FAFEF771
:101E6000D8FE02F073FA0746FEF7C6FE6426B0FB02
:101E7000F6F106FB1104FEF7BFFEB0FBF6F3E0A29D
:101E800008210020009402F097FBFEF7FEFE28B127
:101E900001280ED0022826D003281DD10022782147
:101EA000D648FFF70FFA4FF4CC6002F0DEF9D9A262
:101EB0000EE007210520FFF773F9FFF781F940F2E3
:101EC000DF4002F0D2F964210520FFF7E5F9D4A242
:101ED0000721002002F070FB02F0DCFB384602F024
:101EE000C4F9002433E007210120FFF759F9FFF777
:101EF00067F91F2002F0B9F932210A20FFF7CCF967
:101F0000CBA20721002002F057FB02F0C3FBC82040
:101F1000FFF71DFD00210E2000F0A1FB072002F0BD
:101F2000AEFA02F0B7FBC820FFF711FD01210E2029
:101F300000F095FBE4E70420FFF709FDFFF743F805
:101F40000920FFF791F8012804D0641CA4B2B4EB77
:101F5000950FF0D300210E2000F081FB07B0F0BDFB
:101F600010B5FEF792FE002818D001280DD00228E7
:101F700014D107210520FFF713F9FFF721F9C82134
:101F80000620BDE81040FFF787B907210520FFF7BD
:101F900007F9FFF715F964210220F2E710BD2DE9DA
:101FA000F84F054602F0D8F992484FF6FF743C2DE1
:101FB0001FD90A22B5FBF2F102FB1151B5FBF2F376
:101FC000009100789EA2C01FC0B2002102F0F4FA76
:101FD000722D01D81F2006E0782D02D840F2DF4094
:101FE00001E04FF4FC608146722D00D81F24A34607
:101FF0000AE0007894A2C01FC0B2002102F0DCFA0F
:102000004FF66269A3467E2502F0A6F9C00701D00B
:10201000A02400E080247E2D01D90D200CE06E2D3F
:1020200001D2002008E06E3D05EB850000EBC50005
:10203000C11700EB117000111FFA80F8002645F25D
:10204000AA2A0025A719133F464501D24A4600E0B7
:102050005246681DC1B2F8B202F055FA6D1CEDB2DD
:10206000062DF1D3761CF6B20D2EEAD300256619A3
:10207000153EF0B25A46032102F045FAF0B25A4634
:102080000C2102F040FA6D1CEDB2112DEFD30025AA
:10209000A4F11508661F2F1DF9B208F0FF005A467B
:1020A00002F031FAF9B2F0B25A4602F02CFA6D1C85
:1020B000EDB2082DEFD30025261FE41E6F1DF9B2E7
:1020C000F0B25A4602F01FFAF9B2E0B25A4602F0F4
:1020D0001AFA6D1CEDB2062DF0D3BDE8F88F2DE98C
:1020E000F84302F030F9804602F030F9054646F236
:1020F000041002F0BDF84FF6FF76304602F0B5F856
:10210000002002F0BCF902F0E6FC3C27B0FBF7F13E
:1021100007FB110402F0DFFCB0FBF7F300214CA237
:102120000846009402F048FA02F0D2FCC0F5FA70BA
:10213000FEF7DEFCC0F5FA70C0EB00204FF4FA7435
:1021400090FBF4F000EB002101EB00404FF4FC6148
:1021500001EA601702F0BCFCC0F5FA70FEF7C8FC9B
:10216000C0F5FA70C0EB002090FBF4F000EB00210A
:1021700001EB0040000247EAD06702F0A9FCC0F57D
:10218000FA70FEF7B5FCC0F5FA70C0EB0020B0FBAA
:10219000F4F000EB002101EB00404FF4784101EA3C
:1021A0000020384302F061F82CA20021032002F045
:1021B00003FA304602F059F802F0CEF8FEF745FD7A
:1021C0000A21B0FBF1F0FFF7EAFE404602F050F8BA
:1021D0002846BDE8F84302F048B800005B484B557C
:1021E00053545D005B526F626F7469637320546572
:1021F000616D5D004402002025730000D88B00084B
:10220000204C6576656C3A2025642E253032645664
:10221000000000002042617474657279204F4B0009
:10222000204C4F5720424154544552592100000040
:10223000204E4F2042415454455259210000000085
:102240002532642E25640000205553420000000012
:102250002025303264202530326400003A0000002E
:102260002DE9F34FEA4983B0DFF8A8A308704FF6D1
:10227000FF7B00BF02F02CFCE54C61888842F9D05E
:1022800002F026FCC821B0FBF1F2608001FB1200D5
:1022900001280FD1FEF7BDFC02F01DFC0A21B0FBA6
:1022A000F1F201FB1200042804D16088012801D159
:1022B000FFF756FE61883225B1FBF5F005FB1010E3
:1022C00002287DD1FEF77FFE0720FEF7CDFE012814
:1022D00005D001220A210720FEF7D1FE40B1617826
:1022E0002078491E884201DA401C0FE000200DE0F2
:1022F0000520FEF7B9FE012805D001220A2105209C
:10230000FEF7BDFE18B12078C8B3401E207009202A
:10231000FEF7AAFE012801D0049850B32078BE4EE3
:1023200000EB400006EBC000406948B302F00BF838
:10233000804602F00BF8074602F0BFF80022322177
:10234000B648FEF7BFFF207800EB400006EBC00068
:102350004069804700223221B048FEF7B3FF02F007
:10236000ACF8404601F084FF384601F07EFF0020C3
:1023700004900A20FEF778FE0A280AD015E000E053
:1023800001E06078C1E764227821A548FEF79AFF52
:10239000EFE701F0E1FF401C00F0030002F007F856
:1023A000002264219F48FEF78DFF0B20FEF75CFEA4
:1023B0000A280DD101F0D0FFC01C00F0030000E09E
:1023C00006E001F0F4FF002264219648FEF77AFF50
:1023D0006088B0FBF5F105FB110007287FF44AAFD8
:1023E00001F0B1FF029001F0B1FF019002F065F839
:1023F000FFF775FE9AF80000801EC7B2607810B132
:10240000401E90FBF7F000F0FF0920780025B0FB9C
:10241000F7F808FB07F0C6B223E001788E4249D1F5
:102420006088B0F5FA7F01D2002001E045F2AA20D1
:1024300001F01EFF681CC0B202F021F84FEA0B0049
:1024400001F013FF744806EB460100EBC1036D1C5D
:10245000E9B2AFF25C22012002F0AEF8761CF6B2CF
:10246000EDB2617820468E4201D2BD42D5D35846A6
:1024700001F0FBFE46F2041001F0FAFE9AF80000AB
:102480005446401EC0B201F0FAFF09F1010000906D
:10249000207808F10103401EC1B263A2012002F0BE
:1024A0008BF8029801F0E4FE019801F0DEFE02F0E4
:1024B000F1F8DFE6584601F0DBFE681CC0B201F01F
:1024C000DEFF0020BCE770B5514C0E460146607837
:1024D00014280ED2504D00EB400005EBC00005F073
:1024E00036FC607800EB400105EBC101401C4E61F9
:1024F000607070BD30B4027A022919D003290FD060
:10250000436853F822201478DCB1012C0ED101B3BA
:1025100001292CD0C168002908D030BC18460847D2
:102520000178491E8A4209D10021017230BC7047EE
:102530000AB1521E03E00178491EF6E7521C0272EE
:10254000F4E71079012801D0012000E0002010718B
:1025500007E091681069884201D1D06800E0401E10
:102560001061002230BC32212C48FEF7ABBED2E90C
:102570000310884201D19068F2E7401CF0E72DE992
:10258000F04188460746002532E07868464650F814
:102590002540387AA84200D00026207810B10128C2
:1025A00024D10DE0207910B136B1832305E00EB1BE
:1025B000812302E0802300E08223A178607812E08A
:1025C0000EB1DB2300E03C23A178607818A201F073
:1025D000F3FF607821790844401CC0B20EB1DB23C0
:1025E00000E03E23A17812A201F0E6FF6D1CEDB2DF
:1025F0003878A842C9D8BDE8F081017819B101291D
:1026000003D00020704700797047006970470000D0
:102610003402002045020020FC960020F28B0008C6
:10262000EC8B0008E48B000825642F256400000073
:102630002563000010B50123102202211348FFF783
:10264000E7F90123102202211148FFF7E1F90123E4
:102650001022BDE8104002210E48FFF7D9B970B52D
:1026600004460D46800702D50848FFF7ECF96007DD
:1026700003D529460648FFF7E6F9200705D5294680
:10268000BDE870400348FFF7DEB970BD4C8E00080E
:10269000548E00085C8E000870B5FD4C5FF032056A
:1026A00002F016FA61888842FAD002F011FAB0FB03
:1026B000F5F1608005FB110008B9FEF7AAFA608801
:1026C000B0FBF5F105FB1100032805D1FEF77BFCFB
:1026D00001F050FB00282AD16088B0FBF5F105FB22
:1026E00011000628DCD101F0E8FEFFF7F8FCE9A2B2
:1026F0000121002001F060FFFEF7A4FA0346E9A2E1
:102700000221002001F058FFFEF776FA0346E7A207
:102710000321002001F050FFFEF797FA0346E5A2DF
:102720000421002001F048FF01F0B4FFB8E770BDBC
:10273000FEB5D74D5FF0320602F0CAF969888842CB
:10274000FAD002F0C5F9B0FBF6F1688006FB110083
:1027500008B9FEF75EFA6888B0FBF6F106FB1100D7
:10276000032805D1FEF72FFC01F004FB002848D117
:102770006888B0FBF6F106FB11000628DCD101F0F9
:102780009CFEFFF7ACFCFEF7D8FB0346CCA2012170
:10279000002001F011FFCEA20221002001F00CFF69
:1027A000FEF7CEFB0346CEA20321002001F004FF7A
:1027B000FEF7C9FB0346CDA20421002001F0FCFE78
:1027C000CDA20521002001F0F7FEFEF7BFFB044675
:1027D000C278817840788DE807002378C8A2062166
:1027E000002001F0E9FE6079E279A1798DE8070027
:1027F0002379C9A20721002001F0DEFE01F04AFF83
:102800009AE7FEBD2DE9F84FC94DDFF82883DFF8C0
:1028100080924FF0320A00BF02F05AF9B9F8021064
:102820004C468842F8D002F053F95646B0FBF6F118
:1028300060800AFB110008B9FEF7EBF96088B0FB75
:10284000F6F106FB1100032805D1FEF7BCFB01F0F1
:1028500091FA002849D16088B0FBF6F106FB11001F
:102860000628D9D101F029FEFFF739FC0720FEF731
:10287000FBFB012804D00520FEF7F6FB012808D158
:10288000207850B10020207000223221AA48FEF7A3
:1028900019FDA1462478022716E098F80010287840
:1028A000891E4843EFE7002609E02346A3A23946E4
:1028B000304601F081FE641C761CE4B2F6B2287842
:1028C0008642F2D37F1CFFB298F800008742EAD319
:1028D000641EE0B2009099F8003099A20121002016
:1028E00001F06AFE01F0D6FE96E7BDE8F88FF0B57C
:1028F0009DB014229649684605F0F2F994491422D5
:10290000143109A805F0ECF99149142228310EA8D8
:1029100005F0E6F98E4914223C3113A805F0E0F9E0
:1029200009A819900EA81A9013A81B908848CDF8F2
:1029300060D0001F3225416DD0E91720CDE9072076
:1029400018A8CDE90510524C02F0C2F861888842FF
:10295000FAD002F0BDF8B0FBF5F1608005FB110084
:1029600008B9FEF756F96088B0FBF5F105FB1100D8
:1029700003284BD1FEF727FB01F0FCF948B168466C
:10298000FFF73BFE0022C0B21146FEF7E4FC1DB08B
:10299000F0BD13A8FFF731FE88B90520FEF764FBF0
:1029A000012803D1022105A8FFF7A4FD0720FEF7A7
:1029B0005BFB012803D1032105A8FFF79BFD06203F
:1029C000FEF752FB012805D002220A210620FEF75D
:1029D00056FB18B1002105A8FFF78CFD0820FEF773
:1029E00043FB012805D002220A210820FEF747FBFD
:1029F00018B1012105A8FFF77DFD0920FEF734FB82
:102A0000012803D1042105A8FFF774FD6088B0FBFD
:102A1000F5F105FB110005281AD113A8FFF7EDFD0C
:102A200070B109A8FFF7E9FDC6B20EA8FFF7E5FDF2
:102A300007466846FFF7E1FDC0B23246394605E079
:102A40006846FFF7DAFD0022C0B21146FEF783FCAC
:102A50006088B0FBF5F105FB110007287FF474AF27
:102A600001F02BFDFFF73BFB3AA20121002001F012
:102A7000A3FD6846FFF7C1FD431C39A202210520D2
:102A800001F09AFD6846FFF7B8FD00F1B0036DE074
:102A90003802002042415454455259205445535461
:102AA000000000004144433A20256400563A2025A6
:102AB0006400000056206176673A2025640000001B
:102AC00052656365697665643A20256400000000FC
:102AD000526563656E7420646174613A2000000081
:102AE00049443A2030782558000000004C656E6754
:102AF00074683A2025640000446174613A20000043
:102B00007B253032582C253032582C253032582C29
:102B1000253032582C00000020253032582C25302A
:102B200032582C253032582C253032587D00000088
:102B30004402002045020020F28B000825630000BB
:102B40004153434949202825642D2564290000006C
:102B5000A08E00084D4F544F52205445535400004E
:102B60004D4F544F52252D3264000000FCA203212A
:102B7000002001F021FD6846FFF73FFDC0B2FEF7DF
:102B800079FC0346F9A20421002001F015FD09A8F3
:102B9000FFF733FD01281ED0F7A3F9A20521062077
:102BA00001F00AFD0EA8FFF728FD0346F5A2062155
:102BB000002001F001FDF6A20721002001F0FCFC3D
:102BC00060884FF4FA71B0FBF1F201FB1200FA28B1
:102BD00003D2012102E0F2A3DFE7002105A8FFF7FD
:102BE000CEFC01F057FDAFE670B5EF4C322500BFCB
:102BF00001F06EFF61888842FAD001F069FFB0FBF6
:102C0000F5F1608005FB110008B9FEF702F8608855
:102C1000B0FBF5F105FB1100032811D1FEF7D3F944
:102C200001F0A8F800284CD10920FEF71DFA012870
:102C300006D1FFF72DF800223221DC48FEF742FBD7
:102C40006088B0FBF5F105FB11000628D0D101F03A
:102C500034FCFFF744FAD6A20121002001F0ACFCBD
:102C6000FEF7B4FFB0F90030D5A20221002001F038
:102C7000A3FCFEF7ABFFB0F90230D3A20321002082
:102C800001F09AFCFEF7A2FFB0F90430D0A20421B3
:102C9000002001F091FCD0480378D0A2052100204B
:102CA00001F08AFC6088B0F5FA7F01D2DB2300E0F6
:102CB0002023CDA20721002001F07EFC01F0EAFCD8
:102CC00096E770BD2DE9FC47DFF8DC924FF0320A41
:102CD00001F0FEFEB9F802104C468842F8D001F02F
:102CE000F7FE5546B0FBF5F160800AFB110008B90C
:102CF000FDF78FFF6088B0FBF5F105FB110003289D
:102D000005D1FEF760F901F035F8002835D160886B
:102D1000B0FBF5F105FB11000628D9D101F0CDFB80
:102D2000FFF7DDF9B4A20121002001F045FC0024E9
:102D3000DFF8D082264602252046FEF7B5F9074681
:102D40002046FEF791F9CDE900072346AEA22946B9
:102D5000304601F031FC98F80000401E854202DA4E
:102D60006D1CEDB202E0F61DF6B20225641CE4B261
:102D70000C2CE1D301F08EFCAAE7BDE8FC8738B546
:102D80000446A448006800902068FFF736FC8DF8E0
:102D900000006068FFF731FC8DF80100FEF778FA5B
:102DA000A068FFF72AFCC0B2FEF786FAE068FFF7DA
:102DB00024FC81B200226846FEF784FA38BD70B563
:102DC0009449AAB0142264311AA804F089FF9149E9
:102DD0001422783104A804F083FF8E4914228C3128
:102DE0001FA804F07DFF8B491422A03124A804F011
:102DF00077FF1AA8099004A80A901FA80B9024A88E
:102E00000C9084488030416BD0E90F20CDE902203E
:102E100009A8CDE9001016207E498DF8A4003422BF
:102E2000C4310DA804F05CFF29A832255E4C4FF494
:102E3000FA760D9001F04CFE61888842FAD001F0DC
:102E400047FEB0FBF5F1608005FB110008B9FDF706
:102E5000E0FE6188B1FBF5F005FB1010032872D18C
:102E6000FEF7B1F800F086FF30B11E20FEF724FA1D
:102E7000FEF70EFA2AB070BD0520FEF7F5F801281E
:102E800005D002220A210520FEF7F9F818B1022127
:102E90006846FFF72FFB0720FEF7E6F8012805D06C
:102EA00002220A210720FEF7EAF818B1032168463A
:102EB000FFF720FB0620FEF7D7F8012805D00222F5
:102EC0000A210620FEF7DBF8A0B100216846FFF7D3
:102ED00011FB1AA8FFF791FB60B90C201E9004A803
:102EE000FFF78BFB0699884202D90898401E00E044
:102EF000079808900820FEF7B7F8012805D00222AD
:102F00000A210820FEF7BBF8A0B101216846FFF7AF
:102F1000F1FA1AA8FFF771FB60B901201E9004A80E
:102F2000FFF76BFB0799884202D20898401C00E02B
:102F3000069808900920FEF797F8012803D104218C
:102F40006846FFF7D7FA6088B0FBF5F105FB110082
:102F500006287FF46FAF01F0B0FAFFF7C0F85BE02E
:102F600049443A203078253033580000456E636F6D
:102F70006465723A202564004F50454E0000000001
:102F80002573000053706565643A20202025640095
:102F900020202053746172742074657374000000E3
:102FA000434C4F534500000038020020F28B0008CC
:102FB000504F534954494F4E20544553540000003C
:102FC00020583A202564000020593A20256400004A
:102FD00020413A20256400001E0200202041766135
:102FE000696C3A202564000020282563292043616C
:102FF0006C69627261746500425554544F4E20549E
:10300000455354004502002025643A256428256470
:10301000290000009C8E0008F6A20121002001F08A
:10302000CBFAF7A20221002001F0C6FA1AA8FFF796
:10303000E4FA0DA951F82030AFF2BC0202210B20B6
:1030400001F0BAFAF0A20321002001F0B5FA04A8B9
:10305000FFF7D3FA0346AFF2940203210B2001F0ED
:10306000ABFAEBA20421002001F0A6FA1FA8FFF79B
:10307000C4FA0346AFF2B40204210B2001F09CFA1B
:10308000E6A20521002001F097FA24A8FFF7B5FA7F
:103090000346AFF2D00205210B2001F08DFA6088C3
:1030A000B04204D2E0A20721012001F085FA608835
:1030B000B0FBF6F106FB1100FA2801D2012100E075
:1030C00000216846FFF75BFA01F0E4FAB2E61FB5AB
:1030D00004460068FFF791FA00906068FFF78DFAE8
:1030E0008DF8040000200246694603E00B18401CDE
:1030F0005A71C0B29DF804308342F7D800223221C1
:10310000CD48FEF7DFF89DE80F00FEF7BEFA1FBDC1
:103110002DE9F0439BB01422C8490FA804F0E0FD4C
:10312000C6491422143114A804F0DAFD0FA819902E
:1031300014A81A90C148C24C08304FF03208016AF6
:10314000D0E90A20CDE90D2019A8CDE90B104FF4E4
:10315000FA7900BF01F0BCFC61888842FAD001F026
:10316000B7FC4546B0FBF5F1608008FB110008B9DB
:10317000FDF74FFD6088B0FBF5F105FB110003285A
:103180003ED1FDF720FF00F0F5FD00287AD10520A3
:10319000FDF76AFF012803D102210BA8FFF7AAF966
:1031A0000720FDF761FF012803D103210BA8FFF7DA
:1031B000A1F90620FDF758FF012805D002220A21B7
:1031C0000620FDF75CFF18B100210BA8FFF792F96C
:1031D0000820FDF749FF012805D002220A21082016
:1031E000FDF74DFF18B101210BA8FFF783F9092066
:1031F000FDF73AFF012803D104210BA8FFF77AF964
:103200006088B0FBF5F105FB11000628A2D101F0A2
:1032100054F9FEF764FF8BA20121002001F0CCF9E4
:103220008BA20221002001F0C7F90FA8FFF7E5F9F2
:10323000034689A20221092001F0BEF988A20321D8
:10324000002001F0B9F914A8FFF7D7F9034687A2C7
:1032500003210D2001F0B0F9FEF7CAFA002857D07B
:103260006846FEF7C9FA82A205210020009B01F002
:10327000A3F906270020012582A2394601F09CF916
:1032800000261CE04FE00D2D02D901257F1CFFB266
:1032900007A8FEF7B1FA0DF11C0C9CE80F000DF128
:1032A0000C0C8CE80F0003A8304477A24379394610
:1032B000284601F081F9ED1C761CEDB2F6B203A8A8
:1032C000FEF79AFA0498C0B2B042DCD86D1EE8B29C
:1032D000AFF2A8724FEA070101F06EF9FEF788FA23
:1032E00003466BA20821002001F066F960884D4674
:1032F000A84204D26BA20921012001F05DF9608887
:10330000B0FBF5F105FB1100FA2805D2012104E01C
:10331000052168A20020DFE700210BA8FFF72FF9A5
:1033200001F0B8F916E71BB0BDE8F0832DE9F84FBE
:103330000025AB4610240FF2E008DFF804914FF0AF
:10334000320A00BF01F0C4FBB9F802104E468842B1
:10335000F8D001F0BDFB5746B0FBF7F170800AFBD7
:10336000110008B9FDF755FC7088B0FBF7F107FBB9
:103370001100032816D1FDF726FE00F0FBFC002803
:1033800037D10A20FDF770FE012802D10DB16D1E64
:10339000EDB20B20FDF768FE012803D1132D01D2F9
:1033A0006D1CEDB27088B0FBF7F107FB1100062829
:1033B000C8D1444E376801F057FF01F07EF8142D54
:1033C0000ED2DFE805F00A0E12979B9FA3A8ADB2BC
:1033D000B7BCC1C6CBD0D5DADFE40FF2EC081024BD
:1033E000DFE00FF2F4080124DBE00FF2F80802241A
:1033F000D7E025E142555A5A4552205445535400CE
:103400004E6F7465733A20004F63746176650000F7
:10341000566F6C756D653A2000000000447572614E
:1034200074696F6E3A000000436C69636B20746FBF
:1034300020706C6179000000F28B0008948F000806
:103440003802002043414E205445535400000000F0
:1034500043414E2069643A00303020253032580014
:1034600043414E206C656E6774683A0025316400F4
:1034700043414E2052782069643A20303020253074
:10348000325800007B000000253032582000000038
:103490005265636569766564206E6F2E3A202564F7
:1034A00000000000436C69636B20746F2073656ECD
:1034B000640000004E6F2043414E207265636569D1
:1034C00076656400801300205052455353205B53AF
:1034D000544152545D0000005052455353205B55F7
:1034E000505D00005052455353205B444F574E5D92
:1034F000202020000FF27038042452E00FF27838B8
:1035000008244EE00FF2843820244AE00FF28C3871
:103510004FF4805445E00FF294384FF4005440E0EB
:103520000FF298384FF480443BE00FF2A0384FF48C
:10353000004436E00FF2A4384FF4807431E00FF20B
:10354000AC384FF400742CE00FF2B0384FF48064C4
:1035500027E00FF2BC384FF4803422E00FF2C0387D
:103560004FF400341DE00FF2C8384FF4802418E007
:103570000FF2CC384FF4002413E00FF2D4384FF49C
:1035800080140EE00FF2D8384FF4001409E00FF267
:10359000E038FCA20321002001F00EF8306880061C
:1035A0004ED43068204206D06D1CEDB2002264215A
:1035B000F748FDF787FE3068B84205D0306818B18B
:1035C0000BF101001FFA80FBFEF789FDF1A201213A
:1035D000002000F0F1FF42460221002000F0ECFF45
:1035E000EF4EB6F902000090B6F90030EDA20421CA
:1035F000002000F0E1FFB6F90430EEA20521002022
:1036000000F0DAFFB6F90630ECA20621002000F047
:10361000D3FFB6F90830EBA20721002000F0CCFF61
:10362000B6F90A30E9A20821002000F0C5FF5B4688
:10363000E8A20921002000F0BFFF01F02BF881E68D
:10364000BDE8F88F2DE9F04F87B00121402003F04D
:10365000F4F902208DF8120028208DF81300DFF80D
:1036600084B34FF6FF79ADF8109004A9584602F0E4
:10367000FAFF48208DF813004FF40070ADF81000E9
:1036800004A9D94802F0EFFF01250020ADF80000A1
:10369000AA4604460646D54F4FF032088AE000BFDE
:1036A00001F016FA79888842F8D001F011FAB0FBDF
:1036B000F8F2788008FB1200032852D1FDF783FC52
:1036C0000A20FDF7D1FC012806D12CB10EB100264D
:1036D00002E0641EE4B26D080920FDF7C5FC012874
:1036E00004D11EB1BDF800108A4568D00B20FDF74B
:1036F000BBFC012805D10F2C03D2641CE4B209EAFB
:10370000450556BB584603F00FF8BDF80010401AA7
:10371000A84212D1BDF800108A450ED100226421C2
:103720009B48FDF7CFFDB5F5004F04D0641C09EAB6
:103730004505E4B211E001260FE0584602F0F4FF1F
:10374000BDF80010884208D0BDF800108A4504D1A9
:1037500064227821A648FDF7B5FD584602F0E4FF43
:1037600082467988B1FBF8F208FB1210062821D1B5
:1037700000F0A3FEFEF7B3FC9EA24FF001014FF054
:103780000000FEB100F018FF9DA20221002000F011
:1037900013FF9DA20321002000F00EFF9FA2042131
:1037A000002000F009FFA1A20521002000F004FF85
:1037B00000F070FF00F0DEFA00283FF471AF07B0B0
:1037C000BDE8F08F00F0F8FE9AA20221002000F080
:1037D000F3FE23469AA20321002000F0EDFE9CA2F6
:1037E0000421002000F0E8FE9CA20521002000F04A
:1037F000E3FE9EA20621002000F0DEFE9EA207212D
:10380000002000F0D9FE9FA20821002000F0D4FE85
:10381000A0A20921C9E77549091D087070477349BD
:10382000091D487070477149091D887070476F49BC
:10383000091DC87070476D49091D0871704770B542
:1038400004464068FEF7D9FEC5B22068FEF7D5FEF3
:10385000C0B2294601F0CEFBBDE870400022322103
:103860009048FDF72FBD00005052455353205B4C4C
:103870004546545D202020005052455353205B5252
:10388000494748545D202020000000005052455315
:1038900053205B4241434B5D202020005052455352
:1038A00053205B415D2020202020000050524553D2
:1038B00053205B425D2020202000000050524553E1
:1038C00053205B585D2020202000000050524553BB
:1038D00053205B595D20202020200000505245538A
:1038E00053205B4C42205D20202000005052455365
:1038F00053205B5242205D2020200000505245534F
:1039000053205B58424F5820205D202020000000AB
:103910005B4C20425554544F4E20315D0000000056
:103920005B4C20425554544F4E20325D0000000045
:103930005B4C20425554544F4E20335D0000000034
:103940005B5220425554544F4E20315D0000000020
:103950005B5220425554544F4E20325D000000000F
:103960005B5220425554544F4E20335D00000000FE
:103970007072657373205B4241434B5D20657869CB
:10398000740000004B45592054455354204F4B00C0
:10399000E48B000858424F5820544553540000000F
:1039A00010B500204C543A25336C642052543A250B
:1039B000336C64004C583A25356C64004C593A25F8
:1039C000356C640052583A25356C640052593A25DA
:1039D000356C6400707265737320636E743A2533BE
:1039E0006400000000180140000C01403802002073
:1039F000EC8B000850696E20546573740000000061
:103A0000446F6E6521000000556E706C7567207400
:103A100065737420776972650000000050726573E9
:103A2000732063656E74726500000000746F20710E
:103A300075697400506C756720746F2042390000FE
:103A40004E6F7720706C75673A2045256400000042
:103A500043617574696F6E3A000000004E657665CB
:103A60007220706C756720746F0000006F74686559
:103A700072207663630000006F722067726F756E4C
:103A80006421000053756767657374207573652042
:103A900075736200706F77657220746F2074657340
:103AA00074210000F28B000870B54FF4E13496B039
:103AB0002146002001F092F92146012001F08EF903
:103AC0002146022001F08AF92146032001F086F9FF
:103AD0002146042001F082F9AE49002001F0F0F9FE
:103AE000AD49012001F0ECF9AC49022001F0E8F900
:103AF000AB49032001F0E4F9AA49042001F0E0F900
:103B00001422A94909A804F0EBF8A749142214319A
:103B10000EA804F0E5F8A4491422283104A804F002
:103B2000DFF809A81390A04A0EA81490303A04A810
:103B30001590D06ED2E91D12009001AB13A883E856
:103B400007009A4C32254FF4FA7600BF00F0C0FF10
:103B500061888842FAD000F0BBFFB0FBF5F16080CD
:103B600005FB110008B9FDF754F86088B0FBF5F1CA
:103B700005FB110003283ED1FDF725FA00F0FAF805
:103B800000287DD10520FDF76FFA012803D102211D
:103B90006846FEF7AFFC0720FDF766FA012803D15F
:103BA00003216846FEF7A6FC0620FDF75DFA012812
:103BB00005D002220A210620FDF761FA18B1002182
:103BC0006846FEF797FC0820FDF74EFA012805D05D
:103BD00002220A210820FDF752FA18B10121684695
:103BE000FEF788FC0920FDF73FFA012803D10421E4
:103BF0006846FEF77FFC6088B0FBF5F105FB11001D
:103C00000628A3D100F059FCFEF769FA68A2012149
:103C1000002000F0D1FC69A20221002000F0CCFCC1
:103C200009A8FEF7EAFC431C66A20221082000F066
:103C3000C3FC66A20321002000F0BEFC0EA8FEF724
:103C4000DCFC034664A203210B2000F0B5FC63A258
:103C50000421002000F0B0FC04A8FEF7CEFC431CB9
:103C600058A20421082000F0A7FC5EA20521002034
:103C700000F0A2FC04A8FEF7C0FC4C49091D00E0BE
:103C80001EE00B5C5AA205210B2000F095FC608819
:103C9000B04205D2AFF2F4720721002000F08CFC94
:103CA0006088B0FBF6F106FB1100192801D2012152
:103CB00000E000216846FEF762FC00F0EBFC45E7FF
:103CC00016B070BDF8B5394C5FF0320500F000FF5A
:103CD00061888842FAD000F0FBFEB0FBF5F160800D
:103CE00005FB110008B9FCF794FF6088B0FBF5F103
:103CF00005FB1100032805D1FDF765F900F03AF83E
:103D0000002836D16088B0FBF5F105FB11000628CC
:103D1000DCD100F0D2FBFEF7E2F936A2012100204F
:103D200000F04AFC00F0E8FF064600F0E8FF03461A
:103D300033A202210020009600F03EFC00F0B5FF07
:103D4000034632A20321002000F036FC00F0B0FF51
:103D5000034631A20421002000F02EFC00F0B1FF48
:103D6000034631A20521002000F026FC00F092FC61
:103D7000ACE7F8BD10B50A20FDF776F90A2804D89B
:103D80000B20FDF771F90A2801D9012010BD002090
:103D900010BD0000173800081F3800082738000839
:103DA0002F38000837380008CC8F00083802002070
:103DB00055415254205445535400000054783A2041
:103DC00000000000554152542564000054782064DE
:103DD0006174613A000000002563000052783A20C7
:103DE00000000000527820646174613A0000000015
:103DF00025632000554C5452412E20544553540005
:103E0000202535642F2535642000000050756C7323
:103E1000653A20256400000044697374616E63652F
:103E20003A202564000000004176672E3A20256480
:103E300000000000F0B587B00121042002F0FDFD74
:103E40000121082002F0F9FD0121202002F0F5FDFA
:103E50000121084602F0F1FD0121C80302F0F6FD40
:103E60000121FC4802F08EFC8020ADF800001025F6
:103E7000F94F8DF8035001248DF802406946384609
:103E800002F0F1FB4020ADF800008DF803508DF8F2
:103E900002406946384602F0E6FB3820ADF80000E3
:103EA00018208DF8030003268DF802606946EB4860
:103EB00002F0D9FB2020ADF800008DF803508DF8FA
:103EC00002606946384602F0CEFB0020ADF80400DF
:103ED0004FF48271ADF80610ADF808000221ADF87C
:103EE0000A10ADF80C400902ADF80E100821ADF82B
:103EF0001010DB4CADF8120001A9204602F010FEB4
:103F00000121204602F089FE0021204602F0D4FE65
:103F10000021204602F0B9FE07B0F0BD70B5CE4DCD
:103F200006462021284602F00EFC4021284602F0D9
:103F30000AFCCB4C0221204602F0DBFE0028F9D01F
:103F40003146204602F091FE0121204602F0D1FECA
:103F50000028F9D0204602F08AFE2846BDE87040CD
:103F6000202102F0EEBB70B5BB4D0646202128464D
:103F700002F0E9FB4021284602F0E3FBB84C0221A5
:103F8000204602F0B6FE0028F9D03146204602F065
:103F90006CFE0121204602F0ACFE0028F9D020463C
:103FA00002F065FE2846BDE87040202102F0C9BB42
:103FB00010B50120FFF7B2FF0A20FDF7C8FC112061
:103FC000FFF7ACFF7820FDF7C2FCB120FFF7A6FF9A
:103FD0000120FFF7C8FF2C20FFF7C5FF2D20FFF7BA
:103FE000C2FFB220FFF79AFF0120FFF7BCFF2C2091
:103FF000FFF7B9FF2D20FFF7B6FFB320FFF78EFFC5
:104000000120FFF7B0FF2C20FFF7ADFF2D20FFF7B9
:10401000AAFF0120FFF7A7FF2C20FFF7A4FF2D2008
:10402000FFF7A1FFB420FFF779FF0720FFF79BFF01
:10403000C020FFF773FFA220FFF795FF0220FFF7D4
:1040400092FF8420FFF78FFFC120FFF767FFC52095
:10405000FFF789FFC220FFF761FF0A20FFF783FF08
:104060000020FFF780FFC320FFF758FF8A20FFF7EB
:104070007AFF2A20FFF777FFC420FFF74FFF8A203F
:10408000FFF771FFEE20FFF76EFFC520FFF746FF39
:104090000E20FFF768FF3620FFF740FFC820FFF72C
:1040A00062FFE020FFF73AFF0220FFF75CFF1C20D1
:1040B000FFF759FF0720FFF756FF1220FFF753FFC6
:1040C0003720FFF750FF3220FFF74DFF2920FFF781
:1040D0004AFF2D20FFF747FF2920FFF744FF252047
:1040E000FFF741FF2B20FFF73EFF3920FFF73BFF93
:1040F0000020FFF738FF0120FFF735FF0320FFF70F
:1041000032FF1020FFF72FFFE120FFF707FF03200A
:10411000FFF729FF1D20FFF726FF0720FFF723FFEA
:104120000620FFF720FF2E20FFF71DFF2C20FFF7B2
:104130001AFF2920FFF717FF2D20FFF714FF2E206D
:10414000FFF711FF2E20FFF70EFF3720FFF70BFFC1
:104150003F20FFF708FF0020FFF705FF0020FFF7D3
:1041600002FF0220FFF7FFFE1020FFF7FCFE2A20CF
:10417000FFF7D4FE0020FFF7F6FE0020FFF7F3FE66
:104180000020FFF7F0FE7F20FFF7EDFE2B20FFF76A
:10419000C5FE0020FFF7E7FE0020FFF7E4FE002049
:1041A000FFF7E1FE9F20FFF7DEFE3A20FFF7B6FEA5
:1041B0000520FFF7D8FE2920FFF7B0FEBDE810402C
:1041C0000A20FDF7C4BB10B5234C8021204602F025
:1041D000BAFA6420FDF7BBFB8021204602F0B1FA59
:1041E000BDE810406420FDF7B2BB2DE9F041054663
:1041F0002A20FFF793FE0020FFF7B5FE0020FFF70F
:10420000B2FE0020FFF7AFFE7F20FFF7ACFE2B20B1
:10421000FFF784FE0020FFF7A6FE0020FFF7A3FEB5
:104220000020FFF7A0FE9F20FFF79DFE2C20FFF748
:1042300075FE00244FF4A0472E0A3046FFF793FE88
:10424000E8B2FFF790FE641CA4B2BC42F5D3BDE80F
:10425000F08100000002300000140140000C014019
:10426000003C0040FE4908817047FD49C880704706
:10427000FB49888070472DE9F05F984615460C464B
:104280000746FFF7D7FDFFF79EFFFFF791FE2C20B3
:10429000FFF744FEF24E2046B480F580A6F8088071
:1042A000FFF7A3FFF8073770002802D04FF0140083
:1042B00001E04FF01000B07002D04FF0080001E0B4
:1042C0004FF00A00F070DFF89CE34FF000004FF071
:1042D000200B00BF00EB8001E34A4FF0000302EB2C
:1042E000810702F5487202EB8109A2F57A7202EBAE
:1042F000410802F5167202EB810602F548720EEBD8
:10430000410A02EB810200BF0AF803B027F81350FC
:1043100029F8134008F803B026F8135022F8134088
:1043200003F10103DBB20A2BEED3401CC0B2142808
:10433000D0D3BDE8F09FCA49012048707047C849F2
:10434000002048707047C64880887047C448C088BD
:104350007047C34800897047C148007870472DE90D
:10436000F00FBF48DFF8FC920022C68809F1C809A7
:104370008088202709F5167A09F5AF6802EB8203D9
:1043800009EB43050AEB8304002108EB83036F5418
:1043900024F8116023F81100491CC9B20A29F6D388
:1043A000521CD2B2142AE9D3BDE8F00F1DE710B5B4
:1043B000AB4C00F003002070FFF7D1FF2078C0075E
:1043C000002802D04FF0140001E04FF01000A07060
:1043D00002D04FF0080001E04FF00A00E07010BD7D
:1043E00070B505460C462A20FFF798FD0020FFF720
:1043F000BAFD2846FFF7B7FD0020FFF7B4FD6D1C9E
:10440000E8B2FFF7B0FD2B20FFF788FD0020FFF793
:10441000AAFD2046FFF7A7FD0020FFF7A4FD641CBE
:10442000E0B2FFF7A0FDBDE870402C2076E52DE955
:10443000F04104461D4616460F462A20FFF76EFD42
:104440000020FFF790FD2046FFF78DFD0020FFF7CD
:104450008AFD3046FFF787FD2B20FFF75FFD002028
:10446000FFF781FD3846FFF77EFD0020FFF77BFD5B
:104470002846FFF778FDBDE8F0412C204EE5F0B569
:10448000774A784E0021D4889388774F202506F507
:10449000966E00BF01EB810206EB420C491C0CF842
:1044A000005007EB820C0EEB82022CF81040C9B2D0
:1044B00022F810301429EDD3F0BD10B500242046A9
:1044C000FFF7DDFF641CE4B20A2CF8D310BD10B571
:1044D000FFF745FFFFF7F1FF61480178491C01F044
:1044E00003010170C907002902D04FF0140101E057
:1044F0004FF01001817002D04FF0080101E04FF041
:104500000A01C17010BD0B46554910B50978144613
:1045100031B1012906D0022912D0032909D116E0B0
:10452000194604E0C3F17F01CAB201461046FFF705
:1045300057FF200AFFF717FDE0B2BDE8104012E573
:10454000C3F19F01C0F17F00C9B2C0B2EFE7C0F173
:104550009F00C1B21846EAE7F0B5424A00EB80007E
:10456000C83202EB4006C83A02EB4002414F555CAC
:104570003E4A16F801C002EB80043B4AAC4502EB10
:10458000800232F811303A4A02EB800207EB8000D9
:1045900030F8117007D134F81100984203D132F885
:1045A0001100B84201D0012000E00020755424F829
:1045B000113022F81170F0BD0FB4F0B5C1B00C4647
:1045C0000546002649AA6846489903F095FE244806
:1045D0006A46C3880189878855E05B280AD05D2830
:1045E0000FD00D2813D00A2811D0142D0FD80A2C63
:1045F0000DD80EE012F801CCBCF15C0FF5D001260D
:1046000005E012F801CCBCF15C0FEED00026521C84
:1046100039E05C2805D150785B2801D05D2800D1B5
:10462000521CDFF840E005EB85000EEB400E12F85F
:1046300001CB0EF804C00EB18C4600E09C46DFF8BA
:1046400028E0142D0EEB800E2EF814C0DFF824C0E5
:104650000CEB800020F8147010D30025641C0BE0D4
:1046600042020020DC9800206C9A0020FC9B002075
:104670001C9F00208C9D0020E4B201E06D1CEDB277
:104680000A2C00D3002410780028A6D141B0F0BC39
:104690005DF814FB2DE9F05FFE484078002873D0E8
:1046A000FD4C00204FF0400A4FF0200E0427A4F5E7
:1046B000C86C002101EB81030CEB8302491C32F82A
:1046C000105009B20AEA55220EEA5516324305F097
:1046D00010052A43F14E04EB430506EB8303022643
:1046E00033F81030E34606EA5326C3F3001807EA0E
:1046F000533346EA080613431E432E541029D9DBD0
:10470000401C00B20A28D4DBE248007878B10128C6
:104710007DD002287CD0032836D113250026F1B2A3
:10472000E8B2FFF719FF002873D001275FE10024EA
:104730000026E1B2F0B2FFF70FFFE8B3012704E073
:10474000B9F1100F0DDA7F1C3FB206EB0709B9F182
:10475000100F06DAE1B209F0FF00FFF7FDFE0028B6
:10476000EED10F2000EB0410C3B2F119FF2000EBD3
:10477000C100C2B22007010EF006000EFFF757FE7F
:104780004FF0000800252CE040E0E81705EB5071E1
:1047900006EBE10000B2C24A00EB800002EB4003EE
:1047A000BC4A1B5D0A3208EB031321F00701D25CFF
:1047B0006B1A8021D94000E020E00A4202D00BEBC6
:1047C000800102E0B54901EB800131F814A04FEA05
:1047D0001A20FFF7C8FB0AF0FF00FFF7C4FB6D1CAF
:1047E0002DB2B5EBC70FD0DB08F101000FFA80F84E
:1047F000B8F1100FC6DBA9F1010006B2761C36B283
:10480000102E96DB641C24B20A2C91DB91E501E0AA
:1048100070E052E100260724E1B2F0B2FFF79CFEFF
:10482000F0B3012703E0002D09D47F1C3FB2E51B44
:1048300005D4E9B2F0B2FFF78FFE0028F3D10720CC
:1048400000EBC600C3B2C4F108003844EF2101EB0D
:104850000010C2B2F006010EC4F107000007000EFE
:10486000FFF7E5FD4FF0000800252DE0E81705EB08
:104870001071A4EB211021F00F016A1A884B06EB8E
:10488000860100B203EB41031B5CC2EB0313814AB8
:104890000A321A44D37B802222FA08F2134200E043
:1048A0001FE002D00BEB810102E07C4A02EB8101A8
:1048B00031F810904FEA1920FFF755FB09F0FF007F
:1048C000FFF751FB6D1C2DB2B5EB071FCEDB08F1D6
:1048D00001000FFA80F8B8F1080FC5DBE01B401C9F
:1048E00004B2641E24B2002C96DA761C36B2142E62
:1048F00091DB1EE509240F25E1B2E8B2FFF72CFE9B
:10490000F0B3012703E0002E09D47F1C3FB2EE1B59
:1049100005D4E1B2F0B2FFF71FFE0028F3D1C4F1D5
:104920000A01FF2000EB0110C3B2C5F110003844AA
:10493000F72101EBC000C2B2C4F109000007010E6B
:10494000C5F10F00C006000EFFF771FD4FF0000823
:10495000002631E0F01706EB5071A5EBE10000B244
:104960004F4B00EB800003EB4003C8F110021B5DCE
:1049700002EB0313474A0A321A4412F8012C00E0F2
:1049800027E021F00701711AC1F107038021D94006
:104990000A4202D00BEB800102E0404901EB8001AA
:1049A00031F814904FEA1920FFF7DDFA09F0FF0003
:1049B000FFF7D9FA761C36B2B6EBC70FCADB08F19F
:1049C00001000FFA80F8B8F1100FC1DBE81B401CA2
:1049D00005B26D1E2DB2002D8EDA641E24B2002C9D
:1049E00089DAA6E4B9F1080F0DDA7F1C3FB206EBB5
:1049F0000709B9F1080F06DA09F0FF01E8B2FFF77D
:104A0000ABFD0028EED1C5F114014FF0FF3000EBF3
:104A1000C101CBB2F11900EB0110C2B2C5F1130014
:104A2000C006010E3007000EFFF701FD4FF0000831
:104A300000242CE0E01704EB107106EB211021F0AC
:104A40000F01631A164A05EB850100B202EB410221
:104A5000C8F1070C125C03EB02130E4A0A329B5C8E
:104A6000802222FA0CF2134202D00BEB810102E009
:104A70000A4A02EB810131F810A04FEA1A20FFF731
:104A800072FA0AF0FF00FFF76EFA641C24B2B4EB6E
:104A9000071F07E042020020ACA000208C9D0020F0
:104AA000DC980020C6DB08F101000FFA80F8B8F1AD
:104AB000080FBDDBA9F1010006B2761C36B2082E44
:104AC000FFF62DAE6D1E2DB2002DBFF627AE30E4E1
:104AD0003248008870473148408870472F484188E5
:104AE000008801EB4102C2EBC11100EBC10070472D
:104AF0001FB50121084601F0A9FF4FF47A70ADF807
:104B00000800274827494FF080440068B0FBF1F0C7
:104B1000401EADF8040001A9204602F0AFF90121C2
:104B2000204602F08AFE01221146204602F064FC73
:104B30000121204602F04BFC00248DF801408DF845
:104B4000024001208DF803001C208DF8000068460B
:104B500000F04FFF1148448004801FBD10B50121B3
:104B60008C07204602F05DFE002816D00121204669
:104B700002F054FE0948018840F2E732914205D321
:104B8000002101804188491C418002E00188491CC4
:104B90000180BDE81040FCF71BBB10BD4C1200208B
:104BA000A013002040420F0070B58AB001231022EC
:104BB00003218348FCF72CFF0123042203218148B1
:104BC000FCF726FF00217E48FCF73DFF0121080588
:104BD00001F033FF0121084601F02FFF4EF660205F
:104BE000ADF8200078487949794E0068B0FBF1F0C3
:104BF000401EADF81C0007A9304602F03FF9012124
:104C0000304602F01AFE01221146304602F0F4FB53
:104C100001220221304602F0EFFB0121304602F072
:104C2000D6FB0021304602F0D0FD6020ADF8040034
:104C300009200024ADF80A000125ADF80C40ADF8BC
:104C4000065001A9304602F052F90121042001F07A
:104C5000C2FD022005908DF8184010208DF8190033
:104C60008DF81A5005A801F041FC0121304602F0F0
:104C700064FC8DF8014003208DF802008DF803508C
:104C800019208DF80000684600F0B3FE8DF8014051
:104C900004208DF802008DF8035007208DF80000E5
:104CA000684600F0A6FE0AB070BD4A4880687047AA
:104CB0004848806800EB800040003A21B0FBF1F0EA
:104CC000704710B50022444C1046114654F821306C
:104CD00083B1401C491CC9B2C0B21A440529F5D39E
:104CE000002806D002EB820149003A225043B1FB72
:104CF000F0F010BD002010BD364800687047354800
:104D00004068704710B5022001F040FC00282ED00A
:104D10002C48FCF790FE2E492E4C012808460AD05C
:104D200002F071FD2061E168002241B1814208D9A1
:104D30000120A0600CE002F066FDE06012E0A260DD
:104D400006E0401A2261C4E902026068401C60600B
:104D500020680521B0FBF1F201FB12001E49A26898
:104D600041F82020BDE81040022001F01DBC10BD1C
:104D700010B5174C0121204602F053FD70B10121FE
:104D80000F48FCF760FE134900200861C8600868FE
:104D9000401C08600121204602F04FFD0221204600
:104DA00002F03FFD002809D000210548FCF74BFE2A
:104DB0002046BDE81040022102F03FBD10BD0000BA
:104DC0008C8E0008948E0008A013002040420F0033
:104DD000005001405012002074A1002070B50D4613
:104DE000064600EB8600CB4900EBC60001EB8004D1
:104DF00086B0E1692069084340F00100012101F01B
:104E00001CFE052E0DD2DFE806F003080808080096
:104E10000121606801F011FE03E00121606801F0EA
:104E200015FE18208DF81300A089ADF8100003209E
:104E30008DF8120004A9A06801F015FC04208DF87B
:104E40001300208BADF8100004A9606901F00BFC81
:104E500000950025ADF80450ADF808500C20ADF8D1
:104E60000650ADF80C50ADF80A006946206802F013
:104E700017FD0121206802F086FD94F820008DF8CE
:104E8000140001208DF815008DF816008DF817001C
:104E900005A800F0AEFD012240F22551206802F085
:104EA0007CFDA584E5844FF47A70208506EB4600EE
:104EB0009949C0EBC61001EBC000E06206B070BDBE
:104EC00070B50D4600EB800101EBC0009149012255
:104ED00001EB800440F22551206802F05EFD25635D
:104EE00070BD00EB800101EBC0008A4901EB80003E
:104EF000818CC08C814201D1012070470020704715
:104F000000EB800101EBC000824901EB8001C88CFD
:104F10008A8C801A00B2002802DA098D084400B297
:104F200080B2704770B5064600EB8600794900EB09
:104F3000C60001EB800551F8200005F12404802112
:104F400002F0D8FD012807D18021286802F0D9FDA0
:104F50003046FFF7C6FF08B1002070BD2188A06869
:104F6000415C286802F065FD3046FFF7C9FF2188E3
:104F7000491CB1FBF0F200FB12102080012070BD33
:104F80002DE9F0410E46074600EB8700614900EB32
:104F9000C70001EB800505F124044021286802F0D8
:104FA000A9FD40B14021286802F0ABFD31462868D8
:104FB00002F03FFD19E06088A288411CB1FBF2F3CA
:104FC00002FB13112288914205D13846FFF7AAFF50
:104FD0000020BDE8F081A1680E546088A188401CC3
:104FE000B0FBF1F201FB120060803846FFF79AFF38
:104FF0000120EEE770B50E4600EB8001454D01EB58
:10500000C00400BF55F82400802102F073FD002881
:10501000F8D055F824003146BDE8704002F009BDD3
:105020000FB430B58BB0054610AA68460F9903F04F
:1050300063F96C4603E02846641CFFF7DBFF217828
:105040000029F8D10BB030BC5DF814FB00EB8001F7
:1050500001EBC0002F4901EB8000808C704700EB12
:10506000800101EBC0002B4901EB8000C08C704730
:1050700000EB800101EBC000264901EB8000C18CF0
:10508000808C081A80B2704770B5044600EB84002B
:10509000204900EBC40040F2277651F820503146F9
:1050A000284602F031FD002807D03146284602F09C
:1050B0004AFD2046BDE8704034E770BD70B500EB96
:1050C000800101EBC000134940F2255601EB80043A
:1050D00031462568284602F017FD00280ED03146DB
:1050E000284602F030FD206B002807D0284602F049
:1050F000A4FC216BBDE87040C0B2084770BD002021
:10510000DCE70120DAE70220D8E70320D6E7042015
:10511000D4E700006412002088A1002008B5012116
:10512000202001F093FCFD491E200880FF20091F6C
:105130000880FA49012018390880F84A00211C3AF1
:105140001180111F0880F5492C3908808DF8010065
:1051500003218DF802108DF8030037208DF8000030
:10516000684600F046FC08BDF8B54FF42040ADF8A5
:10517000000003248DF802401820E94E8DF803004A
:105180006946304601F06FFA4FF48040ADF80000F8
:105190008DF8024048208DF803006946304601F042
:1051A00062FAB514ADF800508DF8024004208DF875
:1051B00003006946304601F056FA28208DF80300B6
:1051C000A810ADF800006946D64801F04CFA29460F
:1051D000304601F0B6FAF8BD30B5044685B001217D
:1051E000082001F02AFC0121880301F02FFCFFF7C1
:1051F000BBFF684601F0FCFC0220ADF80600012070
:10520000ADF808008020ADF80E004FF48270ADF8C4
:1052100002001820C44DADF80C00284601F05CFCDB
:105220000021284601F0F9FC6946284601F078FC87
:105230000121284601F029FD0021284601F03CFD0E
:10524000684601F0D5FC0121284601F0E6FCFFF795
:1052500065FF002C02D1B5490320087005B030BDB0
:10526000B248007B70477047F0B5B048012514275D
:10527000417815262C4601B94470AD4991F800C01B
:105280000022A1F10C03BC4502D18F7BB74204D0B0
:10529000C17A491CC172002502E0067B012E04D0B0
:1052A000C17A322939D96DB337E0046A44614D7B44
:1052B0008E782D0405EB06254E7835440562CD78B1
:1052C0001D800D795D804D798E7905EB06259D80D9
:1052D000CD790E7A05EB0625DD804D7A8E7A05EBC9
:1052E00006251D81CD7A097B05EB01215981016AD3
:1052F000036A614019408161016A8C43C461C272D2
:105300000120F0BD02621A805A809A80DA801A81E8
:105310005A818261C2614473C2728169490505D5AF
:10532000417B4A1C4273042900D944730020F0BD1C
:1053300070B57E4C7C48A17881B3012932D000251C
:10534000022936D01123C91E91FBF3F203FB12127E
:1053500012F0FF02227142D0A179C90702EB82014B
:1053600049D0744A02EB41016279114411F80A1CD8
:1053700001F07BFCA078401CC0B2A07058280CD96A
:10538000A0790321B0B3012837D002283AD00328EE
:1053900038D002D9A570A571E57170BDFFE74FF057
:1053A00001010CE0A179C90701D0522107E0512188
:1053B00005E0E178FF2908D039B1A572812101F01B
:1053C00054FCA078401CA070E7E7A570A07A411CAF
:1053D000A1723228E1D9E5712573A572DDE791FB51
:1053E000F3F1A279520800D1491DC9B2617141F0AF
:1053F0008001BDE701E0504AB4E7A570E171401CAF
:10540000A071CAE7A570E171411CA1710328C4D93C
:10541000A571C2E72DE9F041444C434FA07818B183
:10542000384601F024FCE070A178C1B1012918D000
:105430003F4E002502291AD0A07B421EA27336D30C
:105440008121384601F011FCA078042803D33218DA
:10545000E17802F8041C401CA070BDE8F081012135
:1054600000E04221384601F000FCA078F3E7E07844
:10547000FF2809D040B1A5728121384601F0F5FB23
:10548000E078462809D00CE0A570A07A411CA172F2
:105490003228E2D9E571A572DFE7012060720F20A2
:1054A000A073A078401CA0703570B573D5E70429AF
:1054B00003D33144E07801F8040CA5702078E07142
:1054C000CBE72DE9F041154C01212C3C204602F0A0
:1054D000A5F90121204602F0B0F9144C60780028AB
:1054E000BBD0E07901250026062854D2DFE800F081
:1054F0000306424A4242E5712672AEE7207ADFF89F
:1055000020804FF4805720B93946404601F005F914
:10551000A0B1207A012814D018E000002C1400401B
:10552000000C0140001401400038004068130020C6
:105530001CB50020DC980020ACA00020FFF76AFF1B
:105540000FE03946404601F0E8F840B12682608A13
:1055500040F28A21884207D2401C60827DE7FFF733
:10556000E7FE6682257378E740F289218842C4D934
:10557000267372E7208A411C21821E28BDD926820B
:10558000257206E0208A411C21821E28B5D9268278
:105590002672E57161E7E6715FE7A3490020487074
:1055A0007047A1490120487070472DE9F843002653
:1055B0003546B146B0469DA231463046FEF7FCFF67
:1055C0009EA201210020FEF7F7FFA0A202210020E9
:1055D000FEF7F2FF944C00BFFFF77AFAB042FBD01F
:1055E0001420B6FBF0F100FB11600028F4D1A7698C
:1055F000FFF73AFE132D71D2DFE805F00A16202AD4
:10560000343E48525C66717B858F99A3ADB7C1006B
:10561000A069C00607D5FEF750FF00218FA20846FB
:10562000FEF7CAFF0125BBE0A069C007FBD000213F
:105630008DA20846FEF7C0FF0225B1E0A0698007F1
:10564000F1D500218CA20846FEF7B6FF0325A7E09E
:10565000A0694007E7D500218BA20846FEF7ACFF02
:1056600004259DE0A0690007DDD500218BA2084636
:10567000FEF7A2FF052593E0A0698006D3D500219F
:105680008AA20846FEF798FF062589E0A069C004B3
:10569000C9D5002189A20846FEF78EFF07257FE0C5
:1056A000A06980047CD5002188A20846FEF784FF0B
:1056B000082575E0A069400472D5002187A208463C
:1056C000FEF77AFF09256BE0A069000468D5002188
:1056D00086A20846FEF770FF0A2561E05EE0A06939
:1056E000C0055DD5002185A20846FEF765FF0B25A4
:1056F00056E0A069800553D5002184A20846FEF734
:105700005BFF0C254CE0A069400549D5002184A22F
:105710000846FEF751FF0D2542E0A069C0033FD5C2
:10572000002183A20846FEF747FF0E2538E0A06956
:10573000800335D5002182A20846FEF73DFF0F25E4
:105740002EE0A06940032BD5002181A20846FEF778
:1057500033FF102524E0A069000321D5002180A299
:105760000846FEF729FF11251AE0A069C00217D5E7
:1057700000217FA20846FEF71FFF122510E0A06956
:1057800080020DD500217EA20846FEF715FF0021FC
:105790007EA20846FEF710FF132501E04FF0010836
:1057A000A069B84205D0A06918B109F101001FFA3B
:1057B00080F97B4FB7F902000090B7F9003079A269
:1057C00003210020FEF7F8FEB7F9043079A2042186
:1057D0000020FEF7F1FEB7F9063078A2052100207F
:1057E000FEF7EAFEB7F9083076A206210020FEF7A0
:1057F000E3FEB7F90A3075A207210020FEF7DCFEB0
:105800004B4674A208210020FEF7D6FE334675A24F
:1058100009210F20FEF7D0FEFEF73CFFB8F1000F84
:105820003FF4DAAEBDE8F8836813002058424F58C1
:1058300020434F4E54524F4C4C4552007465737484
:10584000696E672070726F6772616D0050524553C8
:1058500053205B53544152545D0000005052455355
:1058600053205B55505D00005052455353205B441C
:105870004F574E5D202020005052455353205B4C23
:105880004546545D202020005052455353205B5222
:10589000494748545D2020200000000050524553E5
:1058A00053205B4241434B5D202020005052455322
:1058B00053205B415D2020202020000050524553A2
:1058C00053205B425D2020202000000050524553B1
:1058D00053205B585D20202020000000505245538B
:1058E00053205B595D20202020200000505245535A
:1058F00053205B4C42205D20202000005052455335
:1059000053205B5242205D2020200000505245531E
:1059100053205B58424F5820205D2020200000007B
:105920005B4C20425554544F4E20315D0000000026
:105930005B4C20425554544F4E20325D0000000015
:105940005B4C20425554544F4E20335D0000000004
:105950005B5220425554544F4E20315D00000000F0
:105960005B5220425554544F4E20325D00000000DF
:105970005B5220425554544F4E20335D00000000CE
:105980004B45592054455354204F4B00707265735A
:1059900073205B4241434B5D2065786974000000D1
:1059A00010B500204C543A25336C642052543A25EB
:1059B000336C64004C583A25356C64004C593A25D8
:1059C000356C640052583A25356C640052593A25BA
:1059D000356C640070726573735F636E743A25335F
:1059E0006400000025640000284908432849086035
:1059F000704770B50F23C47801780122F4B1244CAC
:105A00002468457804F4E064C4F5E064240AC4F131
:105A10000406E3408478B5401C402C4301F1E021AA
:105A2000230181F80034007800F01F018A4040090A
:105A3000800000F1E020C0F8002170BD01F01F00DF
:105A400082404809800000F1E020C0F8802170BD4C
:105A5000104A114001430E48001F016070470C4A74
:105A6000121D0029116801D0014300E0814311603B
:105A700070474FF0E0210428086903D020F00400AB
:105A80000861704740F00400FAE700000000FA05E2
:105A90000CED00E080FFFF1FC54910B5884202D120
:105AA000012144150AE0C349884202D101210415AD
:105AB00004E0C14988420AD10121CC03204600F00C
:105AC000CEFF2046BDE81040002100F0C8BF10BD49
:105AD00010B54268B94B0C791A400B6842EA0422AF
