:020000040800F2
:1000000088450020B5430008BD430008BF430008F1
:10001000C1430008C3430008C543000800000000B6
:10002000000000000000000000000000C7430008BE
:10003000C943000800000000CB430008CD4300087E
:10004000CF430008CF430008CF430008CF43000848
:10005000CF430008CF430008CF430008CF43000838
:10006000CF430008CF430008CF430008CF43000828
:10007000CF430008CF430008CF430008CF43000818
:10008000CF430008CF430008CF430008CF43000808
:10009000CF430008CF430008CF430008CF430008F8
:1000A000CF430008CF430008CF430008CF430008E8
:1000B0002B220008CF430008CF430008CF4300089D
:1000C000CF430008CF430008CF430008CF430008C8
:1000D000CF4300086D02000893020008B90200082F
:1000E000CF430008CF430008CF430008CF430008A8
:1000F000CF430008CF430008CF430008CF43000898
:10010000CF430008CF430008CF430008CF43000887
:10011000DF02000805030008CF430008CF430008B2
:10012000CF430008CF430008CF430008CF43000867
:10013000DFF80CD004F062FB004800477B010008A8
:10014000884500204FF07300A0F101000028FBD18A
:100150007047000008B50121082002F0EAFF48209E
:100160008DF8030003208DF80200C020ADF80000D8
:1001700069466E4802F0F3FD08BD02F031F84FF415
:10018000FC634FF478424FF6E071012001F021FC4E
:1001900001F090F800F065FF02F03AF9FFF7DAFF9E
:1001A00000227821624801F070F901210E2002F04E
:1001B00051F94FF47A7001F0BAF900210E2002F0E3
:1001C00049F95B4C594DA41E02F004F8218888427D
:1001D000FAD001F0FFFF0A21B0FBF1F2208001FB11
:1001E000120008B900F018FE20886421B0FBF1F27B
:1001F00001FB120028B901F0F0FF0146208800F051
:10020000E2FE20884FF4FA71B0FBF1F201FB12011B
:100210000029D9D1C8B10E2002F01CF901F0D5FC9B
:10022000002144A2084601F04FFD01F0D6FF03462D
:1002300044A20121002001F047FD01F092FD402180
:10024000284602F0E6FD10B105E00121E3E7642154
:10025000022001F004F98021284602F0DAFD00288E
:10026000B2D16421032001F0FAF8ADE710B5384CA3
:1002700040F22551204603F0C3FF002808D0204655
:1002800003F057FFC1B2BDE81040002002F077B87C
:1002900010BD10B52F4C40F22551204603F0B0FFA1
:1002A000002808D0204603F044FFC1B2BDE810404A
:1002B000012002F064B810BD10B5274C40F2255162
:1002C000204603F09DFF002808D0204603F031FFB0
:1002D000C1B2BDE81040022002F051B810BD10B507
:1002E0001E4C40F22551204603F08AFF002808D01A
:1002F000204603F01EFFC1B2BDE81040032002F00B
:100300003EB810BD10B5164C40F22551204603F002
:1003100077FF002808D0204603F00BFFC1B2BDE8EC
:100320001040042002F02BB810BD0000000C01406A
:100330000200002048454C4C4F5F574F524C44211F
:10034000000000005365636F6E64733A20256400FB
:10035000003801400044004000480040004C00408C
:10036000005000400178427841EA02218278C0784A
:1003700041EA024141EA006070470178407841EA71
:10038000002000B2704739B1012907D0022908D0F6
:10039000032909D000207047C0B27047C0F307207E
:1003A0007047C0F307407047000E704719B101292C
:1003B00003D000207047C0B27047000A70470FB4E6
:1003C00070B586B06B46009100218DF809108DF84C
:1003D00008109DF8302001918DF80A200CAC05E042
:1003E00065185E186D78491CF572C9B28A42F7D853
:1003F0001422194603F0F0FF06B070BC5DF814FB40
:10040000F8B505461746062060F30702AA200C46F9
:1004100060F30F221E4600213846FFF7B4FF60F359
:10042000174201213846FFF7AEFF60F31F62022139
:100430003846FFF7A8FF60F3070303213846FFF7AC
:10044000A2FF60F30F2366F317438DF80070214677
:100450002846FFF7B4FFF8BDF8B50646072060F35D
:100460000704BB200D4660F30F241F4600211046F1
:10047000FFF79CFF60F3174401211046FFF796FF3A
:10048000224660F31F6200213846FFF77CFF60F3CD
:10049000070301213846FFF776FF60F30F2302219F
:1004A0003846FFF770FF60F3174303213846FFF724
:1004B0006AFF60F31F638DF8007029463046FFF72E
:1004C0007EFFF8BDF8B50646032060F3070444201C
:1004D0000D4660F30F2400211046FFF767FF60F31D
:1004E000174401211046FFF761FF224660F31F62A7
:1004F0008DF8007029463046FFF761FFF8BD38B52A
:10050000012565F30702EE2565F30F228DF8004003
:10051000FFF755FF38BDF8B505461646052060F3D0
:10052000070222200C4660F30F2200213046FFF71D
:100530002AFF60F3174201213046FFF724FF60F3E2
:100540001F6202213046FFF71EFF60F307030321FD
:100550003046FFF718FF60F30F238DF80060214647
:100560002846FFF72CFFF8BDF8B5054616460520CE
:1005700060F3070255200C4660F30F22002130463D
:10058000FFF701FF60F3174201213046FFF7FBFE42
:1005900060F31F6202213046FFF7F5FE60F30703A8
:1005A00003213046FFF7EFFE60F30F238DF8006064
:1005B00021462846FFF703FFF8BDF8B50546164665
:1005C000052060F3070266200C4660F30F2200212D
:1005D0003046FFF7D8FE60F3174201213046FFF79F
:1005E000D2FE60F31F6202213046FFF7CCFE60F3BB
:1005F000070303213046FFF7C6FE60F30F238DF893
:10060000006021462846FFF7DAFEF8BDF8B505463A
:100610001646052060F3070277200C4660F30F2290
:1006200000213046FFF7AFFE60F31742012130464C
:10063000FFF7A9FE60F31F6202213046FFF7A3FE19
:1006400060F3070303213046FFF79DFE60F30F239D
:100650008DF8006021462846FFF7B1FEF8BDF8B5D9
:1006600005461646052060F3070288200C4660F315
:100670000F2200213046FFF786FE60F3174201216A
:100680003046FFF780FE60F31F6202213046FFF71D
:100690007AFE60F3070303213046FFF774FE60F330
:1006A0000F238DF8006021462846FFF788FEF8BD2D
:1006B0000FB400201CB5694601909DF81B300090D6
:1006C00004AA442B2AD0AA2B16D0BB2B23D101ABD2
:1006D0001418247B1C54401CC0B20228F8D30020FC
:1006E00013189B7B0B54401CC0B20428F8D301A8FC
:1006F000FFF743FE684619E013181B7B0B54401CA0
:10070000C0B20428F8D30846FFF72CFEFF4A9DF834
:100710002010506211701CBC5DF814FB13181B7B79
:100720000B54401CC0B20428F8D30846FFF71AFE49
:10073000F1E70FB408B59DF81300222810D100206E
:10074000694602AA13181B7B0B54401CC0B2042834
:10075000F8D30846FFF706FE9DF81310222910D0A3
:100760009DF81300EA2809D1E84A012102983432A1
:1007700002EB8000A0F58050C0F8401D01B05DF88C
:1007800014FBE24A02992C3202EB8101A1F580515F
:10079000C1F8400DF2E738B5012464F30702DD2407
:1007A0008DF8001064F30F22A021FFF708FE38BD7A
:1007B000F8B505461746072060F30702EE2060F300
:1007C0000F228C4688B21C460021FFF7EFFD60F334
:1007D00017421FFA8CF00121FFF7E8FD60F31F625A
:1007E000B8B20021FFF7E2FD60F30703B8B20121C0
:1007F000FFF7DCFD60F30F23A0B20021FFF7D6FD69
:1008000060F31743A0B20121FFF7D0FD60F31F632F
:100810008DF80060A0212846FFF7D1FDF8BD0FB488
:100820000EB59DF81B00DD2826D0EE2824D100202F
:100830006A4604A90B181B7B1354401CC0B2022843
:10084000F8D3002001AA0B189B7B1354401CC0B2A4
:100850000228F8D3002002AA0B181B7C1354401C5A
:10086000C0B20228F8D36846FFF787FD01A8FFF75A
:1008700084FD02A8FFF781FD03B080E70FB40020DC
:100880000EB56A4604A90B181B7B1354401CC0B25A
:100890000228F8D3002001AA0B189B7B1354401C9C
:1008A000C0B20228F8D3002002AA0B181B7C1354F4
:1008B000401CC0B20228F8D39DF81B00934A1128AF
:1008C0000ED03328D8D16846FFF757FD908201A893
:1008D000FFF753FDD08202A8FFF74FFD1083CBE74F
:1008E0006846FFF74AFDD08101A8FFF746FD108258
:1008F00002A8FFF742FD5082BEE70FB4002008B502
:10090000694602AA1318DB7A0B54401CC0B20228B5
:10091000F8D30846FFF731FD7C4948822EE70FB433
:1009200000200EB56A4604A90B18DB7A1354401C4C
:10093000C0B20228F8D3002001AA0B185B7B135425
:10094000401CC0B20228F8D3002002AA0B18DB7B9F
:100950001354401CC0B20228F8D36846FFF70DFDBF
:100960006A4AD08101A8FFF708FD108202A8FFF7AC
:1009700004FD508280E7F8B505461746072060F36E
:100980000702112060F30F228C4688B21C4600211A
:10099000FFF70CFD60F317421FFA8CF00121FFF7FF
:1009A00005FD60F31F62B8B20021FFF7FFFC60F3A2
:1009B0000703B8B20121FFF7F9FC60F30F23A0B2DF
:1009C0000021FFF7F3FC60F31743A0B20121FFF70A
:1009D000EDFC60F31F638DF80060A0212846FFF74F
:1009E000EEFCF8BD38B505460B46022060F3070261
:1009F00000211846FFF7DAFC60F30F2201211846A8
:100A0000FFF7D4FC60F317428DF80040A12128467F
:100A1000FFF7D5FC38BDF8B51E4605460B46144613
:100A2000062060F3070200211846FFF7BFFC60F3C1
:100A30000F2201211846FFF7B9FC60F31742A0B25C
:100A40000021FFF7B3FC60F31F62A0B20121FFF7A2
:100A5000ADFC60F3070300213046FFF7A7FC60F30D
:100A60000F2301213046FFF7A1FC60F317438DF8F7
:100A70000060A2212846FFF7A2FCF8BDF8B50546A4
:100A80001746072060F30702332060F30F228C46DD
:100A900088B21C460021FFF789FC60F317421FFA59
:100AA0008CF00121FFF782FC60F31F62B8B20021D5
:100AB000FFF77CFC60F30703B8B20121FFF776FC77
:100AC00060F30F23A0B20021FFF770FC60F317431F
:100AD000A0B20121FFF76AFC60F31F638DF800608C
:100AE000A0212846FFF76BFCF8BD70B58AB001461F
:100AF0004FF47A7505A8FFF775FF142205A968461B
:100B000003F06AFC024E6946304603E01000002004
:100B10000064004001F08AFE04462146304601F0A0
:100B2000D7FE012802D06D1EADB2F6D20AB070BD5C
:100B300070B5134680B20A468AB001464FF47A7502
:100B400005A8FFF768FF142205A9684603F044FCD6
:100B5000F74E6946304601F069FE044621463046AC
:100B600001F0B6FE0128E1D06D1EADB2F6D2DDE790
:100B700058B51446032666F30702222666F30F22B1
:100B800061F3174264F31F628DF80050D021FFF724
:100B900016FC58BD38B5022565F30702332565F309
:100BA0000F2261F317428DF80040D021FFF707FCB8
:100BB00038BD70B5160EDF48049D99B2112E0DD0C8
:100BC000222E0DD01C0CEBB25A08442E0DD0452E0F
:100BD00003D101844484C272037370BD418370BD2C
:100BE000D54AD9B2180A505470BD8183C483427269
:100BF000837270BDCF49100EC8717047CD49100E79
:100C00000872704738B5042161F30702C949896A3F
:100C10008DF800400D0E65F30F220D0C65F31742A1
:100C20000D0A61F3070365F31F62D121FFF7C7FBCC
:100C300038BD0FB4DDF80B009DF80E1000BA20F09F
:100C4000FF000843BB49886204B0704770470FB487
:100C5000B94910B5B74C10311422A07800EB8000D0
:100C600001EB800002A903F0B7FBA078401CC0B2E2
:100C7000A070FF2801D10020A070E078401CE07037
:100C800010BC5DF814FBF0B5AA4C85B04FF47A7532
:100C9000E6782EB36778A84907EB8700103101EB9F
:100CA00080011422684603F097FB7F1CF8B2607045
:100CB000FF2801D100206070761EE6709C4E6946C8
:100CC000304601F0B3FD04462146304601F000FEF7
:100CD000012802D06D1EADB2F6D2012005B0F0BDE4
:100CE0000020FBE70FB4954910B5924C14226079AF
:100CF00000EB800001EB800002A903F06DFB60793E
:100D0000401CC0B26071802801D100206071A079C0
:100D1000401CA071B4E70FB410B586B00898A028A5
:100D20001DD0A12823D0A22829D0C0F303100B285E
:100D30002DD00898C02810D0D02830D0D12836D057
:100D40007C4CC1283BD0C22807D1142208A9684690
:100D500003F042FB9DF80B00207206B090E70C9860
:100D600008AC009094E80F00FFF788FDF5E70C98B9
:100D700008AC009094E80F00FFF7BFFDEDE70C987A
:100D800008AC009094E80F00FFF7C9FDE5E70C9868
:100D900008AC009094E80F00FFF7CBFCDDE70C985F
:100DA00008AC009094E80F00FFF703FFD5E70C981C
:100DB00008AC009094E80F00FFF73BFFCDE714224A
:100DC00008A9684603F008FB9DF80B00E071C4E732
:100DD00070B5584C86B0A579E5B12679574906EB30
:100DE000860001EB8001142201A803F0F5FA761CBD
:100DF000F0B22071802801D1002020716D1EA571F4
:100E0000059801AE009096E80F00FFF784FF0120DF
:100E100006B070BD0020FBE72DE91040FFF733FF5F
:100E20000028FBD110BD10B5FFF7D2FF0028FBD181
:100E300010BD00B587B001AA00213D4801F086FD34
:100E40009DF80C00002807D105980DF1040C0090C6
:100E50009CE80F00FFF75FFF07B000BD00B5134629
:100E60000A468BB0014606A8FFF7CAFA142206A963
:100E700001A803F0B1FA05980DF1040C00909CE86C
:100E80000F00FFF7E4FE0BB000BD00B513460A46A5
:100E90008BB0014606A8FFF7DFFA142206A901A8C5
:100EA00003F09AFA05980DF1040C00909CE80F00ED
:100EB000FFF7CDFEE7E700B50A468BB0014606A86E
:100EC000FFF700FB142206A901A803F085FA059894
:100ED0000DF1040C00909CE80F00FFF7B8FED2E77C
:100EE00000B58BB0014606A8FFF709FB142206A93E
:100EF00001A803F071FA05980DF1040C00909CE82C
:100F00000F00FFF7A4FEBEE700B58BB006A8FFF701
:100F100042FC142206A901A803F05EFA05980DF11F
:100F2000040C00909CE80F00FFF791FEABE7000077
:100F30000064004010000020F0060020EC1A0020A1
:100F400000B513460A468BB0014606A8FFF730FCF1
:100F5000142206A901A803F03FFA05980DF1040C2C
:100F600000909CE80F00FFF772FE8CE700B5FF21B0
:100F700001EA40008BB040F0010106A8FFF70AFE2D
:100F8000142206A901A803F027FA05980DF1040C14
:100F900000909CE80F00FFF75AFE74E700B50A4680
:100FA0008BB0014606A8FFF7E3FD142206A901A8AD
:100FB00003F012FA05980DF1040C00909CE80F0064
:100FC000FFF745FE5FE720B5022565F3070260F3F2
:100FD0000F228CB061F317428DF80040AB2106A8B8
:100FE000FFF7EDF9142206A901A803F0F5F9059819
:100FF00001AD009095E80F00FFF729FE0CB020BD71
:1010000038B50121042002F094F84FF40060ADF8E7
:10101000000048208DF803009F4D03248DF8024006
:101020006946284601F09BFEA814ADF80000182080
:101030008DF803008DF802406946284601F08FFEC6
:1010400038BD08B514208DF8000000208DF801008F
:101050008DF8020001208DF80300684601F051FA76
:1010600008BD2DE9F04387B0FFF7CAFFFFF7E9FF9E
:101070000121084602F05DF80121042002F059F830
:101080000121480602F05EF8844E304601F08CFAE9
:1010900004A801F071FB00248DF8164001258DF89D
:1010A00017508DF8124002278DF813408DF81470F8
:1010B0004FF0060906948DF81550ADF8109004A96C
:1010C000304601F084FA01220221304601F022FD6F
:1010D0004FF4A2508DF80A40ADF800004FF6FF76AD
:1010E0008DF80B408DF80C50ADF80460ADF802405F
:1010F000ADF80640ADF808408DF80D50684601F097
:10110000DAFA4FF4B0508DF80A50ADF800004FF6FF
:101110001F688DF80B408DF80C50ADF80480ADF8C9
:101120000240ADF80640ADF808408DF80D50684615
:1011300001F0C1FA4FF4C0508DF80A70ADF800000C
:101140008DF80B408DF80C50ADF80480ADF80240DE
:10115000ADF80640ADF808408DF80D50684601F036
:10116000AAFA03208DF80A004FF4D050ADF8000021
:101170004FF6FF60ADF804008DF80B408DF80C5071
:10118000ADF80240ADF80640ADF808408DF80D50BE
:10119000684601F090FA04208DF80A004FF4D1500F
:1011A000ADF800008DF80B408DF80C50ADF80460E0
:1011B000ADF80240ADF80640ADF808408DF80D508E
:1011C000684601F078FA05208DF80A004FF4C15006
:1011D000ADF800008DF80B408DF80C50ADF80460B0
:1011E000ADF80240ADF80640ADF808408DF80D505E
:1011F000684601F060FA4FF4C2508DF80A90ADF8DD
:1012000000008DF80B408DF80C50ADF80460ADF87F
:101210000240ADF80640ADF808408DF80D50684624
:1012200001F049FA07B0BDE8F0830FB41D4910B5CD
:101230001B4C1422607800EB800001EB800002A9B7
:1012400003F0CAF86078401CC0B26070FF2801D17A
:10125000002060706068401C606010BC5DF814FB8A
:1012600070B50F4C6568A5B126780E4906EB86006F
:1012700001EB800114220C4803F0AEF8761CF0B2AA
:101280002070FF2801D1002020706D1E01206560B4
:1012900070BD002070BD00000008014000640040E7
:1012A0004C000020EC240020D83800200021844885
:1012B00002F00FBEF0B589B00121082001F039FF1E
:1012C00018208DF81F0003208DF81E000124ADF8B2
:1012D0001C402146022001F035FF0121084601F0A3
:1012E00028FF2002ADF8160076480025ADF8125010
:1012F00000687549754EB0FBF1F0401EADF8100066
:1013000070896F4FADF8140004A9384602F032F925
:101310006020ADF80850ADF80000B078ADF80600D8
:10132000ADF802400121384602F083FC0121384625
:1013300002F0C9FB6946384602F0C6F907A96448BD
:1013400001F00DFDFFF7B2FF09B0F0BD5F48418924
:1013500041B1807841436420B1FBF0F081B258483C
:1013600002F0B7BDA2E718B1421C01D00C2801DD84
:1013700000207047574A32F8100000E04008491E2C
:10138000C9B2FBD2704751494881010002D04C4894
:1013900002F099BD8AE738B54C4C21786078084353
:1013A00018D02089401E0004000C208111D121B1E9
:1013B000207020B1FFF7CAFF03E00120F8E7FFF734
:1013C00075FFE08820812078002802D16078401ED7
:1013D000607038BDE0780028FBD0A189606900EB1F
:1013E00041000088ADF800009DF90000401C02D1CA
:1013F000E070FFF75BFF208A10B1401E208238BDED
:10140000E0892082618A89B1207930B10020207181
:1014100028B12182FFF74AFF03E00120F7E7FFF739
:1014200095FF608A10B120790028E8D1A089401C7E
:1014300080B2A081616901EB40000088ADF8000036
:101440009DF801109DF90000FFF78DFFFFF79BFF4E
:10145000BDE838407AE71D490020C870704710B5D4
:1014600000280BD0002909D0184C60702181E18040
:1014700001202070FFF76AFF0020E07010BD642893
:1014800000D9642011498870704770B5002815D0C4
:101490000E4B002401251C705C70DD709C81D9818D
:1014A00019825A821C715861417890F90000FFF747
:1014B0005AFFFFF768FFBDE8704047E770BD0000C6
:1014C00000040040DC06002040420F0054000020D1
:1014D000000C0140745200082C4A10B5117819B163
:1014E0000A21B0FBF1F415E000EBC00101234FF03D
:1014F000E020137041610021816103610369DC0711
:1015000001D0DB03FAD501618161117010BD00BF0C
:10151000FEF718FE641EFBD210BD10B55FF000048C
:10152000FEF710FE641CE4B2642CF9D310BD2DE963
:10153000F041164A0446107820BB4FF0010C82F8A7
:1015400000C04FF47A7700254FF0E02013E03946D1
:101550008C4200D8214642F228334B4343618561D7
:10156000C0F810C00369DE0701D0DB03FAD50561BE
:101570008561611A8CB2002CE9D11570BDE8F0814B
:10158000FFF7CBFF641EA4B2FAD2F7E76C0000208D
:10159000F0B587B00121042001F0CBFD0121082026
:1015A00001F0C7FD0121202001F0C3FD0121084603
:1015B00001F0BFFD0121C80301F0C4FD0121FC4879
:1015C00001F05CFC8020ADF800001025F94F8DF88B
:1015D000035001248DF802406946384601F0BFFBF4
:1015E0004020ADF800008DF803508DF802406946A8
:1015F000384601F0B4FB3820ADF8000018208DF813
:10160000030003268DF802606946EB4801F0A7FB52
:101610002020ADF800008DF803508DF80260694677
:10162000384601F09CFB0020ADF804004FF48271B5
:10163000ADF80610ADF808000221ADF80A10ADF8BB
:101640000C400902ADF80E100821ADF81010DB4C6B
:10165000ADF8120001A9204601F0DEFD012120466F
:1016600001F057FE0021204601F0A2FE0021204695
:1016700001F087FE07B0F0BD70B5CE4D06462021C3
:10168000284601F0DCFB4021284601F0D8FBCB4C7A
:101690000221204601F0A9FE0028F9D0314620465B
:1016A00001F05FFE0121204601F09FFE0028F9D0E5
:1016B000204601F058FE2846BDE87040202101F088
:1016C000BCBB70B5BB4D06462021284601F0B7FBD8
:1016D0004021284601F0B1FBB84C0221204601F020
:1016E00084FE0028F9D03146204601F03AFE01215F
:1016F000204601F07AFE0028F9D0204601F033FEA2
:101700002846BDE87040202101F097BB10B50120AC
:10171000FFF7B2FF0A20FFF70AFF1120FFF7ACFF27
:101720007820FFF704FFB120FFF7A6FF0120FFF7A5
:10173000C8FF2C20FFF7C5FF2D20FFF7C2FFB22006
:10174000FFF79AFF0120FFF7BCFF2C20FFF7B9FF3E
:101750002D20FFF7B6FFB320FFF78EFF0120FFF724
:10176000B0FF2C20FFF7ADFF2D20FFF7AAFF0120CF
:10177000FFF7A7FF2C20FFF7A4FF2D20FFF7A1FF05
:10178000B420FFF779FF0720FFF79BFFC020FFF78A
:1017900073FFA220FFF795FF0220FFF792FF84203E
:1017A000FFF78FFFC120FFF767FFC520FFF789FF15
:1017B000C220FFF761FF0A20FFF783FF0020FFF739
:1017C00080FFC320FFF758FF8A20FFF77AFF2A2007
:1017D000FFF777FFC420FFF74FFF8A20FFF771FF65
:1017E000EE20FFF76EFFC520FFF746FF0E20FFF744
:1017F00068FF3620FFF740FFC820FFF762FFE020B8
:10180000FFF73AFF0220FFF75CFF1C20FFF759FFAC
:101810000720FFF756FF1220FFF753FF3720FFF78F
:1018200050FF3220FFF74DFF2920FFF74AFF2D2000
:10183000FFF747FF2920FFF744FF2520FFF741FF6F
:101840002B20FFF73EFF3920FFF73BFF0020FFF77B
:1018500038FF0120FFF735FF0320FFF732FF10208C
:10186000FFF72FFFE120FFF707FF0320FFF729FF16
:101870001D20FFF726FF0720FFF723FF0620FFF7B5
:1018800020FF2E20FFF71DFF2C20FFF71AFF292035
:10189000FFF717FF2D20FFF714FF2E20FFF711FF92
:1018A0002E20FFF70EFF3720FFF70BFF3F20FFF73B
:1018B00008FF0020FFF705FF0020FFF702FF0220CE
:1018C000FFF7FFFE1020FFF7FCFE2A20FFF7D4FEF3
:1018D0000020FFF7F6FE0020FFF7F3FE0020FFF7E1
:1018E000F0FE7F20FFF7EDFE2B20FFF7C5FE002066
:1018F000FFF7E7FE0020FFF7E4FE0020FFF7E1FE20
:101900009F20FFF7DEFE3A20FFF7B6FE0520FFF727
:10191000D8FE2920FFF7B0FEBDE810400A20FFF7EF
:1019200006BE10B5234C8021204601F088FA6420C1
:10193000FFF7FDFD8021204601F07FFABDE8104051
:101940006420FFF7F4BD2DE9F04105462A20FFF79A
:1019500093FE0020FFF7B5FE0020FFF7B2FE002047
:10196000FFF7AFFE7F20FFF7ACFE2B20FFF784FED2
:101970000020FFF7A6FE0020FFF7A3FE0020FFF7E0
:10198000A0FE9F20FFF79DFE2C20FFF775FE002490
:101990004FF4A0472E0A3046FFF793FEE8B2FFF758
:1019A00090FE641CA4B2BC42F5D3BDE8F0810000F7
:1019B0000002300000140140000C0140003C0040D7
:1019C000FE4908817047FD49C8807047FB498880FF
:1019D00070472DE9F05F984615460C460746FFF71D
:1019E000D7FDFFF79EFFFFF791FE2C20FFF744FE87
:1019F000F24E2046B480F580A6F80880FFF7A3FFDA
:101A0000F8073770002802D04FF0140001E04FF0C3
:101A10001000B07002D04FF0080001E04FF00A0053
:101A2000F070DFF89CE34FF000004FF0200B00BF98
:101A300000EB8001E34A4FF0000302EB810702F55F
:101A4000487202EB8109A2F57A7202EB410802F5B5
:101A5000167202EB810602F548720EEB410A02EBA8
:101A6000810200BF0AF803B027F8135029F8134089
:101A700008F803B026F8135022F8134003F10103CD
:101A8000DBB20A2BEED3401CC0B21428D0D3BDE881
:101A9000F09FCA49012048707047C849002048702B
:101AA000704770B505460C462A20FFF7E5FD00207B
:101AB000FFF707FE2846FFF704FE0020FFF701FEB0
:101AC0006D1CE8B2FFF7FDFD2B20FFF7D5FD0020D0
:101AD000FFF7F7FD2046FFF7F4FD0020FFF7F1FDCB
:101AE000641CE0B2FFF7EDFDBDE870402C20C3E5BB
:101AF0002DE9F04104461D4616460F462A20FFF701
:101B0000BBFD0020FFF7DDFD2046FFF7DAFD0020DA
:101B1000FFF7D7FD3046FFF7D4FD2B20FFF7ACFDD4
:101B20000020FFF7CEFD3846FFF7CBFD0020FFF782
:101B3000C8FD2846FFF7C5FDBDE8F0412C209BE518
:101B40002DE9F00F9D48DFF878920022C68809F150
:101B5000C8098088202709F5167A09F5AF6802EBD5
:101B6000820309EB43050AEB8304002108EB83039E
:101B70006F5424F8116023F81100491CC9B20A29D6
:101B8000F6D3521CD2B2142AE9D3BDE8F00FDAE63C
:101B9000F0B58A4A8A4E0021D4889388894F20253F
:101BA00006F5966E01EB810206EB420C491C0CF81F
:101BB000005007EB820C0EEB82022CF81040C9B2E9
:101BC00022F810301429EDD3F0BD10B500242046C2
:101BD000FFF7DEFF641CE4B20A2CF8D310BD10B589
:101BE000FFF7AEFFFFF7F1FF74480178491C01F0E1
:101BF00003010170C907002902D04FF0140101E070
:101C00004FF01001817002D04FF0080101E04FF059
:101C10000A01C17010BD0B46684910B50978144619
:101C200031B1012906D0022912D0032909D116E0C9
:101C3000194604E0C3F17F01CAB201461046FFF71E
:101C400030FF200AFFF73DFDE0B2BDE8104038E567
:101C5000C3F19F01C0F17F00C9B2C0B2EFE7C0F18C
:101C60009F00C1B21846EAE7F0B5554A00EB800084
:101C7000C83202EB4006C83A02EB4002544F555CB2
:101C8000514A16F801C002EB80044E4AAC4502EB03
:101C9000800232F811304D4A02EB800207EB8000DF
:101CA00030F8117007D134F81100984203D132F89E
:101CB0001100B84201D0012000E00020755424F842
:101CC000113022F81170F0BD0FB4F0B5C1B00D465F
:101CD0000646002449AA6846489902F05BFE374848
:101CE0006A46C7880389818834E05B280AD05D286A
:101CF0000AD00D2809D00A2807D0142E05D80A2D9D
:101D000003D804E0012400E00024521C22E0DFF8A4
:101D1000B0E006EB860C0EEB4C0E521C0EF80500E4
:101D20000CB1184600E03846DFF898E0142E0EEBB0
:101D30008C0E2EF81500264800EB8C0020F81510AC
:101D400003D300266D1CEDB201E0761CF6B20A2D1D
:101D500000D3002510780028C7D141B0F0BC5DF851
:101D600014FB2DE9F05F1548407800287ED0002054
:101D7000184CDFF850C04FF0400A4FF0200E0427F7
:101D80005FF0000101EB81030CEB8302E34632F8C4
:101D900010500AEA55220EEA5516324305F0100596
:101DA0002A430B4E04EB430506EB8303022633F86C
:101DB000103006EA5326C3F300180DE06E00002031
:101DC000EC3800207C3A00200C3C00202C3F002006
:101DD0009C3D0020BC40002007EA533346EA080639
:101DE00013431E43491C09B22E541029CADB401C60
:101DF00000B20A28C4DBF448007878B101287DD00D
:101E000002287CD0032831D113250026F1B2E8B294
:101E1000FFF72AFF002873D001276AE1002400267B
:101E2000E1B2F0B2FFF720FFE8B3012705E000BF01
:101E3000B9F1100F0DDA7F1C3FB206EB0709B9F1BB
:101E4000100F06DAE1B209F0FF00FFF70DFF0028DE
:101E5000EED10F2000EB0410C3B2F119FF2000EB0C
:101E6000C100C2B22007010EF00600E04EE0000EF5
:101E7000FFF73EFE4FF0000800252EE0E81705EBC7
:101E8000507106EBE10000B2D04A00EB800002EB9B
:101E900040031A5D1201A2F5007202EB0803CA4A60
:101EA0000A32D25C00E025E021F007016B1A8021A4
:101EB000D9400A4202D00BEB800102E0C44901EB99
:101EC000800131F814A04FEA1A20FFF7FAFB0AF05C
:101ED000FF00FFF7F6FB6D1C2DB2B5EBC70FCDDB96
:101EE00008F101000FFA80F8B8F1100FC4DBA9F176
:101EF000010006B2761C36B2102E02E007E078E050
:101F000056E18DDB641C24B20A2C88DBBFE5002679
:101F10000724E1B2F0B2FFF7A7FEE8B3012703E020
:101F2000002D09D47F1C3FB2E51B05D4E9B2F0B205
:101F3000FFF79AFE0028F3D1072000EBC600C3B2DA
:101F4000C4F108003844EF2101EB0010C2B2F006E2
:101F5000010EC4F107000007000EFFF7C9FD4FF0A6
:101F6000000800252FE0E81705EB1072974BA4EB53
:101F7000221006EB860100B203EB410322F00F02B0
:101F80001B5CAA1A1B01A3F500739B1A8E4A0A3226
:101F90001A44D37B802200E022E022FA08F21342A6
:101FA00002D00BEB810102E0894A02EB810131F89A
:101FB00010904FEA1920FFF784FB09F0FF00FFF7AC
:101FC00080FB6D1C2DB2B5EB071FCCDB08F10100C7
:101FD0000FFA80F8B8F1080FC3DBE01B401C04B215
:101FE000641E24B2002C94DA761C36B2142E8FDBD9
:101FF0004DE509240F25E1B2E8B2FFF735FEE8B35D
:10200000012703E0002E09D47F1C3FB2EE1B05D44C
:10201000E1B2F0B2FFF728FE0028F3D1C4F10A01C3
:10202000FF2000EB0110C3B2C5F110003844F721C6
:1020300001EBC000C2B2C4F109000007010EC5F1F6
:102040000F00C006000EFFF753FD4FF000080026FA
:1020500033E0F01706EB5071A5EBE10000B25B4AEC
:1020600000EB800002EB40031A5DC8F1100312017F
:10207000A2F500721344544A0A3200E02AE01A44DE
:1020800021F00701711AC1F1070312F8012C802118
:10209000D9400A4202D00BEB800102E04C4901EB2F
:1020A000800131F814904FEA1920FFF70AFB09F07C
:1020B000FF00FFF706FB761C36B2B6EBC70FC8DB96
:1020C00008F101000FFA80F8B8F1100FBFDBE81B30
:1020D000401C05B26D1E2DB2002D8CDA641E24B298
:1020E000002C87DAD3E400BFB9F1080F0DDA7F1CAA
:1020F0003FB206EB0709B9F1080F06DA09F0FF0154
:10210000E8B2FFF7B1FD0028EED1C5F114014FF0A0
:10211000FF3000EBC101CBB2F11900EB0110C2B2EC
:10212000C5F11300C006010E3007000EFFF7E0FCFA
:102130004FF0000800242EE0E01704EB1072234B50
:1021400006EB221005EB850100B203EB410322F000
:102150000F021B5CA21A1B01A3F5007313441A4A59
:10216000C8F1070C0A329B5C802222FA0CF213425F
:1021700002D00BEB810102E0154A02EB810131F83C
:1021800010A04FEA1A20FFF79CFA0AF0FF00FFF7B1
:1021900098FA641C24B2B4EB071FCDDB08F10100F0
:1021A0000FFA80F8B8F1080FC4DBA9F1010006B2FC
:1021B000761C36B2082EFFF629AE6D1E2DB2002D0C
:1021C000BFF623AE63E400006E000020EC38002070
:1021D0009C3D002023480088704722484088704773
:1021E00008B50121084600F0ADFF1F481F490068EF
:1021F000B0FBF1F14FF08040491E01854FF47A7138
:1022000081850121818200220282818101808DF8F5
:10221000012003208DF802008DF803101C208DF89A
:102220000000684600F06DF908BD10B501218C076B
:10223000204601F06FFE0121204601F07AFE094898
:10224000018840F2E732914205D3002101804188A4
:10225000491C418002E00188491C0180BDE8104012
:10226000FFF799B878060020DC06002040420F00F6
:1022700030B50D46044664496348143185B050F8C2
:10228000240051F82410084340F00100012100F01F
:1022900050FF5D481438ECB350F82400012100F0E1
:1022A00051FF18208DF81300574804A9283030F842
:1022B0001400ADF8100003208DF81200534850F8B8
:1022C000240000F04CFD04208DF813004E4804A9B2
:1022D000323030F81400ADF810004C48143050F88B
:1022E000240000F03CFD00200095ADF80400474DAF
:1022F000ADF80600ADF80800ADF80C000C20143D58
:10230000ADF80A0055F82400694601F045FE55F87D
:10231000240000E004E0012101F0B1FE05B030BD71
:102320000068012100F005FFBBE738B50446002135
:102330004FF0006000F014F933483C3010F81400FE
:102340008DF8000001208DF801008DF802008DF855
:102350000300684600F0D5F82C480122143840F2FA
:10236000255150F8240001F094FE38BD2749183952
:10237000087070472549FF2018390870704770B5FC
:10238000224D0E460446143D402155F8240001F02C
:102390002DFF0028F8D055F824003146BDE87040E4
:1023A00001F0C3BE0FB430B58BB0054610AA684625
:1023B0000F9902F0EFFA6C4603E02846641CFFF721
:1023C000DEFF21780029F8D10BB030BC5DF814FB9A
:1023D00070B50E4C0646183C94F90000401C11D014
:1023E00014F1040594F90000402155F8200001F093
:1023F000FDFE0028F6D094F90000F1B255F8200057
:1024000001F093FE304670BDA452000894060020EF
:1024100010B5184C206803C800F03BF8606803C88A
:1024200000F037F8A06803C800F033F820681023E4
:10243000022203C800F022F860681023022203C8B9
:1024400000F01CF8A0681023022203C8BDE8104069
:1024500000F014B80A460021830700D50221430783
:1024600001D541F00401000701D541F008010248FF
:1024700000F0E7BCBC0600200010014008B58DF854
:1024800002208DF80330ADF80010694600F067FCBB
:1024900008BD30B4164C2215011B5300A0421CD0BD
:1024A00009DC1449401812D0904213D098421DD133
:1024B0000121102008E0914212D0994213D0B1F5C9
:1024C000406F13D10121080230BC00F032BE01215F
:1024D0000420F9E701210820F6E701212020F3E795
:1024E00001214020F0E701218020EDE730BC70475A
:1024F0000014014000F8FEBF28490843284908603D
:10250000704770B50F23C47801780122F4B1244CD0
:102510002468457804F4E064C4F5E064240AC4F156
:102520000406E3408478B5401C402C4301F1E021CF
:10253000230181F80034007800F01F018A4040092F
:10254000800000F1E020C0F8002170BD01F01F0004
:1025500082404809800000F1E020C0F8802170BD71
:10256000104A114001430E48001F016070470C4A99
:10257000121D0029116801D0014300E08143116060
:1025800070474FF0E0210428086903D020F00400D0
:102590000861704740F00400FAE700000000FA0507
:1025A0000CED00E080FFFF1FFE4910B588424FF0A0
:1025B000010101D14C0601E04FF08064204600F09B
:1025C000D3FD2046BDE81040002100F0CDBD10B580
:1025D0000368002223F002030360036843F0010351
:1025E00003604FF6FF7300E0521C4468E40701D11A
:1025F0009A42F9D14268D2073ED08A79012A02680C
:102600003CD022F080020260CA79012A026838D0E8
:1026100022F0400202600A7A012A026834D022F0D5
:10262000200202604A7A012A026830D022F01002A9
:1026300002608A7A012A02682CD022F00802026025
:10264000CA7A012A026828D022F0040202608A783D
:10265000CC78920742EA04620C7942EA04424C794F
:10266000098842EA0452491E0A43C261016821F006
:1026700001010160002114E0002010BD42F0800241
:10268000C1E742F04002C5E742F02002C9E742F04C
:102690001002CDE742F00802D1E742F00402D5E78C
:1026A000491C4268D20701D09942F9D14068C0075D
:1026B000E2D1012010BDF0B5827A01219140BA4AE1
:1026C000136843F001031360B74B1C331C688C4341
:1026D0001C60B54D067BB54C0C35A6B92E688E43F3
:1026E0002E604688C78846EA0746877A04EBC70704
:1026F000C7F840660688878846EA0746877A04EB6B
:10270000C707C7F84466067B012E12D12E680E4318
:102710002E60867A056804EBC6064FEA3545C6F892
:102720004056867A456804EBC6044FEA3545C4F83E
:1027300044569D4CC57A241D002D256806D00D43B6
:102740002560994C0589143415B104E08D43F7E7F1
:1027500025688D4325600589012D02D125680D432B
:102760002560407B012802D1186808431860106872
:1027700020F001001060F0BD00218171C171017273
:1027800041728172C1728170C17003210171022195
:10279000417101210180704783490A6842F00102BA
:1027A0000A600A6843F60E739A430A600A6842EAAE
:1027B00000200860086820F00100086070470029C8
:1027C000016802D041F4803101E021F480310160E0
:1027D00070470029016813D041F080010160D0F8F2
:1027E000841141F48071C0F88411D0F8941141F43F
:1027F0008071C0F89411D0F8A41141F4807112E0F6
:1028000021F080010160D0F8841121F48071C0F8BA
:102810008411D0F8941121F48071C0F89411D0F88B
:10282000A41121F48071C0F8A411704730B502469C
:10283000002093685B0108D49068000101D5012055
:1028400003E09068C00037D5022002EB0012D2F8F6
:10285000803103F00103C2F880310B7A73B3D2F8F0
:1028600080414D681C434B7A43EAC5031C43C2F8C0
:1028700080418B7A03F00F038B72D2F8843123F0FE
:102880000F03C2F88431D2F884318C7A2343C2F822
:102890008431CB7ACC6843EA0423C2F88831CB7BFD
:1028A000096943EA0121C2F88C11D2F8801141F084
:1028B0000101C2F8801130BD042030BDD2F8803152
:1028C0004C7A23430C8843EA4453C2F88031D0E762
:1028D000002221B1012905D0022906D112E0826827
:1028E000334801E08268334802403349501A8A4233
:1028F00014D00ADCA2B16FF0806010180FD002284B
:102900000CD10FE082682D48EEE7B0F5007F09D0CA
:102910002B49401803D0B0F5003F03D0002070478A
:10292000022070470120704741B101290AD00229D5
:1029300003D1816841F4000181607047816841F0F2
:102940008001F9E7816841F40041F5E710B500EB3B
:102950000113D3F8B04114F004041472D3F8B04159
:1029600045D0E408C2F80440D3F8B04104F00204B2
:102970005472D3F8B44104F00F049472D3F8B44104
:10298000240AD474D3F8B841D472D3F8B841240AD5
:102990001473D3F8B841240C5473D3F8B841240EFF
:1029A00094730FE000640040006600400060004047
:1029B00003000004000300080001000800000310E9
:1029C0000001FFF7D3F8BC41D473D3F8BC41240A0B
:1029D0001474D3F8BC41240C5474D3F8BC311B0ECE
:1029E000937439B1016941F02001016110BD640D9A
:1029F0001460B9E7C16841F02001C16010BD21B188
:102A0000016941F0200101617047C16841F0200176
:102A1000C16070470246002029B1012902D1106926
:102A200000F003007047D068FAE700234FF6FF720A
:102A300021B1012917D0022924D03AE0016821F000
:102A4000020141F00101016000E0521E416801F005
:102A50000301012901D0002AF7D1406800F00300EA
:102A6000012823D124E0016821F00301016000E086
:102A7000521E4168890701D0002AF9D140688007B9
:102A800014D115E0016821F0010141F0020101605B
:102A900000E0521E416801F00301022901D0002A22
:102AA000F7D1406800F00300022801D0002300E0C5
:102AB0000123184670470268002122F0010242F00B
:102AC00002020260406800F00300022800D10121E8
:102AD0000846704703684FF6FF71002223F0020397
:102AE000036000E0491E43689B0701D50029F9D126
:102AF0004068800700D40122104670478069C0F307
:102B00000210000170478069000E70478069C0F3B1
:102B100007407047002A426901D00A4300E08A4317
:102B2000426170470246002011F4700F03D0926991
:102B300004E001207047CB0104D552680A4011031C
:102B4000F7D170470B0101D59268F7E78B0101D5EA
:102B5000D268F3E71269F1E7534A914202D10021AA
:102B600081617047C1F313028B0101D5C2607047C8
:102B70004B0101D502617047090101D582607047A0
:102B8000426070470246002053690B424AD0B1F5BB
:102B9000807F3BD013DC08292ED007DC012926D00A
:102BA000022927D004293DD1D0682BE0102925D057
:102BB000202926D0402935D11069102130E0B1F507
:102BC000004F2BD00BDCB1F5007F22D0B1F5806F28
:102BD00022D0B1F5006F25D19069702120E0B1F5C8
:102BE000803F11D0B1F5003F1CD15068E5E79068F7
:102BF0002E4915E0D06802E0D068DEE710690321B5
:102C00000EE0106908210BE05068FBE79069012194
:102C100006E09069022103E0906900E05068042119
:102C200000F03BB8704730B5082310240422B1F5FA
:102C3000007F1DD010DC202929D007DC012921D0FC
:102C4000042922D0082900D1C46030BD402920D0F9
:102C5000B1F5807FF9D10BE00025B1F5004F06D02A
:102C600008DCB1F5806F03D0B1F5006FEDD185615F
:102C7000426030BDB1F5803F0DD0B1F5003FF8D1D5
:102C8000446030BD0949816030BDC36030BD03611F
:102C900030BD046130BD436030BD024600200A42B1
:102CA00000D00120704700007000F03001010100E9
:102CB000914910B5884206D10121042000F04BFA59
:102CC000002104203BE08D49884206D101210820E3
:102CD00000F041FA0021082031E08949884206D1FC
:102CE0000121102000F037FA0021102027E085494B
:102CF000884206D10121202000F02DFA0021202059
:102D00001DE08149884206D10121402000F023FACC
:102D10000021402013E07D49884206D10121802016
:102D200000F019FA0021802009E0794988420AD18F
:102D300084150121204600F00EFA00212046BDE84E
:102D4000104000F008BA10BD10B50121084600F08F
:102D500002FA0021BDE81040012000F0FCB9F0B5F6
:102D6000CA78002502F00F03D20601D58A781343F2
:102D70000A784FF00F0E12F0FF0F4FF001021DD036
:102D8000D0F800400F8802FA05F63740B74211D15B
:102D90004FEA850C0EFA0CF724EA070703FA0CF445
:102DA0003C43CF78282F02D0482F02D002E0466162
:102DB00000E006616D1C082DE4D304600C88FF2C34
:102DC0001ED944685FF0000606F1080702FA07F50D
:102DD0000F882F40AF420FD14FEA860C0EFA0CF746
:102DE000BC4303FA0CF73C43CF78282F00D1456150
:102DF000CF78482F00D10561761C082EE4D34460BB
:102E0000F0BD4FF6FF710180022181700421C17075
:102E100070470246002092680A4200D001207047A5
:102E2000806880B2704702460020D2680A4200D013
:102E300001207047C06880B27047016170474161EE
:102E400070470AB10161704741617047C1607047C6
:102E500041F4803282618161826181698069704759
:102E60002C4B10B51A684FF68074224042EA0010CD
:102E70000843186010BD2849C8617047F0B5254C5B
:102E8000002801DAE36900E06368420D120185B2AF
:102E9000C0F301579540C0F30346032F05D0C2028B
:102EA0000AD50322B240934307E023F070626368BF
:102EB00023F07063636002E0AB4343F0706201B1E2
:102EC0002A43002801DAE261F0BD6260F0BD10B56E
:102ED0008A0721F003040F49130F21440F228C6845
:102EE0009A4094438C608A68984002438A6010BD7F
:102EF0000949C1F8DC00704700080140000C01409E
:102F0000001001400014014000180140001C014065
:102F1000002001400000014000002042A448016858
:102F200041F0010101604168A24A1140416001681D
:102F3000A14A11400160016821F4802101604168CB
:102F400021F4FE0141604FF41F01816070479849F0
:102F50000A6822F480320A600A6822F480220A6039
:102F6000B0F5803F07D0B0F5802F03D1086840F45A
:102F7000A02008607047086840F48030F9E70246F6
:102F8000002053098A49012B0AD0022B0AD0496A32
:102F900002F01F02012393400B4200D00120704732
:102FA0000968F5E7096AF3E718B500204FF4A06453
:102FB00000903120FFF7E3FF0099491C0091A142E6
:102FC00001D00028F5D03120FFF7D9FF002800D02C
:102FD000012018BD76490A6822F0F80242EAC000D2
:102FE00008607047754908607047714A5368084324
:102FF00023F47C131843506070477049086670478B
:103000006B4A516821F003010143516070476848E1
:10301000406800F00C007047654A516821F0F001EB
:10302000014351607047624A516821F4E0610143F5
:10303000516070475E494A6822F4605242EAC0001B
:10304000486070475A4A0029517A01D0014300E094
:103050008143517270475949C1F8D8007047544AAA
:10306000516821F4404101435160704750490022AA
:1030700081F8202081F82020012802D0042802D1E4
:10308000052081F8200070474D4908607047484985
:103090000A6A02430A627047494944390860704726
:1030A00030B543494A6812F00C03464A03D0042B5A
:1030B00001D0082B21D002604A680F23424C03EA5A
:1030C0001212A35C0268DA4042604B68072505EAE9
:1030D0001323E35C22FA03F383604B6805EAD323EE
:1030E000E35CDA40C2604968032303EA9131231F9D
:1030F000595CB2FBF1F1016130BD4A684B6802F4E2
:1031000070124FF0020413F4803F04EB924202D09D
:103110004B689B0301D52D4B00E02A4B5A43CAE76D
:10312000234A0029516901D0014300E081435161E4
:1031300070471F4A0029916901D0014300E0814393
:10314000916170471A4A0029D16901D0014300E01A
:103150008143D1617047164A0029D16801D00143EB
:1031600000E08143D1607047114A0029116901D004
:10317000014300E081431161704711494039086003
:1031800070470E49C86470470949C87170470848BC
:10319000416A41F0807141627047054A0146002052
:1031A00092680A4200D00120704701498872704736
:1031B000001002400000FFF8FFFFF6FE0000424250
:1031C0008004424200127A00CC06002000093D0033
:1031D000994910B588420AD1841401212046FFF78D
:1031E000BAFF2046BDE810400021FFF7B4BF934965
:1031F000884202D10121041404E0914988420AD195
:103200000121C4132046FFF7AFFF2046BDE8104060
:103210000021FFF7A9BF10BD30B502884C8802F429
:1032200041530A88CD8822438C882C4322430C8941
:1032300022434C8922438C892243CC8922431A435E
:103240000280828B22F400628283098A018230BD6F
:10325000F0B505460C4602200021AA8B85B0012658
:103260004FF240031A40AA832884AF8BA268022A37
:1032700027D0A08800B102266846FFF711FFE18839
:103280000098B1F5007F2DD07101B0FBF1F000BFC7
:1032900000EB8000A1684000B0FBF1F0401D80B25F
:1032A0000A21B0FBF1F000F00101401A4FF6FF7265
:1032B000C0F34F0002EA0121821EFE2A01D3022040
:1032C0000021E288084302432A8420886188A28979
:1032D0000843A18811430843384340F40060A883A1
:1032E00005B0F0BD000AD3E7002101804180818054
:1032F000C180018141818181C181072101827047A3
:103300000021018041808180C18002228260818110
:1033100070470029018802D041F0400101E021F00E
:103320004001018070470029818B02D041F4806107
:1033300001E021F4806181837047090901238B40FA
:10334000002A828899B201D00A4300E08A43828031
:103350007047002A828801D00A4300E08A438280B5
:1033600070478181704780897047A1F57E4201884E
:10337000FF3A02D041F4807101E021F480710180B4
:1033800070470029818802D041F0040101E021F05A
:10339000040181807047028822F400620280028862
:1033A0000A4302807047018841F4805101807047D0
:1033B0000029018802D041F4005101E021F40051BC
:1033C00001807047012901D0008B7047808A7047C7
:1033D000008A7047B1F5804F018803D021F4804105
:1033E0000180704741F48041FAE7024600201289CB
:1033F0000A4200D001207047C9430181704710B5CF
:1034000001F00F040122034602FA04F40020090926
:103410008A4091B29A88A4B20A401989214202D006
:10342000002A00D0012010BD01F00F0201219140BF
:10343000C94301817047000000300140003800405E
:10344000003C0040F94910B5884202D10121C41462
:1034500086E0B0F1804F09D0F54988420DD10121B5
:103460000220FFF781FE0021022064E001210846CE
:10347000FFF77AFE002101205DE0EE49884206D187
:1034800001210420FFF770FE0021042053E0EA49E7
:10349000884206D101210820FFF766FE002108209E
:1034A00049E0E649884206D101211020FFF75CFE81
:1034B000002110203FE0E249884206D1012120206E
:1034C000FFF752FE0021202035E0DE49884202D17C
:1034D0000121441444E0DC49884202D10121CC049A
:1034E0003EE0DA49884202D101210C0538E0D84992
:1034F000884202D101214C0532E0D649884206D1EA
:1035000001214020FFF730FE0021402013E0D24986
:10351000884206D101218020FFF726FE002180206D
:1035200009E0CE4988420AD1841501212046FFF7DF
:103530001BFE00212046BDE81040FFF715BEC8491C
:10354000884202D101210C040AE0C649884202D116
:1035500001214C0404E0C44988420AD101218C04B1
:103560002046FFF7F8FD2046BDE810400021FFF798
:10357000F2BD10BD30B50288AC4BB24C98420DD0B4
:10358000A0420BD0B0F1804F08D0A94DA84205D081
:10359000A84DA84202D0A84DA84203D122F0700540
:1035A0004A882A43A54DA84206D0A54DA84203D07B
:1035B00022F44075CA882A4302808A8882850A8854
:1035C000028598420AD0A04208D0A54A904205D070
:1035D000A44A904202D0A44A904201D1097A0186BD
:1035E0000121818230BD30B5028C22F001020284BB
:1035F000028C8388048B22F0020224F073050C886D
:103600002C430D8915434A882A43884DA8420BD084
:103610008C4DA84208D0924DA84205D0914DA842A9
:1036200002D0914DA8420DD122F008054A8923F419
:1036300040732A4322F004058A882A438D891D435A
:10364000CB892B4383800483C9888186028430BD63
:1036500070B5028C22F010020284028C8488038BE5
:103660000D8823F4E6464FF6FF7303EA052535433C
:103670000E8922F0200203EA061616434A8803EA5E
:1036800002123243694EB04202D06E4EB04215D1A2
:1036900022F080064A8924F4406403EA021232438D
:1036A00022F040068A8803EA021232438E8903EA36
:1036B00086062643CC8903EA840434438480058348
:1036C000C9880187028470BD70B5028C22F48072B3
:1036D0000284028C8488838B0D8823F073031D433E
:1036E00022F400730E894FF6FF7202EA06261E438B
:1036F0004B8802EA032333434C4EB04202D0514E72
:10370000B04215D123F400664B8924F4405402EAF8
:103710000323334323F480668B8802EA0323334375
:103720008E8902EA06162643CC8902EA0414344341
:1037300084808583C9888187038470BD70B5028CBD
:1037400022F480520284048C8288838B0D8823F4B7
:10375000E6464FF6FF7303EA0525354324F4005689
:103760000C8903EA043434434E8803EA06362643C0
:103770002E4CA04202D0334CA04205D122F480440A
:103780008A8903EA8212224382808583C988A0F84D
:103790004010068470BD828B22F440628283828B4B
:1037A0004FF6FF7303EA01210A4382837047828B3D
:1037B00022F00C028283828B0A4382837047028B41
:1037C00022F440620283028B4FF6FF7303EA012169
:1037D0000A4302837047F0B5048C24F0100404847B
:1037E000078B048C4FF6FF7527F4734705EA033304
:1037F0003B4305EA02221A430C4B05EA01169842A4
:103800000ED0104B98420BD0B0F1804F08D0084B2F
:10381000984205D0074B984202D0074B984225D1D9
:1038200024F02001314341F0100124E0002C01403C
:103830000004004000080040000C00400010004060
:103840000014004000340140004C01400050014091
:103850000054014000180040001C004000200040BF
:1038600000400140004401400048014024F0A00312
:103870000B4343F0100102830184F0BD028B22F060
:103880000C020283028B0A430283704770B5048CDA
:1038900024F001040484058B048C4FF6FF7606EABD
:1038A0000313134325F0F305F94A2B4390420ED03E
:1038B000F84A90420BD0B0F1804F08D0F64A9042BF
:1038C00005D0F64A904202D0F54A904202D124F047
:1038D000020201E024F00A020A4342F001010383DC
:1038E000018470BD2DE9F05F0D4604460888E84F5D
:1038F000DFF8A0C3DFF8A0834988AA882B894FF09E
:10390000804960B3042832D04FF6FF7E082836D0B5
:10391000208C9B4620F480502084A38B268C7046FC
:1039200000EA022223F473431A4300EA0B301043E7
:103930000EEA013EBC420BD0644509D04C4507D08D
:10394000444505D0D54A944202D0D54B9C4245D13E
:1039500026F4005141EA0E0141F4805143E0204633
:10396000FFF794FFE9882046BDE8F05F86E7204630
:10397000FFF731FFE9882046BDE8F05F1FE7208CA4
:1039800020F480702084B4F81CA0208C0EEA03136D
:1039900013432AF0F30A0EEA012B43EA0A03BC425E
:1039A0000BD0644509D04C4507D0444505D0BB4AEF
:1039B000944202D0BA4A944204D120F4007040EA02
:1039C0000B0002E020F42060084340F48070A383E1
:1039D0002084E9882046BDE8F05FE8E626F402424C
:1039E0000A4342F48051A08320462184E988BDE83F
:1039F000F05FD0E62DE9F0410C46002649880746E5
:103A0000012501B90226A288012A00D102252088B9
:103A100023890028384610D0FFF7DDFEE1883846BC
:103A2000FFF7CDFE23892A4631463846FFF72EFFA1
:103A3000E1883846BDE8F04120E7FFF727FFE1883D
:103A40003846FFF71BFF23892A4631463846FFF7E1
:103A5000C2FEE1883846BDE8F041B0E610B50A88FC
:103A60004B88CC881A438B8823431A430B891A430B
:103A70004B8989891A430A43A0F8442010BD4FF6A8
:103A8000FF71818000210180C180418001727047F7
:103A90000021018041808180C1800181418181813B
:103AA000C181704700210180418001228280C18054
:103AB000018170470021018041808180C1800181A6
:103AC0004181818170470029018802D041F00101C4
:103AD00001E021F0010101807047002930F8441F06
:103AE00002D041F4004101E0C1F30E0101807047B2
:103AF000002A828901D00A4300E08A43828170470C
:103B0000818270471143A0F848107047002A8289CB
:103B100001D00A4300E08A4382817047018921F085
:103B2000070101817047028922F070020A43028175
:103B3000704700B50346FFF7F6FF188940F007000D
:103B4000188100BD70B516460D46602904464FF039
:103B5000010231460AD0FFF799FE29462046FFF7B9
:103B6000E2FF208940F00700208170BDFFF733FE9F
:103B7000F3E730B504894FF6FF7505EA03231343D5
:103B8000E4B20B432343038130BD10B50446FFF775
:103B9000F0FF208940F07700208110BD10B5044669
:103BA000FFF7E7FF208940F48040208110BD0185A8
:103BB00082827047028822F070020A4302807047B6
:103BC00070B50589048B068C25F007050D434FF66B
:103BD000FC410C4040F201110C434FF6FF7101EA29
:103BE000031126F022061143314305810483018429
:103BF00070BD028B22F070020A4302837047028B71
:103C00004FF6FF7322F4E04203EA012111430183DE
:103C10007047828B22F070020A4382837047828B46
:103C20004FF6FF7322F4E04203EA0121114381833E
:103C300070470029018802D041F0800101E021F0A5
:103C40008001018070470029818802D041F0040181
:103C500001E021F00401818070470029818802D0B1
:103C600041F0080101E021F008018180704700293E
:103C7000818802D041F0010101E021F00101818041
:103C80007047028B22F008020A430283704700004B
:103C9000002C0140003401400004004000080040B6
:103CA000000C0040028B4FF6FF7322F4006203EA1F
:103CB000012111430183E9E7828B22F008020A43C4
:103CC0008283E3E7828B4FF6FF7322F4006203EAFC
:103CD000012111438183D9E7028B22F004020A43B8
:103CE0000283D3E7028B4FF6FF7322F4806203EA6C
:103CF000012111430183C9E7828B22F004020A43A8
:103D00008283C3E7828B4FF6FF7322F4806203EA5B
:103D1000012111438183B9E7028B22F080020A431B
:103D20000283B3E7028B4FF6FF73C2F30E0203EA7E
:103D3000012111430183A9E7828B22F080020A430B
:103D40008283A3E7828B4FF6FF73C2F30E0203EA6E
:103D500001211143818399E7028C22F002020A4378
:103D6000028493E7028C22F008020A4302848DE762
:103D7000028C4FF6FF7322F0200203EA0111114377
:103D8000018483E7028C4FF6FF7322F0800203EA7E
:103D900001111143018479E7028C4FF6FF7322F47D
:103DA000007203EA0121114301846FE7028C4FF690
:103DB000FF7322F4006203EA01211143018465E7E5
:103DC000028C4FF6FF7322F4005203EA01311143D3
:103DD00001845BE710B50123048C8B409C43048471
:103DE000038C8A401343038410BD10B50423048C54
:103DF0008B409C430484038C8A401343038410BD8E
:103E000030B50124058C00F118038C40A5430584CE
:103E100089B108290FD0091FC1F34E001844016869
:103E200021F4E041016001684FF6FF7303EA0222CA
:103E30001143016030BD03EB5100016821F07001B6
:103E400001600168F4E70029018802D041F0020115
:103E500001E021F00201018018E70029018802D069
:103E600041F0040101E021F0040101800EE7002986
:103E7000818802D041F0800101E021F08001818041
:103E800004E7028822F00802028002880A430280C6
:103E9000FCE6828822F07002828082880A43828057
:103EA000F4E6028922F00702028102890A430281B4
:103EB000ECE6028922F08002028102890A43028133
:103EC000E4E68184E2E68185E0E68186DEE601873C
:103ED000DCE68187DAE6A0F84010D7E6028822F413
:103EE0004072028002880A430280CFE6808ECDE6CF
:103EF000008FCBE6808FC9E6B0F84000C6E6808C24
:103F0000C4E6008DC2E602460020128A0A4200D0B2
:103F10000120BBE6C9430182B8E602460020138AAD
:103F200092890B4202EA010202D0002A00D001204D
:103F3000ACE6C9430182A9E6C44910B588420AD15A
:103F400001218C032046FFF706F92046BDE810400A
:103F50000021FFF700B9BE49884202D101214C047B
:103F600010E0BC49884202D101218C040AE0BA4920
:103F7000884202D10121CC0404E0B84988420AD128
:103F800001210C052046FFF7EFF82046BDE8104060
:103F90000021FFF7E9B810BD30B50446008A85B0AE
:103FA0000D464CF6FF710840E98801432182A18942
:103FB0004EF6F3100140A8882A8910436A890A4303
:103FC0001043A081A08A4FF6FF410840A989014310
:103FD000A1826846FFF764F89C48844201D10398A7
:103FE00000E00298A189090400EBC00101EB001078
:103FF000296801D5490000E08900B0FBF1F0642296
:10400000B0FBF2F109010B096FF018056B4300EBEF
:104010008300A3891D044FF0320306D503EBC000D3
:10402000B0FBF2F000F0070005E003EB0010B0FB7E
:10403000F2F000F00F000843208105B030BD4FF4CE
:104040001651016000218180C18001810C224281D2
:104050008181704710B5038A4FF2FF0213400A882E
:104060004C8822438C88C9880C4322431A4302821D
:1040700010BD0021018041808180C18070470029EE
:10408000818902D041F4005101E021F40051818185
:10409000704710B5C1F3421301F01F040121A14084
:1040A000012B07D0022B07D01430002A026805D05C
:1040B0000A4304E00C30F8E71030F6E78A43026068
:1040C00010BD002A828A01D00A4300E08A4382821E
:1040D0007047028A22F00F020282028A0A43028299
:1040E0007047828922F40062828182890A43828138
:1040F00070470029818902D041F0020101E021F0DE
:10410000020181817047028A22F020020282028A23
:104110000A43028270470029018A02D041F480419B
:1041200001E021F4804101827047C1F308018180E0
:1041300070478088C0F308007047818941F0010111
:1041400081817047028BD2B20283028B42EA012145
:1041500001837047028B02F47F420283028B0A4381
:10416000028370470029818A02D041F0200101E0DA
:1041700021F02001818270470029818A02D041F01C
:10418000100101E021F01001818270470029818A2D
:1041900002D041F0080101E021F00801818270475E
:1041A0000029818902D041F4004101E0C1F30E01F0
:1041B000818170470029818A02D041F4006101E0C9
:1041C00021F4006181827047828A22F00402828297
:1041D000828A0A43828270470029818A02D041F094
:1041E000020101E021F002018182704702460020B5
:1041F00012880A4200D001207047C94301807047ED
:1042000030B501F01F0201240025C1F3421304FA66
:1042100002F2012B0FD0022B0FD0838A4FEA11211B
:104220000088134204FA01F400EA040001D000B14E
:104230000125284630BD8389F0E7038AEEE70A0AA4
:1042400001219140C94301807047000000380140BE
:104250000044004000480040004C00400050004036
:104260000CB500214B4801910091026842F4803264
:1042700002604FF4A063026802F400320092019AD7
:10428000521C0192009A12B9019A9A42F3D1026823
:10429000920333D5012100913F490A6842F0100290
:1042A0000A600A6822F003020A600A6842F0020209
:1042B0000A604168416041684160416841F4806141
:1042C0004160416821F47C114160416841F4E8118A
:1042D0004160016841F08071016001688901FCD58D
:1042E000416821F003014160416841F002014160F1
:1042F0004168C1F381010229FAD10CBD00910CBDC6
:10430000244810B5016841F0010101604168234A69
:10431000114041600168224A11400160016821F4A6
:1043200080210160416821F4FE0141604FF41F01CA
:104330008160FFF795FF1B494FF00060086010BDDA
:10434000144910B54868184A10F00C03174803D0F8
:10435000042B01D0082B0AD002604968134AC1F32C
:104360000311121D515C0268CA40026010BD4A6808
:104370004B6802F470124FF0020413F4803F04EB18
:10438000924202D04B689B0301D5094B00E0064BDB
:104390005A43E1E700100240002002400000FFF80D
:1043A000FFFFF6FE08ED00E000127A00DC060020B8
:1043B00000093D000648804706480047FEE7FEE743
:1043C000FEE7FEE7FEE7FEE7FEE7FEE7FEE7FEE7C5
:1043D000014300083101000840EA01039B0703D0B4
:1043E00009E008C9121F08C0042AFAD203E011F834
:1043F000013B00F8013B521EF9D2704730B50B4625
:10440000014600202022012409E021FA02F59D4204
:1044100005D303FA02F5491B04FA02F52844151ED8
:10442000A2F10102F1DC30BD2DE9F05F054600206C
:1044300092469B4688460646814640241BE0284615
:1044400041464746224600F0FAF953465A46C01AFA
:10445000914110D311461846224600F0E1F92D1A79
:1044600067EB01084F4622460120002100F0D8F9F1
:1044700017EB00094E41201EA4F10104DFDC484681
:1044800031462A464346BDE8F09F2DE9FE4F80465F
:1044900081EA0300C00F0C46009021F0004123F098
:1044A0000045B8EB0200A94105D24046214690469E
:1044B0001C460B46024623F00040104347D0270D10
:1044C000C7F30A00C3F30A510290401A0190402832
:1044D0006BDAC3F3130040F4801B0098924620B1BE
:1044E0000023D2EB030A63EB0B0B01985946C0F192
:1044F0004002504600F094F906460D465046594693
:10450000019A00F0ACF910EB08006141002487EA41
:10451000115284EAE7731A4340D0009A62B3019AB9
:10452000012A4FEA075215DC001B61EB02014FF034
:10453000004202EA0752CDE90042001C41F5801119
:1045400032462B4600F0ACF903B0BDE8F08F404690
:104550002146F9E7001B61EB0201001C41F58013C5
:1045600000185B412018A2F5001747EB030140EA51
:10457000D570B6196D4111E06D084FEA360645EA6F
:10458000C0754FEA0752001B61EB0201001C41F5A8
:10459000801149084FEA30000019514132462B463C
:1045A00003B0BDE8F04F00F06CB900980122400064
:1045B0000023D0EB020263EBE073009821464FEA40
:1045C000E074B8EB000061EB0401E9E783F000431D
:1045D0005BE781F0004158E72DE9FE4F81EA0304D3
:1045E00004F0004421F0004100944FF0000B23F050
:1045F000004350EA01045ED052EA03045BD0C3F3E7
:104600000A54C1F30A552C44A4F2F3340194A0FBDC
:104610000254C1F3130141F48011C3F3130343F4B3
:10462000801301FB024400FB034E840A970A44EA0C
:10463000815447EA8357A4FB076802958D0A05FB5E
:1046400007854FEA932C04FB0C542705029D4FEA83
:10465000065847EA1637B5EB08056EEB070C870ED0
:10466000920E47EA811742EA8312A7FB0201B6EBDA
:104670000B0164EB00042B0D43EA0C335E1844EB92
:104680001C50DA465146E7FB0201C5F313044FEA1A
:104690000B3343EA14534FEA0432019C43EA060306
:1046A000A4F10C040294009CCDE900B400F0F8F8E9
:1046B00003B0BDE8F08F00200146F9E72DE9F04D89
:1046C00081EA030404F0004B21F0004514464FF04A
:1046D000000A23F0004150EA050220D054EA01020A
:1046E0001DD0C5F30A570246C5F31303C1F31300E7
:1046F000C1F30A5640F4801543F48013A7EB060873
:10470000101BD64608F2FD3873EB050002D308F102
:10471000010801E092185B41B8F1000F03DA0020B4
:104720000146BDE8F08D00204FF480110646844616
:104730000EE0171B73EB050705D3121B63EB050394
:1047400006434CEA010C49084FEA300092185B41DD
:1047500050EA0107EDD152EA030012D082EA0400C8
:1047600083EA0501084305D0101BAB4106D20122A4
:10477000002306E000224FF0004302E06FF0010248
:1047800053101AEB06004CEB085110EB0A0041EBFA
:104790000B01BDE8F04D00F074B8C1F30A52C1F34B
:1047A000130140F2FF3341F480119A4202DA0020F3
:1047B0000146704740F233439A42A2F2334202DC90
:1047C000524200F03CB800F02BB8000030B5041E97
:1047D00071F1000404DB4FF00044404264EB01013E
:1047E000141E73F1000405DB1C464FF000435242D7
:1047F00063EB0403994208BF904230BD064C074D5D
:1048000006E0E06840F0010394E8070098471034A0
:10481000AC42F6D3FBF790FC045300082453000885
:10482000202A04DB203A00FA02F100207047914070
:10483000C2F1200320FA03F3194390407047202A65
:1048400004DB203A21FA02F00021704721FA02F33A
:10485000D040C2F120029140084319467047202AF7
:1048600006DBCB17203A41FA02F043EAE07306E098
:1048700041FA02F3D040C2F12002914008431946A8
:10488000704710B5141E73F1000408DA401C41F1A2
:10489000000192185B411A4301D120F0010010BDC4
:1048A0002DE9F04D92469B4611B1B1FA81F202E03A
:1048B000B0FA80F220329046FFF7B2FF04460F466E
:1048C00040EA0A0041EA0B0153465A46084313D016
:1048D000114653EA010019D0C8F140025046FFF7D3
:1048E000AEFF05460E46504659464246FFF798FF32
:1048F000084305D0012004E020463946BDE8F08D8C
:104900000020054346EAE0762C4337430A986305C6
:10491000E40AA0EB08000022FD0A44EA47540A30EA
:1049200002D500200146E9E7010510196941DDE9DA
:10493000084500196941BDE8F04DA2E770B58C1833
:1049400010F8015B15F0070301D110F8013B2A11A3
:1049500006D110F8012B03E010F8016B01F8016B90
:104960005B1EF9D12B0705D40023521E0DD401F88C
:10497000013BFAE710F8013BCB1A921C03E013F855
:10498000015B01F8015B521EF9D5A142D8D300208A
:1049900070BD000037B514460846064B6A462146EE
:1049A00000F0CCF804466946002000F05EFC20468A
:1049B0003EBD00006B52000802E008C8121F08C18B
:1049C000002AFAD170477047002001E001C1121F90
:1049D000002AFBD1704700002DE9FF5FDDE90220CE
:1049E000010DDDF838B0024318D044F61050A1F2A2
:1049F000FF3141430D140F98012820D0A5EB0B0087
:104A0000401C5FEA000A4FF00004474EDFF81C919B
:104A1000A046504616D5CAF1000728E00F98012499
:104A200043A2012808D0002100980F9BC0E9002173
:104A3000C0E90243BDE8FF9F6FEA0B01F4E7CBF149
:104A40000000DEE7074612E0F80707D022463346AB
:104A500040464946FFF7C0FD804689462246334618
:104A600010461946FFF7B8FD04460E467F10002F8A
:104A7000EAD1DDE90201BAF1000F42464B4602DA03
:104A8000FFF7AAFD01E0FFF719FE04460E460022DB
:104A9000284BFFF79BFE03D84FF0FF30014607E09D
:104AA0000022254B20463146FFF7EFFCFFF775FE4D
:104AB000102409E0002C0ADB0A220023FFF7B4FCD3
:104AC000019B30321A55641E50EA0102F2D1641C77
:104AD000019AC4F1110314440F9A012A03D0012250
:104AE00008430DD10AE0084304D000204FF0110B19
:104AF0000F9080E7A3EB0B056D1E0DE05B4504DD19
:104B00004FF0000205F1010504E003DA4FF0000266
:104B1000A5F10105002AECD000980F99C0E90231F7
:104B2000C0E9004586E70000000024400000F03F97
:104B3000300000000000F0430000E03F2DE9FF4F8F
:104B400095B09B468946064600250FE2252877D179
:104B500000242746F84A0121059400E0044316F892
:104B6000013F203B01FA03F01042F7D130782A28A8
:104B700011D06FF02F033078A0F13002092A16D837
:104B8000059A44F0020402EB820203EB4202104455
:104B9000761C0590EFE759F8042B0592002A03DAFA
:104BA000504244F40054059044F00204761C3078DE
:104BB0002E2816D116F8010F44F004042A280DD02F
:104BC0006FF02F023078A0F13003092B09D807EBE2
:104BD000870302EB4303C718761CF3E759F8047BFD
:104BE000761C30786C280FD006DC4C2817D068284B
:104BF0000DD06A2814D104E0742810D07A280FD17F
:104C00000DE044F400140AE044F4801401E044F49C
:104C100040147278824202D104F58014761C761C0E
:104C2000307866280BD013DC582877D009DC0028B0
:104C300075D04528F6D04628F4D047281AD19DE1F2
:104C400018E0632835D0642879D0652812D195E121
:104C5000702873D008DC6728F1D069286FD06E28DF
:104C60000DD06F2806D1B5E073282CD0752875D0EB
:104C7000782874D05A46179990476D1C75E1C4F393
:104C80000250022809D003280DD0D9F800100428BA
:104C90000DD00D6009F1040967E1D9F80010EA1799
:104CA000C1E90052F6E7D9F800100D80F2E70D7067
:104CB000F0E719F8041B8DF8001000208DF80100B2
:104CC000EA46012003E059F804AB4FF0FF306107DA
:104CD0004FF0000102D40DE008F101018846B9420D
:104CE0000FDA8045F8DB1AF808100029F4D108E043
:104CF00008F1010188468142FADB1AF80810002900
:104D0000F6D105985B46A0EB080721463846179A6E
:104D100000F094FA284400EB080507E04DE029E193
:104D20000DE01AF8010B5A4617999047B8F101089F
:104D3000F7D25B4621463846179A13E142E00A2231
:104D40000092C4F302524FF0000A022A08D059F828
:104D500004CB032A4FEAEC710AD00DE029E02AE0E7
:104D600009F1070121F00702F2E802C1914609E0CA
:104D70000FFA8CFC4FEAEC71042A03D14FFA8CFC39
:104D80004FEAEC71002907DA0A460021DCF1000C39
:104D900061EB02012D2202E0220504D52B228DF8C1
:104DA0000420012203E0E20701D02022F7E7904629
:104DB00059E00A2102E010220DE010214FF0000A14
:104DC00000910BE010224FF0000A44F00404082781
:104DD000009203E008224FF0000A0092C4F302524E
:104DE000022A05D059F804CB0021032A08D009E093
:104DF00009F1070121F00702F2E802C1914605E03E
:104E00001FFA8CFC042A01D10CF0FF0C4FF00008B3
:104E1000220728D5702806D0009B83F0100353EAA0
:104E20000A0305D00EE040228DF80420012208E09C
:104E30005CEA010206D030228DF804208DF80500CE
:104E400002229046009B83F0080353EA0A030AD12A
:104E50005CEA010201D1620705D530228DF80420F9
:104E60004FF001087F1E582804D034A003900EA8EC
:104E700002900DE036A0F9E753466046009AFFF72E
:104E8000D3FA84460398825C0298401E0290027016
:104E90005CEA0100F0D1029806A9081A00F1200A84
:104EA000600702D524F4803400E00127574502DD75
:104EB000A7EB0A0000E0002000EB0A010090059833
:104EC0004144401A0590E00306D45B462146179AF8
:104ED000059800F0B3F90544002706E001A85A46FA
:104EE000C05D179990476D1C7F1C4745F6DBE003BA
:104EF0000CD55B462146179A059800F09FF90544AA
:104F000004E030205A46179990476D1C0099481EBE
:104F100000900029F5DC08E0029802995A460078D2
:104F2000491C0291179990476D1CBAF10001AAF132
:104F3000010AF1DC65E1000009280100303132335B
:104F400034353637383961626364656600000000C5
:104F500030313233343536373839414243444546AF
:104F60000000000000F058F90544761C3078002855
:104F70007FF4ECAD19B02846BDE8F08F620700D48D
:104F8000062709F1070222F0070CFCE80223E1469C
:104F900003F000485FEA080C02D00FF2702C0DE01D
:104FA0005FEA045C02D50FF2682C07E05FEAC47C7C
:104FB00002D00FF2602C01E0AFF2700C4FF0FF381E
:104FC00023F00043CDF850C065280CD006DC4528FE
:104FD00009D046281DD047283DD13DE0662818D08D
:104FE00067287ED138E00021112F01DB112000E07D
:104FF000781CCDE9000106A90EA8FFF7EDFCDDE95C
:105000000F010E9A03910021009207F1010A049109
:105010004DE04FF000400097CDE9011006A90EA821
:10502000FFF7DAFCDDE90F0203920E9B11990022D3
:10503000DDF80CA00093049211B9791C00EB010A71
:10504000B7EB0A0004D4C0F1FF3007F1010A049065
:10505000AAEB0700019044E0012F00DA01270021AC
:10506000112F01DD112000E03846CDE9000106A92D
:105070000EA8FFF7B1FCDDE90F010E9A03910021A4
:1050800004910092BA4621070CD40399514500DAE5
:105090008A46BAF1010F05DD009AAAF10101515CBF
:1050A000302908D0B84202DA10F1040F06DA0121E3
:1050B000CDE9011015E0AAF10101E9E7002805DCBE
:1050C000049901440491AAEB000102E0411C5145FE
:1050D00000DD8A460499401A401C01904FF00040C0
:1050E0000290200704D40198504501DBCDF80480DC
:1050F00000208DF84F0002980DF14F07B0F1004FDE
:1051000025D02B200E9002984FF0020800280CDAD0
:10511000404202902D200E9007E00A210298FFF7EE
:105120006DF93031029007F8011DB8F10001A8F1C6
:105130000108F2DC02980028EFD1791E0E98087061
:10514000307800F0200040F0450007F8020D12A86A
:10515000C01B00F107081498007800B1012000EB93
:105160000A01019801EBE07105984144401A401E84
:105170000590E00306D45B462146179A059800F097
:105180005DF805441498007818B15A46179990476D
:105190006D1CE00324D55B462146179A059800F064
:1051A0004DF805441CE00498002807DBDDE9030105
:1051B000884203DD0098405C179901E01799302080
:1051C0005A469047049805F10105401C0490019847
:1051D000401E019004D12E205A46179990476D1C0D
:1051E000BAF10001AAF1010ADDDC05E017F8010BB4
:1051F0005A46179990476D1CB8F10001A8F10108B3
:10520000F4DC5B462146179A0598ABE62D000000BA
:105210002B000000200000002DE9F041044600258D
:105220001E461746880404D405E039462020B047BE
:105230006D1C641EF9D52846BDE8F0812DE9F041CA
:10524000044600251E469046C80301D5302700E0DD
:105250002027880404D505E041463846B0476D1C38
:10526000641EF9D52846BDE8F0810A68531C0B601E
:10527000107070470000E6EE7DE1D5D4E2C89CBD19
:10528000F8B2EDA8729F7F960C8E13868D7E00007B
:1052900000400000000002000000040000000800C0
:1052A00000001000040000000400000008000000DE
:1052B00010000000100000000400000004000000C6
:1052C00008000000100000002000000000020400A0
:1052D0000004000400100004080000080008040096
:1052E0002500260027003400350000000010014092
:1052F0000200000000100140040000000010014006
:10530000080000002453000800000020F006000000
:105310003C49000830560008F0060020983E000086
:10532000C8490008180AFFFF08060C060307080210
:105330000348FF02721E021001F911A11008183C67
:105340003C3C181818190341E5666666243D6C6CF0
:10535000FE6C04392E580B187CC6C2C07C0686C66B
:105360007C31216009C2C60C183060C686500B38EB
:105370006C6C3876DCCCCCCC76D530303060192CE7
:10538000390163180C19093901931830AE663CFFD6
:105390003C66A37B187E6D89149931110A11FED8E1
:1053A00079322B0206A063C080580B7CC6C6CED6CD
:1053B000D6E6C6C67C281B38784C19016A7E20497F
:1053C0002F5AC65419106E063C060606301F0C1CD8
:1053D0003C6CCCFEB15A1E7B8EC0C0C0FC0E201BA4
:1053E0003860101AC60159101AFE4049F479802A13
:1053F000C6046920290C1A7E60BB0C78BA99F15951
:105400001069EF399FA530180C0619AB59AE313928
:105410001C292479601A0CDE895119115EDEDEDE4A
:10542000DCC0802F10386CC6C6FE91611EFC66661B
:10543000667C046366FC1C3C66C2E265C0C2663CD6
:105440002BF86C1D5D66666CF87C5809666268789E
:10545000686062668259109C6060F04066DEC6C675
:10546000663A296A396F59701A3C9D390159602B87
:105470001E0C0165CCCCCC781FE6666C6C78787518
:1054800062E61AF05B190179709EC6EEFEFED650F8
:105490008FC6E6F6FEDECE1029DF29019B6C38E0D0
:1054A000294259A04A7C1F7ED6DE7C0C0E2029E4BE
:1054B00059701920600860380C06C6C67CBC7E7E18
:1054C0005AB0493F19015920590E9C6C3810106E82
:1054D000D6D6FE6C6C101E6C6C38386C9661196AEE
:1054E0009B663C50580AFEC6860C183060C2C6E067
:1054F0005B3C3001592011580A80C0E070381C0E06
:105500000602205A0C0139201A10EF011922FF045B
:10551000123030186008780C7CCCCCCC762EE06051
:1055200060786C9592DC6E7CC6C0C0C0E01A1C6AC4
:105530001A6C2F693039208AFE201F386C6460F0A5
:10554000600192F02A762F4ECC7C0CCC78602B6CCC
:10555000766062E61318181A38FE5B1818E0130616
:10556000063B0E06012B66661319301C666C789399
:105570005930492D8930312CECFED601912ADC5F5F
:105580009B6666A0290159A079207A7CA369A05B5B
:105590000C1E20BB7662C06E7CC660380C401E10AC
:1055A0003030FC300193361C393F93CC76395F9311
:1055B0003C18197D8DD6D6FE6C10AF6C3838386C1F
:1055C000C6201901657E060CF86008FECC18306014
:1055D000C6FE1A0EEB2A70F0620E290B39055960CF
:1055E000291C29245B1870CDC2DCCAFF01A1143824
:1055F0000140124412401A48041A4C041A50041A6A
:10560000081429041A0C045A1004E9141614014051
:10561000EC521B08F4041AFC0445020406082D0190
:1056200002030404150607080984A24A0469140049
:0400000508000131BD
:00000001FF
