:020000040800F2
:1000000000000220012000084D2000084D200008BB
:100010004D2000084D2000084D2000080000000081
:100020000000000000000000000000004D2000085B
:100030004D200008000000004D200008AD260008FB
:100040004D2000084D2000084D2000084D200008DC
:100050004D2000084D2000084D2000084D200008CC
:100060004D2000084D2000084D2000084D200008BC
:10007000A52900084D200008152900084D2000087A
:100080004D2000084D2000084D20000805340008D0
:10009000E53400084D2000084D2000084D200008E0
:1000A0004D2000084D2000084D2000084D2000087C
:1000B0004D2000084D2000084D2000084D2000086C
:1000C0004D2000084D2000084D2000084D2000085C
:1000D0004D200008ED2B00084D200008792C000869
:1000E0004D2000084D2000084D2000084D2000083C
:1000F0004D2000084D2000084D2000084D2000082C
:100100004D2000084D2000084D2000084D2000081B
:10011000052D0008912D00084D2000084D200008F5
:100120004D2000084D200008C92A00084D20000875
:100130004D2000084D2000084D2000084D200008EB
:100140004D2000084D2000084D2000084D200008DB
:100150004D2000084D200008852800084D2000088B
:100160004D2000084D2000084D2000084D200008BB
:100170004D2000084D2000084D2000084D200008AB
:080180004D2000084D2000088D
:1001A00010B5054C237833B9044B13B10448AFF3B1
:1001B00000800123237010BD6008002000000000B3
:1001C00054800008084B10B51BB108480849AFF32C
:1001D00000800848036803B910BD074B002BFBD013
:1001E000BDE81040184700BF000000005480000820
:1001F000640800205C0800200000000000000000EF
:10020000A2EB0300704700BF02780B78012A28BFD9
:100210009A42F5D16DE9044540EA0104CDE902674F
:100220006FF0000C4FEA447212B380EA010414F03C
:10023000070F6AD100F0070420F0070004F003055F
:1002400021F007014FEAC505F0E8042314F0040F7C
:10025000F1E804670CFA05F462EA040266EA0406AF
:100260000AD063EA0403624667EA0407664603E0CD
:10027000F0E80423F1E8046782FA4CF582EA060408
:10028000A4FA8CF46CBB83FA4CF583EA0705A5FA53
:100290008CF595B950E9022351E9026782FA4CF5D1
:1002A00082EA0604A4FA8CF483FA4CF583EA070583
:1002B000A5FA8CF52543DBD09CB92DBAB5FA85F4A7
:1002C00024F0070427FA04F1DDE9026723FA04F3B6
:1002D00003F0FF0001F0FF01FDE80445A0EB010081
:1002E000704724BAB4FA84F424F0070426FA04F11F
:1002F000DDE9026722FA04F202F0FF0001F0FF01DB
:10030000FDE80445A0EB0100704714F0030F3CD159
:1003100010F0030428D150F8082B51F8083B82FA5A
:100320004CF582EA0305A5FA8CF55DB950F8042C6A
:1003300051F8043C82FA4CF582EA0305A5FA8CF5E3
:10034000002DE8D02DBAB5FA85F424F0070423FA7D
:1003500004F122FA04F202F0FF0001F0FF01FDE8CF
:100360000445A0EB010070474FEAC40420F00300ED
:1003700050F8082B21F0030151F8083B0CFA04F463
:1003800062EA040263EA0403C9E710F003041AD026
:10039000A1EB040120F00300E40750F8042B06D081
:1003A0000FD28B785FFAA2F4E41A06D12BB1CB7886
:1003B0005FFAB2F4E41A00D11BB920465DF8104B85
:1003C000704701F1040150F8042BCC0721F0030120
:1003D00051F8043B48D824D222F07F4482FA4CF5ED
:1003E00094EA1325A5FA8CF50AD165B951F8043BB6
:1003F00084EA0204B4EB036F0ED150F8042BEBE750
:100400004FEA132355E035F07F454DD10878FDE8DC
:100410000445C0F1000070474FEA126203F0FF0389
:1004200047E002EA1C4482FA4CF594EA1345A5FA27
:100430008CF50AD165B951F8043B84EA0204B4EBA7
:10044000034F0CD150F8042BEBE74FEA134330E095
:1004500015EA1C4528D10B884FEA124229E04FEAE1
:10046000124203EA1C4324E002F0FF0482FA4CF536
:1004700094EA1365A5FA8CF50AD165B951F8043BE5
:1004800084EA0204B4EB032F09D150F8042BEBE704
:100490004FEA13630DE015F0FF0F05D10B684FEA2B
:1004A000122223F07F4304E04FF00000FDE80445F2
:1004B000704712BA1BBA82FA4CF482EA0304A4FA17
:1004C0008CF5B5FA85F402FA04F203FA04F34FEA64
:1004D0001260FDE80445A0EB13607047AFF30080A5
:1004E000844641EA000313F003036DD1403A41D33F
:1004F00051F8043B40F8043B51F8043B40F8043BFE
:1005000051F8043B40F8043B51F8043B40F8043BED
:1005100051F8043B40F8043B51F8043B40F8043BDD
:1005200051F8043B40F8043B51F8043B40F8043BCD
:1005300051F8043B40F8043B51F8043B40F8043BBD
:1005400051F8043B40F8043B51F8043B40F8043BAD
:1005500051F8043B40F8043B51F8043B40F8043B9D
:1005600051F8043B40F8043B51F8043B40F8043B8D
:10057000403ABDD2303211D351F8043B40F8043B2D
:1005800051F8043B40F8043B51F8043B40F8043B6D
:1005900051F8043B40F8043B103AEDD20C3205D33D
:1005A00051F8043B40F8043B043AF9D2043208D035
:1005B000D2071CBF11F8013B00F8013B01D30B88A7
:1005C00003806046704700BF082A13D38B078DD085
:1005D00010F003038AD0C3F10403D21ADB071CBF57
:1005E00011F8013B00F8013B80D331F8023B20F8C1
:1005F000023B7BE7043AD9D3013A11F8013B00F8FA
:10060000013BF9D20B7803704B7843708B78837081
:100610006046704781F0004102E000BF83F0004374
:1006200030B54FEA41044FEA430594EA050F08BF8D
:1006300090EA020F1FBF54EA000C55EA020C7FEA51
:10064000645C7FEA655C00F0E2804FEA5454D4EBCE
:100650005555B8BF6D420CDD2C4480EA020281EA98
:10066000030382EA000083EA010180EA020281EAD0
:100670000303362D88BF30BD11F0004F4FEA013122
:100680004FF4801C4CEA113102D0404261EB410131
:1006900013F0004F4FEA03334CEA133302D05242B7
:1006A00063EB430394EA050F00F0A780A4F1010473
:1006B000D5F1200E0DDB02FA0EFC22FA05F28018AD
:1006C00041F1000103FA0EF2801843FA05F3594193
:1006D0000EE0A5F120050EF1200E012A03FA0EFC12
:1006E00028BF4CF0020C43FA05F3C01851EBE3713C
:1006F00001F0004507D54FF0000EDCF1000C7EEB59
:1007000000006EEB0101B1F5801F1BD3B1F5001F96
:100710000CD349085FEA30004FEA3C0C04F10104B5
:100720004FEA445212F5800F80F09A80BCF1004FDE
:1007300008BF5FEA500C50F1000041EB045141EA60
:10074000050130BD5FEA4C0C404141EB010111F461
:10075000801FA4F10104E9D191F0000F04BF01460C
:100760000020B1FA81F308BF2033A3F10B03B3F1EA
:1007700020020CDA0C3208DD02F1140CC2F10C027A
:1007800001FA0CF021FA02F10CE002F11402D8BFD8
:10079000C2F1200C01FA02F120FA0CFCDCBF41EAA4
:1007A0000C019040E41AA2BF01EB0451294330BD73
:1007B0006FEA04041F3C1CDA0C340EDC04F1140450
:1007C000C4F1200220FA04F001FA02F340EA030027
:1007D00021FA04F345EA030130BDC4F10C04C4F16D
:1007E000200220FA02F001FA04F340EA030029464D
:1007F00030BD21FA04F0294630BD94F0000F83F497
:10080000801306BF81F480110134013D4EE77FEA79
:10081000645C18BF7FEA655C29D094EA050F08BFC5
:1008200090EA020F05D054EA000C04BF19461046A6
:1008300030BD91EA030F1EBF0021002030BD5FEAEA
:10084000545C05D14000494128BF41F0004130BD12
:1008500014F580043CBF01F5801130BD01F0004566
:1008600045F0FE4141F470014FF0000030BD7FEAD9
:10087000645C1ABF194610467FEA655C1CBF0B46D4
:10088000024650EA013406BF52EA033591EA030FEB
:1008900041F4002130BD00BF90F0000F04BF0021E3
:1008A000704730B54FF4806404F132044FF0000516
:1008B0004FF0000150E700BF90F0000F04BF00218F
:1008C000704730B54FF4806404F1320410F00045F5
:1008D00048BF40424FF000013EE700BF42004FEAF0
:1008E000E2014FEA31014FEA02701FBF12F07F436D
:1008F00093F07F4F81F06051704792F0000F14BF6A
:1009000093F07F4F704730B54FF4607401F00045AD
:1009100021F0004120E700BF50EA010208BF704704
:1009200030B54FF000050AE050EA010208BF7047F9
:1009300030B511F0004502D5404261EB41014FF462
:10094000806404F132045FEA915C3FF4DCAE4FF066
:1009500003025FEADC0C18BF03325FEADC0C18BF4D
:10096000033202EBDC02C2F1200300FA03FC20FA9E
:1009700002F001FA03FE40EA0E0021FA02F11444EB
:10098000C1E600BF70B54FF0FF0C4CF4E06C1CEA00
:1009900011541DBF1CEA135594EA0C0F95EA0C0F75
:1009A00000F0DEF82C4481EA030621EA4C5123EAE8
:1009B0004C5350EA013518BF52EA033541F4801117
:1009C00043F4801338D0A0FB02CE4FF00005E1FBCA
:1009D00002E506F00042E0FB03E54FF00006E1FB14
:1009E00003569CF0000F18BF4EF0010EA4F1FF0457
:1009F000B6F5007F64F5407404D25FEA4E0E6D4197
:100A000046EB060642EAC62141EA55514FEAC520A7
:100A100040EA5E504FEACE2EB4F1FD0C88BFBCF523
:100A2000E06F1ED8BEF1004F08BF5FEA500E50F1D4
:100A3000000041EB045170BD06F0004646EA01019A
:100A400040EA020081EA0301B4EB5C04C2BFD4EBCC
:100A50000C0541EA045170BD41F480114FF0000EC5
:100A6000013C00F3AB8014F1360FDEBF002001F033
:100A7000004170BDC4F10004203C35DA0C341BDCAD
:100A800004F11404C4F1200500FA05F320FA04F07F
:100A900001FA05F240EA020001F0004221F00041B3
:100AA00010EBD37021FA04F642EB06015EEA430E26
:100AB00008BF20EAD37070BDC4F10C04C4F1200556
:100AC00000FA04F320FA05F001FA04F240EA020009
:100AD00001F0004110EBD37041F100015EEA430EDA
:100AE00008BF20EAD37070BDC4F1200500FA05F2FA
:100AF0004EEA020E20FA04F301FA05F243EA020379
:100B000021FA04F001F0004121FA04F220EA020087
:100B100000EBD3705EEA430E08BF20EAD37070BDCD
:100B200094F0000F0FD101F00046400041EB0101AD
:100B300011F4801F08BF013CF7D041EA060195F08F
:100B4000000F18BF704703F00046520043EB030349
:100B500013F4801F08BF013DF7D043EA0603704736
:100B600094EA0C0F0CEA135518BF95EA0C0F0CD041
:100B700050EA410618BF52EA4306D1D181EA030187
:100B800001F000414FF0000070BD50EA410606BF81
:100B90001046194652EA430619D094EA0C0F02D1C6
:100BA00050EA013613D195EA0C0F05D152EA03360B
:100BB0001CBF104619460AD181EA030101F0004129
:100BC00041F0FE4141F470014FF0000070BD41F072
:100BD000FE4141F4780170BD70B54FF0FF0C4CF44C
:100BE000E06C1CEA11541DBF1CEA135594EA0C0F6B
:100BF00095EA0C0F00F0A7F8A4EB050481EA030EB8
:100C000052EA03354FEA013100F088804FEA03339E
:100C10004FF0805545EA131343EA12634FEA02226C
:100C200045EA111545EA10654FEA00260EF000412D
:100C30009D4208BF964244F1FD0404F5407402D27F
:100C40005B084FEA3202B61A65EB03055B084FEA10
:100C500032024FF480104FF4002CB6EB020E75EB0D
:100C6000030E22BFB61A754640EA0C005B084FEA35
:100C70003202B6EB020E75EB030E22BFB61A7546B2
:100C800040EA5C005B084FEA3202B6EB020E75EBFD
:100C9000030E22BFB61A754640EA9C005B084FEA75
:100CA0003202B6EB020E75EB030E22BFB61A754682
:100CB00040EADC0055EA060E18D04FEA051545EA71
:100CC00016754FEA06164FEAC30343EA52734FEA1A
:100CD000C2025FEA1C1CC0D111F4801F0BD141EA93
:100CE00000014FF000004FF0004CB6E711F4801FF8
:100CF00004BF01430020B4F1FD0C88BFBCF5E06FD8
:100D00003FF6AFAEB5EB030C04BFB6EB020C5FEAE7
:100D1000500C50F1000041EB045170BD0EF0004E3C
:100D20004EEA113114EB5C04C2BFD4EB0C0541EA6E
:100D3000045170BD41F480114FF0000E013C90E66B
:100D400045EA060E8DE60CEA135594EA0C0F08BF2F
:100D500095EA0C0F3FF43BAF94EA0C0F0AD150EA2E
:100D600001347FF434AF95EA0C0F7FF425AF1046C1
:100D700019462CE795EA0C0F06D152EA03353FF4E9
:100D8000FDAE1046194622E750EA410618BF52EA66
:100D900043067FF4C5AE50EA41047FF40DAF52EA3A
:100DA00043057FF4EBAE12E74FEA410212F5001261
:100DB00015D211D56FF47873B3EB625212D94FEAA2
:100DC000C12343F0004343EA505311F0004F23FA8C
:100DD00002F018BF404270474FF00000704750EAE1
:100DE000013005D111F0004008BF6FF0004070479E
:100DF0004FF00000704700BF4A0011D212F50012F8
:100E000011D20DD56FF47873B3EB62520ED44FEA62
:100E1000C12343F0004343EA505323FA02F07047E2
:100E20004FF00000704750EA013002D14FF0FF3020
:100E300070474FF0000070474FEA4102B2F1E043C3
:100E400024BFB3F5001CDCF1FE5C0DD901F0004CB1
:100E50004FEAC0024CEA5070B2F1004F40EB830001
:100E600008BF20F00100704711F0804F21D113F12D
:100E70003872BCBF01F00040704741F480114FEA66
:100E80005252C2F11802C2F1200C10FA0CF320FAEF
:100E900002F018BF40F001004FEAC1234FEAD3230C
:100EA00003FA0CFC40EA0C0023FA02F34FEA430376
:100EB000CCE77FEA625307D150EA01331EBF4FF0FF
:100EC000FE4040F44000704701F0004040F0FE401A
:100ED00040F40000704700BF03685A004CBF43F065
:100EE000004323F000431844704700BF2DE9F04F42
:100EF00083B099B34B1E17460546019398460026CA
:100F000006EB080404EBD47464104FEAC40A05EB42
:100F10000A0B5846FFF7E0FF019B8146A3420AF106
:100F2000080028440ED0FFF7D7FFB94500F1FF3085
:100F300004D9B4420CD004F1FF38E1E7B84203D23F
:100F4000661CDDE7B945F4D8584603B0BDE8F08F1C
:100F50004FF0000B584603B0BDE8F08F8B46584663
:100F600003B0BDE8F08F00BF012807D0022807D0EA
:100F7000044B00280CBF18460020704702487047F9
:100F80000248704775160008791600087D1600089B
:100F900030B5244B83B004468D1E7BB3284601A98F
:100FA000AFF3008020B301992A46FFF79FFF054663
:100FB000F0B1FFF791FF6B68A064012B12D0002BFA
:100FC00005F1040020DBFFF787FF0023E0642365C1
:100FD0000368002B1CDBFFF77FFF0023206118460E
:100FE00003B030BD002323610523184603B030BD94
:100FF000002323610923184603B030BD0A490B487A
:10100000091AC9100191CFE70123E0642365DFE7E6
:10101000C3F30360FFF7A8FF002820610CBF09237A
:101020000023DCE7000000004C870008BC830008B8
:101030000368DA0710B5044606D49B0700F14800A0
:1010400009D500F085FC2368590709D51A070ED584
:10105000DB0613D510BD00F073FC23685907F5D4E7
:1010600004F1D00000F07CFC23681A07F0D404F5EA
:10107000A87000F07DFC2368DB06EBD404F5E87073
:10108000BDE8104000F0B8BC03680BB118447047CD
:101090001846704709207047704700BF70B5044676
:1010A0000D4608E02B6C63610120236921462A4626
:1010B0009847082808D12046296CFFF769FF0646A3
:1010C0000028EFD006F026F90728FBD13046296C1E
:1010D000FFF7E2FF281D00F027FC00BF2DE9F047D5
:1010E0000C1D064617460FCCADF5727D03AD0FC53E
:1010F0000FCC0FC50FCC0FC594E80F0002AC4FF01A
:10110000000ED6F80C80D6F8189085E80F0030460F
:10111000216CC4F800E0FFF73BFF002F05460CBF31
:1011200009270A277DB1A36B47F010018DE8100253
:101130000120636432463346C04778BB28460DF52C
:10114000727DBDE8F087236C736121464FF4F07225
:101150007AA8FFF7C5F9336931467AAA3846984725
:10116000889B82468DE8100239466364012032462E
:101170003346C04790B920467AA94FF4F072FFF782
:10118000AFF9BAF1080F06D13046216CFFF700FF26
:1011900009270546C6E7BAF1070F04D009200DF567
:1011A000727DBDE8F0872846216CFFF775FF03A824
:1011B00000F0BAFB406C7047F0B5CB6B0B640E1DB2
:1011C0000F4604460FCEF9B001AD0FC50FCE0FC5C7
:1011D0000FCE0FC596E80F004FF0FF3685E80F00E1
:1011E000009606E0236921466A4698470828054686
:1011F00008D120461099FFF7CBFE0028F2D0092035
:1012000079B0F0BD6846FFF713FF062DF7D12046F1
:101210003946FFF743FF00BF30B4DD6BC160826128
:1012200019461D64002230BC58E700BF70B5C6687F
:1012300043690B6404460D4626B10122FFF74EFFB9
:1012400006F068F80369214602202A4698470728D5
:1012500007D0082803D120462946FFF71FFF06F0D4
:1012600059F83046296CFFF717FF281D00F05CFB8A
:10127000C2681AB1CA6B0A6400222FE79CE700BF5C
:10128000704700BF836813B10146012018477047BB
:1012900000B5042907D8DFE801F0030906090900B1
:1012A0000BB90F2A05D902205DF804FB01205DF877
:1012B00004FB00EB820218465368019A13605DF844
:1012C00004FB00BF00B585B00A4603AB00210093C4
:1012D0000B46FFF7DDFF039805B05DF804FB00BF88
:1012E00000B5042907D8DFE801F003090609090061
:1012F0000BB90F2A05D902205DF804FB01205DF827
:1013000004FB019900EB82020968516018465DF800
:1013100004FB00BF10B584B004AB0C4643F8042DA9
:101320000021009322460B46FFF7DAFF04B010BD00
:10133000F0B5D36B1364151D07460E460FCDADF502
:101340000F7D17AC0FC40FCD0FC40FCD0FC495E8A0
:101350000F004FF0FF3584E80F00169510E016A837
:10136000FFF7D8FF314616A8B847694616AA78B9DC
:10137000049B08209847052804460AD0092807D06E
:1013800026996846FFF704FE6A460C210028E6D03D
:10139000092416A8FFF74CFE20460DF50F7DF0BD81
:1013A0002DE9F04F0D46C96C8BB00C1D09680791F3
:1013B0009046089400F003091E46002B64D10902F0
:1013C000032307918DF825608DF824302B6DB9F13A
:1013D000020F08BFAC6B13F0010343D100F008000B
:1013E000C2B2039201932768002F3DD0022E47D04E
:1013F0002788B4F802A00434AB6C2AF0010B4046F5
:101400000F219B44FFF75EFF834537D827F0010388
:101410009B4458452CBF002001200AF0010A07F028
:10142000010747EA4A0ABAF1010F43D03AD3BAF1A9
:10143000020F1FD1236823F000420292B9F1000F7E
:101440007BD138B1039A002A00F08380029A002AE7
:1014500000F0A680002B7ADB029B03F1010A04EB6B
:101460008A04C0E700230193022E40DDFFF712FE3D
:10147000002842D009200BB0BDE8F08F0020CCE757
:10148000D4F804A00834B7E7022B9FDC0B0CDFB2C2
:10149000090402228DF8253004EB870407918DF8AA
:1014A000242093E7B9F1000F02D0002840F0AD806E
:1014B000043498E7B9F1000F26D1B0B194E80C00DC
:1014C000D70F9A1CD6D005F158020133069200F0CE
:1014D0009280201DFFF7D8FD3A46014606AB28460C
:1014E00005F020F8002840F0B58008347BE740463E
:1014F00007A900F01BFB0028BCD1019B002B59D190
:1015000008200BB0BDE8F08F40460D212F6AFFF791
:10151000D9FE8742E9D1AB6A9C42E6D12046FFF76B
:10152000DBFC0F2102464046FFF7F4FE40462A4608
:101530000021FFF7EFFE07209DE740460D212F6AAF
:10154000FFF7C0FE874245D02368002B84DA0434BD
:1015500082E7029B23B305F15803059604F1040AC0
:10156000039FDDF808B0CDF810901E4602E0D94583
:101570004F4615D050460696FFF786FD00220146DD
:1015800006AB284604F0CEFF07F101090AF1040A70
:101590000028ECD0029BDDF81090059E9F42D3D12D
:1015A00040460D21FFF78EFE069B2862AC626B62FF
:1015B000062060E70F214046FFF784FE0E21024619
:1015C0004046FFF7A7FE40460F21294AFFF7A2FE3B
:1015D000072050E7AB6A9C42B6D104220027A3182B
:1015E0000299A962EF622A636B632368BB421FDB27
:1015F0000123019330E740460D21FFF763FE286287
:10160000069B6B62AC62062035E72046FFF764FC60
:1016100004340646AC63284604F0DCFF00283FF49F
:1016200029AF404632460F21FFF774FE072022E71C
:101630000846013004EB8000FFF74EFC0F21024604
:101640004046FFF767FE404639462A46FFF762FEEE
:10165000072010E707460D214046FFF733FE022F13
:101660002862CDD12B46069A43F82C2F6B62C9E72E
:1016700005670008002393E6012391E602238FE625
:10168000F0B50546C5B004290CD8DFE801F05603D3
:101690000B300E00012B4FEA124496B265D0052B99
:1016A00000F08480022045B0F0BD002BFAD1102A52
:1016B000F8D82B68DC0600F1EB8022AE30460192B0
:1016C00000F0A4F9A86B019A0023012404FA03F1A5
:1016D000114203D0016846F8231004300133042B73
:1016E000F4D1A863304600F087F90020DBE7032B34
:1016F000D8D1140C97B23B19102BD3D82B681E07E6
:1017000000F1E68022AE30467F0000F053F906EB90
:10171000C4027B1EAC6B57B1043A214651F8040B4E
:1017200042F8040F013B581CF8D104EB8704304603
:10173000AC6300F01DF90020B5E7002BB2D1AC6B13
:1017400097B2281D012606FA03F1394203F101037D
:1017500002D0216801600434102B00F10400F2D1A2
:1017600012F4005020D1AC639DE73219102A99D8A9
:101770000F2C97D82968C8074FF0000755D422A826
:10178000019300F0E1F8019B19E008463746012B70
:1017900000F098800F2CA86302D822A800F0D8F897
:1017A00017B102A800F0DCF800207CE73719202FE1
:1017B0003FF678AF0F2C30D93746002E45D1A96BB4
:1017C0003246002EE1D0002744A84FEA420C00EB3D
:1017D000C4000CF1FF328C388E465EF8046B40F882
:1017E000046F013A561CF8D101EB8C00002FCED0CB
:1017F000102C224644A938BF102201EBC202A2F5E8
:10180000C47201467800043A01EB800051F8046B81
:1018100042F8046F8142F9D1B9E7102F42D92A6802
:10182000D007A7F11007114610D521F00102052BB2
:101830002A60019328465BD021F0030140F8481B41
:1018400000F082F8019B002F4AD02A6851075BD430
:10185000012B63D00F2C04D822A8019300F07CF850
:10186000019B002FABD002A8019300F07DF8019BF3
:10187000A96BC4F11002002AA6DC102C224644A851
:1018800038BF102200EBC202A2F5C4727800BAE79A
:1018900023F010032B6005F5E870019200F0B6F814
:1018A000019A0AE72968C8071DD521F001022846D8
:1018B00042F0020240F8482B0193002700F04CF858
:1018C000019BC9E70430A86322A800F039F86BE750
:1018D00023F008032B6005F5A87000F06BF811E702
:1018E000012B3FF44CAF0F2C98BF0027B4D966E70B
:1018F00042F0020240F8482B00F02EF8019B002F26
:10190000AAD02A685107A5D5284622F0040240F83B
:10191000D02B019300F028F8019B99E722A80193AE
:1019200000F012F8019BA3E700F1340191E83800C0
:101930009C46A6464CF8045D90E8FF0FE54600BDC6
:1019400090EC210B704700BF80EC210B704700BF6B
:1019500090EC200B704700BF80EC200B704700BF5D
:10196000D0EC200B704700BFC0EC200B704700BFCD
:10197000F0EC0201F0EC0211F0EC0221F0EC02318B
:10198000F0EC0241F0EC0251F0EC0261F0EC02717B
:10199000F0EC0281F0EC0291F0EC02A1F0EC02B16B
:1019A000F0EC02C1F0EC02D1F0EC02E1F0EC02F15B
:1019B000704700BFE0EC0201E0EC0211E0EC022114
:1019C000E0EC0231E0EC0241E0EC0251E0EC0261BB
:1019D000E0EC0271E0EC0281E0EC0291E0EC02A1AB
:1019E000E0EC02B1E0EC02C1E0EC02D1E0EC02E19B
:1019F000E0EC02F1704700BFB0FC0181B0FC019146
:101A0000B0FC01A1B0FC01B1704700BFA0FC018196
:101A1000A0FC0191A0FC01A1A0FC01B1704700BF96
:101A2000EC4600B52DE900502DE9FF1F4FF00003F3
:101A30002DE90C0001A9FFF7BFFBDDF840E012B073
:101A4000704700BFEC4600B52DE900502DE9FF1F9F
:101A50004FF000032DE90C0001A9FFF7E7FBDDF8CB
:101A600040E012B0704700BFEC4600B52DE90050D1
:101A70002DE9FF1F4FF000032DE90C0001A9FFF72E
:101A8000F7FBDDF840E012B0704700BFEC4600B550
:101A90002DE900502DE9FF1F4FF000032DE90C0048
:101AA00001ABFFF7B9FBDDF840E012B0704700BFB3
:101AB000EC4600B52DE900502DE9FF1F4FF0000363
:101AC0002DE90C0001AAFFF733FCDDF840E012B06D
:101AD000704700BF037A1BB9437A43B9B0207047FF
:101AE0005A1E036802721A020260180E704742689A
:101AF000013B10B4437213680321141D01721A02D2
:101B0000446002605DF8044B180E704700B585B064
:101B100003AB002100930C220B46FFF7B9FB03989F
:101B200005B05DF804FB00BFF0E700BF2DE9F0430E
:101B3000064685B00D464FF000082846FFF7CAFF5D
:101B4000B028044600F0B58020F07F0111F0FF01BD
:101B500020D000F0F003802B7AD0902B36D0A02B31
:101B600049D0B02B5CD0C02B00F0898000F0F80386
:101B7000D02B0BD100F00702013242F40022304694
:101B800001210523FFF77CFD0028D6D0092005B0F0
:101B9000BDE8F0830DF10C090B468700CDF80090ED
:101BA00030460D22FFF774FBFFB2039BCDF8009087
:101BB000043760064FF000014CBFDF1BFF183046B2
:101BC0000B460D220397FFF78BFBB6E700F00D03E2
:101BD0000D2BDBD003AF002100F00F020B46009766
:101BE0003046FFF755FB002100970B4630460D228B
:101BF000FFF776FBA1E7C34303F007034FF47F62CF
:101C00001A41010702F47F624FF0000148BF42F41D
:101C100080420B463046FFF733FD0028B6D18CE7F3
:101C2000B1284CD0B2285DD0B32800F08A8000F0F3
:101C3000FC03B42BAAD000F007020132012142F4C8
:101C400000220B463046FFF71BFD00289ED174E7AB
:101C50002846FFF73FFF24022043B0F5004F95D000
:101C600004010021A2B20B463046FFF709FD00280F
:101C70008CD114F4004F18BF4FF001085DE7C6285F
:101C800072D0C7287AD000F0F803C02B00F089800A
:101C9000C82800F0A580C9287FF478AF2846FFF750
:101CA00019FF00F00F02013200F0F00042EA0032AA
:101CB00065E7B8F1000F00F08280002067E7284652
:101CC000FFF708FF024600283FF460AF10F0F00174
:101CD0007FF45CAF30460B46FFF7D2FC00287FF460
:101CE00055AF2AE700210DF10C090D220B46CDF866
:101CF00000903046FFF7CCFA2846FFF7EBFE0206CD
:101D00004FF002040CD5039B00F07F00A040034479
:101D100028460393FFF7DEFE030604F10704F2D41E
:101D2000039BCDF8009000F07F00A04003F5017305
:101D300000211C180D220B4630460394FFF7D0FA01
:101D4000FBE62846FFF7C6FE00F00F02013200F066
:101D5000F000012142EA00320B463046FFF790FCCA
:101D600000287FF413AFE8E62846FFF7B3FE00F043
:101D70000F02013200F0F0000321EBE72846FFF7E5
:101D8000A9FE024600283FF401AF10F0F0037FF4F3
:101D9000FDAE30460421FFF773FC00287FF4F6AE59
:101DA000CBE600F00F020132032142F420220B4661
:101DB0003046FFF765FC00287FF4E8AEBDE603ACD3
:101DC00041460E22434600943046FFF761FA0094E4
:101DD000304641460F224346FFF782FA4046D6E698
:101DE0002846FFF777FE00F0F00200F00F031032F4
:101DF000013343EA0232C2E610B5C36C84B05A68BC
:101E000003208DF80C00DC798DF80D4012020833A8
:101E1000084601A901920293FFF788FE04B010BDA5
:101E200008B5FFF781FE806C08BD00BF08B5FFF75D
:101E30007BFEC36CD87903EB8000083008BD00BF7F
:101E400008B505F067FA00BF08B505F063FA00BFF2
:101E500080B400AFFEE700BF80B582B000AF78600D
:101E6000786805F0A5FA0837BD4680BD80B582B018
:101E700000AF786001200249042200F081F8FEE7FB
:101E8000487D000880B400AF01231846BD465DF8C8
:101E9000047B704780B483B000AF78603960054B35
:101EA00016221A604FF0FF3318460C37BD465DF816
:101EB000047B7047C891002090B585B000AF786072
:101EC000154B1B68002B02D1134B144A1A60124B9E
:101ED0001B68FB60EFF308831C462346BB600E4B78
:101EE0001A687B681A44BB689A420AD902200C49D6
:101EF000192200F045F80B4B0C221A604FF0FF330B
:101F000006E0054B1A687B681344034A1360FB68BC
:101F100018461437BD4690BD7C080020CC910020A7
:101F2000507D0008C891002080B584B000AF786073
:101F3000114BFB6006E0FB685A1EFA60002B01DAC9
:101F4000002314E00D4B1B681846802104F04AF969
:101F50000346002BEFD0094B1A687B689BB2C3F392
:101F600008039BB21046194604F01AF97B6818461C
:101F70001037BD4680BD00BF802005000000002056
:101F800080B586B000AFF860B9607A60FB68012B5D
:101F900002D0022B13D025E000237B610AE0BB684E
:101FA0005A1CBA601B785BB21846FFF7BDFF7B690D
:101FB00001337B617A697B689A42F0DB18E0002389
:101FC0007B610AE0BB685A1CBA601B785BB218469A
:101FD000FFF7AAFF7B6901337B617A697B689A42CC
:101FE000F0DB05E0054B09221A604FF0FF3300E0FB
:101FF0007B6818461837BD4680BD00BFC8910020D9
:10200000002103E00C4B5B58435004310B480C4B50
:1020100042189A42F6D30B4A02E0002342F8043BEE
:10202000094B9A42F9D304F009F905F091F900F04F
:10203000F3F905F077F97047688700080000002081
:102040005C08002060080020CC910020FEE7000022
:1020500080B582B000AF78600B46FB707B681A6871
:10206000FB78002B01D0012300E000231046194625
:1020700001F018FD0837BD4680BD00BF80B586B0B1
:1020800002AFF860B9601346FB71FB68BA681A606A
:10209000FB681A68002300931046032101220023E5
:1020A00001F048FCFB79F8681946FFF7D1FFFB689F
:1020B00018461037BD4680BD80B582B000AF78604D
:1020C0007B681B681846012101F0ECFC0837BD460F
:1020D00080BD00BF80B582B000AF78607B681B68B0
:1020E0001846002101F0DEFC0837BD4680BD00BF68
:1020F00080B582B000AF78607B681B68184601F03D
:10210000BFFC0346002B0CBF01230023DBB2786821
:102110001946FFF79DFF0837BD4680BD80B584B0E6
:1021200002AF78600B46FB707B681A68002300934F
:10213000104603210122002301F0FCFBFB787868A4
:102140001946FFF785FF0837BD4680BD80B500AF53
:1021500018480021FFF7E2FF17480021FFF7DEFFD4
:1021600016480021FFF7DAFF15480021FFF7D6FFD8
:1021700014480021FFF7D2FF13480021FFF7CEFFDC
:1021800012480021FFF7CAFF11480021FFF7C6FFE0
:1021900010480021FFF7C2FF0F480021FFF7BEFFE4
:1021A0000E480021FFF7BAFF0D480021FFF7B6FFE8
:1021B00080BD00BF8008002084080020880800201F
:1021C0008C08002094080020980800209C0800201B
:1021D000A0080020A4080020A8080020AC080020C7
:1021E0009008002080B582B000AF0346FB80B7F9AD
:1021F0000630062B28D801A252F823F04922000805
:102200001922000821220008292200083122000892
:1022100039220008412200080D48FFF75BFF13E058
:102220000C48FFF757FF0FE00B48FFF753FF0BE099
:102230000A48FFF74FFF07E00948FFF74BFF03E0AD
:102240000848FFF747FF00BF0837BD4680BD00BF05
:10225000980800209C080020A0080020A408002066
:10226000A8080020AC08002080B582B000AF03466B
:10227000FB80204B1B88B7F906201BB29A4236D050
:10228000B7F90630062B29D801A252F823F000BF77
:10229000DD220008AD220008B5220008BD2200089A
:1022A000C5220008CD220008D52200081248FFF7F9
:1022B00003FF13E01148FFF7FFFE0FE01048FFF7A0
:1022C000FBFE0BE00F48FFF7F7FE07E00E48FFF7B5
:1022D000F3FE03E00D48FFF7EFFE00BF054B1B8840
:1022E0001BB21846FFF77EFF024AFB8813800837AF
:1022F000BD4680BDB0080020980800209C08002042
:10230000A0080020A4080020A8080020AC08002095
:1023100080B582B000AF786039607B68012B40D116
:102320003B684FF6FF7293423BD11F481F49002282
:10233000FFF7A4FE1E481F490022FFF79FFE1E481C
:102340001E490022FFF79AFE1D481E490022FFF792
:1023500095FE1D481D490022FFF790FE1C481D49AF
:102360000022FFF78BFE1C481C490022FFF786FE67
:102370001B481C490022FFF781FE1B481B49002215
:10238000FFF77CFE1A481B490022FFF777FE1A4828
:102390001A490022FFF772FE19481A490022FFF776
:1023A0006DFE0837BD4680BD8008002010870020E4
:1023B0008408002020870020880800203087002023
:1023C0008C08002018870020900800202887002013
:1023D0009408002078860020980800209886002025
:1023E0009C08002090860020A00800208086002005
:1023F000A408002068860020A80800206887002024
:10240000AC0800207086002080B500AF01204FF698
:10241000FF71FFF77DFF80BD80B598B004AF07F175
:102420004803184600F0A2F93A46574B0093574B21
:102430000193574B0293574B039310465649574A03
:10244000574B01F0E3FDFFF781FE00F05DFE00F069
:10245000F1FF00F099FD07F14803184600F0E6F996
:1024600003461A464F4B1B689A4214BF01230023B0
:10247000DBB2002BEFD007F14803184600F0D6F985
:1024800003461A46474B1A603B46184601F03AF994
:102490003B46184601F0DCFE424B1A68424B83FB78
:1024A00002135911D317CB1A642101FB03F3D31A7A
:1024B000002B03D13B46184601F0A0F93B461846D5
:1024C00001F0D0F9034683F00103DBB2002B03D007
:1024D0003648FFF7F1FD02E03448FFF7FBFD3B46CD
:1024E000184602F05DF80346002B09D03048FFF78C
:1024F000E3FD3048FFF7EEFD2F48FFF7EBFD23E04B
:102500003B46184601F080FEF0EE407AF5EE407A48
:10251000F1EE10FA08D13B46184601F0A3F9034644
:10252000002B01D0012300E00023002B03D0224820
:10253000FFF7C2FD02E02048FFF7CCFD1D48FFF782
:10254000BBFD1B48FFF7C6FD164B1A68164B83FBF5
:1025500002135911D317CB1A642101FB03F3D31AC9
:10256000002B02D11548FFF7C3FD0E4B1B68002B53
:102570007FF471AF1248FFF79FFD6CE73B461846AA
:1025800000F020F803F0C8FF58870020488700209B
:10259000508700206489002098870020A0870020B1
:1025A00000040040040000201F85EB519408002027
:1025B0008008002084080020880800208C08002063
:1025C0009008002080B582B000AF78607B68084A30
:1025D0001A607B68184601F051F90023002B02D0E5
:1025E0007868FFF739FC7B6818460837BD4680BD20
:1025F000C07D000880B582B000AF78607868FFF7D2
:10260000E1FF7868FFF728FC7B6818460837BD466D
:1026100080BD00BF80B483B000AF03463960FB715A
:1026200097F90730002B0BDA0D49FB7903F00F0304
:10263000043B3A68D2B21201D2B20B441A7609E0D6
:10264000084997F907303A68D2B21201D2B20B4466
:1026500083F800230C37BD465DF8047B704700BF4C
:1026600000ED00E000E100E080B582B000AF7860EE
:102670007B68013BB3F1807F01D301230FE00A4A5D
:102680007B68013B53604FF0FF300F21FFF7C2FF23
:10269000054B00229A60044B07221A60002318465B
:1026A0000837BD4680BD00BF10E000E080B582B0B5
:1026B00000AF234B1B680133214A1360204B1B687A
:1026C00041F287329342CCBF01230023DBB2002BBF
:1026D00002D01B4B00221A60194B1968194B83FB5F
:1026E00001235A10CB17D21A13469B001344CA1A5F
:1026F000002A04D1144B1B68184600F073F8002020
:1027000002F01EF8034618469FED100ADFED100A8E
:10271000B3EE081A01F022FE0EE002460B46012B32
:1027200001D003F0F9FE1346184604F055F80346AD
:102730007B6000BF04F096F800BF0837BD4680BD3F
:10274000B808002067666666B40800200000804272
:102750009A99993F80B483B000AF78607B689B887A
:1027600018460C37BD465DF8047B704780B582B0D3
:1027700000AF78607B6800221A807B6800225A8054
:102780007B6800229A800E4B1B680E4AA2FB032333
:102790001B0B1846FFF768FF0B4A7B68136045F276
:1027A000555003F0A3F8052003F0B0F8FA2003F029
:1027B000BDF803F0CBF87B6818460837BD4680BDEE
:1027C000140000205917B7D1B408002080B400AF1E
:1027D000034B1B681846BD465DF8047B704700BF7D
:1027E000B408002080B483B000AF78607B681B8899
:1027F00001339AB27B681A807B681B8840F2E7320B
:1028000093428CBF01230023DBB2002B08D07B68EE
:102810005B8801339AB27B685A807B6800221A80F9
:102820000C37BD465DF8047B704700BF80B483B0B1
:1028300000AF78607B681B8818460C37BD465DF892
:10284000047B704780B582B000AF78607868FFF78E
:1028500081FF0346002B0CBF01230023DBB2184687
:102860000837BD4680BD00BF80B483B000AF78603C
:102870000B467B807B687A889A800C37BD465DF872
:10288000047B704780B500AF1F48204902F0A0FECE
:102890000346012B0CBF01230023DBB2002B31D0F8
:1028A00019481A4902F0ECFE1748002102F074FEA4
:1028B000FFF78CFF034618460321FFF7D5FF09E019
:1028C000FFF784FF03461846FFF7BCFF0346002BC3
:1028D00000D00BE00E48402103F084FC0346002B9F
:1028E0000CBF01230023DBB2002BE9D108484021B3
:1028F00003F094FC064800F0D9FA0346184600217C
:1029000000F08CFA80BD00BFB8640240008000284F
:102910000010014080B500AF1F48204902F058FE6A
:102920000346012B0CBF01230023DBB2002B31D067
:1029300019481A4902F0A4FE1748002102F02CFEA3
:10294000FFF744FF034618460321FFF78DFF09E018
:10295000FFF73CFF03461846FFF774FF0346002BC2
:1029600000D00BE00E48402103F03CFC0346002B56
:102970000CBF01230023DBB2002BE9D10848402122
:1029800003F04CFC064800F091FA0346184600217B
:1029900000F044FA80BD00BF58600240008000187B
:1029A0000048004090B583B000AF4448444902F06D
:1029B0000FFE0346012B0CBF01230023DBB2002BCB
:1029C00079D03E483E4902F05BFE3C48002102F0CF
:1029D000E3FDFFF7FBFE034618460321FFF744FF24
:1029E00009E0FFF7F3FE03461846FFF72BFF034607
:1029F000002B00D00BE03348202103F0F3FB03460B
:102A0000012B0CBF01230023DBB2002BE9D10023F3
:102A10007B6049E02B4800F049FA0346184600F075
:102A200029FA0446274800F041FA0346184600F008
:102A300013FA03461C44234800F038FA03461846AC
:102A400000F026FA02467B6813441B7823701D4869
:102A500000F02CFA04461B4800F028FA03461846FA
:102A600000F0FAF9034601332046194600F0E6F972
:102A7000144800F01BFA0346184600F0EDF9024630
:102A800040F2FF739A420CBF01230023DBB2002BFC
:102A900007D00C4800F00AFA03461846002100F05F
:102AA000CDF97B6801337B607B68072BB2DD03487F
:102AB000012102F071FD0C37BD4690BD2860024037
:102AC000008800100048004090B583B000AF444833
:102AD000444902F07DFD0346012B0CBF0123002376
:102AE000DBB2002B79D03E483E4902F0C9FD3C489C
:102AF000002102F051FDFFF769FE0346184603214D
:102B0000FFF7B2FE09E0FFF761FE03461846FFF744
:102B100099FE0346002B00D00BE03348202103F040
:102B200061FB0346012B0CBF01230023DBB2002B0A
:102B3000E9D100237B6049E02B4800F0B7F9034658
:102B4000184600F097F90446274800F0AFF903460D
:102B5000184600F081F903461C44234800F0A6F90A
:102B60000346184600F094F902467B6813441B782C
:102B700023701D4800F09AF904461B4800F096F9AE
:102B80000346184600F068F903460133204619460B
:102B900000F054F9144800F089F90346184600F093
:102BA0005BF9024640F2FF739A420CBF01230023F7
:102BB000DBB2002B07D00C4800F078F9034618462A
:102BC000002100F03BF97B6801337B607B68072BB9
:102BD000B2DD0348012102F0DFFC0C37BD4690BD99
:102BE00040640240008020100010014098B500AF02
:102BF000204800F05BF90346184600F03BF9044614
:102C00001C4800F053F90346184600F025F9034626
:102C10001C44184803F0D6FA0346DBB2237015486B
:102C200000F044F90446134800F040F90346184602
:102C300000F012F9034601332046194600F0FEF871
:102C40000C4800F033F90346184600F005F9024637
:102C500040F2FF739A420CBF01230023DBB2002B2A
:102C600007D0044800F022F903461846002100F07E
:102C7000E5F898BD0010014098B500AF204800F07D
:102C800015F90346184600F0F5F804461C4800F014
:102C90000DF90346184600F0DFF803461C441848B7
:102CA00003F090FA0346DBB22370154800F0FEF8FB
:102CB0000446134800F0FAF80346184600F0CCF832
:102CC000034601332046194600F0B8F80C4800F0DE
:102CD000EDF80346184600F0BFF8024640F2FF73D5
:102CE0009A420CBF01230023DBB2002B07D004481B
:102CF00000F0DCF803461846002100F09FF898BD6C
:102D00000048004098B500AF204800F0CFF80346D7
:102D1000184600F0AFF804461C4800F0C7F8034618
:102D2000184600F099F803461C44184803F04AFA84
:102D30000346DBB22370154800F0B8F80446134888
:102D400000F0B4F80346184600F086F80346013355
:102D50002046194600F072F80C4800F0A7F8034628
:102D6000184600F079F8024640F2FF739A420CBF11
:102D700001230023DBB2002B07D0044800F096F8B3
:102D800003461846002100F059F898BD004C004059
:102D900098B500AF204800F089F80346184600F0C7
:102DA00069F804461C4800F081F80346184600F014
:102DB00053F803461C44184803F004FA0346DBB2F8
:102DC0002370154800F072F80446134800F06EF8BE
:102DD0000346184600F040F80346013320461946E2
:102DE00000F02CF80C4800F061F80346184600F09B
:102DF00033F8024640F2FF739A420CBF01230023CE
:102E0000DBB2002B07D0044800F050F80346184608
:102E1000002100F013F898BD0050004080B483B04A
:102E200000AF78600B46FB707B68FA7883F8472820
:102E30000C37BD465DF8047B704700BF80B483B09B
:102E400000AF786039607B683A68C3F84C280C376B
:102E5000BD465DF8047B704780B483B000AF7860F6
:102E60007B68D3F84C3818460C37BD465DF8047BB8
:102E7000704700BF80B483B000AF78607B68D3F840
:102E8000483818460C37BD465DF8047B704700BFD4
:102E900080B483B000AF78607B6803F504631846A4
:102EA0000C37BD465DF8047B704700BF80B485B029
:102EB00000AF78600023FB607B68124A934203D125
:102EC000114B1B68FB6016E07B68104A934203D1EC
:102ED0000F4B1B68FB600EE07B680E4A934203D1E8
:102EE0000D4B1B68FB6006E07B680C4A934202D1E5
:102EF0000B4B1B68FB60FB6818461437BD465DF83A
:102F0000047B704700100140BC08002000480040CE
:102F1000C0080020004C0040C408002000500040C1
:102F2000C808002080B582B000AF786039607B6847
:102F3000012B09D13B684FF6FF72934204D104483C
:102F40000449022201F02CFC0837BD4680BD00BFB9
:102F5000CC0800200004014080B500AF01204FF6EE
:102F6000FF71FFF7DFFF80BD80B483B000AF034681
:102F7000FB71FB799BB2B0339BB218460C37BD4650
:102F80005DF8047B704700BF80B500AF0020FFF7FD
:102F9000EBFF0346184640F2FC71024A00F064FA67
:102FA00080BD00BFA92F000884B090B589B000AFE4
:102FB00007F1300484E80F003B6BDBB250337B77C2
:102FC00097F83B30AA2B0AD0AA2B02DC442B48D01E
:102FD00092E0BB2B00F08F80EE2B6FD08CE097F847
:102FE0003A30062B3CD104233B770023BB600023FF
:102FF000FB770EE0FB7FFA7F013207F130010A44D4
:10300000D27A07F120010B4403F8182CFB7F01331F
:10301000FB77FB7F032BEDD997F84030FB7607F168
:1030200008031846042100F0DBFA03467B61FB7EAF
:10303000012B09D17B7F184601F082FB034618461D
:10304000796901F0B9F808E07B7F184601F078FB58
:1030500003461846796901F0C1F82A48FFF73AF8A3
:103060004AE097F83A30032B27D10223FB74002360
:10307000BB800023BB770EE0BB7FBA7F013207F134
:1030800030010A44D27A07F120010B4403F81C2CCA
:10309000BB7F0133BB77BB7F012BEDD97B7F18460C
:1030A00001F04EFB04463B1D1846022100F098FA41
:1030B00003462046194601F067F81DE097F83A30BC
:1030C000012B07D17B7F184601F03AFB03461846D7
:1030D00001F0AAF810E002460B46012B01D003F0E4
:1030E0001BFA1346184603F077FB0346FB6000BF4C
:1030F00003F0B8FB00E000BF2437BD46BDE89040B8
:1031000004B070479008002080B588B002AF4FF03F
:103110000070012102F044FC0120012102F022FC98
:10312000012300932D4802210222002300F002FC1B
:10313000002300932A4802210222002300F0FAFB18
:10314000264B1B6818460B21092202F087FB244BF3
:103150001B6818460C21092202F080FB214801F06F
:1031600055FD3B1D184601F0FFFE0023BB720123F5
:10317000FB7200233B7300237B730023BB7300238C
:10318000FB730023BB710023FB7105233B720623F5
:103190007B720323BB8000BF3B1D1248194601F020
:1031A00057FD0346012B14BF01230023DBB2002B84
:1031B000F2D10C480121012202F080F813233B7068
:1031C00000237B700423BB700123FB703B46184631
:1031D00001F0BCFC1837BD4680BD00BFC086002092
:1031E000C88600200064004084B080B500AF07F1BD
:1031F000080E8EE80F00084807F1080101F0DEFE16
:103200000346042B14BF01230023DBB21846BD463E
:10321000BDE8804004B070470064004080B400AF57
:10322000064B1A88054B5B889A420CBF012300238A
:10323000DBB21846BD465DF8047B704708000020ED
:1032400080B400AF124B9B6803F08063002B14BF67
:1032500001230023DBB21A460D4B9B6803F0006389
:10326000002B14BF01230023DBB21344DBB2084A56
:10327000926802F08052002A14BF01220022D2B2CA
:103280001344DBB21846BD465DF8047B704700BFAF
:103290000064004090B587B000AF3C4684E80F0062
:1032A0000023FB751B4B5B8801331A4A928893FB02
:1032B000F2F102FB01F29B1A164A1288934202D1E4
:1032C0000123FB7519E0134B9A68124B5B881B01B5
:1032D00013441C463B460FCB84E80F000D4B5B8824
:1032E00001330C4A928893FBF2F102FB01F29B1A24
:1032F0009AB2084B5A800023FB7500F00DF8FB7D55
:10330000002B0CBF01230023DBB218461C37BD463F
:1033100090BD00BF0800002090B58DB002AFFFF750
:103320007DFF0346002B06D1FFF78AFF0346002BE3
:1033300001D0012300E00023002B5CD0304B9A68C1
:103340002F4B1B881B01134407F114040FCB84E897
:103350000F003B7E87F827307B693B6000237B6052
:1033600000237B7200233B7297F82730BB720DE07D
:1033700097F8273097F8272007F128010A4412F818
:103380000F2C07F128010B4403F81D2C97F8273068
:103390005A1E87F82720002B14BF01230023DBB21D
:1033A000002BE5D13B6900933B460FCBFFF71CFF99
:1033B0000346002B14BF01230023DBB2002B0CD0EB
:1033C0000F4B1B8801330E4A928893FBF2F102FBEC
:1033D00001F29B1A9AB20A4B1A80FFF731FF03469B
:1033E000002B14BF01230023DBB2002B01D0FFF719
:1033F00093FF012300E0002318462C37BD4690BD03
:103400000800002080B500AF0948012101F074FFD9
:103410000346002B14BF01230023DBB2002B05D091
:103420000348012102F032F8FFF776FF80BD00BFAC
:103430000064004080B582B000AF0A48022101223A
:1034400001F03CFF14233B7100237B710423BB710B
:103450000123FB713B1D184601F078FB0837BD4680
:1034600080BD00BF0064004080B586B000AF034659
:103470003A60FB800B46BB80BB885B019BB243F08C
:103480001F039BB2BB80154B1B78BB740023FB74DE
:1034900001233B75FB885B019BB23B8100237B8151
:1034A000BB88BB810023FB8100233B8201237B750A
:1034B00007F10803184601F09DFC084B1B781946DC
:1034C000074A3B6842F82130044B1B780133DAB2DB
:1034D000024B1A701837BD4680BD00BFD48500204E
:1034E000EC85002090B589B002AF2B48022101F095
:1034F00003FF0346002B14BF01230023DBB2002B84
:1035000046D02548022101F0C1FF3B462248002158
:103510001A4601F01BFE3B7A002B39D1FB7CBB75B0
:103520001E4B1B78BA7D9A4211D2BB7D1B2B0ED845
:10353000BB7D1B4A52F82330002B08D0BB7D184AB4
:1035400052F823403B6900933B460FCBA0473B68B2
:10355000144A1360BA7A134B1A710023FB750DE0FD
:10356000FB7DFA7D07F118010A4412F80D1C0D4A83
:1035700013440A465A71FB7D0133FB75094B1B79D5
:10358000FA7D9A42ECD3084B1B680133064A13605C
:103590001C37BD4690BD00BF00640040D4850020AC
:1035A000EC850020D8850020E885002080B582B019
:1035B00000AF78600B46FB70FB78002B02D17B6874
:1035C000DBB209E07B681A12FB78013BDBB21046E4
:1035D0001946FFF7EBFF034618460837BD4680BD86
:1035E00090B583B000AF78600B46FB70FB78002B82
:1035F00002D17B681B780EE07B681B781C467B68D9
:103600005A1CFB78013BDBB210461946FFF7E8FF76
:1036100003461B02234418460C37BD4690BD00BF2D
:1036200090B587B002AFF860B9607A603B60FB6824
:103630002C4A1A602C4B1A68FB685A60FB680122FE
:103640001A72FB683A68DA60FB6800221A61FB684C
:1036500000225A61FB6800229A61234B1B680133E8
:10366000214A136000230093B8680221022200233C
:1036700000F060F900230093786802210222002301
:1036800000F058F9BB681C68B86800F033F90346CD
:103690009BB220461946022202F0E0F87B681C68C3
:1036A000786800F027F903469BB2204619460222AB
:1036B00002F0D4F8FB68DA6800230093104600217A
:1036C00000224FF6FF7301F07FF8FB68DB681846B5
:1036D0004FF4004101F092F9FB6818461437BD46DB
:1036E00090BD00BF907D00085C86002080B483B050
:1036F00000AF78607B685B6918460C37BD465DF8A3
:10370000047B704790B585B000AF7860394B1B687B
:1037100003F00103002B11D1364803F0CBFC034624
:10372000002B14BF01230023DBB2002B06D07B68E3
:103730009B69314A13602F4803F0D8FC7B68DB6833
:10374000184602F0FFF90346FB60FB684FF2305267
:103750009342CCBF01230023DBB2002B0FD07B6848
:10376000DA68FB68A3F5EA43303B1046194602F0DD
:10377000DBF97B681B695A1C7B681A6118E0FB68DF
:1037800040F6CF229342D4BF01230023DBB2002BAB
:103790000ED07B68DA68FB6803F5EA4330331046E5
:1037A000194602F0C1F97B681B695A1E7B681A61D1
:1037B0007B681B6947F2305202FB03F31C467B68AF
:1037C000DB68184602F0BEF903462344A3F5004324
:1037D0001A467B689A61084B1A687B689B69D21A03
:1037E0007B685A617B689B69034A13601437BD4646
:1037F00090BD00BF608600206486002080B586B042
:1038000000AF78607B685B68B033BB6005233B73B7
:1038100022237B737B689B6918460021FFF7C6FE55
:103820000346BB737B689B6918460121FFF7BEFE08
:103830000346FB737B689B6918460221FFF7B6FEBF
:1038400003463B747B689B6918460321FFF7AEFE75
:1038500003467B7407F108030FCBFFF71BFD1837F6
:10386000BD4680BD80B483B000AF78607B681B7AB2
:1038700018460C37BD465DF8047B704780B582B0B2
:1038800000AF78607B68064A1A600023002B02D0E4
:103890007868FEF7E1FA7B6818460837BD4680BDB8
:1038A000907D000880B582B000AF78607868FFF73F
:1038B000E5FF7868FEF7D0FA7B6818460837BD4602
:1038C00080BD00BF80B485B000AFF860B96013461A
:1038D000FB80FB68BA681A60FB68FA889A80FB680C
:1038E00000229A71FB6818461437BD465DF8047BC8
:1038F000704700BF80B485B000AF78600023FB73D1
:103900007B689B88BB8102E0FB7B0133FB73BB8937
:103910005B10BB81BB89002B14BF01230023DBB2EA
:10392000002BF1D1FB7B18461437BD465DF8047BB4
:10393000704700BF80B584B000AF7860084611467C
:103940001A460346FB700B46BB7013467B707B68C0
:103950001B68404A934243D03E4A934213D83E4AA2
:1039600093422ED03C4A934206D83C4A93421ED002
:103970003B4A934220D054E03A4A934226D03A4AF6
:10398000934228D04DE0394A934238D0374A934287
:1039900006D8374A934228D0364A93422AD040E08C
:1039A000354A934231D0354A934234D039E0012030
:1039B000012101F0D7FF34E00220012101F0D2FF04
:1039C0002FE00420012101F0CDFF2AE00820012191
:1039D00001F0C8FF25E01020012101F0C3FF20E025
:1039E0002020012101F0BEFF1BE04020012101F059
:1039F000B9FF16E08020012101F0B4FF11E04FF47F
:103A00008070012101F0AEFF0BE04FF40070012146
:103A100001F0A8FF05E04FF48060012101F0A2FF52
:103A200000BFFB787B73BB783B737B78BB733B7EBB
:103A3000FB737B689B88BB607B681A6807F108038F
:103A40001046194601F04AFE7B6801229A71103730
:103A5000BD4680BD00140240000802400000024044
:103A600000040240000C024000100240002002400E
:103A700000180240001C02400024024000280240BE
:103A800080B582B000AF78607B681A687B689B88DD
:103A90001046194601F0B0FE034618460837BD46E9
:103AA00080BD00BF80B582B000AF78600B46FB7070
:103AB0007B6819687B689A88FB78084611461A4625
:103AC00001F0B4FE0837BD4680BD00BF80B582B0AE
:103AD00000AF786039607B68012B40F051823B6811
:103AE0004FF6FF72934240F04B82BA48BA49012226
:103AF000FFF7E8FEB948B8490222FFF7E3FEB848ED
:103B0000B5490422FFF7DEFEB648B3490822FFF7A5
:103B1000D9FEB548B0491022FFF7D4FEB348AE49EC
:103B20002022FFF7CFFEB248AB494022FFF7CAFE82
:103B3000B048A9498022FFF7C5FEAF48A6494FF417
:103B40008072FFF7BFFEAD48A3494FF40072FFF744
:103B5000B9FEAB48A0494FF48062FFF7B3FEA94815
:103B60009D494FF40062FFF7ADFEA7489A494FF414
:103B70008052FFF7A7FEA54897494FF40052FFF780
:103B8000A1FEA34894494FF48042FFF79BFEA14851
:103B900091494FF40042FFF795FE9F489F4901224B
:103BA000FFF790FE9E489D490222FFF78BFE9D483D
:103BB0009A490422FFF786FE9B4898490822FFF79E
:103BC00081FE9A4895491022FFF77CFE9848934958
:103BD0002022FFF777FE974890494022FFF772FEB8
:103BE00095488E498022FFF76DFE94488B494FF42B
:103BF0008072FFF767FE924888494FF40072FFF722
:103C000061FE904885494FF48062FFF75BFE8E4865
:103C100082494FF40062FFF755FE8C487F494FF40C
:103C20008052FFF74FFE8A487C494FF40052FFF75D
:103C300049FE884879494FF48042FFF743FE8648A1
:103C400076494FF40042FFF73DFE84488449012243
:103C5000FFF738FE834882490222FFF733FE82488D
:103C60007F490422FFF72EFE80487D490822FFF796
:103C700029FE7F487A491022FFF724FE7D487849C3
:103C80002022FFF71FFE7C4875494022FFF71AFEED
:103C90007A4873498022FFF715FE794870494FF43E
:103CA0008072FFF70FFE77486D494FF40072FFF7FF
:103CB00009FE75486A494FF48062FFF703FE7348B6
:103CC00067494FF40062FFF7FDFD714864494FF406
:103CD0008052FFF7F7FD6F4861494FF40052FFF73C
:103CE000F1FD6D485E494FF48042FFF7EBFD6B48F4
:103CF0005B494FF40042FFF7E5FD6948694901223D
:103D0000FFF7E0FD684867490222FFF7DBFD6748DF
:103D100064490422FFF7D6FD654862490822FFF78F
:103D2000D1FD64485F491022FFF7CCFD62485D4930
:103D30002022FFF7C7FD61485A494022FFF7C2FD24
:103D40005F4858498022FFF7BDFD5E4855494FF452
:103D50008072FFF7B7FD5C4852494FF40072FFF7DD
:103D6000B1FD5A484F494FF48062FFF7ABFD584808
:103D70004C494FF40062FFF7A5FD564849494FF4FE
:103D80008052FFF79FFD544846494FF40052FFF719
:103D900099FD524843494FF48042FFF793FD504844
:103DA00040494FF40042FFF78DFD4E484E49012235
:103DB000FFF788FD4D484C490222FFF783FD4C4830
:103DC00049490422FFF77EFD4A4847490822FFF788
:103DD00079FD91E068860020000002407086002096
:103DE000788600208086002088860020908600202B
:103DF00098860020A0860020A8860020B08600209B
:103E0000B8860020C0860020C8860020D08600200A
:103E1000D8860020E0860020E886002000040240CA
:103E2000F0860020F8860020008700200887002008
:103E30001087002018870020208700202887002076
:103E400030870020388700204087002048870020E6
:103E50005087002058870020608700206887002056
:103E600000080240708700207887002080870020AB
:103E7000888700209087002098870020A087002056
:103E8000A8870020B0870020B8870020C0870020C6
:103E9000C8870020D0870020D8870020E087002036
:103EA000E887002000100240F0870020F8870020FB
:103EB0000088002008880020108800201888002032
:103EC00020880020288800203088002038880020A2
:103ED0004088002048880020508800205888002012
:103EE0006088002068880020000C02407088002054
:103EF0007888002080880020234824491022FFF77A
:103F0000E1FC234821492022FFF7DCFC21481F491E
:103F10004022FFF7D7FC20481C498022FFF7D2FC43
:103F20001E481A494FF48072FFF7CCFC1C48174911
:103F30004FF40072FFF7C6FC1A4814494FF4806230
:103F4000FFF7C0FC184811494FF40062FFF7BAFCB4
:103F500016480E494FF48052FFF7B4FC14480B4941
:103F60004FF40052FFF7AEFC124808494FF480426C
:103F7000FFF7A8FC104805494FF40042FFF7A2FCE8
:103F80000837BD4680BD00BF88880020000C024075
:103F90009088002098880020A0880020A888002011
:103FA000B0880020B8880020C0880020C888002081
:103FB000D0880020D8880020E088002080B500AF9D
:103FC00001204FF6FF71FFF781FD80BD80B483B003
:103FD00000AF87ED010AD7ED017AF0EEE77AB0EE97
:103FE000670A0C37BD465DF8047B704780B582B028
:103FF00000AF87ED010A97ED010A03F043F9F0EEF7
:10400000407AB0EE670A0837BD4680BD90B587B0EC
:1040100002AFF860B9607A603B60FB681846B96827
:104020007A683B68FFF7FCFAFB68524A1A60524B09
:104030001B68524AA2FB0323DB0B013B1A46FB68B9
:10404000DA61FB68DB6901331846FCF735FC024690
:104050000B46104619464FF00002494BFCF7BCFDD9
:1040600002460B4610461946FCF7E6FE0246FB6880
:104070001A62FB68002283F82420FB6800229A62FF
:10408000FB684FF00002DA62FB6864221A63FB6A85
:104090001A68FB685A63FB684FF000029A63FB687A
:1040A000002283F83C20FB687A6A1A64FB68BA6ACB
:1040B0005A6400230093386A032102220023FFF789
:1040C00039FC00230093786A032101220023FFF7C3
:1040D00031FC00230093B86A032101220023FFF77B
:1040E00029FC3B6A1C68386AFFF704FC03469BB254
:1040F00020461946092201F0B1FBFB6A1A68FB68E9
:10410000DB699CB200230093104600210022234665
:1041100000F05AFBFB68DB699AB2FB6A009200224E
:10412000019293E803006022012300F013FCFB6876
:104130001B6C18460021FFF7B5FCFB685B6C18464A
:104140000121FFF7AFFCFB685B68032B05DCFB6814
:104150005B680C49FA6841F82320FB6805E0FB68BE
:104160001846FFF78BFB02F0D7F918461437BD4607
:1041700090BD00BFC07D0008140000205917B7D1C2
:1041800000209C40E888002080B483B000AF7860B5
:1041900039603B68B3F57A7F04D83B68052B38BF9C
:1041A000052301E04FF47A737A6813630C37BD4638
:1041B0005DF8047B704700BF80B483B000AF7860C7
:1041C00039607B683A689A627B68012283F8242010
:1041D0000C37BD465DF8047B704700BF80B483B0E8
:1041E00000AF786039603B6807EE903AF8EEE77A06
:1041F0007B68C3ED0E7A7B68002283F824200C379D
:10420000BD465DF8047B704780B483B000AF786032
:104210007B68DB6A07EE903AB0EE670A0C37BD4662
:104220005DF8047B704700BF80B483B000AF786056
:104230007B684FF00002DA627B6800229A627B683A
:10424000012283F824200C37BD465DF8047B7047BB
:1042500080B584B000AF78607B681B6B1846FCF7B4
:104260001BFB02460B46104619464FF00002284B36
:10427000FCF7B2FC02460B4610461946FCF7DCFD83
:104280000346FB607B6893ED0B7A7B689B6A07EEC5
:10429000903AF8EEE77A37EE677AD7ED037AB4EE24
:1042A000E77AF1EE10FA0ADD7B6893ED0B7AD7ED31
:1042B000037A77EE677A7B68C3ED0B7A25E07B683B
:1042C00093ED0B7A7B689B6A07EE903AF8EEE77AFB
:1042D00037EE677AD7ED037AB4EEE77AF1EE10FAAB
:1042E0000AD57B6893ED0B7AD7ED037A77EE277AC0
:1042F0007B68C3ED0B7A08E07B689B6A07EE903A17
:10430000F8EEE77A7B68C3ED0B7A1037BD4680BDC7
:1043100000408F4080B52DED028B82B000AF7860F9
:104320007B68D3ED0B7AB0EE670AFFF75FFEB0EE65
:10433000408A7B681846FFF7D9F907EE900AF8EE35
:10434000E77A78EE677AFDEEE77A17EE903A18464C
:104350000837BD46BDEC028B80BD00BF80B52DED9A
:10436000028B86B000AFF86087ED020AC7ED010A44
:1043700087ED001A64237B61F868FFF7CBFF07EE37
:10438000900AB8EEE77A6D4BD3ED007A37EE677A94
:10439000D7ED027A27EE278AF868FFF7BBFF07EE12
:1043A000900AB8EEE77AD7ED017A67EE277A38EE11
:1043B000278AF868FFF7AEFF07EE900AB8EEE77AB3
:1043C0005F4BD3ED007A37EE277A5C4BD3ED007A62
:1043D00077EEA77A37EE677AD7ED007A67EE277A1D
:1043E00078EE277AC7ED047AFB6893F82430002B27
:1043F00040D0FB681B7A002B3CD0FB68D3ED0B7AD6
:10440000B0EE670AFFF7F2FDF0EE407AB0EE670A11
:10441000FFF7DCFDF0EE407AF5EEC07AF1EE10FA2F
:1044200008DDFB681846FFF761F90346002B01D150
:10443000012300E00023002B0ED0424B1B68013308
:10444000404A13603F4B1B68642BD4BF01230023F9
:10445000DAB2FB681A7202E03A4B00221A60FB687B
:1044600093ED0E7AD7ED047A77EE277AFB68C3EDE9
:104470000E7A40E0FB6893F82430002B0AD0FB68EA
:104480001B7A83F00103DBB2002B03D0FB684FF0F3
:1044900000029A63FB681B7A002B13D0FB68184656
:1044A000FFF724F907EE900AF8EEE77AFB68C3ED10
:1044B0000B7AFB68D3ED0B7AFDEEE77A17EE902AC4
:1044C000FB689A62FB681B7A83F00103DBB2002B66
:1044D00008D0FB681846FFF709F90346002B01D006
:1044E000012300E00023002B05D0164B00221A60A8
:1044F000FB6801221A72114B1B68114A1360F8689D
:10450000FFF708FF07EE900AF8EEE77A0B4BC3EDD2
:10451000007AFB68D3ED0E7AB0EE670AFFF766FD0E
:10452000F0EE407AFDEEE77AF86817EE901A00F0A8
:104530005DF81837BD46BDEC028B80BDF8880020C1
:10454000FC8800200089002080B582B000AF786030
:104550000B46FB7097F90330B3F1FF3F0CD17B683A
:104560001B6C18460021FFF79DFA7B685B6C1846B0
:104570000121FFF797FA0FE097F90330012B0BD1D8
:104580007B681B6C18460121FFF78CFA7B685B6C1B
:1045900018460021FFF786FA0837BD4680BD00BFE8
:1045A00080B483B000AF78607B6893F8243083F0E8
:1045B0000103DBB218460C37BD465DF8047B70473B
:1045C000B0B582B000AF78607868FCF775F9024644
:1045D0000B46144623F0004545EC174BB0EE470A56
:1045E000F0EE670A0837BD46B0BD00BF2DE9B04305
:1045F00082B000AF786039603868FFF7E1FF55ECB2
:10460000104B7B681B6A1846FCF768F902460B469C
:1046100020462946FCF7B6F902460B4610461946D5
:10462000FCF7C2FB034640F63302934209DC40F23A
:10463000EC42934217DA002B25DBB3F5D27F4DDB3A
:104640000DE040F6C362934204DC40F67C329342B4
:1046500011DA0CE041F26702934214DC0FE0012012
:10466000FDF702FE3BE00220FDF7FEFD37E00320F0
:10467000FDF7FAFD33E00420FDF7F6FD2FE00520FD
:10468000FDF7F2FD2BE07B68012283F83C20062039
:10469000FDF7EAFD7B68DB691846FCF70DF9044677
:1046A0000D463868FCF708F9804689463868FFF7F8
:1046B00087FF53EC102B40464946FCF78DFA024623
:1046C0000B4620462946FCF75DF902460B4610468C
:1046D0001946FCF769FB03463B6000E000BF7B68BE
:1046E0005C6B7B68DB691846FCF7E6F88046894618
:1046F0003868FFF765FF53EC102B40464946FBF73F
:104700008DFF02460B4610461946FCF775FB034623
:104710002046194601F050FC3B68002B06DC3B6844
:10472000002B01DAFF2302E0002300E001235BB24B
:1047300078681946FFF708FF0837BD46BDE8B08323
:1047400080B582B000AF78607B68042B05D8124A30
:104750007B6852F82330002B0AD1012001F098FE2B
:10476000034600221A7018460C49002202F012FC7F
:10477000094A7B6852F823300AE002460B46B3F13F
:10478000FF3F01D001F0C8FE1346184601F0BAFF02
:1047900018460837BD4680BDE88800207C7D0008AB
:1047A00080B485B000AFF860B9601346FB71FB6858
:1047B000BA681A60FB68FA791A71FB6818461437F0
:1047C000BD465DF8047B704780B588B000AFF860E7
:1047D000084611461A4603467B810B463B81134629
:1047E000FB80F86800F014F8FB88BB613B8DBB834D
:1047F0007B89BB823B89FB820023BB7707F11403D3
:10480000F868194601F026F92037BD4680BD00BF83
:1048100080B582B000AF78607B68414A934204D192
:104820000120012101F0DAF877E07B68B3F1804FD5
:1048300004D10120012101F0B3F86EE07B68394A10
:10484000934204D10220012101F0AAF865E07B68BF
:10485000354A934204D10420012101F0A1F85CE023
:104860007B68324A934204D10820012101F098F874
:1048700053E07B682E4A934204D11020012101F0BD
:104880008FF84AE07B682B4A934204D12020012113
:1048900001F086F841E07B68274A934204D1022068
:1048A000012101F09BF838E07B68244A934205D14E
:1048B0004FF48030012101F091F82EE07B68204A0E
:1048C000934205D14FF40030012101F087F824E034
:1048D0007B681C4A934205D14FF48020012101F0EE
:1048E0007DF81AE07B68184A934204D140200121E8
:1048F00001F056F811E07B68144A934204D18020FD
:10490000012101F04DF808E07B68114A934204D17F
:104910004FF48070012101F043F80837BD4680BD97
:10492000000001400004004000080040000C00406E
:10493000001000400014004000040140004001400D
:10494000004401400048014000180040001C0040A5
:104950000020004090B58BB000AF07F1080484E858
:10496000030011461A460B46FB801346BB80BB8FE3
:104970003B84FB88BB82BB88FB823B8FFB61BB68AF
:104980001A4A934203D0BB68194A934207D10023C5
:104990007B840023BB840023FB8400233B833B7B7D
:1049A0001A46144B53F82230B96807F1140208462E
:1049B000114698473B7B1A460F4B53F82230BA6892
:1049C000104608219847BB681846012101F076FB84
:1049D000BB681846012101F0C1F8BB6818460121E7
:1049E00001F0DCF82C37BD4690BD00BF000001404F
:1049F00000040140EC7D0008FC7D000880B586B015
:104A000000AF78600B467B8078680321002200238A
:104A100001F07AFB7B887868194601F085F87868A0
:104A2000012101F0BBF81837BD4680BD80B582B0CA
:104A300000AF786039607B68012B54D13B684FF63A
:104A4000FF7293424FD1294829490022FFF7A8FE5F
:104A5000284827490122FFF7A3FE274824490222BC
:104A6000FFF79EFE254822490322FFF799FE2448BE
:104A700024490022FFF794FE234822490122FFF730
:104A80008FFE22481F490222FFF78AFE20481D4957
:104A90000322FFF785FE1F481F490022FFF780FE13
:104AA0001E481D490122FFF77BFE1D481A490222BC
:104AB000FFF776FE1B4818490322FFF771FE1A48DC
:104AC0001A490022FFF76CFE194818490122FFF726
:104AD00067FE184815490222FFF762FE164813497F
:104AE0000322FFF75DFE0837BD4680BD0489002024
:104AF000004001400C890020148900201C890020FE
:104B000024890020004401402C89002034890020A1
:104B10003C89002044890020004801404C89002045
:104B2000548900205C89002064890020001800401E
:104B30006C890020748900207C89002080B500AF3A
:104B400001204FF6FF71FFF771FF80BD80B485B083
:104B500000AF78600023FB730023BB730F237B73CC
:104B60007B68DB78002B38D0264BDB68DB4303F413
:104B7000E0631B0AFB73FB7BC3F10403BB737A7B0B
:104B8000FB7B42FA03F37B737B685B781A46BB7B43
:104B900002FA03F3FB737B689A787B7B1340DAB2EB
:104BA000FB7B1343FB73FB7B1B01FB73164A7B6888
:104BB0001B781344FA7B83F80023134A7B681B7825
:104BC0005B09DBB218467B681B7803F01F030121E9
:104BD00001FA03F342F820300FE00B497B681B78A1
:104BE0005B09DBB218467B681B7803F01F030122C8
:104BF0009A4000F1200341F823201437BD465DF8A8
:104C0000047B704700ED00E000E100E080B582B079
:104C100000AF78607B680D4A93420AD14FF0007074
:104C2000012100F0F9FE4FF00070002100F0F4FEC9
:104C300009E04FF08060012100F0EEFE4FF080604F
:104C4000002100F0E9FE0837BD4680BD0064004049
:104C500080B485B000AF786039600023FB73002317
:104C6000BB607B681B6823F002027B681A607B686C
:104C70001B6843F001027B681A6002E0BB680133E5
:104C8000BB607B685B6803F00103002B04D1BB6849
:104C90004FF6FF729342F1D17B685B6803F001032A
:104CA000002B02D10023FB739CE03B689B79012B16
:104CB00006D17B681B6843F080027B681A6005E0C0
:104CC0007B681B6823F080027B681A603B68DB7995
:104CD000012B06D17B681B6843F040027B681A6099
:104CE00005E07B681B6823F040027B681A603B6824
:104CF0001B7A012B06D17B681B6843F020027B687E
:104D00001A6005E07B681B6823F020027B681A604C
:104D10003B685B7A012B06D17B681B6843F010026D
:104D20007B681A6005E07B681B6823F010027B68D3
:104D30001A603B689B7A012B06D17B681B6843F0A5
:104D400008027B681A6005E07B681B6823F0080294
:104D50007B681A603B68DB7A012B06D17B681B6895
:104D600043F004027B681A6005E07B681B6823F04F
:104D700004027B681A603B689B789A073B68DB7883
:104D80001B061A433B681B791B041A433B685B797B
:104D90001B051A433B681B88013B1A437B68DA6199
:104DA0007B681B6823F001027B681A600023BB60EC
:104DB00002E0BB680133BB607B685B6803F0010302
:104DC000002B04D0BB684FF6FF729342F1D17B6891
:104DD0005B6803F00103002B02D00023FB7301E0AA
:104DE0000123FB73FB7B18461437BD465DF8047B3B
:104DF000704700BF80B485B000AF78600023FB60CF
:104E00007B689B7A1A4601239340FB60554A554BB9
:104E1000D3F8003243F00103C2F800325149514B3C
:104E2000D3F81C22FB68DB431340C1F81C327B68BB
:104E30001B7B002B25D14B494A4BD3F80C22FB6836
:104E4000DB431340C1F80C3246497B689B7A184615
:104E50007B68DB881B047A6852881A4300F1480398
:104E600041F833203F497B689B7A18467B689B88D2
:104E70001B047A6812881A4300F14803DB000B44D4
:104E80005A607B681B7B012B24D13649354BD3F804
:104E90000C22FB681343C1F80C3232497B689B7AC1
:104EA00018467B681B881B047A6852881A4300F1F5
:104EB000480341F833202B497B689B7A18467B686E
:104EC0009B881B047A68D2881A4300F14803DB00F0
:104ED0000B445A607B68DB7A002B09D12149214BB6
:104EE000D3F80422FB68DB431340C1F8043207E027
:104EF0001C491C4BD3F80422FB681343C1F804324D
:104F00007B681B89002B08D11649164BD3F8142255
:104F1000FB68DB431340C1F814327B681B89012B0B
:104F200007D110490F4BD3F81422FB681343C1F883
:104F300014327B685B7B012B07D10A49094BD3F8FC
:104F40001C22FB681343C1F81C32064A054BD3F8F8
:104F5000003223F00103C2F800321437BD465DF879
:104F6000047B70470064004080B483B000AF786079
:104F70007B6800229A717B680022DA717B680022CC
:104F80001A727B6800225A727B6800229A727B68D0
:104F90000022DA727B6800229A707B680022DA7045
:104FA0007B6803221A717B6802225A717B68012296
:104FB0001A800C37BD465DF8047B704780B485B01D
:104FC00000AF786039600023FB737B689B6803F057
:104FD0008063002B02D00023FB7313E07B689B6887
:104FE00003F00063002B02D00123FB730AE07B680F
:104FF0009B6803F08053002B02D00223FB7301E077
:105000000423FB73FB7B042B00F09880FB7BFA7B73
:105010007968183212010A44126802F001027968B4
:1050200018331B010B441A603B681B7A002B13D109
:10503000FB7BFA7B7968183212010A4411683A68DE
:10504000126852053868407A02430A437968183377
:105050001B010B441A6015E0FB7BFA7B7968183260
:1050600012010A4411683A685268D2003868007A1E
:1050700002433868407A02430A43796818331B01B7
:105080000B441A603B689B7A03F00F03DAB23B686B
:105090009A72FB7BFA7B7968183212010A445268D3
:1050A00022F00F02796818331B010B445A60FB7B16
:1050B000FA7B7968183212010A4452683968897A91
:1050C0000A43796818331B010B445A60FB7B3A682A
:1050D000927B11063A68527B120411433A68127BA4
:1050E00012020A433968C97A0A4379681B010B44E2
:1050F00003F5C4731A60FB7B3A68927C11063A6828
:10510000527C120411433A68127C12020A43396835
:10511000C97B0A4379681B010B4403F5C4735A60C9
:10512000FB7BFA7B7968183212010A44126842F05C
:105130000102796818331B010B441A60FB7B184687
:105140001437BD465DF8047B704700BF80B485B05E
:1051500000AFF8600B467A60FB72FB7AFA681B338B
:105160001B0113441B68DBB203F00403DAB27B6853
:105170001A727B681B7A002B09D1FB7AFA681B3301
:105180001B0113441B685A0D7B681A6008E0FB7A08
:10519000FA681B331B0113441B68DA087B685A60EA
:1051A000FB7AFA681B331B0113441B68DBB203F064
:1051B0000203DAB27B685A72FB7AFA681B331B016E
:1051C00013445B68DBB203F00F03DAB27B689A72B8
:1051D000FB7AFA681B331B0113445B681B0ADAB2C3
:1051E0007B68DA74FB7AFA681B01134403F5DC73FD
:1051F0001B68DAB27B68DA72FB7AFA681B01134427
:1052000003F5DC731B681B0ADAB27B681A73FB7A3E
:10521000FA681B01134403F5DC731B681B0CDAB23C
:105220007B685A73FB7AFA681B01134403F5DC733D
:105230001B681B0EDAB27B689A73FB7AFA681B0153
:10524000134403F5DC735B68DAB27B68DA73FB7ACC
:10525000FA681B01134403F5DC735B681B0ADAB2BE
:105260007B681A74FB7AFA681B01134403F5DC733C
:105270005B681B0CDAB27B685A74FB7AFA681B0114
:10528000134403F5DC735B681B0EDAB27B689A7417
:10529000FB7A002B06D1FB68DB6843F02002FB6839
:1052A000DA6005E0FB681B6943F02002FB681A61C5
:1052B0001437BD465DF8047B704700BF80B485B0ED
:1052C00000AFF860B9601346FB71FB79002B06D084
:1052D000FB685A69BB681A43FB685A6106E0FB68C1
:1052E0005A69BB68DB431A40FB685A611437BD46F4
:1052F0005DF8047B704700BF80B584B000AF786074
:1053000039600023FB737B685A693B681340002BAC
:1053100000F0B2803B68402B62D0402B0FD8042BAA
:105320003AD0042B04D8012B24D0022B2BD09FE0A1
:10533000102B43D0202B4AD0082B36D098E0B3F561
:10534000006F00F08380B3F5006F09D8B3F5007FDC
:105350006AD0B3F5806F70D0B3F5807F5BD087E003
:10536000B3F5803F45D0B3F5003F4BD0B3F5004FC8
:1053700075D07DE07B689B681846434900F0F4F8DF
:105380000346FB7377E07B68DB681846032100F077
:10539000EBF80346FB736EE07B68DB681846082178
:1053A00000F0E2F80346FB7365E07B68DB681846B3
:1053B000102100F0D9F80346FB735CE07B681B69A1
:1053C0001846032100F0D0F80346FB7353E07B68D6
:1053D0001B691846082100F0C7F80346FB734AE032
:1053E0007B681B691846102100F0BEF80346FB736A
:1053F00041E07B685B681846082100F0B5F8034679
:10540000FB7338E07B685B681846102100F0ACF84D
:105410000346FB732FE07B689B691846012100F06F
:10542000A3F80346FB7326E07B689B6918460221BC
:1054300000F09AF80346FB731DE07B689B691846F1
:10544000042100F091F80346FB7314E07B689B692C
:105450001846702100F088F80346FB730BE07B6868
:105460005B681846042100F07FF80346FB7302E0F6
:105470000023FB7300BF01E00023FB73FB7B184696
:105480001037BD4680BD00BF0101010080B483B06C
:1054900000AF786039603B68B3F5807F43D0B3F5E7
:1054A000807F0DD8082B2AD0082B04D8012B1ED0C2
:1054B000042B20D051E0202B25D0402B27D04CE0CE
:1054C000B3F5006F3BD0B3F5006F06D8B3F5007F9E
:1054D0002DD0B3F5806F2ED03FE0B3F5803F1AD0CA
:1054E000B3F5003F1BD0B3F5004F2FD035E07B68FC
:1054F0001C4A9A6031E07B680822DA602DE07B6804
:105500001022DA6029E07B6808221A6125E07B68B6
:1055100010221A6121E07B6808225A601DE07B6836
:1055200010225A6019E07B6804225A6015E07B68FB
:1055300004225A6011E07B6804225A600DE07B6807
:1055400000229A617B6804225A6006E07B68002290
:105550009A617B6804225A6000BF0C37BD465DF833
:10556000047B70470101010080B485B000AF786012
:1055700039600023FB737A683B681340002B02D02C
:105580000123FB7301E00023FB73FB7B18461437F8
:10559000BD465DF8047B704780B483B000AF78608F
:1055A0000B46FB70FB78002B06D07B681B6843F032
:1055B00001027B681A6005E07B681B6823F001022A
:1055C0007B681A600C37BD465DF8047B704700BFEE
:1055D00080B487B000AF786039600023FB7500238A
:1055E000FB600023BB607B68224A934202D8224BB7
:1055F0003B6101E0214B3B613B6823F0F02323F04A
:10560000C313002B0AD03B68DB0A03F01E03FB60C8
:105610007B681A68FB681340BB6004E07B685B69C9
:1056200003F08003BB603B6803F00053002B03D002
:105630003B695B68FB6002E03B691B68FB60FB68E1
:1056400023F0F02323F08213FB60FA683B681340D9
:10565000002B05D0BB68002B02D00123FB7501E0B5
:105660000023FB75FB7D18461C37BD465DF8047BA7
:10567000704700BF0F6402400060024000640240B7
:1056800080B485B000AF786039607B68104A93427F
:1056900002D8104BFB6001E00F4BFB603B6803F04E
:1056A0000053002B07D03B6823F0F02323F0821334
:1056B000FA68D36006E03B6823F0F02323F08213FE
:1056C000FA6893601437BD465DF8047B704700BFED
:1056D0000F640240006002400064024080B487B062
:1056E00000AF7860396000237B6100233B610023B9
:1056F000FB6000237B6176E07B69012202FA03F301
:105700003B613B681A683B691340FB60FA683B6980
:105710009A4265D17B681A687B695B00194603234E
:105720008B40DB431A407B681A607B681A683B68D1
:105730001B7919467B695B0001FA03F31A437B6806
:105740001A603B681B79012B03D03B681B79022B45
:105750002ED17B689A687B695B00194603238B40D6
:10576000DB431A407B689A607B689A683B685B7988
:1057700019467B695B0001FA03F31A437B689A6060
:105780007B685A687B699BB2194601238B40DB43D7
:105790001A407B685A607B685B683A689279114668
:1057A0007A6992B201FA02F292B21A437B685A60A5
:1057B0007B68DA687B699BB25B00032101FA03F323
:1057C000DB431A407B68DA607B68DA683B68DB7928
:1057D00019467B695B0001FA03F31A437B68DA60C0
:1057E0007B6901337B617B690F2B85D91C37BD46F3
:1057F0005DF8047B704700BF80B485B000AF78606F
:105800000B467B800023FB737B685A697B881340BF
:10581000002B02D00123FB7301E00023FB73FB7B11
:1058200018461437BD465DF8047B704780B483B0DA
:1058300000AF78600B467B8013467B707B78002B33
:1058400003D07B687A881A8302E07B687A885A835F
:105850000C37BD465DF8047B704700BF80B485B04F
:1058600000AF78600B467B8013467B700023FB60A3
:105870000023BB607B787A8802F007029200934095
:10588000FB607B88DB089BB218467B88DB089BB2F9
:105890001A467B68083253F822207B8803F00703FE
:1058A0009B0019460F238B40DB4302EA03017B6810
:1058B00000F1080243F822107B88DB089BB21A46ED
:1058C0007B68083253F82220FB681343BB607B8857
:1058D000DB089BB21A467B680832B96843F822108D
:1058E0001437BD465DF8047B704700BF80B483B0B9
:1058F00000AF0346FB80044AFB8813600C37BD46AB
:105900005DF8047B704700BF0030004080B483B076
:1059100000AF0346FB71044AFB7953600C37BD4668
:105920005DF8047B704700BF0030004080B483B056
:1059300000AF0346FB80044AFB8893600C37BD46EA
:105940005DF8047B704700BF0030004080B400AFBA
:10595000034B4AF6AA221A60BD465DF8047B7047E5
:105960000030004080B483B000AF78600B46FB701D
:10597000FB78002B06D00949084B1A6B7B68134350
:105980000B6306E00549054B1A6B7B68DB4313404C
:105990000B630C37BD465DF8047B7047003802404E
:1059A00080B483B000AF78600B46FB70FB78002BAF
:1059B00006D00949084B1A6C7B6813430B6406E058
:1059C0000549054B1A6C7B68DB4313400B640C37AD
:1059D000BD465DF8047B70470038024080B483B058
:1059E00000AF78600B46FB70FB78002B06D00949AE
:1059F000084B5A6C7B6813434B6406E00549054B22
:105A00005A6C7B68DB4313404B640C37BD465DF832
:105A1000047B70470038024080B483B000AF7860E8
:105A20000B46FB70FB78002B06D00949084B1A6A1D
:105A30007B6813430B6206E00549054B1A6A7B68D5
:105A4000DB4313400B620C37BD465DF8047B7047A7
:105A50000038024080B485B000AF78603960002320
:105A6000FB817B681B88FB817B68284A934213D0AB
:105A70007B68274A93420FD07B68B3F1804F0BD0ED
:105A80007B68244A934207D07B68234A934203D021
:105A90007B68224A934208D1FB8923F07003FB8183
:105AA0003B685A88FB891343FB817B681C4A9342FD
:105AB0000CD07B681B4A934208D0FB8923F44073C7
:105AC000FB813B681A89FB891343FB817B68FA8958
:105AD0001A803B685A687B68DA623B681A887B6880
:105AE0001A857B68094A934203D07B68084A93422F
