:020000040800F2
:1000000000000220151C0008611C0008AD1D00083E
:10001000611C0008611C00084D1E00080000000063
:10002000000000000000000000000000611C00084B
:10003000611C000800000000611C00088D220008FF
:10004000611C0008611C0008611C0008611C00089C
:10005000611C0008611C0008611C0008611C00088C
:10006000611C0008611C0008611C0008611C00087C
:10007000D1250008611C000841250008611C00080A
:10008000611C0008611C0008611C00086D34000838
:100090004D350008611C0008611C0008611C000847
:1000A000611C0008611C0008611C0008611C00083C
:1000B000611C0008611C0008611C0008611C00082C
:1000C000611C0008611C0008611C0008611C00081C
:1000D000611C000819280008611C0008A5280008F8
:1000E000611C0008611C0008611C0008611C0008FC
:1000F000611C0008611C0008611C0008611C0008EC
:10010000611C0008611C0008611C0008611C0008DB
:1001100031290008BD290008611C0008611C000885
:10012000611C0008611C0008F5260008611C00081D
:10013000611C0008611C0008611C0008611C0008AB
:10014000611C0008611C0008611C0008611C00089B
:10015000611C0008611C0008B1240008611C000833
:10016000611C0008611C0008611C0008611C00087B
:10017000611C0008611C0008611C0008611C00086B
:08018000611C0008ED1E0008DF
:1001A00010B5054C237833B9044B13B10448AFF3B1
:1001B00000800123237010BD6808002000000000AB
:1001C000CC7D0008084B10B51BB108480849AFF3B7
:1001D00000800848036803B910BD074B002BFBD013
:1001E000BDE81040184700BF00000000CC7D0008AB
:1001F0006C080020640800200000000000000000DF
:10020000A2EB0300704700BF02780B78012A28BFD9
:100210009A42F5D16DE9044540EA0104CDE902674F
:100220006FF0000C4FEA447212B380EA010414F03C
:10023000070F6AD100F0070420F0070004F003055F
:1002400021F007014FEAC505F0E8042314F0040F7C
:10025000F1E804670CFA05F462EA040266EA0406AF
:100260000AD063EA0403624667EA0407664603E0CD
:10027000F0E80423F1E8046782FA4CF582EA060408
:10028000A4FA8CF46CBB83FA4CF583EA0705A5FA53
:100290008CF595B950E9022351E9026782FA4CF5D1
:1002A00082EA0604A4FA8CF483FA4CF583EA070583
:1002B000A5FA8CF52543DBD09CB92DBAB5FA85F4A7
:1002C00024F0070427FA04F1DDE9026723FA04F3B6
:1002D00003F0FF0001F0FF01FDE80445A0EB010081
:1002E000704724BAB4FA84F424F0070426FA04F11F
:1002F000DDE9026722FA04F202F0FF0001F0FF01DB
:10030000FDE80445A0EB0100704714F0030F3CD159
:1003100010F0030428D150F8082B51F8083B82FA5A
:100320004CF582EA0305A5FA8CF55DB950F8042C6A
:1003300051F8043C82FA4CF582EA0305A5FA8CF5E3
:10034000002DE8D02DBAB5FA85F424F0070423FA7D
:1003500004F122FA04F202F0FF0001F0FF01FDE8CF
:100360000445A0EB010070474FEAC40420F00300ED
:1003700050F8082B21F0030151F8083B0CFA04F463
:1003800062EA040263EA0403C9E710F003041AD026
:10039000A1EB040120F00300E40750F8042B06D081
:1003A0000FD28B785FFAA2F4E41A06D12BB1CB7886
:1003B0005FFAB2F4E41A00D11BB920465DF8104B85
:1003C000704701F1040150F8042BCC0721F0030120
:1003D00051F8043B48D824D222F07F4482FA4CF5ED
:1003E00094EA1325A5FA8CF50AD165B951F8043BB6
:1003F00084EA0204B4EB036F0ED150F8042BEBE750
:100400004FEA132355E035F07F454DD10878FDE8DC
:100410000445C0F1000070474FEA126203F0FF0389
:1004200047E002EA1C4482FA4CF594EA1345A5FA27
:100430008CF50AD165B951F8043B84EA0204B4EBA7
:10044000034F0CD150F8042BEBE74FEA134330E095
:1004500015EA1C4528D10B884FEA124229E04FEAE1
:10046000124203EA1C4324E002F0FF0482FA4CF536
:1004700094EA1365A5FA8CF50AD165B951F8043BE5
:1004800084EA0204B4EB032F09D150F8042BEBE704
:100490004FEA13630DE015F0FF0F05D10B684FEA2B
:1004A000122223F07F4304E04FF00000FDE80445F2
:1004B000704712BA1BBA82FA4CF482EA0304A4FA17
:1004C0008CF5B5FA85F402FA04F203FA04F34FEA64
:1004D0001260FDE80445A0EB13607047AFF30080A5
:1004E000844641EA000313F003036DD1403A41D33F
:1004F00051F8043B40F8043B51F8043B40F8043BFE
:1005000051F8043B40F8043B51F8043B40F8043BED
:1005100051F8043B40F8043B51F8043B40F8043BDD
:1005200051F8043B40F8043B51F8043B40F8043BCD
:1005300051F8043B40F8043B51F8043B40F8043BBD
:1005400051F8043B40F8043B51F8043B40F8043BAD
:1005500051F8043B40F8043B51F8043B40F8043B9D
:1005600051F8043B40F8043B51F8043B40F8043B8D
:10057000403ABDD2303211D351F8043B40F8043B2D
:1005800051F8043B40F8043B51F8043B40F8043B6D
:1005900051F8043B40F8043B103AEDD20C3205D33D
:1005A00051F8043B40F8043B043AF9D2043208D035
:1005B000D2071CBF11F8013B00F8013B01D30B88A7
:1005C00003806046704700BF082A13D38B078DD085
:1005D00010F003038AD0C3F10403D21ADB071CBF57
:1005E00011F8013B00F8013B80D331F8023B20F8C1
:1005F000023B7BE7043AD9D3013A11F8013B00F8FA
:10060000013BF9D20B7803704B7843708B78837081
:100610006046704781F0004102E000BF83F0004374
:1006200030B54FEA41044FEA430594EA050F08BF8D
:1006300090EA020F1FBF54EA000C55EA020C7FEA51
:10064000645C7FEA655C00F0E2804FEA5454D4EBCE
:100650005555B8BF6D420CDD2C4480EA020281EA98
:10066000030382EA000083EA010180EA020281EAD0
:100670000303362D88BF30BD11F0004F4FEA013122
:100680004FF4801C4CEA113102D0404261EB410131
:1006900013F0004F4FEA03334CEA133302D05242B7
:1006A00063EB430394EA050F00F0A780A4F1010473
:1006B000D5F1200E0DDB02FA0EFC22FA05F28018AD
:1006C00041F1000103FA0EF2801843FA05F3594193
:1006D0000EE0A5F120050EF1200E012A03FA0EFC12
:1006E00028BF4CF0020C43FA05F3C01851EBE3713C
:1006F00001F0004507D54FF0000EDCF1000C7EEB59
:1007000000006EEB0101B1F5801F1BD3B1F5001F96
:100710000CD349085FEA30004FEA3C0C04F10104B5
:100720004FEA445212F5800F80F09A80BCF1004FDE
:1007300008BF5FEA500C50F1000041EB045141EA60
:10074000050130BD5FEA4C0C404141EB010111F461
:10075000801FA4F10104E9D191F0000F04BF01460C
:100760000020B1FA81F308BF2033A3F10B03B3F1EA
:1007700020020CDA0C3208DD02F1140CC2F10C027A
:1007800001FA0CF021FA02F10CE002F11402D8BFD8
:10079000C2F1200C01FA02F120FA0CFCDCBF41EAA4
:1007A0000C019040E41AA2BF01EB0451294330BD73
:1007B0006FEA04041F3C1CDA0C340EDC04F1140450
:1007C000C4F1200220FA04F001FA02F340EA030027
:1007D00021FA04F345EA030130BDC4F10C04C4F16D
:1007E000200220FA02F001FA04F340EA030029464D
:1007F00030BD21FA04F0294630BD94F0000F83F497
:10080000801306BF81F480110134013D4EE77FEA79
:10081000645C18BF7FEA655C29D094EA050F08BFC5
:1008200090EA020F05D054EA000C04BF19461046A6
:1008300030BD91EA030F1EBF0021002030BD5FEAEA
:10084000545C05D14000494128BF41F0004130BD12
:1008500014F580043CBF01F5801130BD01F0004566
:1008600045F0FE4141F470014FF0000030BD7FEAD9
:10087000645C1ABF194610467FEA655C1CBF0B46D4
:10088000024650EA013406BF52EA033591EA030FEB
:1008900041F4002130BD00BF90F0000F04BF0021E3
:1008A000704730B54FF4806404F132044FF0000516
:1008B0004FF0000150E700BF90F0000F04BF00218F
:1008C000704730B54FF4806404F1320410F00045F5
:1008D00048BF40424FF000013EE700BF42004FEAF0
:1008E000E2014FEA31014FEA02701FBF12F07F436D
:1008F00093F07F4F81F06051704792F0000F14BF6A
:1009000093F07F4F704730B54FF4607401F00045AD
:1009100021F0004120E700BF50EA010208BF704704
:1009200030B54FF000050AE050EA010208BF7047F9
:1009300030B511F0004502D5404261EB41014FF462
:10094000806404F132045FEA915C3FF4DCAE4FF066
:1009500003025FEADC0C18BF03325FEADC0C18BF4D
:10096000033202EBDC02C2F1200300FA03FC20FA9E
:1009700002F001FA03FE40EA0E0021FA02F11444EB
:10098000C1E600BF4FF0FF3C06E000BF4FF0010C96
:1009900002E000BF4FF0010C4DF804CD4FEA410CCE
:1009A0007FEA6C5C4FEA430C18BF7FEA6C5C1BD09B
:1009B00001B050EA410C0CBF52EA430C91EA030F1C
:1009C00002BF90EA020F0020704710F1000F91EA79
:1009D000030F58BF994208BF90422CBFD8176FEA47
:1009E000E37040F0010070474FEA410C7FEA6C5C15
:1009F00002D150EA013C07D14FEA430C7FEA6C5C1C
:100A0000D6D152EA033CD3D05DF8040B704700BF47
:100A10008446104662468C461946634600E000BF95
:100A200001B5FFF7B7FF002848BF10F1000F01BD67
:100A30004DF808EDFFF7F4FF0CBF012000205DF832
:100A400008FB00BF4DF808EDFFF7EAFF34BF0120B7
:100A500000205DF808FB00BF4DF808EDFFF7E0FF50
:100A600094BF012000205DF808FB00BF4DF808EDA1
:100A7000FFF7CEFF94BF012000205DF808FB00BF08
:100A80004DF808EDFFF7C4FF34BF012000205DF8EA
:100A900008FB00BF4A0011D212F5001211D20DD589
:100AA0006FF47873B3EB62520ED44FEAC12343F074
:100AB000004343EA505323FA02F070474FF000001E
:100AC000704750EA013002D14FF0FF3070474FF0CD
:100AD0000000704703685A004CBF43F0004323F006
:100AE00000431844704700BF2DE9F04F83B099B31D
:100AF0004B1E1746054601939846002606EB080450
:100B000004EBD47464104FEAC40A05EB0A0B584690
:100B1000FFF7E0FF019B8146A3420AF10800284449
:100B20000ED0FFF7D7FFB94500F1FF3004D9B4422A
:100B30000CD004F1FF38E1E7B84203D2661CDDE7D0
:100B4000B945F4D8584603B0BDE8F08F4FF0000B1C
:100B5000584603B0BDE8F08F8B46584603B0BDE859
:100B6000F08F00BF012807D0022807D0044B0028CF
:100B70000CBF184600207047024870470248704773
:100B800071120008751200087912000830B5244B64
:100B900083B004468D1E7BB3284601A9AFF30080C5
:100BA00020B301992A46FFF79FFF0546F0B1FFF7F2
:100BB00091FF6B68A064012B12D0002B05F104009B
:100BC00020DBFFF787FF0023E06423650368002B29
:100BD0001CDBFFF77FFF00232061184603B030BD08
:100BE000002323610523184603B030BD0023236191
:100BF0000923184603B030BD0A490B48091AC91029
:100C00000191CFE70123E0642365DFE7C3F30360CD
:100C1000FFF7A8FF002820610CBF09230023DCE7B1
:100C200000000000548500088C8100080368DA0782
:100C300010B5044606D49B0700F1480009D500F022
:100C400085FC2368590709D51A070ED5DB0613D58D
:100C500010BD00F073FC23685907F5D404F1D000EF
:100C600000F07CFC23681A07F0D404F5A87000F0AB
:100C70007DFC2368DB06EBD404F5E870BDE810408A
:100C800000F0B8BC03680BB11844704718467047B1
:100C900009207047704700BF70B504460D4608E054
:100CA0002B6C63610120236921462A469847082856
:100CB00008D12046296CFFF769FF06460028EFD0CF
:100CC00006F0D6F90728FBD13046296CFFF7E2FF82
:100CD000281D00F027FC00BF2DE9F0470C1D06463B
:100CE00017460FCCADF5727D03AD0FC50FCC0FC508
:100CF0000FCC0FC594E80F0002AC4FF0000ED6F8F1
:100D00000C80D6F8189085E80F003046216CC4F8A6
:100D100000E0FFF73BFF002F05460CBF09270A271D
:100D20007DB1A36B47F010018DE8100201206364D0
:100D300032463346C04778BB28460DF5727DBDE884
:100D4000F087236C736121464FF4F0727AA8FFF7A5
:100D5000C7FB336931467AAA38469847889B824652
:100D60008DE8100239466364012032463346C0479D
:100D700090B920467AA94FF4F072FFF7B1FBBAF1AF
:100D8000080F06D13046216CFFF700FF0927054602
:100D9000C6E7BAF1070F04D009200DF5727DBDE852
:100DA000F0872846216CFFF775FF03A800F0BAFB17
:100DB000406C7047F0B5CB6B0B640E1D0F460446BC
:100DC0000FCEF9B001AD0FC50FCE0FC50FCE0FC5B9
:100DD00096E80F004FF0FF3685E80F00009606E01A
:100DE000236921466A4698470828054608D12046C7
:100DF0001099FFF7CBFE0028F2D0092079B0F0BDA2
:100E00006846FFF713FF062DF7D120463946FFF756
:100E100043FF00BF30B4DD6BC160826119461D64C1
:100E2000002230BC58E700BF70B5C66843690B6448
:100E300004460D4626B10122FFF74EFF06F018F9D1
:100E40000369214602202A469847072807D0082828
:100E500003D120462946FFF71FFF06F009F9304667
:100E6000296CFFF717FF281D00F05CFBC2681AB160
:100E7000CA6B0A6400222FE79CE700BF704700BFDF
:100E8000836813B1014601201847704700B5042953
:100E900007D8DFE801F00309060909000BB90F2A9A
:100EA00005D902205DF804FB01205DF804FB00EB8E
:100EB000820218465368019A13605DF804FB00BF74
:100EC00000B585B00A4603AB002100930B46FFF73F
:100ED000DDFF039805B05DF804FB00BF00B50429F1
:100EE00007D8DFE801F00309060909000BB90F2A4A
:100EF00005D902205DF804FB01205DF804FB01998F
:100F000000EB82020968516018465DF804FB00BFDF
:100F100010B584B004AB0C4643F8042D00210093B7
:100F200022460B46FFF7DAFF04B010BDF0B5D36BD5
:100F30001364151D07460E460FCDADF50F7D17AC9A
:100F40000FC40FCD0FC40FCD0FC495E80F004FF0A5
:100F5000FF3584E80F00169510E016A8FFF7D8FFBC
:100F6000314616A8B847694616AA78B9049B0820E6
:100F70009847052804460AD0092807D026996846CC
:100F8000FFF704FE6A460C210028E6D0092416A8C3
:100F9000FFF74CFE20460DF50F7DF0BD2DE9F04F1B
:100FA0000D46C96C8BB00C1D0968079190460894DA
:100FB00000F003091E46002B64D1090203230791A8
:100FC0008DF825608DF824302B6DB9F1020F08BF24
:100FD000AC6B13F0010343D100F00800C2B20392DE
:100FE00001932768002F3DD0022E47D02788B4F800
:100FF00002A00434AB6C2AF0010B40460F219B4445
:10100000FFF75EFF834537D827F001039B4458451F
:101010002CBF002001200AF0010A07F0010747EA6F
:101020004A0ABAF1010F43D03AD3BAF1020F1FD1E5
:10103000236823F000420292B9F1000F7BD138B14E
:10104000039A002A00F08380029A002A00F0A6800A
:10105000002B7ADB029B03F1010A04EB8A04C0E750
:1010600000230193022E40DDFFF712FE002842D03C
:1010700009200BB0BDE8F08F0020CCE7D4F804A025
:101080000834B7E7022B9FDC0B0CDFB20904022205
:101090008DF8253004EB870407918DF8242093E721
:1010A000B9F1000F02D0002840F0AD80043498E779
:1010B000B9F1000F26D1B0B194E80C00D70F9A1CFB
:1010C000D6D005F158020133069200F09280201D1F
:1010D000FFF7D8FD3A46014606AB284605F018F959
:1010E000002840F0B58008347BE7404607A900F0AF
:1010F0001BFB0028BCD1019B002B59D108200BB051
:10110000BDE8F08F40460D212F6AFFF7D9FE8742D8
:10111000E9D1AB6A9C42E6D12046FFF7DBFC0F2108
:1011200002464046FFF7F4FE40462A460021FFF7FC
:10113000EFFE07209DE740460D212F6AFFF7C0FE16
:10114000874245D02368002B84DA043482E7029B6F
:1011500023B305F15803059604F1040A039FDDF853
:1011600008B0CDF810901E4602E0D9454F4615D084
:1011700050460696FFF786FD0022014606AB28463C
:1011800005F0C6F807F101090AF1040A0028ECD0BD
:10119000029BDDF81090059E9F42D3D140460D2161
:1011A000FFF78EFE069B2862AC626B62062060E74A
:1011B0000F214046FFF784FE0E2102464046FFF70E
:1011C000A7FE40460F21294AFFF7A2FE072050E75D
:1011D000AB6A9C42B6D104220027A3180299A962E7
:1011E000EF622A636B632368BB421FDB0123019319
:1011F00030E740460D21FFF763FE2862069B6B62D5
:10120000AC62062035E72046FFF764FC043406464E
:10121000AC63284605F0D4F800283FF429AF4046D7
:1012200032460F21FFF774FE072022E708460130FF
:1012300004EB8000FFF74EFC0F2102464046FFF70B
:1012400067FE404639462A46FFF762FE072010E750
:1012500007460D214046FFF733FE022F2862CDD10D
:101260002B46069A43F82C2F6B62C9E7F1640008FD
:10127000002393E6012391E602238FE6F0B50546AD
:10128000C5B004290CD8DFE801F056030B300E007E
:10129000012B4FEA124496B265D0052B00F08480F2
:1012A000022045B0F0BD002BFAD1102AF8D82B68E7
:1012B000DC0600F1EB8022AE3046019200F0A4F98A
:1012C000A86B019A0023012404FA03F1114203D010
:1012D000016846F8231004300133042BF4D1A863CD
:1012E000304600F087F90020DBE7032BD8D1140C3F
:1012F00097B23B19102BD3D82B681E0700F1E6805C
:1013000022AE30467F0000F053F906EBC4027B1E8C
:10131000AC6B57B1043A214651F8040B42F8040F64
:10132000013B581CF8D104EB87043046AC6300F055
:101330001DF90020B5E7002BB2D1AC6B97B2281D88
:10134000012606FA03F1394203F1010302D02168B4
:1013500001600434102B00F10400F2D112F40050AB
:1013600020D1AC639DE73219102A99D80F2C97D859
:101370002968C8074FF0000755D422A8019300F050
:10138000E1F8019B19E008463746012B00F09880F0
:101390000F2CA86302D822A800F0D8F817B102A831
:1013A00000F0DCF800207CE73719202F3FF678AFFB
:1013B0000F2C30D93746002E45D1A96B3246002E6E
:1013C000E1D0002744A84FEA420C00EBC4000CF126
:1013D000FF328C388E465EF8046B40F8046F013A99
:1013E000561CF8D101EB8C00002FCED0102C2246D9
:1013F00044A938BF102201EBC202A2F5C472014613
:101400007800043A01EB800051F8046B42F8046F55
:101410008142F9D1B9E7102F42D92A68D007A7F144
:101420001007114610D521F00102052B2A60019307
:1014300028465BD021F0030140F8481B00F082F8F9
:10144000019B002F4AD02A6851075BD4012B63D03F
:101450000F2C04D822A8019300F07CF8019B002FE8
:10146000ABD002A8019300F07DF8019BA96BC4F1F9
:101470001002002AA6DC102C224644A838BF1022F5
:1014800000EBC202A2F5C4727800BAE723F01003A1
:101490002B6005F5E870019200F0B6F8019A0AE7B2
:1014A0002968C8071DD521F00102284642F0020232
:1014B00040F8482B0193002700F04CF8019BC9E746
:1014C0000430A86322A800F039F86BE723F0080382
:1014D0002B6005F5A87000F06BF811E7012B3FF4C5
:1014E0004CAF0F2C98BF0027B4D966E742F0020238
:1014F00040F8482B00F02EF8019B002FAAD02A6854
:101500005107A5D5284622F0040240F8D02B0193BC
:1015100000F028F8019B99E722A8019300F012F847
:10152000019BA3E700F1340191E838009C46A646F0
:101530004CF8045D90E8FF0FE54600BD90EC210BF0
:10154000704700BF80EC210B704700BF90EC200B70
:10155000704700BF80EC200B704700BFD0EC200B21
:10156000704700BFC0EC200B704700BFF0EC0201D9
:10157000F0EC0211F0EC0221F0EC0231F0EC02414F
:10158000F0EC0251F0EC0261F0EC0271F0EC02813F
:10159000F0EC0291F0EC02A1F0EC02B1F0EC02C12F
:1015A000F0EC02D1F0EC02E1F0EC02F1704700BF88
:1015B000E0EC0201E0EC0211E0EC0221E0EC02318F
:1015C000E0EC0241E0EC0251E0EC0261E0EC02717F
:1015D000E0EC0281E0EC0291E0EC02A1E0EC02B16F
:1015E000E0EC02C1E0EC02D1E0EC02E1E0EC02F15F
:1015F000704700BFB0FC0181B0FC0191B0FC01A1BB
:10160000B0FC01B1704700BFA0FC0181A0FC0191BA
:10161000A0FC01A1A0FC01B1704700BFEC4600B5E1
:101620002DE900502DE9FF1F4FF000032DE90C00BC
:1016300001A9FFF7BFFBDDF840E012B0704700BF23
:10164000EC4600B52DE900502DE9FF1F4FF00003D7
:101650002DE90C0001A9FFF7E7FBDDF840E012B02F
:10166000704700BFEC4600B52DE900502DE9FF1F83
:101670004FF000032DE90C0001A9FFF7F7FBDDF89F
:1016800040E012B0704700BFEC4600B52DE90050B5
:101690002DE9FF1F4FF000032DE90C0001ABFFF710
:1016A000B9FBDDF840E012B0704700BFEC4600B572
:1016B0002DE900502DE9FF1F4FF000032DE90C002C
:1016C00001AAFFF733FCDDF840E012B0704700BF1D
:1016D000037A1BB9437A43B9B02070475A1E036896
:1016E00002721A020260180E70474268013B10B481
:1016F000437213680321141D01721A0244600260D0
:101700005DF8044B180E704700B585B003AB00219F
:1017100000930C220B46FFF7B9FB039805B05DF868
:1017200004FB00BFF0E700BF2DE9F043064685B09B
:101730000D464FF000082846FFF7CAFFB0280446C0
:1017400000F0B58020F07F0111F0FF0120D000F003
:10175000F003802B7AD0902B36D0A02B49D0B02B21
:101760005CD0C02B00F0898000F0F803D02B0BD1A7
:1017700000F00702013242F4002230460121052325
:10178000FFF77CFD0028D6D0092005B0BDE8F08326
:101790000DF10C090B468700CDF8009030460D2264
:1017A000FFF774FBFFB2039BCDF80090043760068F
:1017B0004FF000014CBFDF1BFF1830460B460D22D7
:1017C0000397FFF78BFBB6E700F00D030D2BDBD083
:1017D00003AF002100F00F020B4600973046FFF7E1
:1017E00055FB002100970B4630460D22FFF776FB94
:1017F000A1E7C34303F007034FF47F621A410107D7
:1018000002F47F624FF0000148BF42F480420B4671
:101810003046FFF733FD0028B6D18CE7B1284CD015
:10182000B2285DD0B32800F08A8000F0FC03B42B0E
:10183000AAD000F007020132012142F400220B4637
:101840003046FFF71BFD00289ED174E72846FFF7BE
:101850003FFF24022043B0F5004F95D00401002142
:10186000A2B20B463046FFF709FD00288CD114F4D4
:10187000004F18BF4FF001085DE7C62872D0C72897
:101880007AD000F0F803C02B00F08980C82800F05F
:10189000A580C9287FF478AF2846FFF719FF00F02C
:1018A0000F02013200F0F00042EA003265E7B8F1C1
:1018B000000F00F08280002067E72846FFF708FF4E
:1018C000024600283FF460AF10F0F0017FF45CAFF7
:1018D00030460B46FFF7D2FC00287FF455AF2AE7CD
:1018E00000210DF10C090D220B46CDF80090304679
:1018F000FFF7CCFA2846FFF7EBFE02064FF0020492
:101900000CD5039B00F07F00A040034428460393BE
:10191000FFF7DEFE030604F10704F2D4039BCDF8C3
:10192000009000F07F00A04003F5017300211C1817
:101930000D220B4630460394FFF7D0FAFBE628460B
:10194000FFF7C6FE00F00F02013200F0F0000121A7
:1019500042EA00320B463046FFF790FC00287FF445
:1019600013AFE8E62846FFF7B3FE00F00F0201329E
:1019700000F0F0000321EBE72846FFF7A9FE02463E
:1019800000283FF401AF10F0F0037FF4FDAE3046C5
:101990000421FFF773FC00287FF4F6AECBE600F0DD
:1019A0000F020132032142F420220B463046FFF79A
:1019B00065FC00287FF4E8AEBDE603AC41460E228C
:1019C000434600943046FFF761FA009430464146A2
:1019D0000F224346FFF782FA4046D6E62846FFF735
:1019E00077FE00F0F00200F00F031032013343EAFB
:1019F0000232C2E610B5C36C84B05A6803208DF879
:101A00000C00DC798DF80D4012020833084601A95C
:101A100001920293FFF788FE04B010BD08B5FFF7EE
:101A200081FE806C08BD00BF08B5FFF77BFEC36C6C
:101A3000D87903EB8000083008BD00BF08B505F079
:101A400017FB00BF08B505F013FB00BF80B400AF63
:101A5000FEE700BF80B582B000AF7860786805F01F
:101A60004DFB034618460837BD4680BD80B582B0A1
:101A700000AF7860786805F049FB0837BD4680BD47
:101A800080B582B000AF786001200249042200F0E6
:101A900081F8FEE7A47A000880B400AF012318465D
:101AA000BD465DF8047B704780B483B000AF7860BA
:101AB0003960054B16221A604FF0FF3318460C3779
:101AC000BD465DF8047B7047A891002090B585B0B5
:101AD00000AF7860154B1B68002B02D1134B144AE2
:101AE0001A60124B1B68FB60EFF308831C46234609
:101AF000BB600E4B1A687B681A44BB689A420AD9CD
:101B000002200C49192200F045F80B4B0C221A60F8
:101B10004FF0FF3306E0054B1A687B681344034A15
:101B20001360FB6818461437BD4690BD840800203A
:101B3000AC910020AC7A0008A891002080B584B058
:101B400000AF7860114BFB6006E0FB685A1EFA603C
:101B5000002B01DA002314E00D4B1B68184680218E
:101B600004F036FA0346002BEFD0094B1A687B6865
:101B70009BB2C3F308039BB21046194604F006FA61
:101B80007B6818461037BD4680BD00BF8020050029
:101B90000000002080B586B000AFF860B9607A60C0
:101BA000FB68012B02D0022B13D025E000237B61C0
:101BB0000AE0BB685A1CBA601B785BB21846FFF794
:101BC000BDFF7B6901337B617A697B689A42F0DBF8
:101BD00018E000237B610AE0BB685A1CBA601B78DE
:101BE0005BB21846FFF7AAFF7B6901337B617A6914
:101BF0007B689A42F0DB05E0054B09221A604FF042
:101C0000FF3300E07B6818461837BD4680BD00BF33
:101C1000A8910020002103E00C4B5B584350043195
:101C20000B480C4B42189A42F6D30B4A02E00023B1
:101C300042F8043B094B9A42F9D304F0F5F905F058
:101C400035FA00F061F905F01BFA7047708500085D
:101C5000000000206408002068080020AC910020EB
:101C6000FEE7000080B582B000AF78600B46FB70E5
:101C70007B681A68FB78002B01D0012300E0002369
:101C80001046194601F056FF0837BD4680BD00BF1B
:101C900080B586B002AFF860B9601346FB71FB688F
:101CA000BA681A60FB681A68002300931046032183
:101CB0000122002301F086FEFB79F8681946FFF740
:101CC000D1FFFB6818461037BD4680BD80B582B095
:101CD00000AF78607B681B68184601F019FF034667
:101CE000002B0CBF01230023DBB278681946FFF7F5
:101CF000B9FF0837BD4680BD90B583B000AF7860AE
:101D000039607B68012B34D13B684FF6FF729342F8
:101D10002FD1194819490022FFF7BAFF184819496D
:101D20000022FFF7B5FF184818490022FFF7B0FF5F
:101D30000420FFF78FFE0446204615490022FFF7D6
:101D4000A7FF144BDC610420FFF784FE0446204605
:101D500011490022FFF79CFF0E4B1C6209E0204650
:101D6000FFF784FE04F0CEFA2046FFF77FFE04F072
:101D7000C9FA0C37BD4690BD88080020F4870020C2
:101D80008C0800200488002090080020FC87002098
:101D90007C870020940800208487002080B500AF55
:101DA00001204FF6FF71FFF7A7FF80BD80B582B01D
:101DB00000AF3B1D184621490122FFF769FF00F0E3
:101DC000F7FA0346184600F023FB03461A461C4B5D
:101DD0001B689A4214BF01230023DBB2002B2CD0D6
:101DE00000F0E6FA0346184600F012FB03461A46D6
:101DF000134B1A6000F0DCFA0346184600F014FB9F
:101E00000346104AA2FB0312D2094FF4FA6101FB08
:101E100002F29B1A9BB2002B0CBF01230023DBB202
:101E2000002B08D008487821642201F053F83B1DAC
:101E30001846FFF74BFF00F041FFC0E77487002012
:101E400004000020D34D6210F47A000880B582B0FF
:101E500000AF3B1D184621490122FFF719FF00F092
:101E6000A7FA0346184600F0D3FA03461A461C4B5D
:101E70001B689A4214BF01230023DBB2002B2CD035
:101E800000F096FA0346184600F0C2FA03461A46D6
:101E9000134B1A6000F08CFA0346184600F0C4FA9F
:101EA0000346104AA2FB0312D2094FF4FA6101FB68
:101EB00002F29B1A9BB2002B0CBF01230023DBB262
:101EC000002B08D008487821642201F003F83B1D5C
:101ED0001846FFF7FBFE00F0F1FEC0E7FC8700208C
:101EE00004000020D34D6210F47A000880B582B05F
:101EF00000AF3B1D184603490122FFF7C9FE083712
:101F0000BD4680BDFC87002090B5B1B004AF07F19D
:101F1000A803184600F01CFA00F02EFE07F18C030F
:101F200018468F498F4A904B01F0AEFB07F17003C2
:101F300018468B498B4A8C4B01F0A6FB07F15403E2
:101F400018468749874A884B01F09EFB3A1D874B0C
:101F50000093874B0193874B029310468649874A2B
:101F6000874B02F07BF801F003F901F097FA01F0DA
:101F70002FF807F15003184682490122FFF788FE27
:101F800007F14C03184680490022FFF781FE7F4885
:101F90007D21002200F09EFF07F1A803184600F003
:101FA00037FA03461A467A4B1B689A4214BF01233C
:101FB0000023DBB2002BEFD007F1A803184600F096
:101FC00027FA03461A46724B1A6000F077FE3B1D53
:101FD000184601F0CBFB3B1D184601F0BBFB034646
:101FE000002B6B4B1B681C463B1D184602F014F976
:101FF00002464FF47A73B3FBF2F3B4FBF3F203FB44
:1020000002F3E31A002B0CBF01230023DBB2002BE9
:1020100003D03B1D184602F02BF95D4B1A685D4B4F
:1020200083FB02135911D317CB1A642101FB03F36D
:10203000D31A002B03D13B1D184601F013FC544B5F
:102040001A68554B83FB02139911D317CB1A4FF41F
:102050007A7101FB03F3D31A002B9DD13B7A83F0F5
:102060000103DBB2002B23D007F1A803184600F0D0
:10207000F3F9034603F00103DBB207F15002104607
:102080001946FFF7EFFD07F1A803184600F0E4F941
:10209000034603F00103DBB207F14C021046194678
:1020A000FFF7E0FD3D487821642200F013FF73E75D
:1020B0003B1D184602F026FA0346002B12D0384882
:1020C0004FF47A71002200F005FF07F15003184623
:1020D0000121FFF7C7FD07F14C0318460121FFF767
:1020E000C1FD59E707F1A803184600F0B5F903460A
:1020F00003F00103DBB207F1500210461946FFF767
:10210000B1FD07F1A803184600F0A6F9034603F055
:102110000103002B0CBF01230023DBB21A4607F199
:102120004C0318461146FFF79DFD00F0BDFD33E757
:102130003B1D184600F036F8FFE707F15403184638
:1021400001F0C4FBFFE707F17003184601F0BEFB86
:10215000FFE707F18C03184601F0B8FB04F0D2F852
:102160002C8800203C880020000001406C87002063
:102170004C87002040890020548700205C87002085
:1021800000080040BC860020C4860020E07A0008D9
:10219000040000201F85EB51D34D6210F47A000833
:1021A000EC7A000880B582B000AF78607B68084A9E
:1021B0001A607B68184601F089FB0023002B02D0CF
:1021C0007868FFF753FC7B6818460837BD4680BD2A
:1021D000387B000880B582B000AF78607868FFF780
:1021E000E1FF7868FFF742FC7B6818460837BD4678
:1021F00080BD00BF80B483B000AF03463960FB717F
:1022000097F90730002B0BDA0D49FB7903F00F0328
:10221000043B3A68D2B21201D2B20B441A7609E0FA
:10222000084997F907303A68D2B21201D2B20B448A
:1022300083F800230C37BD465DF8047B704700BF70
:1022400000ED00E000E100E080B582B000AF786012
:102250007B68013BB3F1807F01D301230FE00A4A81
:102260007B68013B53604FF0FF300F21FFF7C2FF47
:10227000054B00229A60044B07221A60002318467F
:102280000837BD4680BD00BF10E000E080B582B0D9
:1022900000AF234B1B680133214A1360204B1B689E
:1022A00041F287329342CCBF01230023DBB2002BE3
:1022B00002D01B4B00221A60194B1968194B83FB83
:1022C00001235A10CB17D21A13469B001344CA1A83
:1022D000002A04D1144B1B68184600F075F803203F
:1022E00002F076F9034618469FED100ADFED100A5A
:1022F0009FED101A02F002F80EE002460B46012B89
:1023000001D003F0FFFF1346184604F05BF90346C3
:102310007B6000BF04F09CF900BF0837BD4680BD5C
:10232000BC08002067666666B80800207B54154329
:10233000333333400000604280B483B000AF786034
:102340007B689B8818460C37BD465DF8047B704758
:1023500080B582B000AF78607B6800221A807B680D
:1023600000225A807B6800229A800E4B1B680E4A1E
:10237000A2FB03231B0B1846FFF766FF0B4A7B6883
:10238000136045F2555003F08BF9052003F098F9DE
:10239000FA2003F0A5F903F0B3F97B681846083773
:1023A000BD4680BD180000205917B7D1B8080020DD
:1023B00080B400AF034B1B681846BD465DF8047B34
:1023C000704700BFB808002080B483B000AF7860C9
:1023D0007B681B8801339AB27B681A807B681B88F4
:1023E00040F2E73293428CBF01230023DBB2002B83
:1023F00008D07B685B8801339AB27B685A807B681F
:1024000000221A800C37BD465DF8047B704700BF80
:1024100080B483B000AF78607B681B8818460C37A7
:10242000BD465DF8047B704780B483B000AF786030
:102430007B685B881A465201D21A92001344DB0073
:102440009AB27B681B8813449BB218460C37BD4672
:102450005DF8047B704700BF80B483B000AF786044
:102460007B685B8818460C37BD465DF8047B704777
:1024700080B582B000AF78607868FFF75DFF0346F3
:10248000002B0CBF01230023DBB218460837BD46E2
:1024900080BD00BF80B483B000AF78600B467B8006
:1024A0007B687A889A800C37BD465DF8047B70475C
:1024B00080B500AF1F48204902F064FF0346012B9E
:1024C0000CBF01230023DBB2002B31D019481A497D
:1024D00002F0B0FF1748002102F038FFFFF768FF55
:1024E000034618460321FFF7D5FF09E0FFF760FF19
:1024F00003461846FFF7BCFF0346002B00D00BE055
:102500000E48402103F064FD0346002B0CBF01235D
:102510000023DBB2002BE9D10848402103F074FD11
:10252000064800F0D9FA03461846002100F08CFA5C
:1025300080BD00BFB8640240008000280010014048
:1025400080B500AF1F48204902F01CFF0346012B55
:102550000CBF01230023DBB2002B31D019481A49EC
:1025600002F068FF1748002102F0F0FEFFF720FF9D
:10257000034618460321FFF78DFF09E0FFF718FF18
:1025800003461846FFF774FF0346002B00D00BE00C
:102590000E48402103F01CFD0346002B0CBF012315
:1025A0000023DBB2002BE9D10848402103F02CFDC9
:1025B000064800F091FA03461846002100F044FA5C
:1025C00080BD00BF586002400080001800480040F5
:1025D00090B583B000AF4448444902F0D3FE0346AF
:1025E000012B0CBF01230023DBB2002B79D03E4826
:1025F0003E4902F01FFF3C48002102F0A7FEFFF712
:10260000D7FE034618460321FFF744FF09E0FFF712
:10261000CFFE03461846FFF72BFF0346002B00D0E2
:102620000BE03348202103F0D3FC0346012B0CBF01
:1026300001230023DBB2002BE9D100237B6049E0BA
:102640002B4800F049FA0346184600F029FA0446E0
:10265000274800F041FA0346184600F013FA0346F3
:102660001C44234800F038FA0346184600F026FAC6
:1026700002467B6813441B7823701D4800F02CFA37
:1026800004461B4800F028FA0346184600F0FAF901
:10269000034601332046194600F0E6F9144800F0DD
:1026A0001BFA0346184600F0EDF9024640F2FF73AC
:1026B0009A420CBF01230023DBB2002B07D00C4849
:1026C00000F00AFA03461846002100F0CDF97B68B5
:1026D00001337B607B68072BB2DD0348012102F0E8
:1026E00035FE0C37BD4690BD2860024000880010C2
:1026F0000048004090B583B000AF4448444902F020
:1027000041FE0346012B0CBF01230023DBB2002B4B
:1027100079D03E483E4902F08DFE3C48002102F04F
:1027200015FEFFF745FE034618460321FFF7B2FEEC
:1027300009E0FFF73DFE03461846FFF799FE034602
:10274000002B00D00BE03348202103F041FC03466E
:10275000012B0CBF01230023DBB2002BE9D10023A6
:102760007B6049E02B4800F0B7F90346184600F0BB
:1027700097F90446274800F0AFF90346184600F0E1
:1027800081F903461C44234800F0A6F90346184685
:1027900000F094F902467B6813441B7823701D48AF
:1027A00000F09AF904461B4800F096F903461846D3
:1027B00000F068F9034601332046194600F054F949
:1027C000144800F089F90346184600F05BF9024608
:1027D00040F2FF739A420CBF01230023DBB2002BAF
:1027E00007D00C4800F078F903461846002100F0A5
:1027F0003BF97B6801337B607B68072BB2DD0348C4
:10280000012102F0A3FD0C37BD4690BD406402409B
:10281000008020100010014098B500AF204800F063
:102820005BF90346184600F03BF904461C4800F0EB
:1028300053F90346184600F025F903461C4418488E
:1028400003F0B6FB0346DBB22370154800F044F9F1
:102850000446134800F040F90346184600F012F908
:10286000034601332046194600F0FEF80C4800F0FC
:1028700033F90346184600F005F9024640F2FF73AB
:102880009A420CBF01230023DBB2002B07D004487F
:1028900000F022F903461846002100F0E5F898BD43
:1028A0000010014098B500AF204800F015F903462C
:1028B000184600F0F5F804461C4800F00DF90346F0
:1028C000184600F0DFF803461C44184803F070FB7C
:1028D0000346DBB22370154800F0FEF804461348A7
:1028E00000F0FAF80346184600F0CCF8034601332E
:1028F0002046194600F0B8F80C4800F0EDF8034601
:10290000184600F0BFF8024640F2FF739A420CBF2F
:1029100001230023DBB2002B07D0044800F0DCF8D1
:1029200003461846002100F09FF898BD004800407B
:1029300098B500AF204800F0CFF80346184600F0E5
:10294000AFF804461C4800F0C7F80346184600F0EC
:1029500099F803461C44184803F02AFB0346DBB2EF
:102960002370154800F0B8F80446134800F0B4F896
:102970000346184600F086F8034601332046194600
:1029800000F072F80C4800F0A7F80346184600F073
:1029900079F8024640F2FF739A420CBF01230023EC
:1029A000DBB2002B07D0044800F096F80346184627
:1029B000002100F059F898BD004C004098B500AFD8
:1029C000204800F089F80346184600F069F80446EC
:1029D0001C4800F081F80346184600F053F80346FF
:1029E0001C44184803F0E4FA0346DBB22370154890
:1029F00000F072F80446134800F06EF803461846DB
:102A000000F040F8034601332046194600F02CF848
:102A10000C4800F061F80346184600F033F802460F
:102A200040F2FF739A420CBF01230023DBB2002B5C
:102A300007D0044800F050F803461846002100F083
:102A400013F898BD0050004080B483B000AF7860A8
:102A50000B46FB707B68FA7883F847280C37BD4635
:102A60005DF8047B704700BF80B483B000AF78602E
:102A700039607B683A68C3F84C280C37BD465DF86E
:102A8000047B704780B483B000AF78607B68D3F874
:102A90004C3818460C37BD465DF8047B704700BFC4
:102AA00080B483B000AF78607B68D3F848381846AC
:102AB0000C37BD465DF8047B704700BF80B483B01F
:102AC00000AF78607B6803F5046318460C37BD4699
:102AD0005DF8047B704700BF80B485B000AF7860BC
:102AE0000023FB607B68124A934203D1114B1B68A1
:102AF000FB6016E07B68104A934203D10F4B1B68C2
:102B0000FB600EE07B680E4A934203D10D4B1B68BD
:102B1000FB6006E07B680C4A934202D10B4B1B68BA
:102B2000FB60FB6818461437BD465DF8047B7047B0
:102B300000100140C008002000480040C4080020E8
:102B4000004C0040C808002000500040CC08002085
:102B500080B485B000AFF860B9601346FB71FB68C4
:102B6000BA681A60FB68FA791A71FB68184614375C
:102B7000BD465DF8047B704790B585B002AF2F4B22
:102B800000221A802D4B4EF6E6625A800223FB711A
:102B900017E0FA79FB79013B284931F813301946DF
:102BA00042F2107303FB01F3254981FB03018912F3
:102BB000DB17CB1A99B2214B23F81210FB790133A2
:102BC000FB71FB790C2BE4D9002300931D480221F3
:102BD0000222002300F0F6FE1A4B1C68194800F090
:102BE000D1FE03469BB220461946032202F010FD97
:102BF000154B1B68154AA2FB03239B0C9BB2013BA0
:102C00009AB2134B1C884FF48073009311481146FD
:102C10000022234601F00CFD0F4B1B789BB20F4A9C
:102C200000930023019392E803006022012301F046
:102C3000C5FD00F039F80C37BD4690BDD80800201E
:102C40003D03BE18E48700201800002083DE1B43EC
:102C50000A000020000401400800002008090020AC
:102C600080B500AF0C4B1B88002B02D100F01CF884
:102C700010E0094B1B881A46084B1B7803FB02F334
:102C8000074A82FB03125211DB17D31A0548194673
:102C900003F088F880BD00BF0A0000200800002073
:102CA0001F85EB510004014080B500AF02480021B0
:102CB00003F078F880BD00BF0004014080B582B009
:102CC00000AF504B1B78002B03D14F4B1B78002BD0
:102CD0002BD04E4B1B88013B9AB24C4B1A804B4B6E
:102CE0001B88002B20D1474B1B78002B0CBF0123E6
:102CF0000023DBB21A46434B1A70424B1B78002B61
:102D000002D0FFF7ADFF01E0FFF7CEFF404B1A887E
:102D10003E4B1A803B4B1B78002B05D13A4B1B785E
:102D2000013BDAB2384B1A7069E03A4B1B78002B42
:102D300065D0394B1A68394B1B885B001A443B1D20
:102D400012881A803B795BB2B3F1FF3F04D1314B5B
:102D500000221A70FFF7A8FF314B1B88002B06D00A
:102D60002F4B1B88013B9AB22D4B1A8047E02D4B0D
:102D70001A882B4B1A802C4B1B88002B16D02B4B00
:102D80001B78002B0CBF01230023DBB21A46274B14
:102D90001A70264B1B78002B06D0234B1A88204B29
:102DA0001A80FFF781FF01E0FFF75AFF1E4B1B88D7
:102DB000002B03D01D4B1B78002B03D01A4B1B8814
:102DC000002B1CD1144B1A68144B1B88013399B289
:102DD000124B1980114B1B885B001A443B1D128853
:102DE0001A803A797B7952B21046194600F03CF8C5
:102DF0000346184600F01CF8FFF732FFFFE70837DC
:102E0000BD4680BDD0080020D6080020D408002090
:102E1000D2080020F4080020F8080020FC08002058
:102E200000090020FE0800200209002004090020FB
:102E300080B582B000AF0346FB80094AFB8813804F
:102E4000074B1B88002B06D0054B1B8805481946ED
:102E500002F052FD01E0FFF727FF0837BD4680BDB5
:102E60000A0000200004014080B485B000AF034692
:102E70000A46FB711346BB710023FB8197F90730AB
:102E8000002B08D097F90730B3F1FF3F03D097F933
:102E900007300C2B01DD002314E097F907300C4AB2
:102EA00032F81330FB8102E0FB895B08FB81BB79C0
:102EB0005A1EBA71002B14BF01230023DBB2002B72
:102EC000F2D1FB8918461437BD465DF8047B704784
:102ED000D808002080B582B000AF78600B467B80B8
:102EE00013463B807B68002B00D129E0164B002263
:102EF0001A70164B00221A70154B01221A70154BCE
:102F000000221A80144A7B881380144A7B8813801D
:102F1000134A3B881380134B00221A70124A7B68B5
:102F200013607B681A787B685B7852B2104619464A
:102F3000FFF79AFF03461846FFF77AFFFFF790FE68
:102F40000837BD4680BD00BFD0080020D60800204D
:102F5000F4080020FC080020FE08002000090020E2
:102F60000209002004090020F808002080B582B082
:102F700000AF786039607B68012B09D13B684FF660
:102F8000FF72934204D1044804490222FFF7E0FD96
:102F90000837BD4680BD00BF08090020000401407D
:102FA00080B500AF01204FF6FF71FFF7DFFF80BD56
:102FB00080B483B000AF0346FB71FB799BB2B033A2
:102FC0009BB218460C37BD465DF8047B704700BFC6
:102FD00080B500AF0020FFF7EBFF0346184640F234
:102FE000FC71024A00F074FA80BD00BFF12F0008A6
:102FF00084B090B589B000AF07F1300484E80F00C9
:103000003B6BDBB250337B7797F83B30AA2B0BD06E
:10301000AA2B02DC442B5AD0A4E0BB2B00F0A180E9
:10302000EE2B00F081809DE097F83A30062B4DD1D1
:1030300004233B770023BB600023FB770EE0FB7F7C
:10304000FA7F013207F130010A44D27A07F12001F8
:103050000B4403F8182CFB7F0133FB77FB7F032B1A
:10306000EDD997F84030FB7607F1080318460421A4
:1030700000F0EAFA03467B617B7F184601F0A8FA6C
:103080000346184601F0D4F802467B699A4202D101
:10309000FB7E002B01D1012300E00023002B15D083
:1030A000FB7E012B09D17B7F184601F091FA034684
:1030B0001846796901F08AF808E07B7F184601F02C
:1030C00087FA03461846796901F090F84AE097F8C4
:1030D0003A30032B27D10223FB740023BB8000234B
:1030E000BB770EE0BB7FBA7F013207F130010A44A3
:1030F000D27A07F120010B4403F81C2CBB7F01336B
:10310000BB77BB7F012BEDD97B7F184601F060FABE
:1031100004463B1D1846022100F096FA034620465D
:10312000194601F033F81DE097F83A30012B07D12A
:103130007B7F184601F04CFA0346184601F084F8EC
:1031400010E002460B46012B01D003F0DBF81346DA
:10315000184603F037FA0346FB6000BF03F078FA25
:1031600000E000BF2437BD46BDE8904004B0704782
:1031700080B588B002AF4FF00070012102F0EAFA8A
:103180000120012102F0C8FA012300932D480221F9
:103190000222002300F016FC002300932A4802219B
:1031A0000222002300F00EFC264B1B6818460B2160
:1031B000092202F02DFA244B1B6818460C21092223
:1031C00002F026FA214801F0FBFB3B1D184601F0F6
:1031D000A5FD0023BB720123FB7200233B73002378
:1031E0007B730023BB730023FB730023BB7100239D
:1031F000FB7105233B7206237B720323BB8000BF58
:103200003B1D1248194601F0FDFB0346012B14BF7C
:1032100001230023DBB2002BF2D10C480121012253
:1032200001F026FF13233B7000237B700423BB7047
:103230000123FB703B46184601F062FB1837BD4680
:1032400080BD00BFFC860020048700200064004091
:1032500084B080B500AF07F1080E8EE80F00084873
:1032600007F1080101F084FD0346042B14BF01237C
:103270000023DBB21846BD46BDE8804004B070476D
:103280000064004080B400AF064B1A88054B5B8891
:103290009A420CBF01230023DBB21846BD465DF8FD
:1032A000047B70470C00002080B400AF124B9B6879
:1032B00003F08063002B14BF01230023DBB21A4606
:1032C0000D4B9B6803F00063002B14BF0123002308
:1032D000DBB21344DBB2084A926802F08052002A43
:1032E00014BF01220022D2B21344DBB21846BD46FD
:1032F0005DF8047B704700BF0064004090B587B064
:1033000000AF3C4684E80F000023FB751B4B5B8835
:1033100001331A4A928893FBF2F102FB01F29B1AE5
:10332000164A1288934202D10123FB7519E0134B10
:103330009A68124B5B881B0113441C463B460FCB1B
:1033400084E80F000D4B5B8801330C4A928893FB95
:10335000F2F102FB01F29B1A9AB2084B5A80002349
:10336000FB7500F00DF8FB7D002B0CBF0123002343
:10337000DBB218461C37BD4690BD00BF0C000020D4
:1033800090B58DB002AFFFF77DFF0346002B06D14D
:10339000FFF78AFF0346002B01D0012300E0002342
:1033A000002B5CD0304B9A682F4B1B881B011344B9
:1033B00007F114040FCB84E80F003B7E87F8273019
:1033C0007B693B6000237B6000237B7200233B72A0
:1033D00097F82730BB720DE097F8273097F8272031
:1033E00007F128010A4412F80F2C07F128010B44B9
:1033F00003F81D2C97F827305A1E87F82720002B3A
:1034000014BF01230023DBB2002BE5D13B690093FD
:103410003B460FCBFFF71CFF0346002B14BF0123D5
:103420000023DBB2002B0CD00F4B1B8801330E4A5C
:10343000928893FBF2F102FB01F29B1A9AB20A4BBB
:103440001A80FFF731FF0346002B14BF012300232E
:10345000DBB2002B01D0FFF793FF012300E0002334
:1034600018462C37BD4690BD0C00002080B500AF3B
:103470000948012101F01AFE0346002B14BF012365
:103480000023DBB2002B05D00348012101F0D8FE58
:10349000FFF776FF80BD00BF0064004080B582B0BA
:1034A00000AF0A480221012201F0E2FD14233B7122
:1034B00000237B710423BB710123FB713B1D184664
:1034C00001F01EFA0837BD4680BD00BF0064004011
:1034D00080B586B000AF03463A60FB800B46BB80E8
:1034E000BB885B019BB243F01F039BB2BB80154BB3
:1034F0001B78BB740023FB7401233B75FB885B01C5
:103500009BB23B8100237B81BB88BB810023FB8175
:1035100000233B8201237B7507F10803184601F065
:1035200043FB084B1B781946074A3B6842F8213099
:10353000044B1B780133DAB2024B1A701837BD46C0
:1035400080BD00BF108600202886002090B589B07D
:1035500002AF2B48022101F0A9FD0346002B14BF46
:1035600001230023DBB2002B46D02548022101F0C5
:1035700067FE3B46224800211A4601F0C1FC3B7A17
:10358000002B39D1FB7CBB751E4B1B78BA7D9A4250
:1035900011D2BB7D1B2B0ED8BB7D1B4A52F82330AA
:1035A000002B08D0BB7D184A52F823403B6900939A
:1035B0003B460FCBA0473B68144A1360BA7A134BC3
:1035C0001A710023FB750DE0FB7DFA7D07F11801F0
:1035D0000A4412F80D1C0D4A13440A465A71FB7D29
:1035E0000133FB75094B1B79FA7D9A42ECD3084BEA
:1035F0001B680133064A13601C37BD4690BD00BFEF
:1036000000640040108600202886002014860020D8
:103610002486002080B582B000AF78600B46FB7036
:10362000FB78002B02D17B68DBB209E07B681A12C1
:10363000FB78013BDBB210461946FFF7EBFF034670
:1036400018460837BD4680BD90B583B000AF78609E
:103650000B46FB70FB78002B02D17B681B780EE0D9
:103660007B681B781C467B685A1CFB78013BDBB2ED
:1036700010461946FFF7E8FF03461B02234418468D
:103680000C37BD4690BD00BF90B587B002AFF86063
:10369000B9607A603B60FB682C4A1A60FB680122C3
:1036A0001A712B4B1A68FB689A60FB683A68DA60FB
:1036B000FB6800221A61FB6800225A61FB68002245
:1036C0009A61234B1B680133214A13600023009346
:1036D000B86802210222002300F074F9002300934D
:1036E000786802210222002300F06CF9BB681C6894
:1036F000B86800F047F903469BB2204619460222FB
:1037000001F086FF7B681C68786800F03BF903468F
:103710009BB220461946022201F07AFFFB68DA6864
:10372000002300931046002100224FF6FF7300F0A3
:103730007FFFFB68DB6818464FF4004101F092F808
:10374000FB6818461437BD4690BD00BF087B0008D3
:103750009886002080B483B000AF78607B685B6996
:1037600018460C37BD465DF8047B704790B585B0B0
:1037700000AF7860394B1B6803F00103002B11D1B7
:10378000364803F08DFB0346002B14BF01230023B2
:10379000DBB2002B06D07B689B69314A13602F484F
:1037A00003F09AFB7B68DB68184602F0B3F8034627
:1037B000FB60FB684FF230529342CCBF01230023E1
:1037C000DBB2002B0FD07B68DA68FB68A3F5EA4315
:1037D000303B1046194602F081F87B681B695A1C81
:1037E0007B681A6118E0FB6840F6CF229342D4BF91
:1037F00001230023DBB2002B0ED07B68DA68FB6864
:1038000003F5EA4330331046194602F067F87B6847
:103810001B695A1E7B681A617B681B6947F230522C
:1038200002FB03F31C467B68DB68184602F072F863
:1038300003462344A3F500431A467B689A61084B6C
:103840001A687B689B69D21A7B685A617B689B699E
:10385000034A13601437BD4690BD00BF9C8600200C
:10386000A086002080B586B000AF78607B689B683A
:10387000B033BB6005233B7322237B737B685B699A
:1038800018460021FFF7C6FE0346BB737B685B69E1
:1038900018460121FFF7BEFE0346FB737B685B6998
:1038A00018460221FFF7B6FE03463B747B685B694E
:1038B00018460321FFF7AEFE03467B7407F10803A9
:1038C0000FCBFFF71BFD1837BD4680BD80B582B01A
:1038D00000AF78607B68064A1A600023002B02D094
:1038E0007868FEF7C3F87B6818460837BD4680BD88
:1038F000087B000880B582B000AF78607868FFF779
:10390000E5FF7868FEF7B2F87B6818460837BD46D1
:1039100080BD00BF80B586B002AFF860B9601346C5
:10392000FB80FB68BA681A60FB68FA889A80FB68BB
:1039300000229A71FB681B680F4A934217D1FB68FB
:103940009B88012B03D0FB689B88022B0FD100239F
:1039500000930A4803210122002300F033F80023DA
:103960000093074803210122002300F02BF8FB6895
:1039700018461037BD4680BD000402402487002051
:103980002C87002080B485B000AF78600023FB73E3
:103990007B689B88BB8102E0FB7B0133FB73BB89A7
:1039A0005B10BB81BB89002B14BF01230023DBB25A
:1039B000002BF1D1FB7B18461437BD465DF8047B24
:1039C000704700BF80B584B000AF786008461146EC
:1039D0001A460346FB700B46BB7013467B707B6830
:1039E0001B68404A934243D03E4A934213D83E4A12
:1039F00093422ED03C4A934206D83C4A93421ED072
:103A00003B4A934220D054E03A4A934226D03A4A65
:103A1000934228D04DE0394A934238D0374A9342F6
:103A200006D8374A934228D0364A93422AD040E0FB
:103A3000354A934231D0354A934234D039E001209F
:103A4000012101F069FE34E00220012101F064FE51
:103A50002FE00420012101F05FFE2AE0082001216F
:103A600001F05AFE25E01020012101F055FE20E072
:103A70002020012101F050FE1BE04020012101F037
:103A80004BFE16E08020012101F046FE11E04FF4CC
:103A90008070012101F040FE0BE04FF40070012125
:103AA00001F03AFE05E04FF48060012101F034FEA0
:103AB00000BFFB787B73BB783B737B78BB733B7E2B
:103AC000FB737B689B88BB607B681A6807F10803FF
:103AD0001046194601F0DCFC7B6801229A71103710
:103AE000BD4680BD001402400008024000000240B4
:103AF00000040240000C024000100240002002407E
:103B000000180240001C024000240240002802402D
:103B100080B582B000AF78607B681A687B689B884C
:103B20001046194601F042FD034618460837BD46C7
:103B300080BD00BF80B582B000AF78600B46FB70DF
:103B40007B6819687B689A88FB78084611461A4694
:103B500001F046FD0837BD4680BD00BF80B582B08C
:103B600000AF786039607B68012B40F051823B6880
:103B70004FF6FF72934240F04B82BA48BA49012295
:103B8000FFF7C8FEB948B8490222FFF7C3FEB8489C
:103B9000B5490422FFF7BEFEB648B3490822FFF735
:103BA000B9FEB548B0491022FFF7B4FEB348AE499C
:103BB0002022FFF7AFFEB248AB494022FFF7AAFE32
:103BC000B048A9498022FFF7A5FEAF48A6494FF4A7
:103BD0008072FFF79FFEAD48A3494FF40072FFF7D4
:103BE00099FEAB48A0494FF48062FFF793FEA948C5
:103BF0009D494FF40062FFF78DFEA7489A494FF4A4
:103C00008052FFF787FEA54897494FF40052FFF70F
:103C100081FEA34894494FF48042FFF77BFEA14800
:103C200091494FF40042FFF775FE9F489F490122DA
:103C3000FFF770FE9E489D490222FFF76BFE9D48EC
:103C40009A490422FFF766FE9B4898490822FFF72D
:103C500061FE9A4895491022FFF75CFE9848934907
:103C60002022FFF757FE974890494022FFF752FE67
:103C700095488E498022FFF74DFE94488B494FF4BA
:103C80008072FFF747FE924888494FF40072FFF7B1
:103C900041FE904885494FF48062FFF73BFE8E4815
:103CA00082494FF40062FFF735FE8C487F494FF49C
:103CB0008052FFF72FFE8A487C494FF40052FFF7ED
:103CC00029FE884879494FF48042FFF723FE864851
:103CD00076494FF40042FFF71DFE844884490122D3
:103CE000FFF718FE834882490222FFF713FE82483D
:103CF0007F490422FFF70EFE80487D490822FFF726
:103D000009FE7F487A491022FFF704FE7D48784972
:103D10002022FFF7FFFD7C4875494022FFF7FAFD9E
:103D20007A4873498022FFF7F5FD794870494FF4CE
:103D30008072FFF7EFFD77486D494FF40072FFF78F
:103D4000E9FD75486A494FF48062FFF7E3FD734867
:103D500067494FF40062FFF7DDFD714864494FF495
:103D60008052FFF7D7FD6F4861494FF40052FFF7CB
:103D7000D1FD6D485E494FF48042FFF7CBFD6B48A3
:103D80005B494FF40042FFF7C5FD694869490122CC
:103D9000FFF7C0FD684867490222FFF7BBFD67488F
:103DA00064490422FFF7B6FD654862490822FFF71F
:103DB000B1FD64485F491022FFF7ACFD62485D49E0
:103DC0002022FFF7A7FD61485A494022FFF7A2FDD4
:103DD0005F4858498022FFF79DFD5E4855494FF4E2
:103DE0008072FFF797FD5C4852494FF40072FFF76D
:103DF00091FD5A484F494FF48062FFF78BFD5848B8
:103E00004C494FF40062FFF785FD564849494FF48D
:103E10008052FFF77FFD544846494FF40052FFF7A8
:103E200079FD524843494FF48042FFF773FD5048F3
:103E300040494FF40042FFF76DFD4E484E490122C4
:103E4000FFF768FD4D484C490222FFF763FD4C48DF
:103E500049490422FFF75EFD4A4847490822FFF717
:103E600059FD91E0A486002000000240AC860020AD
:103E7000B4860020BC860020C4860020CC860020AA
:103E8000D4860020DC860020E4860020EC8600201A
:103E9000F4860020FC860020048700200C87002088
:103EA000148700201C870020248700200004024083
:103EB0002C870020348700203C8700204487002086
:103EC0004C870020548700205C87002064870020F6
:103ED0006C870020748700207C8700208487002066
:103EE0008C870020948700209C870020A4870020D6
:103EF00000080240AC870020B4870020BC87002067
:103F0000C4870020CC870020D4870020DC870020D5
:103F1000E4870020EC870020F4870020FC87002045
:103F2000048800200C880020148800201C880020B1
:103F300024880020001002402C88002034880020B3
:103F40003C880020448800204C88002054880020B1
:103F50005C880020648800206C8800207488002021
:103F60007C880020848800208C8800209488002091
:103F70009C880020A4880020000C0240AC8800200F
:103F8000B4880020BC880020234824491022FFF771
:103F9000C1FC234821492022FFF7BCFC21481F49CE
:103FA0004022FFF7B7FC20481C498022FFF7B2FCF3
:103FB0001E481A494FF48072FFF7ACFC1C481749A1
:103FC0004FF40072FFF7A6FC1A4814494FF48062C0
:103FD000FFF7A0FC184811494FF40062FFF79AFC64
:103FE00016480E494FF48052FFF794FC14480B49D1
:103FF0004FF40052FFF78EFC124808494FF48042FC
:10400000FFF788FC104805494FF40042FFF782FC97
:104010000837BD4680BD00BFC4880020000C0240A8
:10402000CC880020D4880020DC880020E488002090
:10403000EC880020F4880020FC88002004890020FF
:104040000C890020148900201C89002080B500AF55
:1040500001204FF6FF71FFF781FD80BD90B587B05D
:1040600002AFF860B9607A603B60FB681846B968D7
:104070007A683B68FFF708FBFB68404A1A60FB68F8
:1040800000221A77FB6800221A62FB6800225A623B
:10409000FB6864229A62BB6A1A68FB68DA62384B72
:1040A0001B68384AA2FB03239B0B013B1A46FB68A3
:1040B0001A63FB684FF47A725A63FB6805229A63AD
:1040C000FB684FF00002DA63FB68002283F84020AF
:1040D000FB687A6A5A6400230093386A032102223B
:1040E0000023FFF76FFC00230093786A032101226D
:1040F0000023FFF767FC3B6A1C68386AFFF742FC45
:1041000003469BB220461946032201F081FABB6A9E
:104110001A68FB681B6B9CB20023009310460021B9
:104120000022234600F084FAFB681B6B9AB2BB6A3C
:1041300000920022019293E803006022012300F024
:104140003DFBFB685B6C18460021FFF7F3FCFB6846
:104150009B68032B05DCFB689B680B49FA6841F8F8
:104160002320FB6805E0FB681846FFF7AFFB02F071
:10417000C9F818461437BD4690BD00BF387B00080B
:10418000180000205917B7D12489002080B483B0CB
:1041900000AF786039607B685B6B1A463B689A4277
:1041A00002D27B685B6B09E07B689B6B1A463B68BD
:1041B0009A4202D97B689B6B00E03B687A68936205
:1041C0000C37BD465DF8047B704700BF80B483B0F8
:1041D00000AF786039607B683A681A627B680122B8
:1041E0001A770C37BD465DF8047B704780B483B006
:1041F00000AF786039603B6807EE903AF8EEE77AF6
:104200007B68C3ED0F7A7B6800221A770C37BD46B6
:104210005DF8047B704700BF80B483B000AF786066
:104220007B689B6A18460C37BD465DF8047B704777
:1042300080B483B000AF78607B681B6A18460C3787
:10424000BD465DF8047B704780B483B000AF7860F2
:104250007B6800225A627B685A6A7B681A627B68B4
:1042600001221A770C37BD465DF8047B704700BF0A
:1042700080B483B000AF78607B685A6A7B681B6A41
:104280009A4205DD7B685B6A5A1E7B685A620AE0C7
:104290007B685A6A7B681B6A9A4204DA7B685B6AAD
:1042A0005A1C7B685A620C37BD465DF8047B704728
:1042B00090B583B000AF78607B685C6A7B68184615
:1042C000FFF748FA0346E31A18460C37BD4690BD7F
:1042D000B0B582B000AF78607868FCF7EDFA0246BE
:1042E0000B46144623F0004545EC174BB0EE470A49
:1042F000F0EE670A0837BD46B0BD00BF80B52DEDB2
:10430000028B86B000AFF86087ED020AC7ED010AA4
:1043100087ED001A64237B61F868FFF7C9FF07EE99
:10432000900AB8EEE77A644BD3ED007A37EE677AFD
:10433000D7ED027A27EE278AF868FFF7B9FF07EE74
:10434000900AB8EEE77AD7ED017A67EE277A38EE71
:10435000278AF868FFF7ACFF07EE900AB8EEE77A15
:10436000564BD3ED007A37EE277A534BD3ED007AD4
:1043700077EEA77A37EE677AD7ED007A67EE277A7D
:1043800078EE277AC7ED047AFB681B7F002B3ED0BE
:10439000FB681B79002B3AD0FB685B6A1846FFF775
:1043A00097FF53EC102B104619464FF000024FF0C8
:1043B0000003FCF765FB0346002B08D0FB6818469A
:1043C000FFF7C8F90346002B01D1012300E00023C9
:1043D000002B0ED03A4B1B680133394A1360384B1F
:1043E0001B68642BD4BF01230023DAB2FB681A7167
:1043F00002E0334B00221A60FB6893ED0F7AD7ED91
:10440000047A77EE277AFB68C3ED0F7A36E0FB6813
:104410001B7F002B0AD0FB681B7983F00103DBB202
:10442000002B03D0FB684FF00002DA63FB681B79B6
:10443000002B0AD0FB681846FFF78CF90246FB6890
:104440005A62FB685A6AFB681A62FB681B7983F040
:104450000103DBB2002B08D0FB681846FFF77AF99E
:104460000346002B01D0012300E00023002B05D0E0
:10447000134B00221A60FB6801221A710E4B1B6855
:104480000E4A1360F868FFF713FF07EE900AF8EE84
:10449000E77A094BC3ED007AFB68D3ED0F7AFDEEA6
:1044A000E77AF86817EE901A00F03AF81837BD4628
:1044B000BDEC028B80BD00BF34890020388900200C
:1044C0003C89002080B582B000AF78600B46FB705D
:1044D00097F90330B3F1FF3F06D17B685B6C184658
:1044E0000021FFF727FB09E097F90330012B05D1E5
:1044F0007B685B6C18460121FFF71CFB0837BD4643
:1045000080BD00BF80B483B000AF78607B6893F853
:10451000403018460C37BD465DF8047B704700BF3D
:104520002DE9904383B000AF786039607B681A6BE7
:104530003B689A4207DA7B681B6B3B607B68012211
:1045400083F8402012E07B681B6B5A423B689A421A
:1045500008DD7B681B6B5B423B607B68012283F854
:10456000402003E07B68002283F840207B68DC6AFF
:104570007B681B6B1846FCF79FF9804689463868B4
:10458000FFF7A6FE53EC102B40464946FCF746F8D1
:1045900002460B4610461946FCF77CFA03462046B5
:1045A000194601F0F1FB3B68002B06DC3B68002B51
:1045B00001DAFF2302E0002300E001235BB2786808
:1045C0001946FFF77FFF0C37BD46BDE8908300BF5B
:1045D00080B582B000AF78607B68042B05D8124AA2
:1045E0007B6852F82330002B0AD1012001F046FEEF
:1045F000034600221A7018460C49002202F0C0FB44
:10460000094A7B6852F823300AE002460B46B3F1B0
:10461000FF3F01D001F076FE1346184601F068FF17
:1046200018460837BD4680BD24890020D87A000886
:1046300080B588B000AFF860084611461A460346B8
:104640007B810B463B811346FB80F86800F014F831
:10465000FB88BB613B8DBB837B89BB823B89FB8233
:104660000023BB7707F11403F868194601F0CCF872
:104670002037BD4680BD00BF80B582B000AF7860F6
:104680007B68414A934204D10120012101F080F866
:1046900077E07B68B3F1804F04D10120012101F064
:1046A00059F86EE07B68394A934204D10220012117
:1046B00001F050F865E07B68354A934204D104204C
:1046C000012101F047F85CE07B68324A934204D153
:1046D0000820012101F03EF853E07B682E4A934206
:1046E00004D11020012101F035F84AE07B682B4A03
:1046F000934204D12020012101F02CF841E07B6895
:10470000274A934204D10220012101F041F838E008
:104710007B68244A934205D14FF48030012101F097
:1047200037F82EE07B68204A934205D14FF40030E1
:10473000012101F02DF824E07B681C4A934205D149
:104740004FF48020012101F023F81AE07B68184A19
:10475000934204D14020012100F0FCFF11E07B686E
:10476000144A934204D18020012100F0F3FF08E0B5
:104770007B68114A934204D14FF48070012100F00C
:10478000E9FF0837BD4680BD00000140000400403D
:1047900000080040000C00400010004000140040E1
:1047A0000004014000400140004401400048014035
:1047B00000180040001C00400020004090B58BB065
:1047C00000AF07F1080484E8030011461A460B46BF
:1047D000FB801346BB80BB8F3B84FB88BB82BB88BE
:1047E000FB823B8FFB61BB681A4A934203D0BB68D4
:1047F000194A934207D100237B840023BB84002302
:10480000FB8400233B833B7B1A46144B53F8223036
:10481000B96807F114020846114698473B7B1A46CF
:104820000F4B53F82230BA68104608219847BB68EE
:104830001846012101F038FBBB681846012101F040
:1048400075F8BB681846012101F090F82C37BD4679
:1048500090BD00BF0000014000040140647B0008DF
:10486000747B000880B586B000AF78600B467B8013
:10487000786803210022002301F03CFB7B887868E4
:10488000194601F02BF87868012101F06FF818370C
:10489000BD4680BD80B582B000AF786039607B686E
:1048A000012B18D13B684FF6FF72934213D10B488E
:1048B0000B490022FEF74CF90A4809490122FEF78C
:1048C00047F9094806490222FEF742F90748044918
:1048D0000322FEF73DF90837BD4680BD4089002020
:1048E0000008004048890020508900205889002095
:1048F00080B500AF01204FF6FF71FFF7CBFF80BD01
:1049000080B485B000AF78600023FB730023BB73D5
:104910000F237B737B68DB78002B38D0264BDB685A
:10492000DB4303F4E0631B0AFB73FB7BC3F104036B
:10493000BB737A7BFB7B42FA03F37B737B685B7808
:104940001A46BB7B02FA03F3FB737B689A787B7B86
:104950001340DAB2FB7B1343FB73FB7B1B01FB733E
:10496000164A7B681B781344FA7B83F80023134AAA
:104970007B681B785B09DBB218467B681B7803F009
:104980001F03012101FA03F342F820300FE00B4925
:104990007B681B785B09DBB218467B681B7803F0E9
:1049A0001F0301229A4000F1200341F8232014370D
:1049B000BD465DF8047B704700ED00E000E100E0DB
:1049C00080B582B000AF78607B680D4A93420AD10F
:1049D0004FF00070012100F0F9FE4FF0007000214F
:1049E00000F0F4FE09E04FF08060012100F0EEFEDF
:1049F0004FF08060002100F0E9FE0837BD4680BD21
:104A00000064004080B485B000AF78603960002356
:104A1000FB730023BB607B681B6823F002027B688A
:104A20001A607B681B6843F001027B681A6002E031
:104A3000BB680133BB607B685B6803F00103002B3C
:104A400004D1BB684FF6FF729342F1D17B685B687B
:104A500003F00103002B02D10023FB739CE03B68B1
:104A60009B79012B06D17B681B6843F080027B6831
:104A70001A6005E07B681B6823F080027B681A607F
:104A80003B68DB79012B06D17B681B6843F0400251
:104A90007B681A6005E07B681B6823F040027B6836
:104AA0001A603B681B7A012B06D17B681B6843F0B8
:104AB00020027B681A6005E07B681B6823F02002F7
:104AC0007B681A603B685B7A012B06D17B681B68A8
:104AD00043F010027B681A6005E07B681B6823F0D6
:104AE00010027B681A603B689B7A012B06D17B68B9
:104AF0001B6843F008027B681A6005E07B681B684E
:104B000023F008027B681A603B68DB7A012B06D130
:104B10007B681B6843F004027B681A6005E07B68D1
:104B20001B6823F004027B681A603B689B789A0735
:104B30003B68DB781B061A433B681B791B041A434E
:104B40003B685B791B051A433B681B88013B1A4392
:104B50007B68DA617B681B6823F001027B681A605E
:104B60000023BB6002E0BB680133BB607B685B680D
:104B700003F00103002B04D0BB684FF6FF72934291
:104B8000F1D17B685B6803F00103002B02D00023A6
:104B9000FB7301E00123FB73FB7B18461437BD4612
:104BA0005DF8047B704700BF80B485B000AF7860CB
:104BB0000023FB607B689B7A1A4601239340FB60CD
:104BC000554A554BD3F8003243F00103C2F8003286
:104BD0005149514BD3F81C22FB68DB431340C1F809
:104BE0001C327B681B7B002B25D14B494A4BD3F8E9
:104BF0000C22FB68DB431340C1F80C3246497B684A
:104C00009B7A18467B68DB881B047A6852881A43B3
:104C100000F1480341F833203F497B689B7A1846EE
:104C20007B689B881B047A6812881A4300F148034A
:104C3000DB000B445A607B681B7B012B24D1364977
:104C4000354BD3F80C22FB681343C1F80C323249C0
:104C50007B689B7A18467B681B881B047A6852889D
:104C60001A4300F1480341F833202B497B689B7AB3
:104C700018467B689B881B047A68D2881A4300F127
:104C80004803DB000B445A607B68DB7A002B09D1B8
:104C90002149214BD3F80422FB68DB431340C1F8C0
:104CA000043207E01C491C4BD3F80422FB68134371
:104CB000C1F804327B681B89002B08D11649164BBA
:104CC000D3F81422FB68DB431340C1F814327B682D
:104CD0001B89012B07D110490F4BD3F81422FB6815
:104CE0001343C1F814327B685B7B012B07D10A495F
:104CF000094BD3F81C22FB681343C1F81C32064A47
:104D0000054BD3F8003223F00103C2F80032143708
:104D1000BD465DF8047B70470064004080B483B0FA
:104D200000AF78607B6800229A717B680022DA719C
:104D30007B6800221A727B6800225A727B6800220C
:104D40009A727B680022DA727B6800229A707B6814
:104D50000022DA707B6803221A717B6802225A7182
:104D60007B6801221A800C37BD465DF8047B7047D2
:104D700080B485B000AF786039600023FB737B6836
:104D80009B6803F08063002B02D00023FB7313E0C9
:104D90007B689B6803F00063002B02D00123FB7348
:104DA0000AE07B689B6803F08053002B02D002234B
:104DB000FB7301E00423FB73FB7B042B00F0988062
:104DC000FB7BFA7B7968183212010A44126802F000
:104DD0000102796818331B010B441A603B681B7A87
:104DE000002B13D1FB7BFA7B7968183212010A443D
:104DF00011683A68126852053868407A02430A43DB
:104E0000796818331B010B441A6015E0FB7BFA7BB1
:104E10007968183212010A4411683A685268D2005F
:104E20003868007A02433868407A02430A43796856
:104E300018331B010B441A603B689B7A03F00F0385
:104E4000DAB23B689A72FB7BFA7B796818321201FE
:104E50000A44526822F00F02796818331B010B4490
:104E60005A60FB7BFA7B7968183212010A44526857
:104E70003968897A0A43796818331B010B445A60F0
:104E8000FB7B3A68927B11063A68527B120411430D
:104E90003A68127B12020A433968C97A0A43796870
:104EA0001B010B4403F5C4731A60FB7B3A68927CC8
:104EB00011063A68527C120411433A68127C1202BD
:104EC0000A433968C97B0A4379681B010B4403F51F
:104ED000C4735A60FB7BFA7B7968183212010A446A
:104EE000126842F00102796818331B010B441A6002
:104EF000FB7B18461437BD465DF8047B704700BF46
:104F000080B485B000AFF8600B467A60FB72FB7A24
:104F1000FA681B331B0113441B68DBB203F0040364
:104F2000DAB27B681A727B681B7A002B09D1FB7A94
:104F3000FA681B331B0113441B685A0D7B681A6007
:104F400008E0FB7AFA681B331B0113441B68DA087C
:104F50007B685A60FB7AFA681B331B0113441B6899
:104F6000DBB203F00203DAB27B685A72FB7AFA68AA
:104F70001B331B0113445B68DBB203F00F03DAB28F
:104F80007B689A72FB7AFA681B331B0113445B68D7
:104F90001B0ADAB27B68DA74FB7AFA681B011344E5
:104FA00003F5DC731B68DAB27B68DA72FB7AFA68A5
:104FB0001B01134403F5DC731B681B0ADAB27B6820
:104FC0001A73FB7AFA681B01134403F5DC731B6840
:104FD0001B0CDAB27B685A73FB7AFA681B01134424
:104FE00003F5DC731B681B0EDAB27B689A73FB7ADD
:104FF000FA681B01134403F5DC735B68DAB27B6863
:10500000DA73FB7AFA681B01134403F5DC735B68FF
:105010001B0ADAB27B681A74FB7AFA681B01134424
:1050200003F5DC735B681B0CDAB27B685A74FB7A9D
:10503000FA681B01134403F5DC735B681B0EDAB2DC
:105040007B689A74FB7A002B06D1FB68DB6843F01F
:105050002002FB68DA6005E0FB681B6943F0200270
:10506000FB681A611437BD465DF8047B704700BFCA
:1050700080B485B000AFF860B9601346FB71FB796E
:10508000002B06D0FB685A69BB681A43FB685A615B
:1050900006E0FB685A69BB68DB431A40FB685A614B
:1050A0001437BD465DF8047B704700BF80B584B0FF
:1050B00000AF786039600023FB737B685A693B68F6
:1050C0001340002B00F0B2803B68402B62D0402B95
:1050D0000FD8042B3AD0042B04D8012B24D0022B58
:1050E0002BD09FE0102B43D0202B4AD0082B36D05A
:1050F00098E0B3F5006F00F08380B3F5006F09D836
:10510000B3F5007F6AD0B3F5806F70D0B3F5807FC0
:105110005BD087E0B3F5803F45D0B3F5003F4BD07F
:10512000B3F5004F75D07DE07B689B681846434916
:1051300000F0F4F80346FB7377E07B68DB68184601
:10514000032100F0EBF80346FB736EE07B68DB683D
:105150001846082100F0E2F80346FB7365E07B681F
:10516000DB681846102100F0D9F80346FB735CE0B9
:105170007B681B691846032100F0D0F80346FB73D7
:1051800053E07B681B691846082100F0C7F8034606
:10519000FB734AE07B681B691846102100F0BEF8DB
:1051A0000346FB7341E07B685B681846082100F00A
:1051B000B5F80346FB7338E07B685B68184610213E
:1051C00000F0ACF80346FB732FE07B689B69184640
:1051D000012100F0A3F80346FB7326E07B689B697E
:1051E0001846022100F09AF80346FB731DE07B6825
:1051F0009B691846042100F091F80346FB7314E004
:105200007B689B691846702100F088F80346FB73A1
:105210000BE07B685B681846042100F07FF80346CA
:10522000FB7302E00023FB7300BF01E00023FB736C
:10523000FB7B18461037BD4680BD00BF0101010051
:1052400080B483B000AF786039603B68B3F5807F8D
:1052500043D0B3F5807F0DD8082B2AD0082B04D873
:10526000012B1ED0042B20D051E0202B25D0402B29
:1052700027D04CE0B3F5006F3BD0B3F5006F06D8F4
:10528000B3F5007F2DD0B3F5806F2ED03FE0B3F59E
:10529000803F1AD0B3F5003F1BD0B3F5004F2FD09D
:1052A00035E07B681C4A9A6031E07B680822DA604E
:1052B0002DE07B681022DA6029E07B6808221A6101
:1052C00025E07B6810221A6121E07B6808225A6081
:1052D0001DE07B6810225A6019E07B6804225A6046
:1052E00015E07B6804225A6011E07B6804225A6052
:1052F0000DE07B6800229A617B6804225A6006E018
:105300007B6800229A617B6804225A6000BF0C37D8
:10531000BD465DF8047B70470101010080B485B093
:1053200000AF786039600023FB737A683B681340F4
:10533000002B02D00123FB7301E00023FB73FB7BF6
:1053400018461437BD465DF8047B704780B483B0BF
:1053500000AF78600B46FB70FB78002B06D07B68B3
:105360001B6843F001027B681A6005E07B681B68DC
:1053700023F001027B681A600C37BD465DF8047BA0
:10538000704700BF80B487B000AF786039600023F9
:10539000FB750023FB600023BB607B68224A9342BD
:1053A00002D8224B3B6101E0214B3B613B6823F07B
:1053B000F02323F0C313002B0AD03B68DB0A03F071
:1053C0001E03FB607B681A68FB681340BB6004E047
:1053D0007B685B6903F08003BB603B6803F00053AC
:1053E000002B03D03B695B68FB6002E03B691B68F4
:1053F000FB60FB6823F0F02323F08213FB60FA6864
:105400003B681340002B05D0BB68002B02D0012362
:10541000FB7501E00023FB75FB7D18461C37BD467C
:105420005DF8047B704700BF0F64024000600240DB
:105430000064024080B485B000AF786039607B685A
:10544000104A934202D8104BFB6001E00F4BFB6007
:105450003B6803F00053002B07D03B6823F0F02398
:1054600023F08213FA68D36006E03B6823F0F02350
:1054700023F08213FA6893601437BD465DF8047B0D
:10548000704700BF0F6402400060024000640240A9
:1054900080B487B000AF7860396000237B6100235F
:1054A0003B610023FB6000237B6176E07B69012286
:1054B00002FA03F33B613B681A683B691340FB60E7
:1054C000FA683B699A4265D17B681A687B695B0020
:1054D000194603238B40DB431A407B681A607B68C4
:1054E0001A683B681B7919467B695B0001FA03F374
:1054F0001A437B681A603B681B79012B03D03B6819
:105500001B79022B2ED17B689A687B695B00194658
:1055100003238B40DB431A407B689A607B689A6860
:105520003B685B7919467B695B0001FA03F31A4318
:105530007B689A607B685A687B699BB21946012335
:105540008B40DB431A407B685A607B685B683A6833
:10555000927911467A6992B201FA02F292B21A4332
:105560007B685A607B68DA687B699BB25B000321C9
:1055700001FA03F3DB431A407B68DA607B68DA6880
:105580003B68DB7919467B695B0001FA03F31A4338
:105590007B68DA607B6901337B617B690F2B85D97E
:1055A0001C37BD465DF8047B704700BF80B485B0F2
:1055B00000AF78600B467B800023FB737B685A69E1
:1055C0007B881340002B02D00123FB7301E00023F2
:1055D000FB73FB7B18461437BD465DF8047B7047B0
:1055E00080B483B000AF78600B467B8013467B703D
:1055F0007B78002B03D07B687A881A8302E07B6873
:105600007A885A830C37BD465DF8047B704700BF2B
:1056100080B485B000AF78600B467B8013467B700A
:105620000023FB600023BB607B787A8802F00702CE
:1056300092009340FB607B88DB089BB218467B8816
:10564000DB089BB21A467B68083253F822207B881D
:1056500003F007039B0019460F238B40DB4302EA4C
:1056600003017B6800F1080243F822107B88DB0805
:105670009BB21A467B68083253F82220FB6813431A
:10568000BB607B88DB089BB21A467B680832B9682E
:1056900043F822101437BD465DF8047B704700BF05
:1056A00080B483B000AF0346FB80044AFB881360DC
:1056B0000C37BD465DF8047B704700BF00300040EA
:1056C00080B483B000AF0346FB71044AFB7953609A
:1056D0000C37BD465DF8047B704700BF00300040CA
:1056E00080B483B000AF0346FB80044AFB8893601C
:1056F0000C37BD465DF8047B704700BF00300040AA
:1057000080B400AF034B4AF6AA221A60BD465DF88A
:10571000047B70470030004080B483B000AF7860F5
:105720000B46FB70FB78002B06D00949084B1A6B1F
:105730007B6813430B6306E00549054B1A6B7B68D6
:10574000DB4313400B630C37BD465DF8047B7047A9
:105750000038024080B483B000AF78600B46FB7025
:10576000FB78002B06D00949084B1A6C7B68134361
:105770000B6406E00549054B1A6C7B68DB4313405C
:105780000B640C37BD465DF8047B7047003802405F
:1057900080B483B000AF78600B46FB70FB78002BC1
:1057A00006D00949084B5A6C7B6813434B6406E0EA
:1057B0000549054B5A6C7B68DB4313404B640C373F
:1057C000BD465DF8047B70470038024080B483B06A
:1057D00000AF78600B46FB70FB78002B06D00949C0
:1057E000084B1A6A7B6813430B6206E00549054BB8
:1057F0001A6A7B68DB4313400B620C37BD465DF8C9
:10580000047B70470038024080B485B000AF7860F8
:1058100039600023FB817B681B88FB817B68284AF9
:10582000934213D07B68274A93420FD07B68B3F131
:10583000804F0BD07B68244A934207D07B68234A71
:10584000934203D07B68224A934208D1FB8923F01C
:105850007003FB813B685A88FB891343FB817B689B
:105860001C4A93420CD07B681B4A934208D0FB89A8
:1058700023F44073FB813B681A89FB891343FB8146
:105880007B68FA891A803B685A687B68DA623B68F1
:105890001A887B681A857B68094A934203D07B6823
:1058A000084A934204D13B689B7A9AB27B681A8675
:1058B0007B6801229A821437BD465DF8047B7047ED
:1058C00000000140000401400004004000080040C6
:1058D000000C0040001000400014004080B483B071
:1058E00000AF786039607B683A685A620C37BD4611
:1058F0005DF8047B704700BF80B483B000AF786070
:1059000039607B683A68DA620C37BD465DF8047B23
:10591000704700BF80B483B000AF78607B685B6A7B
:1059200018460C37BD465DF8047B704780B483B0E1
:1059300000AF78600B46FB70FB78002B08D07B68CB
:105940001B889BB243F080039AB27B681A8007E001
:105950007B681B889BB223F080039AB27B681A8015
:105960000C37BD465DF8047B704700BF80B483B040
:1059700000AF78600B46FB70FB78002B08D07B688B
:105980001B889BB243F001039AB27B681A8007E040
:105990007B681B889BB223F001039AB27B681A8054
:1059A0000C37BD465DF8047B704700BF80B485B0FE
:1059B00000AF7860396000237B810023FB810023E6
:1059C000BB817B681B8C9BB223F001039AB27B687E
:1059D0001A847B681B8CFB817B689B88BB817B68FE
:1059E0001B8B7B817B8923F070037B817B8923F078
:1059F00003037B813B681A887B8913437B81FB8986
:105A000023F00203FB813B689A89FB891343FB81E6
:105A10003B685A88FB891343FB817B681E4A93428B
:105A200003D07B681D4A934223D1FB8923F00803EE
:105A3000FB813B68DA89FB891343FB81FB8923F0F7
:105A40000403FB813B689A88FB891343FB81BB8974
:105A500023F48073BB81BB8923F40073BB813B6853
:105A60001A8ABB891343BB813B685A8ABB8913439B
:105A7000BB817B68BA899A807B687A891A833B6884
:105A80009A687B685A637B68FA891A841437BD4622
:105A90005DF8047B704700BF000001400004014036
:105AA00080B485B000AF7860396000237B8100232B
:105AB000FB810023BB817B681B8C9BB223F010030E
:105AC0009AB27B681A847B681B8CFB817B689B88FD
:105AD000BB817B681B8B7B817B8923F4E0437B81CB
:105AE0007B8923F440737B813B681B881B029AB23D
